{
	"Buy_ERupee.sol": {
		"buy_ERupee": {
			"abi": [
				{
					"inputs": [],
					"stateMutability": "nonpayable",
					"type": "constructor"
				},
				{
					"inputs": [],
					"name": "_10RupeeCount",
					"outputs": [
						{
							"internalType": "uint256",
							"name": "",
							"type": "uint256"
						}
					],
					"stateMutability": "view",
					"type": "function"
				},
				{
					"inputs": [],
					"name": "_20RupeeCount",
					"outputs": [
						{
							"internalType": "uint256",
							"name": "",
							"type": "uint256"
						}
					],
					"stateMutability": "view",
					"type": "function"
				},
				{
					"inputs": [],
					"name": "_5RupeeCount",
					"outputs": [
						{
							"internalType": "uint256",
							"name": "",
							"type": "uint256"
						}
					],
					"stateMutability": "view",
					"type": "function"
				},
				{
					"inputs": [],
					"name": "_num",
					"outputs": [
						{
							"internalType": "uint256",
							"name": "",
							"type": "uint256"
						}
					],
					"stateMutability": "view",
					"type": "function"
				},
				{
					"inputs": [
						{
							"internalType": "uint256",
							"name": "",
							"type": "uint256"
						}
					],
					"name": "_rupeeContractList",
					"outputs": [
						{
							"internalType": "address",
							"name": "",
							"type": "address"
						}
					],
					"stateMutability": "view",
					"type": "function"
				},
				{
					"inputs": [
						{
							"internalType": "address",
							"name": "_blackListAddr",
							"type": "address"
						}
					],
					"name": "blackList",
					"outputs": [],
					"stateMutability": "nonpayable",
					"type": "function"
				},
				{
					"inputs": [
						{
							"internalType": "uint256",
							"name": "_amount",
							"type": "uint256"
						}
					],
					"name": "buy_With_note_denominations",
					"outputs": [],
					"stateMutability": "nonpayable",
					"type": "function"
				},
				{
					"inputs": [],
					"name": "fifty_Rupee_contract",
					"outputs": [
						{
							"internalType": "address",
							"name": "",
							"type": "address"
						}
					],
					"stateMutability": "view",
					"type": "function"
				},
				{
					"inputs": [],
					"name": "five_Rupee_contract",
					"outputs": [
						{
							"internalType": "address",
							"name": "",
							"type": "address"
						}
					],
					"stateMutability": "view",
					"type": "function"
				},
				{
					"inputs": [],
					"name": "five_hundred_Rupee_contract",
					"outputs": [
						{
							"internalType": "address",
							"name": "",
							"type": "address"
						}
					],
					"stateMutability": "view",
					"type": "function"
				},
				{
					"inputs": [
						{
							"internalType": "address",
							"name": "_user",
							"type": "address"
						}
					],
					"name": "getUserFundAmt",
					"outputs": [
						{
							"internalType": "uint256",
							"name": "",
							"type": "uint256"
						}
					],
					"stateMutability": "view",
					"type": "function"
				},
				{
					"inputs": [
						{
							"internalType": "address",
							"name": "",
							"type": "address"
						}
					],
					"name": "isBlackListedMapping",
					"outputs": [
						{
							"internalType": "bool",
							"name": "",
							"type": "bool"
						}
					],
					"stateMutability": "view",
					"type": "function"
				},
				{
					"inputs": [
						{
							"internalType": "uint256",
							"name": "_num1",
							"type": "uint256"
						},
						{
							"internalType": "uint256",
							"name": "_division",
							"type": "uint256"
						}
					],
					"name": "noteCalculation",
					"outputs": [
						{
							"internalType": "uint256",
							"name": "",
							"type": "uint256"
						},
						{
							"internalType": "uint256",
							"name": "",
							"type": "uint256"
						}
					],
					"stateMutability": "nonpayable",
					"type": "function"
				},
				{
					"inputs": [],
					"name": "one_Rupee_contract",
					"outputs": [
						{
							"internalType": "address",
							"name": "",
							"type": "address"
						}
					],
					"stateMutability": "view",
					"type": "function"
				},
				{
					"inputs": [],
					"name": "one_hundred_Rupee_contract",
					"outputs": [
						{
							"internalType": "address",
							"name": "",
							"type": "address"
						}
					],
					"stateMutability": "view",
					"type": "function"
				},
				{
					"inputs": [],
					"name": "rupee_contract_ERC20",
					"outputs": [
						{
							"internalType": "address",
							"name": "",
							"type": "address"
						}
					],
					"stateMutability": "view",
					"type": "function"
				},
				{
					"inputs": [],
					"name": "setContracts",
					"outputs": [
						{
							"internalType": "bool",
							"name": "",
							"type": "bool"
						}
					],
					"stateMutability": "nonpayable",
					"type": "function"
				},
				{
					"inputs": [],
					"name": "ten_Rupee_contract",
					"outputs": [
						{
							"internalType": "address",
							"name": "",
							"type": "address"
						}
					],
					"stateMutability": "view",
					"type": "function"
				},
				{
					"inputs": [
						{
							"internalType": "uint256",
							"name": "_amount",
							"type": "uint256"
						},
						{
							"internalType": "address",
							"name": "_to",
							"type": "address"
						}
					],
					"name": "transferAmount",
					"outputs": [
						{
							"internalType": "uint256",
							"name": "",
							"type": "uint256"
						}
					],
					"stateMutability": "nonpayable",
					"type": "function"
				},
				{
					"inputs": [],
					"name": "twenty_Rupee_contract",
					"outputs": [
						{
							"internalType": "address",
							"name": "",
							"type": "address"
						}
					],
					"stateMutability": "view",
					"type": "function"
				},
				{
					"inputs": [],
					"name": "two_Rupee_contract",
					"outputs": [
						{
							"internalType": "address",
							"name": "",
							"type": "address"
						}
					],
					"stateMutability": "view",
					"type": "function"
				},
				{
					"inputs": [],
					"name": "two_hundred_Rupee_contract",
					"outputs": [
						{
							"internalType": "address",
							"name": "",
							"type": "address"
						}
					],
					"stateMutability": "view",
					"type": "function"
				},
				{
					"inputs": [
						{
							"internalType": "address",
							"name": "",
							"type": "address"
						}
					],
					"name": "userFundsMapping",
					"outputs": [
						{
							"internalType": "uint256",
							"name": "",
							"type": "uint256"
						}
					],
					"stateMutability": "view",
					"type": "function"
				}
			],
			"devdoc": {
				"kind": "dev",
				"methods": {},
				"version": 1
			},
			"evm": {
				"assembly": "    /* \"Buy_ERupee.sol\":376:8919  contract buy_ERupee {... */\n  mstore(0x40, 0xa0)\n    /* \"Buy_ERupee.sol\":927:928  0 */\n  0x00\n    /* \"Buy_ERupee.sol\":897:928  uint256 public _5RupeeCount = 0 */\n  0x13\n  sstore\n    /* \"Buy_ERupee.sol\":1142:1206  uint256[] denominationArr = [500, 200, 100, 50, 20, 10, 5, 2, 1] */\n  mload(0x40)\n  dup1\n  0x0120\n  add\n  0x40\n  mstore\n  dup1\n    /* \"Buy_ERupee.sol\":1171:1174  500 */\n  0x01f4\n    /* \"Buy_ERupee.sol\":1142:1206  uint256[] denominationArr = [500, 200, 100, 50, 20, 10, 5, 2, 1] */\n  0xffff\n  and\n  dup2\n  mstore\n  0x20\n  add\n    /* \"Buy_ERupee.sol\":1176:1179  200 */\n  0xc8\n    /* \"Buy_ERupee.sol\":1142:1206  uint256[] denominationArr = [500, 200, 100, 50, 20, 10, 5, 2, 1] */\n  0xffff\n  and\n  dup2\n  mstore\n  0x20\n  add\n    /* \"Buy_ERupee.sol\":1181:1184  100 */\n  0x64\n    /* \"Buy_ERupee.sol\":1142:1206  uint256[] denominationArr = [500, 200, 100, 50, 20, 10, 5, 2, 1] */\n  0xffff\n  and\n  dup2\n  mstore\n  0x20\n  add\n    /* \"Buy_ERupee.sol\":1186:1188  50 */\n  0x32\n    /* \"Buy_ERupee.sol\":1142:1206  uint256[] denominationArr = [500, 200, 100, 50, 20, 10, 5, 2, 1] */\n  0xffff\n  and\n  dup2\n  mstore\n  0x20\n  add\n    /* \"Buy_ERupee.sol\":1190:1192  20 */\n  0x14\n    /* \"Buy_ERupee.sol\":1142:1206  uint256[] denominationArr = [500, 200, 100, 50, 20, 10, 5, 2, 1] */\n  0xffff\n  and\n  dup2\n  mstore\n  0x20\n  add\n    /* \"Buy_ERupee.sol\":1194:1196  10 */\n  0x0a\n    /* \"Buy_ERupee.sol\":1142:1206  uint256[] denominationArr = [500, 200, 100, 50, 20, 10, 5, 2, 1] */\n  0xffff\n  and\n  dup2\n  mstore\n  0x20\n  add\n    /* \"Buy_ERupee.sol\":1198:1199  5 */\n  0x05\n    /* \"Buy_ERupee.sol\":1142:1206  uint256[] denominationArr = [500, 200, 100, 50, 20, 10, 5, 2, 1] */\n  0xffff\n  and\n  dup2\n  mstore\n  0x20\n  add\n    /* \"Buy_ERupee.sol\":1201:1202  2 */\n  0x02\n    /* \"Buy_ERupee.sol\":1142:1206  uint256[] denominationArr = [500, 200, 100, 50, 20, 10, 5, 2, 1] */\n  0xffff\n  and\n  dup2\n  mstore\n  0x20\n  add\n    /* \"Buy_ERupee.sol\":1204:1205  1 */\n  0x01\n    /* \"Buy_ERupee.sol\":1142:1206  uint256[] denominationArr = [500, 200, 100, 50, 20, 10, 5, 2, 1] */\n  0xffff\n  and\n  dup2\n  mstore\n  pop\n  0x19\n  swap1\n  0x09\n  tag_1\n  swap3\n  swap2\n  swap1\n  tag_2\n  jump\t// in\ntag_1:\n  pop\n    /* \"Buy_ERupee.sol\":1213:1263  constructor() {... */\n  callvalue\n  dup1\n  iszero\n  tag_3\n  jumpi\n  0x00\n  dup1\n  revert\ntag_3:\n  pop\n    /* \"Buy_ERupee.sol\":1246:1256  msg.sender */\n  caller\n    /* \"Buy_ERupee.sol\":1237:1256  _owner = msg.sender */\n  0xffffffffffffffffffffffffffffffffffffffff\n  and\n  0x80\n  dup2\n  0xffffffffffffffffffffffffffffffffffffffff\n  and\n  dup2\n  mstore\n  pop\n  pop\n    /* \"Buy_ERupee.sol\":376:8919  contract buy_ERupee {... */\n  jump(tag_6)\ntag_2:\n  dup3\n  dup1\n  sload\n  dup3\n  dup3\n  sstore\n  swap1\n  0x00\n  mstore\n  keccak256(0x00, 0x20)\n  swap1\n  dup2\n  add\n  swap3\n  dup3\n  iszero\n  tag_7\n  jumpi\n  swap2\n  0x20\n  mul\n  dup3\n  add\ntag_8:\n  dup3\n  dup2\n  gt\n  iszero\n  tag_9\n  jumpi\n  dup3\n  mload\n  dup3\n  swap1\n  0xffff\n  and\n  swap1\n  sstore\n  swap2\n  0x20\n  add\n  swap2\n  swap1\n  0x01\n  add\n  swap1\n  jump(tag_8)\ntag_9:\ntag_7:\n  pop\n  swap1\n  pop\n  tag_10\n  swap2\n  swap1\n  tag_11\n  jump\t// in\ntag_10:\n  pop\n  swap1\n  jump\t// out\ntag_11:\ntag_12:\n  dup1\n  dup3\n  gt\n  iszero\n  tag_13\n  jumpi\n  0x00\n  dup2\n  0x00\n  swap1\n  sstore\n  pop\n  0x01\n  add\n  jump(tag_12)\ntag_13:\n  pop\n  swap1\n  jump\t// out\ntag_6:\n  mload(0x80)\n  codecopy(0x00, dataOffset(sub_0), dataSize(sub_0))\n  0x00\n  assignImmutable(\"0xe41a685dc3df81383d452481451b89eb3f69781b836c19936fa9714a13d1c9c2\")\n  return(0x00, dataSize(sub_0))\nstop\n\nsub_0: assembly {\n        /* \"Buy_ERupee.sol\":376:8919  contract buy_ERupee {... */\n      mstore(0x40, 0x80)\n      callvalue\n      dup1\n      iszero\n      tag_1\n      jumpi\n      0x00\n      dup1\n      revert\n    tag_1:\n      pop\n      jumpi(tag_2, lt(calldatasize, 0x04))\n      shr(0xe0, calldataload(0x00))\n      dup1\n      0xb150019a\n      gt\n      tag_26\n      jumpi\n      dup1\n      0xe84530fb\n      gt\n      tag_27\n      jumpi\n      dup1\n      0xe84530fb\n      eq\n      tag_20\n      jumpi\n      dup1\n      0xeb4f81f3\n      eq\n      tag_21\n      jumpi\n      dup1\n      0xf0483d73\n      eq\n      tag_22\n      jumpi\n      dup1\n      0xf5091598\n      eq\n      tag_23\n      jumpi\n      dup1\n      0xfa137b2a\n      eq\n      tag_24\n      jumpi\n      dup1\n      0xfc07dbb8\n      eq\n      tag_25\n      jumpi\n      jump(tag_2)\n    tag_27:\n      dup1\n      0xb150019a\n      eq\n      tag_14\n      jumpi\n      dup1\n      0xcca79636\n      eq\n      tag_15\n      jumpi\n      dup1\n      0xd26813d3\n      eq\n      tag_16\n      jumpi\n      dup1\n      0xd68cfc14\n      eq\n      tag_17\n      jumpi\n      dup1\n      0xdd188dc3\n      eq\n      tag_18\n      jumpi\n      dup1\n      0xe0d6d530\n      eq\n      tag_19\n      jumpi\n      jump(tag_2)\n    tag_26:\n      dup1\n      0x588a2c09\n      gt\n      tag_28\n      jumpi\n      dup1\n      0x588a2c09\n      eq\n      tag_8\n      jumpi\n      dup1\n      0x600fa18e\n      eq\n      tag_9\n      jumpi\n      dup1\n      0x6affb729\n      eq\n      tag_10\n      jumpi\n      dup1\n      0x70cd47df\n      eq\n      tag_11\n      jumpi\n      dup1\n      0x9a5b9d62\n      eq\n      tag_12\n      jumpi\n      dup1\n      0xa805588e\n      eq\n      tag_13\n      jumpi\n      jump(tag_2)\n    tag_28:\n      dup1\n      0x26541b4a\n      eq\n      tag_3\n      jumpi\n      dup1\n      0x3ef0116d\n      eq\n      tag_4\n      jumpi\n      dup1\n      0x43d6a6a2\n      eq\n      tag_5\n      jumpi\n      dup1\n      0x4838d165\n      eq\n      tag_6\n      jumpi\n      dup1\n      0x4ca9deb9\n      eq\n      tag_7\n      jumpi\n    tag_2:\n      0x00\n      dup1\n      revert\n        /* \"Buy_ERupee.sol\":1084:1136  mapping(address => bool) public isBlackListedMapping */\n    tag_3:\n      tag_29\n      0x04\n      dup1\n      calldatasize\n      sub\n      dup2\n      add\n      swap1\n      tag_30\n      swap2\n      swap1\n      tag_31\n      jump\t// in\n    tag_30:\n      tag_32\n      jump\t// in\n    tag_29:\n      mload(0x40)\n      tag_33\n      swap2\n      swap1\n      tag_34\n      jump\t// in\n    tag_33:\n      mload(0x40)\n      dup1\n      swap2\n      sub\n      swap1\n      return\n        /* \"Buy_ERupee.sol\":510:544  address public five_Rupee_contract */\n    tag_4:\n      tag_35\n      tag_36\n      jump\t// in\n    tag_35:\n      mload(0x40)\n      tag_37\n      swap2\n      swap1\n      tag_38\n      jump\t// in\n    tag_37:\n      mload(0x40)\n      dup1\n      swap2\n      sub\n      swap1\n      return\n        /* \"Buy_ERupee.sol\":3119:3231  function getUserFundAmt(address _user) public view returns(uint) {... */\n    tag_5:\n      tag_39\n      0x04\n      dup1\n      calldatasize\n      sub\n      dup2\n      add\n      swap1\n      tag_40\n      swap2\n      swap1\n      tag_31\n      jump\t// in\n    tag_40:\n      tag_41\n      jump\t// in\n    tag_39:\n      mload(0x40)\n      tag_42\n      swap2\n      swap1\n      tag_43\n      jump\t// in\n    tag_42:\n      mload(0x40)\n      dup1\n      swap2\n      sub\n      swap1\n      return\n        /* \"Buy_ERupee.sol\":3237:3357  function blackList(address _blackListAddr) public onlyOwner {... */\n    tag_6:\n      tag_44\n      0x04\n      dup1\n      calldatasize\n      sub\n      dup2\n      add\n      swap1\n      tag_45\n      swap2\n      swap1\n      tag_31\n      jump\t// in\n    tag_45:\n      tag_46\n      jump\t// in\n    tag_44:\n      stop\n        /* \"Buy_ERupee.sol\":4784:7388  function transferAmount(uint256 _amount, address _to)... */\n    tag_7:\n      tag_47\n      0x04\n      dup1\n      calldatasize\n      sub\n      dup2\n      add\n      swap1\n      tag_48\n      swap2\n      swap1\n      tag_49\n      jump\t// in\n    tag_48:\n      tag_50\n      jump\t// in\n    tag_47:\n      mload(0x40)\n      tag_51\n      swap2\n      swap1\n      tag_43\n      jump\t// in\n    tag_51:\n      mload(0x40)\n      dup1\n      swap2\n      sub\n      swap1\n      return\n        /* \"Buy_ERupee.sol\":631:666  address public fifty_Rupee_contract */\n    tag_8:\n      tag_52\n      tag_53\n      jump\t// in\n    tag_52:\n      mload(0x40)\n      tag_54\n      swap2\n      swap1\n      tag_38\n      jump\t// in\n    tag_54:\n      mload(0x40)\n      dup1\n      swap2\n      sub\n      swap1\n      return\n        /* \"Buy_ERupee.sol\":3363:3598  function noteCalculation(uint256 _num1, uint256 _division)... */\n    tag_9:\n      tag_55\n      0x04\n      dup1\n      calldatasize\n      sub\n      dup2\n      add\n      swap1\n      tag_56\n      swap2\n      swap1\n      tag_57\n      jump\t// in\n    tag_56:\n      tag_58\n      jump\t// in\n    tag_55:\n      mload(0x40)\n      tag_59\n      swap3\n      swap2\n      swap1\n      tag_60\n      jump\t// in\n    tag_59:\n      mload(0x40)\n      dup1\n      swap2\n      sub\n      swap1\n      return\n        /* \"Buy_ERupee.sol\":589:625  address public twenty_Rupee_contract */\n    tag_10:\n      tag_61\n      tag_62\n      jump\t// in\n    tag_61:\n      mload(0x40)\n      tag_63\n      swap2\n      swap1\n      tag_38\n      jump\t// in\n    tag_63:\n      mload(0x40)\n      dup1\n      swap2\n      sub\n      swap1\n      return\n        /* \"Buy_ERupee.sol\":471:504  address public two_Rupee_contract */\n    tag_11:\n      tag_64\n      tag_65\n      jump\t// in\n    tag_64:\n      mload(0x40)\n      tag_66\n      swap2\n      swap1\n      tag_38\n      jump\t// in\n    tag_66:\n      mload(0x40)\n      dup1\n      swap2\n      sub\n      swap1\n      return\n        /* \"Buy_ERupee.sol\":766:808  address public five_hundred_Rupee_contract */\n    tag_12:\n      tag_67\n      tag_68\n      jump\t// in\n    tag_67:\n      mload(0x40)\n      tag_69\n      swap2\n      swap1\n      tag_38\n      jump\t// in\n    tag_69:\n      mload(0x40)\n      dup1\n      swap2\n      sub\n      swap1\n      return\n        /* \"Buy_ERupee.sol\":897:928  uint256 public _5RupeeCount = 0 */\n    tag_13:\n      tag_70\n      tag_71\n      jump\t// in\n    tag_70:\n      mload(0x40)\n      tag_72\n      swap2\n      swap1\n      tag_43\n      jump\t// in\n    tag_72:\n      mload(0x40)\n      dup1\n      swap2\n      sub\n      swap1\n      return\n        /* \"Buy_ERupee.sol\":550:583  address public ten_Rupee_contract */\n    tag_14:\n      tag_73\n      tag_74\n      jump\t// in\n    tag_73:\n      mload(0x40)\n      tag_75\n      swap2\n      swap1\n      tag_38\n      jump\t// in\n    tag_75:\n      mload(0x40)\n      dup1\n      swap2\n      sub\n      swap1\n      return\n        /* \"Buy_ERupee.sol\":814:849  address public rupee_contract_ERC20 */\n    tag_15:\n      tag_76\n      tag_77\n      jump\t// in\n    tag_76:\n      mload(0x40)\n      tag_78\n      swap2\n      swap1\n      tag_38\n      jump\t// in\n    tag_78:\n      mload(0x40)\n      dup1\n      swap2\n      sub\n      swap1\n      return\n        /* \"Buy_ERupee.sol\":934:962  uint256 public _10RupeeCount */\n    tag_16:\n      tag_79\n      tag_80\n      jump\t// in\n    tag_79:\n      mload(0x40)\n      tag_81\n      swap2\n      swap1\n      tag_43\n      jump\t// in\n    tag_81:\n      mload(0x40)\n      dup1\n      swap2\n      sub\n      swap1\n      return\n        /* \"Buy_ERupee.sol\":1002:1021  uint256 public _num */\n    tag_17:\n      tag_82\n      tag_83\n      jump\t// in\n    tag_82:\n      mload(0x40)\n      tag_84\n      swap2\n      swap1\n      tag_43\n      jump\t// in\n    tag_84:\n      mload(0x40)\n      dup1\n      swap2\n      sub\n      swap1\n      return\n        /* \"Buy_ERupee.sol\":1027:1078  mapping(address => uint256) public userFundsMapping */\n    tag_18:\n      tag_85\n      0x04\n      dup1\n      calldatasize\n      sub\n      dup2\n      add\n      swap1\n      tag_86\n      swap2\n      swap1\n      tag_31\n      jump\t// in\n    tag_86:\n      tag_87\n      jump\t// in\n    tag_85:\n      mload(0x40)\n      tag_88\n      swap2\n      swap1\n      tag_43\n      jump\t// in\n    tag_88:\n      mload(0x40)\n      dup1\n      swap2\n      sub\n      swap1\n      return\n        /* \"Buy_ERupee.sol\":1571:3113  function setContracts() external onlyOwner returns (bool) {... */\n    tag_19:\n      tag_89\n      tag_90\n      jump\t// in\n    tag_89:\n      mload(0x40)\n      tag_91\n      swap2\n      swap1\n      tag_34\n      jump\t// in\n    tag_91:\n      mload(0x40)\n      dup1\n      swap2\n      sub\n      swap1\n      return\n        /* \"Buy_ERupee.sol\":968:996  uint256 public _20RupeeCount */\n    tag_20:\n      tag_92\n      tag_93\n      jump\t// in\n    tag_92:\n      mload(0x40)\n      tag_94\n      swap2\n      swap1\n      tag_43\n      jump\t// in\n    tag_94:\n      mload(0x40)\n      dup1\n      swap2\n      sub\n      swap1\n      return\n        /* \"Buy_ERupee.sol\":855:891  address[9] public _rupeeContractList */\n    tag_21:\n      tag_95\n      0x04\n      dup1\n      calldatasize\n      sub\n      dup2\n      add\n      swap1\n      tag_96\n      swap2\n      swap1\n      tag_97\n      jump\t// in\n    tag_96:\n      tag_98\n      jump\t// in\n    tag_95:\n      mload(0x40)\n      tag_99\n      swap2\n      swap1\n      tag_38\n      jump\t// in\n    tag_99:\n      mload(0x40)\n      dup1\n      swap2\n      sub\n      swap1\n      return\n        /* \"Buy_ERupee.sol\":672:713  address public one_hundred_Rupee_contract */\n    tag_22:\n      tag_100\n      tag_101\n      jump\t// in\n    tag_100:\n      mload(0x40)\n      tag_102\n      swap2\n      swap1\n      tag_38\n      jump\t// in\n    tag_102:\n      mload(0x40)\n      dup1\n      swap2\n      sub\n      swap1\n      return\n        /* \"Buy_ERupee.sol\":3604:4412  function buy_With_note_denominations(uint256 _amount) external {... */\n    tag_23:\n      tag_103\n      0x04\n      dup1\n      calldatasize\n      sub\n      dup2\n      add\n      swap1\n      tag_104\n      swap2\n      swap1\n      tag_97\n      jump\t// in\n    tag_104:\n      tag_105\n      jump\t// in\n    tag_103:\n      stop\n        /* \"Buy_ERupee.sol\":719:760  address public two_hundred_Rupee_contract */\n    tag_24:\n      tag_106\n      tag_107\n      jump\t// in\n    tag_106:\n      mload(0x40)\n      tag_108\n      swap2\n      swap1\n      tag_38\n      jump\t// in\n    tag_108:\n      mload(0x40)\n      dup1\n      swap2\n      sub\n      swap1\n      return\n        /* \"Buy_ERupee.sol\":432:465  address public one_Rupee_contract */\n    tag_25:\n      tag_109\n      tag_110\n      jump\t// in\n    tag_109:\n      mload(0x40)\n      tag_111\n      swap2\n      swap1\n      tag_38\n      jump\t// in\n    tag_111:\n      mload(0x40)\n      dup1\n      swap2\n      sub\n      swap1\n      return\n        /* \"Buy_ERupee.sol\":1084:1136  mapping(address => bool) public isBlackListedMapping */\n    tag_32:\n      mstore(0x20, 0x18)\n      dup1\n      0x00\n      mstore\n      keccak256(0x00, 0x40)\n      0x00\n      swap2\n      pop\n      sload\n      swap1\n      0x0100\n      exp\n      swap1\n      div\n      0xff\n      and\n      dup2\n      jump\t// out\n        /* \"Buy_ERupee.sol\":510:544  address public five_Rupee_contract */\n    tag_36:\n      0x02\n      0x00\n      swap1\n      sload\n      swap1\n      0x0100\n      exp\n      swap1\n      div\n      0xffffffffffffffffffffffffffffffffffffffff\n      and\n      dup2\n      jump\t// out\n        /* \"Buy_ERupee.sol\":3119:3231  function getUserFundAmt(address _user) public view returns(uint) {... */\n    tag_41:\n        /* \"Buy_ERupee.sol\":3178:3182  uint */\n      0x00\n        /* \"Buy_ERupee.sol\":3201:3217  userFundsMapping */\n      0x17\n        /* \"Buy_ERupee.sol\":3201:3224  userFundsMapping[_user] */\n      0x00\n        /* \"Buy_ERupee.sol\":3218:3223  _user */\n      dup4\n        /* \"Buy_ERupee.sol\":3201:3224  userFundsMapping[_user] */\n      0xffffffffffffffffffffffffffffffffffffffff\n      and\n      0xffffffffffffffffffffffffffffffffffffffff\n      and\n      dup2\n      mstore\n      0x20\n      add\n      swap1\n      dup2\n      mstore\n      0x20\n      add\n      0x00\n      keccak256\n      sload\n        /* \"Buy_ERupee.sol\":3194:3224  return userFundsMapping[_user] */\n      swap1\n      pop\n        /* \"Buy_ERupee.sol\":3119:3231  function getUserFundAmt(address _user) public view returns(uint) {... */\n      swap2\n      swap1\n      pop\n      jump\t// out\n        /* \"Buy_ERupee.sol\":3237:3357  function blackList(address _blackListAddr) public onlyOwner {... */\n    tag_46:\n        /* \"Buy_ERupee.sol\":1318:1328  msg.sender */\n      caller\n        /* \"Buy_ERupee.sol\":1308:1328  _owner == msg.sender */\n      0xffffffffffffffffffffffffffffffffffffffff\n      and\n        /* \"Buy_ERupee.sol\":1308:1314  _owner */\n      immutable(\"0xe41a685dc3df81383d452481451b89eb3f69781b836c19936fa9714a13d1c9c2\")\n        /* \"Buy_ERupee.sol\":1308:1328  _owner == msg.sender */\n      0xffffffffffffffffffffffffffffffffffffffff\n      and\n      eq\n        /* \"Buy_ERupee.sol\":1300:1360  require(_owner == msg.sender, \"can only be called by owner\") */\n      tag_114\n      jumpi\n      mload(0x40)\n      0x08c379a000000000000000000000000000000000000000000000000000000000\n      dup2\n      mstore\n      0x04\n      add\n      tag_115\n      swap1\n      tag_116\n      jump\t// in\n    tag_115:\n      mload(0x40)\n      dup1\n      swap2\n      sub\n      swap1\n      revert\n    tag_114:\n        /* \"Buy_ERupee.sol\":3346:3350  true */\n      0x01\n        /* \"Buy_ERupee.sol\":3307:3327  isBlackListedMapping */\n      0x18\n        /* \"Buy_ERupee.sol\":3307:3343  isBlackListedMapping[_blackListAddr] */\n      0x00\n        /* \"Buy_ERupee.sol\":3328:3342  _blackListAddr */\n      dup4\n        /* \"Buy_ERupee.sol\":3307:3343  isBlackListedMapping[_blackListAddr] */\n      0xffffffffffffffffffffffffffffffffffffffff\n      and\n      0xffffffffffffffffffffffffffffffffffffffff\n      and\n      dup2\n      mstore\n      0x20\n      add\n      swap1\n      dup2\n      mstore\n      0x20\n      add\n      0x00\n      keccak256\n      0x00\n        /* \"Buy_ERupee.sol\":3307:3350  isBlackListedMapping[_blackListAddr] = true */\n      0x0100\n      exp\n      dup2\n      sload\n      dup2\n      0xff\n      mul\n      not\n      and\n      swap1\n      dup4\n      iszero\n      iszero\n      mul\n      or\n      swap1\n      sstore\n      pop\n        /* \"Buy_ERupee.sol\":3237:3357  function blackList(address _blackListAddr) public onlyOwner {... */\n      pop\n      jump\t// out\n        /* \"Buy_ERupee.sol\":4784:7388  function transferAmount(uint256 _amount, address _to)... */\n    tag_50:\n        /* \"Buy_ERupee.sol\":4900:4907  uint256 */\n      0x00\n        /* \"Buy_ERupee.sol\":4878:4881  _to */\n      dup2\n        /* \"Buy_ERupee.sol\":1483:1488  false */\n      0x00\n        /* \"Buy_ERupee.sol\":1454:1488  isBlackListedMapping[_to] == false */\n      iszero\n      iszero\n        /* \"Buy_ERupee.sol\":1454:1474  isBlackListedMapping */\n      0x18\n        /* \"Buy_ERupee.sol\":1454:1479  isBlackListedMapping[_to] */\n      0x00\n        /* \"Buy_ERupee.sol\":1475:1478  _to */\n      dup4\n        /* \"Buy_ERupee.sol\":1454:1479  isBlackListedMapping[_to] */\n      0xffffffffffffffffffffffffffffffffffffffff\n      and\n      0xffffffffffffffffffffffffffffffffffffffff\n      and\n      dup2\n      mstore\n      0x20\n      add\n      swap1\n      dup2\n      mstore\n      0x20\n      add\n      0x00\n      keccak256\n      0x00\n      swap1\n      sload\n      swap1\n      0x0100\n      exp\n      swap1\n      div\n      0xff\n      and\n        /* \"Buy_ERupee.sol\":1454:1488  isBlackListedMapping[_to] == false */\n      iszero\n      iszero\n      eq\n        /* \"Buy_ERupee.sol\":1433:1547  require(... */\n      tag_119\n      jumpi\n      mload(0x40)\n      0x08c379a000000000000000000000000000000000000000000000000000000000\n      dup2\n      mstore\n      0x04\n      add\n      tag_120\n      swap1\n      tag_121\n      jump\t// in\n    tag_120:\n      mload(0x40)\n      dup1\n      swap2\n      sub\n      swap1\n      revert\n    tag_119:\n        /* \"Buy_ERupee.sol\":5306:5313  _amount */\n      dup4\n        /* \"Buy_ERupee.sol\":5274:5290  userFundsMapping */\n      0x17\n        /* \"Buy_ERupee.sol\":5274:5302  userFundsMapping[msg.sender] */\n      0x00\n        /* \"Buy_ERupee.sol\":5291:5301  msg.sender */\n      caller\n        /* \"Buy_ERupee.sol\":5274:5302  userFundsMapping[msg.sender] */\n      0xffffffffffffffffffffffffffffffffffffffff\n      and\n      0xffffffffffffffffffffffffffffffffffffffff\n      and\n      dup2\n      mstore\n      0x20\n      add\n      swap1\n      dup2\n      mstore\n      0x20\n      add\n      0x00\n      keccak256\n      sload\n        /* \"Buy_ERupee.sol\":5274:5313  userFundsMapping[msg.sender] >= _amount */\n      lt\n      iszero\n        /* \"Buy_ERupee.sol\":5253:5368  require(... */\n      tag_123\n      jumpi\n      mload(0x40)\n      0x08c379a000000000000000000000000000000000000000000000000000000000\n      dup2\n      mstore\n      0x04\n      add\n      tag_124\n      swap1\n      tag_125\n      jump\t// in\n    tag_124:\n      mload(0x40)\n      dup1\n      swap2\n      sub\n      swap1\n      revert\n    tag_123:\n        /* \"Buy_ERupee.sol\":5378:5408  uint256[9] memory NoteAvailArr */\n      0x00\n        /* \"Buy_ERupee.sol\":5411:5437  fetchUserNotes(msg.sender) */\n      tag_126\n        /* \"Buy_ERupee.sol\":5426:5436  msg.sender */\n      caller\n        /* \"Buy_ERupee.sol\":5411:5425  fetchUserNotes */\n      tag_127\n        /* \"Buy_ERupee.sol\":5411:5437  fetchUserNotes(msg.sender) */\n      jump\t// in\n    tag_126:\n        /* \"Buy_ERupee.sol\":5378:5437  uint256[9] memory NoteAvailArr = fetchUserNotes(msg.sender) */\n      swap1\n      pop\n        /* \"Buy_ERupee.sol\":5469:5502  uint256[9] memory NoteNeededCount */\n      tag_128\n      tag_129\n      jump\t// in\n    tag_128:\n        /* \"Buy_ERupee.sol\":5548:5577  uint256[9] memory transferArr */\n      tag_130\n      tag_129\n      jump\t// in\n    tag_130:\n        /* \"Buy_ERupee.sol\":5647:5654  _amount */\n      dup7\n        /* \"Buy_ERupee.sol\":5615:5631  userFundsMapping */\n      0x17\n        /* \"Buy_ERupee.sol\":5615:5643  userFundsMapping[msg.sender] */\n      0x00\n        /* \"Buy_ERupee.sol\":5632:5642  msg.sender */\n      caller\n        /* \"Buy_ERupee.sol\":5615:5643  userFundsMapping[msg.sender] */\n      0xffffffffffffffffffffffffffffffffffffffff\n      and\n      0xffffffffffffffffffffffffffffffffffffffff\n      and\n      dup2\n      mstore\n      0x20\n      add\n      swap1\n      dup2\n      mstore\n      0x20\n      add\n      0x00\n      keccak256\n      0x00\n        /* \"Buy_ERupee.sol\":5615:5654  userFundsMapping[msg.sender] -= _amount */\n      dup3\n      dup3\n      sload\n      tag_131\n      swap2\n      swap1\n      tag_132\n      jump\t// in\n    tag_131:\n      swap3\n      pop\n      pop\n      dup2\n      swap1\n      sstore\n      pop\n        /* \"Buy_ERupee.sol\":5689:5696  _amount */\n      dup7\n        /* \"Buy_ERupee.sol\":5664:5680  userFundsMapping */\n      0x17\n        /* \"Buy_ERupee.sol\":5664:5685  userFundsMapping[_to] */\n      0x00\n        /* \"Buy_ERupee.sol\":5681:5684  _to */\n      dup9\n        /* \"Buy_ERupee.sol\":5664:5685  userFundsMapping[_to] */\n      0xffffffffffffffffffffffffffffffffffffffff\n      and\n      0xffffffffffffffffffffffffffffffffffffffff\n      and\n      dup2\n      mstore\n      0x20\n      add\n      swap1\n      dup2\n      mstore\n      0x20\n      add\n      0x00\n      keccak256\n      0x00\n        /* \"Buy_ERupee.sol\":5664:5696  userFundsMapping[_to] += _amount */\n      dup3\n      dup3\n      sload\n      tag_133\n      swap2\n      swap1\n      tag_134\n      jump\t// in\n    tag_133:\n      swap3\n      pop\n      pop\n      dup2\n      swap1\n      sstore\n      pop\n        /* \"Buy_ERupee.sol\":5706:5719  uint256 _num1 */\n      0x00\n        /* \"Buy_ERupee.sol\":5733:5739  10**18 */\n      0x0de0b6b3a7640000\n        /* \"Buy_ERupee.sol\":5722:5729  _amount */\n      dup9\n        /* \"Buy_ERupee.sol\":5722:5740  _amount / (10**18) */\n      tag_135\n      swap2\n      swap1\n      tag_136\n      jump\t// in\n    tag_135:\n        /* \"Buy_ERupee.sol\":5706:5740  uint256 _num1 = _amount / (10**18) */\n      swap1\n      pop\n        /* \"Buy_ERupee.sol\":5750:5766  uint256 rem_mint */\n      0x00\n        /* \"Buy_ERupee.sol\":5780:5798  uint256 rem_change */\n      dup1\n        /* \"Buy_ERupee.sol\":5812:5830  uint256 denom_burn */\n      0x00\n        /* \"Buy_ERupee.sol\":5846:5855  uint256 k */\n      dup1\n        /* \"Buy_ERupee.sol\":5858:5859  0 */\n      0x00\n        /* \"Buy_ERupee.sol\":5846:5859  uint256 k = 0 */\n      swap1\n      pop\n        /* \"Buy_ERupee.sol\":5841:6029  for (uint256 k = 0; k < 9; k++) {... */\n    tag_137:\n        /* \"Buy_ERupee.sol\":5865:5866  9 */\n      0x09\n        /* \"Buy_ERupee.sol\":5861:5862  k */\n      dup2\n        /* \"Buy_ERupee.sol\":5861:5866  k < 9 */\n      lt\n        /* \"Buy_ERupee.sol\":5841:6029  for (uint256 k = 0; k < 9; k++) {... */\n      iszero\n      tag_138\n      jumpi\n        /* \"Buy_ERupee.sol\":5887:5899  uint256 temp */\n      0x00\n        /* \"Buy_ERupee.sol\":5934:5976  noteCalculation(_num1, denominationArr[k]) */\n      tag_140\n        /* \"Buy_ERupee.sol\":5950:5955  _num1 */\n      dup7\n        /* \"Buy_ERupee.sol\":5957:5972  denominationArr */\n      0x19\n        /* \"Buy_ERupee.sol\":5973:5974  k */\n      dup5\n        /* \"Buy_ERupee.sol\":5957:5975  denominationArr[k] */\n      dup2\n      sload\n      dup2\n      lt\n      tag_141\n      jumpi\n      tag_142\n      tag_143\n      jump\t// in\n    tag_142:\n    tag_141:\n      swap1\n      0x00\n      mstore\n      keccak256(0x00, 0x20)\n      add\n      sload\n        /* \"Buy_ERupee.sol\":5934:5949  noteCalculation */\n      tag_58\n        /* \"Buy_ERupee.sol\":5934:5976  noteCalculation(_num1, denominationArr[k]) */\n      jump\t// in\n    tag_140:\n        /* \"Buy_ERupee.sol\":5917:5977  (temp, _num1) = (noteCalculation(_num1, denominationArr[k])) */\n      dup1\n      swap8\n      pop\n      dup2\n      swap3\n      pop\n      pop\n      pop\n        /* \"Buy_ERupee.sol\":6013:6017  temp */\n      dup1\n        /* \"Buy_ERupee.sol\":5991:6006  NoteNeededCount */\n      dup9\n        /* \"Buy_ERupee.sol\":6007:6008  k */\n      dup4\n        /* \"Buy_ERupee.sol\":5991:6009  NoteNeededCount[k] */\n      0x09\n      dup2\n      lt\n      tag_145\n      jumpi\n      tag_146\n      tag_143\n      jump\t// in\n    tag_146:\n    tag_145:\n      0x20\n      mul\n      add\n        /* \"Buy_ERupee.sol\":5991:6018  NoteNeededCount[k] = (temp) */\n      dup2\n      dup2\n      mstore\n      pop\n      pop\n        /* \"Buy_ERupee.sol\":5873:6029  {... */\n      pop\n        /* \"Buy_ERupee.sol\":5868:5871  k++ */\n      dup1\n      dup1\n      tag_147\n      swap1\n      tag_148\n      jump\t// in\n    tag_147:\n      swap2\n      pop\n      pop\n        /* \"Buy_ERupee.sol\":5841:6029  for (uint256 k = 0; k < 9; k++) {... */\n      jump(tag_137)\n    tag_138:\n      pop\n        /* \"Buy_ERupee.sol\":6038:6051  uint256 total */\n      0x00\n        /* \"Buy_ERupee.sol\":6071:6080  uint256 i */\n      dup1\n        /* \"Buy_ERupee.sol\":6066:7071  for (uint256 i = 0; i < 9; i++) {... */\n    tag_149:\n        /* \"Buy_ERupee.sol\":6090:6091  9 */\n      0x09\n        /* \"Buy_ERupee.sol\":6086:6087  i */\n      dup2\n        /* \"Buy_ERupee.sol\":6086:6091  i < 9 */\n      lt\n        /* \"Buy_ERupee.sol\":6066:7071  for (uint256 i = 0; i < 9; i++) {... */\n      iszero\n      tag_150\n      jumpi\n        /* \"Buy_ERupee.sol\":6134:6149  NoteNeededCount */\n      dup8\n        /* \"Buy_ERupee.sol\":6150:6151  i */\n      dup2\n        /* \"Buy_ERupee.sol\":6134:6152  NoteNeededCount[i] */\n      0x09\n      dup2\n      lt\n      tag_152\n      jumpi\n      tag_153\n      tag_143\n      jump\t// in\n    tag_153:\n    tag_152:\n      0x20\n      mul\n      add\n      mload\n        /* \"Buy_ERupee.sol\":6116:6128  NoteAvailArr */\n      dup10\n        /* \"Buy_ERupee.sol\":6129:6130  i */\n      dup3\n        /* \"Buy_ERupee.sol\":6116:6131  NoteAvailArr[i] */\n      0x09\n      dup2\n      lt\n      tag_154\n      jumpi\n      tag_155\n      tag_143\n      jump\t// in\n    tag_155:\n    tag_154:\n      0x20\n      mul\n      add\n      mload\n        /* \"Buy_ERupee.sol\":6116:6152  NoteAvailArr[i] > NoteNeededCount[i] */\n      gt\n        /* \"Buy_ERupee.sol\":6112:7061  if (NoteAvailArr[i] > NoteNeededCount[i]) {... */\n      iszero\n      tag_156\n      jumpi\n        /* \"Buy_ERupee.sol\":6202:6217  NoteNeededCount */\n      dup8\n        /* \"Buy_ERupee.sol\":6218:6219  i */\n      dup2\n        /* \"Buy_ERupee.sol\":6202:6220  NoteNeededCount[i] */\n      0x09\n      dup2\n      lt\n      tag_157\n      jumpi\n      tag_158\n      tag_143\n      jump\t// in\n    tag_158:\n    tag_157:\n      0x20\n      mul\n      add\n      mload\n        /* \"Buy_ERupee.sol\":6181:6196  denominationArr */\n      0x19\n        /* \"Buy_ERupee.sol\":6197:6198  i */\n      dup3\n        /* \"Buy_ERupee.sol\":6181:6199  denominationArr[i] */\n      dup2\n      sload\n      dup2\n      lt\n      tag_159\n      jumpi\n      tag_160\n      tag_143\n      jump\t// in\n    tag_160:\n    tag_159:\n      swap1\n      0x00\n      mstore\n      keccak256(0x00, 0x20)\n      add\n      sload\n        /* \"Buy_ERupee.sol\":6181:6220  denominationArr[i] * NoteNeededCount[i] */\n      tag_162\n      swap2\n      swap1\n      tag_163\n      jump\t// in\n    tag_162:\n        /* \"Buy_ERupee.sol\":6172:6220  total += denominationArr[i] * NoteNeededCount[i] */\n      dup3\n      tag_164\n      swap2\n      swap1\n      tag_134\n      jump\t// in\n    tag_164:\n      swap2\n      pop\n        /* \"Buy_ERupee.sol\":6255:6270  NoteNeededCount */\n      dup8\n        /* \"Buy_ERupee.sol\":6271:6272  i */\n      dup2\n        /* \"Buy_ERupee.sol\":6255:6273  NoteNeededCount[i] */\n      0x09\n      dup2\n      lt\n      tag_165\n      jumpi\n      tag_166\n      tag_143\n      jump\t// in\n    tag_166:\n    tag_165:\n      0x20\n      mul\n      add\n      mload\n        /* \"Buy_ERupee.sol\":6238:6249  transferArr */\n      dup8\n        /* \"Buy_ERupee.sol\":6250:6251  i */\n      dup3\n        /* \"Buy_ERupee.sol\":6238:6252  transferArr[i] */\n      0x09\n      dup2\n      lt\n      tag_167\n      jumpi\n      tag_168\n      tag_143\n      jump\t// in\n    tag_168:\n    tag_167:\n      0x20\n      mul\n      add\n        /* \"Buy_ERupee.sol\":6238:6273  transferArr[i] = NoteNeededCount[i] */\n      dup2\n      dup2\n      mstore\n      pop\n      pop\n        /* \"Buy_ERupee.sol\":6310:6325  NoteNeededCount */\n      dup8\n        /* \"Buy_ERupee.sol\":6326:6327  i */\n      dup2\n        /* \"Buy_ERupee.sol\":6310:6328  NoteNeededCount[i] */\n      0x09\n      dup2\n      lt\n      tag_169\n      jumpi\n      tag_170\n      tag_143\n      jump\t// in\n    tag_170:\n    tag_169:\n      0x20\n      mul\n      add\n      mload\n        /* \"Buy_ERupee.sol\":6291:6303  NoteAvailArr */\n      dup10\n        /* \"Buy_ERupee.sol\":6304:6305  i */\n      dup3\n        /* \"Buy_ERupee.sol\":6291:6306  NoteAvailArr[i] */\n      0x09\n      dup2\n      lt\n      tag_171\n      jumpi\n      tag_172\n      tag_143\n      jump\t// in\n    tag_172:\n    tag_171:\n      0x20\n      mul\n      add\n        /* \"Buy_ERupee.sol\":6291:6328  NoteAvailArr[i] -= NoteNeededCount[i] */\n      dup2\n      dup2\n      mload\n      tag_173\n      swap2\n      swap1\n      tag_132\n      jump\t// in\n    tag_173:\n      swap2\n      pop\n      dup2\n      dup2\n      mstore\n      pop\n      pop\n        /* \"Buy_ERupee.sol\":6112:7061  if (NoteAvailArr[i] > NoteNeededCount[i]) {... */\n      jump(tag_174)\n    tag_156:\n        /* \"Buy_ERupee.sol\":6367:6381  uint256 change */\n      0x00\n        /* \"Buy_ERupee.sol\":6405:6410  total */\n      dup3\n        /* \"Buy_ERupee.sol\":6395:6401  10**18 */\n      0x0de0b6b3a7640000\n        /* \"Buy_ERupee.sol\":6384:6391  _amount */\n      dup16\n        /* \"Buy_ERupee.sol\":6384:6402  _amount / (10**18) */\n      tag_175\n      swap2\n      swap1\n      tag_136\n      jump\t// in\n    tag_175:\n        /* \"Buy_ERupee.sol\":6384:6410  _amount / (10**18) - total */\n      tag_176\n      swap2\n      swap1\n      tag_132\n      jump\t// in\n    tag_176:\n        /* \"Buy_ERupee.sol\":6367:6410  uint256 change = _amount / (10**18) - total */\n      swap1\n      pop\n        /* \"Buy_ERupee.sol\":6433:6442  uint256 j */\n      0x00\n        /* \"Buy_ERupee.sol\":6449:6450  1 */\n      0x01\n        /* \"Buy_ERupee.sol\":6445:6446  i */\n      dup4\n        /* \"Buy_ERupee.sol\":6445:6450  i - 1 */\n      tag_180\n      swap2\n      swap1\n      tag_132\n      jump\t// in\n    tag_180:\n        /* \"Buy_ERupee.sol\":6433:6450  uint256 j = i - 1 */\n      swap1\n      pop\n        /* \"Buy_ERupee.sol\":6428:7024  for (uint256 j = i - 1; j >= 0; j--) {... */\n    tag_177:\n        /* \"Buy_ERupee.sol\":6457:6458  0 */\n      0x00\n        /* \"Buy_ERupee.sol\":6452:6453  j */\n      dup2\n        /* \"Buy_ERupee.sol\":6452:6458  j >= 0 */\n      lt\n        /* \"Buy_ERupee.sol\":6428:7024  for (uint256 j = i - 1; j >= 0; j--) {... */\n      tag_178\n      jumpi\n        /* \"Buy_ERupee.sol\":6500:6515  denominationArr */\n      0x19\n        /* \"Buy_ERupee.sol\":6516:6517  j */\n      dup2\n        /* \"Buy_ERupee.sol\":6500:6518  denominationArr[j] */\n      dup2\n      sload\n      dup2\n      lt\n      tag_181\n      jumpi\n      tag_182\n      tag_143\n      jump\t// in\n    tag_182:\n    tag_181:\n      swap1\n      0x00\n      mstore\n      keccak256(0x00, 0x20)\n      add\n      sload\n        /* \"Buy_ERupee.sol\":6491:6497  change */\n      dup3\n        /* \"Buy_ERupee.sol\":6491:6518  change < denominationArr[j] */\n      lt\n        /* \"Buy_ERupee.sol\":6491:6541  change < denominationArr[j] && NoteAvailArr[j] > 0 */\n      dup1\n      iszero\n      tag_184\n      jumpi\n      pop\n        /* \"Buy_ERupee.sol\":6540:6541  0 */\n      0x00\n        /* \"Buy_ERupee.sol\":6522:6534  NoteAvailArr */\n      dup12\n        /* \"Buy_ERupee.sol\":6535:6536  j */\n      dup3\n        /* \"Buy_ERupee.sol\":6522:6537  NoteAvailArr[j] */\n      0x09\n      dup2\n      lt\n      tag_185\n      jumpi\n      tag_186\n      tag_143\n      jump\t// in\n    tag_186:\n    tag_185:\n      0x20\n      mul\n      add\n      mload\n        /* \"Buy_ERupee.sol\":6522:6541  NoteAvailArr[j] > 0 */\n      gt\n        /* \"Buy_ERupee.sol\":6491:6541  change < denominationArr[j] && NoteAvailArr[j] > 0 */\n    tag_184:\n        /* \"Buy_ERupee.sol\":6487:7006  if (change < denominationArr[j] && NoteAvailArr[j] > 0) {... */\n      iszero\n      tag_187\n      jumpi\n        /* \"Buy_ERupee.sol\":6601:6607  change */\n      dup2\n        /* \"Buy_ERupee.sol\":6580:6595  denominationArr */\n      0x19\n        /* \"Buy_ERupee.sol\":6596:6597  j */\n      dup3\n        /* \"Buy_ERupee.sol\":6580:6598  denominationArr[j] */\n      dup2\n      sload\n      dup2\n      lt\n      tag_188\n      jumpi\n      tag_189\n      tag_143\n      jump\t// in\n    tag_189:\n    tag_188:\n      swap1\n      0x00\n      mstore\n      keccak256(0x00, 0x20)\n      add\n      sload\n        /* \"Buy_ERupee.sol\":6580:6607  denominationArr[j] - change */\n      tag_191\n      swap2\n      swap1\n      tag_132\n      jump\t// in\n    tag_191:\n        /* \"Buy_ERupee.sol\":6569:6607  rem_mint = denominationArr[j] - change */\n      swap7\n      pop\n        /* \"Buy_ERupee.sol\":6667:6675  rem_mint */\n      dup7\n        /* \"Buy_ERupee.sol\":6646:6661  denominationArr */\n      0x19\n        /* \"Buy_ERupee.sol\":6662:6663  j */\n      dup3\n        /* \"Buy_ERupee.sol\":6646:6664  denominationArr[j] */\n      dup2\n      sload\n      dup2\n      lt\n      tag_192\n      jumpi\n      tag_193\n      tag_143\n      jump\t// in\n    tag_193:\n    tag_192:\n      swap1\n      0x00\n      mstore\n      keccak256(0x00, 0x20)\n      add\n      sload\n        /* \"Buy_ERupee.sol\":6646:6675  denominationArr[j] - rem_mint */\n      tag_195\n      swap2\n      swap1\n      tag_132\n      jump\t// in\n    tag_195:\n        /* \"Buy_ERupee.sol\":6633:6675  rem_change = denominationArr[j] - rem_mint */\n      swap6\n      pop\n        /* \"Buy_ERupee.sol\":6714:6729  denominationArr */\n      0x19\n        /* \"Buy_ERupee.sol\":6730:6731  j */\n      dup2\n        /* \"Buy_ERupee.sol\":6714:6732  denominationArr[j] */\n      dup2\n      sload\n      dup2\n      lt\n      tag_196\n      jumpi\n      tag_197\n      tag_143\n      jump\t// in\n    tag_197:\n    tag_196:\n      swap1\n      0x00\n      mstore\n      keccak256(0x00, 0x20)\n      add\n      sload\n        /* \"Buy_ERupee.sol\":6701:6732  denom_burn = denominationArr[j] */\n      swap5\n      pop\n        /* \"Buy_ERupee.sol\":6758:6783  IMyToken __Rupee_contract */\n      0x00\n        /* \"Buy_ERupee.sol\":6824:6842  _rupeeContractList */\n      0x0a\n        /* \"Buy_ERupee.sol\":6843:6844  j */\n      dup3\n        /* \"Buy_ERupee.sol\":6824:6845  _rupeeContractList[j] */\n      0x09\n      dup2\n      lt\n      tag_199\n      jumpi\n      tag_200\n      tag_143\n      jump\t// in\n    tag_200:\n    tag_199:\n      add\n      0x00\n      swap1\n      sload\n      swap1\n      0x0100\n      exp\n      swap1\n      div\n      0xffffffffffffffffffffffffffffffffffffffff\n      and\n        /* \"Buy_ERupee.sol\":6758:6871  IMyToken __Rupee_contract = IMyToken(... */\n      swap1\n      pop\n        /* \"Buy_ERupee.sol\":6897:6913  __Rupee_contract */\n      dup1\n        /* \"Buy_ERupee.sol\":6897:6928  __Rupee_contract.transfer_rupee */\n      0xffffffffffffffffffffffffffffffffffffffff\n      and\n      0x83c587df\n        /* \"Buy_ERupee.sol\":6929:6939  msg.sender */\n      caller\n        /* \"Buy_ERupee.sol\":6949:6950  0 */\n      0x00\n        /* \"Buy_ERupee.sol\":6897:6952  __Rupee_contract.transfer_rupee(msg.sender, address(0)) */\n      mload(0x40)\n      dup4\n      0xffffffff\n      and\n      0xe0\n      shl\n      dup2\n      mstore\n      0x04\n      add\n      tag_202\n      swap3\n      swap2\n      swap1\n      tag_203\n      jump\t// in\n    tag_202:\n      0x00\n      mload(0x40)\n      dup1\n      dup4\n      sub\n      dup2\n      0x00\n      dup8\n      dup1\n      extcodesize\n      iszero\n      dup1\n      iszero\n      tag_204\n      jumpi\n      0x00\n      dup1\n      revert\n    tag_204:\n      pop\n      gas\n      call\n      iszero\n      dup1\n      iszero\n      tag_206\n      jumpi\n      returndatasize\n      0x00\n      dup1\n      returndatacopy\n      revert(0x00, returndatasize)\n    tag_206:\n      pop\n      pop\n      pop\n      pop\n        /* \"Buy_ERupee.sol\":6978:6983  break */\n      pop\n      jump(tag_178)\n        /* \"Buy_ERupee.sol\":6487:7006  if (change < denominationArr[j] && NoteAvailArr[j] > 0) {... */\n    tag_187:\n        /* \"Buy_ERupee.sol\":6460:6463  j-- */\n      dup1\n      dup1\n      tag_207\n      swap1\n      tag_208\n      jump\t// in\n    tag_207:\n      swap2\n      pop\n      pop\n        /* \"Buy_ERupee.sol\":6428:7024  for (uint256 j = i - 1; j >= 0; j--) {... */\n      jump(tag_177)\n    tag_178:\n      pop\n        /* \"Buy_ERupee.sol\":7041:7046  break */\n      pop\n      jump(tag_150)\n        /* \"Buy_ERupee.sol\":6112:7061  if (NoteAvailArr[i] > NoteNeededCount[i]) {... */\n    tag_174:\n        /* \"Buy_ERupee.sol\":6093:6096  i++ */\n      dup1\n      dup1\n      tag_209\n      swap1\n      tag_148\n      jump\t// in\n    tag_209:\n      swap2\n      pop\n      pop\n        /* \"Buy_ERupee.sol\":6066:7071  for (uint256 i = 0; i < 9; i++) {... */\n      jump(tag_149)\n    tag_150:\n      pop\n        /* \"Buy_ERupee.sol\":7334:7381  sendNFT(transferArr, _to, rem_mint, rem_change) */\n      tag_210\n        /* \"Buy_ERupee.sol\":7342:7353  transferArr */\n      dup7\n        /* \"Buy_ERupee.sol\":7355:7358  _to */\n      dup13\n        /* \"Buy_ERupee.sol\":7360:7368  rem_mint */\n      dup7\n        /* \"Buy_ERupee.sol\":7370:7380  rem_change */\n      dup7\n        /* \"Buy_ERupee.sol\":7334:7341  sendNFT */\n      tag_211\n        /* \"Buy_ERupee.sol\":7334:7381  sendNFT(transferArr, _to, rem_mint, rem_change) */\n      jump\t// in\n    tag_210:\n        /* \"Buy_ERupee.sol\":4913:7388  {... */\n      pop\n      pop\n      pop\n      pop\n      pop\n      pop\n      pop\n      pop\n        /* \"Buy_ERupee.sol\":4784:7388  function transferAmount(uint256 _amount, address _to)... */\n      pop\n      swap3\n      swap2\n      pop\n      pop\n      jump\t// out\n        /* \"Buy_ERupee.sol\":631:666  address public fifty_Rupee_contract */\n    tag_53:\n      0x05\n      0x00\n      swap1\n      sload\n      swap1\n      0x0100\n      exp\n      swap1\n      div\n      0xffffffffffffffffffffffffffffffffffffffff\n      and\n      dup2\n      jump\t// out\n        /* \"Buy_ERupee.sol\":3363:3598  function noteCalculation(uint256 _num1, uint256 _division)... */\n    tag_58:\n        /* \"Buy_ERupee.sol\":3454:3461  uint256 */\n      0x00\n        /* \"Buy_ERupee.sol\":3463:3470  uint256 */\n      dup1\n        /* \"Buy_ERupee.sol\":3486:3503  uint256 _RupeeNum */\n      0x00\n        /* \"Buy_ERupee.sol\":3514:3523  _division */\n      dup4\n        /* \"Buy_ERupee.sol\":3506:3511  _num1 */\n      dup6\n        /* \"Buy_ERupee.sol\":3506:3523  _num1 / _division */\n      tag_213\n      swap2\n      swap1\n      tag_136\n      jump\t// in\n    tag_213:\n        /* \"Buy_ERupee.sol\":3486:3523  uint256 _RupeeNum = _num1 / _division */\n      swap1\n      pop\n        /* \"Buy_ERupee.sol\":3548:3557  _division */\n      dup4\n        /* \"Buy_ERupee.sol\":3540:3545  _num1 */\n      dup6\n        /* \"Buy_ERupee.sol\":3540:3557  _num1 % _division */\n      tag_214\n      swap2\n      swap1\n      tag_215\n      jump\t// in\n    tag_214:\n        /* \"Buy_ERupee.sol\":3533:3537  _num */\n      0x16\n        /* \"Buy_ERupee.sol\":3533:3557  _num = _num1 % _division */\n      dup2\n      swap1\n      sstore\n      pop\n        /* \"Buy_ERupee.sol\":3575:3584  _RupeeNum */\n      dup1\n        /* \"Buy_ERupee.sol\":3586:3590  _num */\n      sload(0x16)\n        /* \"Buy_ERupee.sol\":3567:3591  return (_RupeeNum, _num) */\n      swap3\n      pop\n      swap3\n      pop\n      pop\n        /* \"Buy_ERupee.sol\":3363:3598  function noteCalculation(uint256 _num1, uint256 _division)... */\n      swap3\n      pop\n      swap3\n      swap1\n      pop\n      jump\t// out\n        /* \"Buy_ERupee.sol\":589:625  address public twenty_Rupee_contract */\n    tag_62:\n      0x04\n      0x00\n      swap1\n      sload\n      swap1\n      0x0100\n      exp\n      swap1\n      div\n      0xffffffffffffffffffffffffffffffffffffffff\n      and\n      dup2\n      jump\t// out\n        /* \"Buy_ERupee.sol\":471:504  address public two_Rupee_contract */\n    tag_65:\n      0x01\n      0x00\n      swap1\n      sload\n      swap1\n      0x0100\n      exp\n      swap1\n      div\n      0xffffffffffffffffffffffffffffffffffffffff\n      and\n      dup2\n      jump\t// out\n        /* \"Buy_ERupee.sol\":766:808  address public five_hundred_Rupee_contract */\n    tag_68:\n      0x08\n      0x00\n      swap1\n      sload\n      swap1\n      0x0100\n      exp\n      swap1\n      div\n      0xffffffffffffffffffffffffffffffffffffffff\n      and\n      dup2\n      jump\t// out\n        /* \"Buy_ERupee.sol\":897:928  uint256 public _5RupeeCount = 0 */\n    tag_71:\n      sload(0x13)\n      dup2\n      jump\t// out\n        /* \"Buy_ERupee.sol\":550:583  address public ten_Rupee_contract */\n    tag_74:\n      0x03\n      0x00\n      swap1\n      sload\n      swap1\n      0x0100\n      exp\n      swap1\n      div\n      0xffffffffffffffffffffffffffffffffffffffff\n      and\n      dup2\n      jump\t// out\n        /* \"Buy_ERupee.sol\":814:849  address public rupee_contract_ERC20 */\n    tag_77:\n      0x09\n      0x00\n      swap1\n      sload\n      swap1\n      0x0100\n      exp\n      swap1\n      div\n      0xffffffffffffffffffffffffffffffffffffffff\n      and\n      dup2\n      jump\t// out\n        /* \"Buy_ERupee.sol\":934:962  uint256 public _10RupeeCount */\n    tag_80:\n      sload(0x14)\n      dup2\n      jump\t// out\n        /* \"Buy_ERupee.sol\":1002:1021  uint256 public _num */\n    tag_83:\n      sload(0x16)\n      dup2\n      jump\t// out\n        /* \"Buy_ERupee.sol\":1027:1078  mapping(address => uint256) public userFundsMapping */\n    tag_87:\n      mstore(0x20, 0x17)\n      dup1\n      0x00\n      mstore\n      keccak256(0x00, 0x40)\n      0x00\n      swap2\n      pop\n      swap1\n      pop\n      sload\n      dup2\n      jump\t// out\n        /* \"Buy_ERupee.sol\":1571:3113  function setContracts() external onlyOwner returns (bool) {... */\n    tag_90:\n        /* \"Buy_ERupee.sol\":1623:1627  bool */\n      0x00\n        /* \"Buy_ERupee.sol\":1318:1328  msg.sender */\n      caller\n        /* \"Buy_ERupee.sol\":1308:1328  _owner == msg.sender */\n      0xffffffffffffffffffffffffffffffffffffffff\n      and\n        /* \"Buy_ERupee.sol\":1308:1314  _owner */\n      immutable(\"0xe41a685dc3df81383d452481451b89eb3f69781b836c19936fa9714a13d1c9c2\")\n        /* \"Buy_ERupee.sol\":1308:1328  _owner == msg.sender */\n      0xffffffffffffffffffffffffffffffffffffffff\n      and\n      eq\n        /* \"Buy_ERupee.sol\":1300:1360  require(_owner == msg.sender, \"can only be called by owner\") */\n      tag_217\n      jumpi\n      mload(0x40)\n      0x08c379a000000000000000000000000000000000000000000000000000000000\n      dup2\n      mstore\n      0x04\n      add\n      tag_218\n      swap1\n      tag_116\n      jump\t// in\n    tag_218:\n      mload(0x40)\n      dup1\n      swap2\n      sub\n      swap1\n      revert\n    tag_217:\n        /* \"Buy_ERupee.sol\":2081:2096  address _1Rupee */\n      0x00\n        /* \"Buy_ERupee.sol\":2099:2141  0xD54d3F6C3b863f29D4FC1d1e2Ae0EAC27b13d2EF */\n      0xd54d3f6c3b863f29d4fc1d1e2ae0eac27b13d2ef\n        /* \"Buy_ERupee.sol\":2081:2141  address _1Rupee = 0xD54d3F6C3b863f29D4FC1d1e2Ae0EAC27b13d2EF */\n      swap1\n      pop\n        /* \"Buy_ERupee.sol\":2151:2166  address _2Rupee */\n      0x00\n        /* \"Buy_ERupee.sol\":2169:2211  0xE5FdE1987e7Ec52b92E4f939c2B64299748a3D44 */\n      0xe5fde1987e7ec52b92e4f939c2b64299748a3d44\n        /* \"Buy_ERupee.sol\":2151:2211  address _2Rupee = 0xE5FdE1987e7Ec52b92E4f939c2B64299748a3D44 */\n      swap1\n      pop\n        /* \"Buy_ERupee.sol\":2221:2236  address _5Rupee */\n      0x00\n        /* \"Buy_ERupee.sol\":2239:2281  0x8CEC8D539D468Cd19563174eFf7705067A9FD582 */\n      0x8cec8d539d468cd19563174eff7705067a9fd582\n        /* \"Buy_ERupee.sol\":2221:2281  address _5Rupee = 0x8CEC8D539D468Cd19563174eFf7705067A9FD582 */\n      swap1\n      pop\n        /* \"Buy_ERupee.sol\":2291:2307  address _10Rupee */\n      0x00\n        /* \"Buy_ERupee.sol\":2310:2352  0xB16c4005ACAb743e1EF2039f4D3E1Fd693beA34d */\n      0xb16c4005acab743e1ef2039f4d3e1fd693bea34d\n        /* \"Buy_ERupee.sol\":2291:2352  address _10Rupee = 0xB16c4005ACAb743e1EF2039f4D3E1Fd693beA34d */\n      swap1\n      pop\n        /* \"Buy_ERupee.sol\":2362:2378  address _20Rupee */\n      0x00\n        /* \"Buy_ERupee.sol\":2381:2423  0x7D148294204E94e9592bE603C15e231b67Fb1d87 */\n      0x7d148294204e94e9592be603c15e231b67fb1d87\n        /* \"Buy_ERupee.sol\":2362:2423  address _20Rupee = 0x7D148294204E94e9592bE603C15e231b67Fb1d87 */\n      swap1\n      pop\n        /* \"Buy_ERupee.sol\":2433:2449  address _50Rupee */\n      0x00\n        /* \"Buy_ERupee.sol\":2452:2494  0xCa7dd6c3Edf65eeC61CeC7212df319610A72e479 */\n      0xca7dd6c3edf65eec61cec7212df319610a72e479\n        /* \"Buy_ERupee.sol\":2433:2494  address _50Rupee = 0xCa7dd6c3Edf65eeC61CeC7212df319610A72e479 */\n      swap1\n      pop\n        /* \"Buy_ERupee.sol\":2504:2521  address _100Rupee */\n      0x00\n        /* \"Buy_ERupee.sol\":2524:2566  0xe0C8919C807D262dEB2957eEfA512FE383094C83 */\n      0xe0c8919c807d262deb2957eefa512fe383094c83\n        /* \"Buy_ERupee.sol\":2504:2566  address _100Rupee = 0xe0C8919C807D262dEB2957eEfA512FE383094C83 */\n      swap1\n      pop\n        /* \"Buy_ERupee.sol\":2576:2593  address _200Rupee */\n      0x00\n        /* \"Buy_ERupee.sol\":2596:2638  0xdF035655Ff59008A07F46E16B1B9788FE4169eA2 */\n      0xdf035655ff59008a07f46e16b1b9788fe4169ea2\n        /* \"Buy_ERupee.sol\":2576:2638  address _200Rupee = 0xdF035655Ff59008A07F46E16B1B9788FE4169eA2 */\n      swap1\n      pop\n        /* \"Buy_ERupee.sol\":2648:2665  address _500Rupee */\n      0x00\n        /* \"Buy_ERupee.sol\":2668:2710  0xec4AE94411412cBeD68C531A5dF7a0A7A1534dE3 */\n      0xec4ae94411412cbed68c531a5df7a0a7a1534de3\n        /* \"Buy_ERupee.sol\":2648:2710  address _500Rupee = 0xec4AE94411412cBeD68C531A5dF7a0A7A1534dE3 */\n      swap1\n      pop\n        /* \"Buy_ERupee.sol\":2720:2748  address _rupeeContract_ERC20 */\n      0x00\n        /* \"Buy_ERupee.sol\":2751:2793  0x7e05b6aF7e51b614b9920A0328a91C3a09A3315a */\n      0x7e05b6af7e51b614b9920a0328a91c3a09a3315a\n        /* \"Buy_ERupee.sol\":2720:2793  address _rupeeContract_ERC20 = 0x7e05b6aF7e51b614b9920A0328a91C3a09A3315a */\n      swap1\n      pop\n        /* \"Buy_ERupee.sol\":2826:2846  _rupeeContract_ERC20 */\n      dup1\n        /* \"Buy_ERupee.sol\":2803:2823  rupee_contract_ERC20 */\n      0x09\n      0x00\n        /* \"Buy_ERupee.sol\":2803:2846  rupee_contract_ERC20 = _rupeeContract_ERC20 */\n      0x0100\n      exp\n      dup2\n      sload\n      dup2\n      0xffffffffffffffffffffffffffffffffffffffff\n      mul\n      not\n      and\n      swap1\n      dup4\n      0xffffffffffffffffffffffffffffffffffffffff\n      and\n      mul\n      or\n      swap1\n      sstore\n      pop\n        /* \"Buy_ERupee.sol\":2856:3085  _rupeeContractList = [... */\n      mload(0x40)\n      dup1\n      0x0120\n      add\n      0x40\n      mstore\n      dup1\n        /* \"Buy_ERupee.sol\":2891:2900  _500Rupee */\n      dup4\n        /* \"Buy_ERupee.sol\":2856:3085  _rupeeContractList = [... */\n      0xffffffffffffffffffffffffffffffffffffffff\n      and\n      0xffffffffffffffffffffffffffffffffffffffff\n      and\n      dup2\n      mstore\n      0x20\n      add\n        /* \"Buy_ERupee.sol\":2914:2923  _200Rupee */\n      dup5\n        /* \"Buy_ERupee.sol\":2856:3085  _rupeeContractList = [... */\n      0xffffffffffffffffffffffffffffffffffffffff\n      and\n      0xffffffffffffffffffffffffffffffffffffffff\n      and\n      dup2\n      mstore\n      0x20\n      add\n        /* \"Buy_ERupee.sol\":2937:2946  _100Rupee */\n      dup6\n        /* \"Buy_ERupee.sol\":2856:3085  _rupeeContractList = [... */\n      0xffffffffffffffffffffffffffffffffffffffff\n      and\n      0xffffffffffffffffffffffffffffffffffffffff\n      and\n      dup2\n      mstore\n      0x20\n      add\n        /* \"Buy_ERupee.sol\":2960:2968  _50Rupee */\n      dup7\n        /* \"Buy_ERupee.sol\":2856:3085  _rupeeContractList = [... */\n      0xffffffffffffffffffffffffffffffffffffffff\n      and\n      0xffffffffffffffffffffffffffffffffffffffff\n      and\n      dup2\n      mstore\n      0x20\n      add\n        /* \"Buy_ERupee.sol\":2982:2990  _20Rupee */\n      dup8\n        /* \"Buy_ERupee.sol\":2856:3085  _rupeeContractList = [... */\n      0xffffffffffffffffffffffffffffffffffffffff\n      and\n      0xffffffffffffffffffffffffffffffffffffffff\n      and\n      dup2\n      mstore\n      0x20\n      add\n        /* \"Buy_ERupee.sol\":3004:3012  _10Rupee */\n      dup9\n        /* \"Buy_ERupee.sol\":2856:3085  _rupeeContractList = [... */\n      0xffffffffffffffffffffffffffffffffffffffff\n      and\n      0xffffffffffffffffffffffffffffffffffffffff\n      and\n      dup2\n      mstore\n      0x20\n      add\n        /* \"Buy_ERupee.sol\":3026:3033  _5Rupee */\n      dup10\n        /* \"Buy_ERupee.sol\":2856:3085  _rupeeContractList = [... */\n      0xffffffffffffffffffffffffffffffffffffffff\n      and\n      0xffffffffffffffffffffffffffffffffffffffff\n      and\n      dup2\n      mstore\n      0x20\n      add\n        /* \"Buy_ERupee.sol\":3047:3054  _2Rupee */\n      dup11\n        /* \"Buy_ERupee.sol\":2856:3085  _rupeeContractList = [... */\n      0xffffffffffffffffffffffffffffffffffffffff\n      and\n      0xffffffffffffffffffffffffffffffffffffffff\n      and\n      dup2\n      mstore\n      0x20\n      add\n        /* \"Buy_ERupee.sol\":3068:3075  _1Rupee */\n      dup12\n        /* \"Buy_ERupee.sol\":2856:3085  _rupeeContractList = [... */\n      0xffffffffffffffffffffffffffffffffffffffff\n      and\n      0xffffffffffffffffffffffffffffffffffffffff\n      and\n      dup2\n      mstore\n      pop\n        /* \"Buy_ERupee.sol\":2856:2874  _rupeeContractList */\n      0x0a\n        /* \"Buy_ERupee.sol\":2856:3085  _rupeeContractList = [... */\n      swap1\n      0x09\n      tag_220\n      swap3\n      swap2\n      swap1\n      tag_221\n      jump\t// in\n    tag_220:\n      pop\n        /* \"Buy_ERupee.sol\":3102:3106  true */\n      0x01\n        /* \"Buy_ERupee.sol\":3095:3106  return true */\n      swap11\n      pop\n      pop\n      pop\n      pop\n      pop\n      pop\n      pop\n      pop\n      pop\n      pop\n      pop\n        /* \"Buy_ERupee.sol\":1571:3113  function setContracts() external onlyOwner returns (bool) {... */\n      swap1\n      jump\t// out\n        /* \"Buy_ERupee.sol\":968:996  uint256 public _20RupeeCount */\n    tag_93:\n      sload(0x15)\n      dup2\n      jump\t// out\n        /* \"Buy_ERupee.sol\":855:891  address[9] public _rupeeContractList */\n    tag_98:\n      0x0a\n      dup2\n      0x09\n      dup2\n      lt\n      tag_222\n      jumpi\n      0x00\n      dup1\n      revert\n    tag_222:\n      add\n      0x00\n      swap2\n      pop\n      sload\n      swap1\n      0x0100\n      exp\n      swap1\n      div\n      0xffffffffffffffffffffffffffffffffffffffff\n      and\n      dup2\n      jump\t// out\n        /* \"Buy_ERupee.sol\":672:713  address public one_hundred_Rupee_contract */\n    tag_101:\n      0x06\n      0x00\n      swap1\n      sload\n      swap1\n      0x0100\n      exp\n      swap1\n      div\n      0xffffffffffffffffffffffffffffffffffffffff\n      and\n      dup2\n      jump\t// out\n        /* \"Buy_ERupee.sol\":3604:4412  function buy_With_note_denominations(uint256 _amount) external {... */\n    tag_105:\n        /* \"Buy_ERupee.sol\":3677:3708  uint256[9] memory userNoteCount */\n      tag_225\n      tag_129\n      jump\t// in\n    tag_225:\n        /* \"Buy_ERupee.sol\":3718:3739  IERC20 _rupeeContract */\n      0x00\n        /* \"Buy_ERupee.sol\":3749:3769  rupee_contract_ERC20 */\n      0x09\n      0x00\n      swap1\n      sload\n      swap1\n      0x0100\n      exp\n      swap1\n      div\n      0xffffffffffffffffffffffffffffffffffffffff\n      and\n        /* \"Buy_ERupee.sol\":3718:3770  IERC20 _rupeeContract = IERC20(rupee_contract_ERC20) */\n      swap1\n      pop\n        /* \"Buy_ERupee.sol\":3780:3794  _rupeeContract */\n      dup1\n        /* \"Buy_ERupee.sol\":3780:3807  _rupeeContract.transferFrom */\n      0xffffffffffffffffffffffffffffffffffffffff\n      and\n      0x23b872dd\n        /* \"Buy_ERupee.sol\":3808:3818  msg.sender */\n      caller\n        /* \"Buy_ERupee.sol\":3828:3832  this */\n      address\n        /* \"Buy_ERupee.sol\":3835:3842  _amount */\n      dup7\n        /* \"Buy_ERupee.sol\":3780:3843  _rupeeContract.transferFrom(msg.sender, address(this), _amount) */\n      mload(0x40)\n      dup5\n      0xffffffff\n      and\n      0xe0\n      shl\n      dup2\n      mstore\n      0x04\n      add\n      tag_226\n      swap4\n      swap3\n      swap2\n      swap1\n      tag_227\n      jump\t// in\n    tag_226:\n      0x20\n      mload(0x40)\n      dup1\n      dup4\n      sub\n      dup2\n      0x00\n      dup8\n      gas\n      call\n      iszero\n      dup1\n      iszero\n      tag_229\n      jumpi\n      returndatasize\n      0x00\n      dup1\n      returndatacopy\n      revert(0x00, returndatasize)\n    tag_229:\n      pop\n      pop\n      pop\n      pop\n      mload(0x40)\n      returndatasize\n      not(0x1f)\n      0x1f\n      dup3\n      add\n      and\n      dup3\n      add\n      dup1\n      0x40\n      mstore\n      pop\n      dup2\n      add\n      swap1\n      tag_230\n      swap2\n      swap1\n      tag_231\n      jump\t// in\n    tag_230:\n      pop\n        /* \"Buy_ERupee.sol\":3853:3866  uint256 _num1 */\n      0x00\n        /* \"Buy_ERupee.sol\":3880:3886  10**18 */\n      0x0de0b6b3a7640000\n        /* \"Buy_ERupee.sol\":3869:3876  _amount */\n      dup5\n        /* \"Buy_ERupee.sol\":3869:3887  _amount / (10**18) */\n      tag_232\n      swap2\n      swap1\n      tag_136\n      jump\t// in\n    tag_232:\n        /* \"Buy_ERupee.sol\":3853:3887  uint256 _num1 = _amount / (10**18) */\n      swap1\n      pop\n        /* \"Buy_ERupee.sol\":3903:3912  uint256 k */\n      0x00\n        /* \"Buy_ERupee.sol\":3898:4082  for (uint256 k = 0; k < 9; k++) {... */\n    tag_233:\n        /* \"Buy_ERupee.sol\":3922:3923  9 */\n      0x09\n        /* \"Buy_ERupee.sol\":3918:3919  k */\n      dup2\n        /* \"Buy_ERupee.sol\":3918:3923  k < 9 */\n      lt\n        /* \"Buy_ERupee.sol\":3898:4082  for (uint256 k = 0; k < 9; k++) {... */\n      iszero\n      tag_234\n      jumpi\n        /* \"Buy_ERupee.sol\":3944:3956  uint256 temp */\n      0x00\n        /* \"Buy_ERupee.sol\":3991:4033  noteCalculation(_num1, denominationArr[k]) */\n      tag_236\n        /* \"Buy_ERupee.sol\":4007:4012  _num1 */\n      dup4\n        /* \"Buy_ERupee.sol\":4014:4029  denominationArr */\n      0x19\n        /* \"Buy_ERupee.sol\":4030:4031  k */\n      dup5\n        /* \"Buy_ERupee.sol\":4014:4032  denominationArr[k] */\n      dup2\n      sload\n      dup2\n      lt\n      tag_237\n      jumpi\n      tag_238\n      tag_143\n      jump\t// in\n    tag_238:\n    tag_237:\n      swap1\n      0x00\n      mstore\n      keccak256(0x00, 0x20)\n      add\n      sload\n        /* \"Buy_ERupee.sol\":3991:4006  noteCalculation */\n      tag_58\n        /* \"Buy_ERupee.sol\":3991:4033  noteCalculation(_num1, denominationArr[k]) */\n      jump\t// in\n    tag_236:\n        /* \"Buy_ERupee.sol\":3974:4034  (temp, _num1) = (noteCalculation(_num1, denominationArr[k])) */\n      dup1\n      swap5\n      pop\n      dup2\n      swap3\n      pop\n      pop\n      pop\n        /* \"Buy_ERupee.sol\":4067:4071  temp */\n      dup1\n        /* \"Buy_ERupee.sol\":4048:4061  userNoteCount */\n      dup6\n        /* \"Buy_ERupee.sol\":4062:4063  k */\n      dup4\n        /* \"Buy_ERupee.sol\":4048:4064  userNoteCount[k] */\n      0x09\n      dup2\n      lt\n      tag_240\n      jumpi\n      tag_241\n      tag_143\n      jump\t// in\n    tag_241:\n    tag_240:\n      0x20\n      mul\n      add\n        /* \"Buy_ERupee.sol\":4048:4071  userNoteCount[k] = temp */\n      dup2\n      dup2\n      mstore\n      pop\n      pop\n        /* \"Buy_ERupee.sol\":3930:4082  {... */\n      pop\n        /* \"Buy_ERupee.sol\":3925:3928  k++ */\n      dup1\n      dup1\n      tag_242\n      swap1\n      tag_148\n      jump\t// in\n    tag_242:\n      swap2\n      pop\n      pop\n        /* \"Buy_ERupee.sol\":3898:4082  for (uint256 k = 0; k < 9; k++) {... */\n      jump(tag_233)\n    tag_234:\n      pop\n        /* \"Buy_ERupee.sol\":4092:4101  uint256 i */\n      0x00\n        /* \"Buy_ERupee.sol\":4115:4357  for (i = 0; i < 9; i++) {... */\n    tag_243:\n        /* \"Buy_ERupee.sol\":4131:4132  9 */\n      0x09\n        /* \"Buy_ERupee.sol\":4127:4128  i */\n      dup2\n        /* \"Buy_ERupee.sol\":4127:4132  i < 9 */\n      lt\n        /* \"Buy_ERupee.sol\":4115:4357  for (i = 0; i < 9; i++) {... */\n      iszero\n      tag_244\n      jumpi\n        /* \"Buy_ERupee.sol\":4158:4167  uint256 j */\n      0x00\n        /* \"Buy_ERupee.sol\":4153:4347  for (uint256 j = 0; j < userNoteCount[i]; j++) {... */\n    tag_246:\n        /* \"Buy_ERupee.sol\":4177:4190  userNoteCount */\n      dup5\n        /* \"Buy_ERupee.sol\":4191:4192  i */\n      dup3\n        /* \"Buy_ERupee.sol\":4177:4193  userNoteCount[i] */\n      0x09\n      dup2\n      lt\n      tag_249\n      jumpi\n      tag_250\n      tag_143\n      jump\t// in\n    tag_250:\n    tag_249:\n      0x20\n      mul\n      add\n      mload\n        /* \"Buy_ERupee.sol\":4173:4174  j */\n      dup2\n        /* \"Buy_ERupee.sol\":4173:4193  j < userNoteCount[i] */\n      lt\n        /* \"Buy_ERupee.sol\":4153:4347  for (uint256 j = 0; j < userNoteCount[i]; j++) {... */\n      iszero\n      tag_247\n      jumpi\n        /* \"Buy_ERupee.sol\":4218:4243  IMyToken __Rupee_contract */\n      0x00\n        /* \"Buy_ERupee.sol\":4255:4273  _rupeeContractList */\n      0x0a\n        /* \"Buy_ERupee.sol\":4274:4275  i */\n      dup4\n        /* \"Buy_ERupee.sol\":4255:4276  _rupeeContractList[i] */\n      0x09\n      dup2\n      lt\n      tag_251\n      jumpi\n      tag_252\n      tag_143\n      jump\t// in\n    tag_252:\n    tag_251:\n      add\n      0x00\n      swap1\n      sload\n      swap1\n      0x0100\n      exp\n      swap1\n      div\n      0xffffffffffffffffffffffffffffffffffffffff\n      and\n        /* \"Buy_ERupee.sol\":4218:4277  IMyToken __Rupee_contract = IMyToken(_rupeeContractList[i]) */\n      swap1\n      pop\n        /* \"Buy_ERupee.sol\":4295:4311  __Rupee_contract */\n      dup1\n        /* \"Buy_ERupee.sol\":4295:4320  __Rupee_contract.safeMint */\n      0xffffffffffffffffffffffffffffffffffffffff\n      and\n      0x40d097c3\n        /* \"Buy_ERupee.sol\":4321:4331  msg.sender */\n      caller\n        /* \"Buy_ERupee.sol\":4295:4332  __Rupee_contract.safeMint(msg.sender) */\n      mload(0x40)\n      dup3\n      0xffffffff\n      and\n      0xe0\n      shl\n      dup2\n      mstore\n      0x04\n      add\n      tag_254\n      swap2\n      swap1\n      tag_38\n      jump\t// in\n    tag_254:\n      0x00\n      mload(0x40)\n      dup1\n      dup4\n      sub\n      dup2\n      0x00\n      dup8\n      dup1\n      extcodesize\n      iszero\n      dup1\n      iszero\n      tag_255\n      jumpi\n      0x00\n      dup1\n      revert\n    tag_255:\n      pop\n      gas\n      call\n      iszero\n      dup1\n      iszero\n      tag_257\n      jumpi\n      returndatasize\n      0x00\n      dup1\n      returndatacopy\n      revert(0x00, returndatasize)\n    tag_257:\n      pop\n      pop\n      pop\n      pop\n        /* \"Buy_ERupee.sol\":4200:4347  {... */\n      pop\n        /* \"Buy_ERupee.sol\":4195:4198  j++ */\n      dup1\n      dup1\n      tag_258\n      swap1\n      tag_148\n      jump\t// in\n    tag_258:\n      swap2\n      pop\n      pop\n        /* \"Buy_ERupee.sol\":4153:4347  for (uint256 j = 0; j < userNoteCount[i]; j++) {... */\n      jump(tag_246)\n    tag_247:\n      pop\n        /* \"Buy_ERupee.sol\":4134:4137  i++ */\n      dup1\n      dup1\n      tag_259\n      swap1\n      tag_148\n      jump\t// in\n    tag_259:\n      swap2\n      pop\n      pop\n        /* \"Buy_ERupee.sol\":4115:4357  for (i = 0; i < 9; i++) {... */\n      jump(tag_243)\n    tag_244:\n        /* \"Buy_ERupee.sol\":4398:4405  _amount */\n      dup5\n        /* \"Buy_ERupee.sol\":4366:4382  userFundsMapping */\n      0x17\n        /* \"Buy_ERupee.sol\":4366:4394  userFundsMapping[msg.sender] */\n      0x00\n        /* \"Buy_ERupee.sol\":4383:4393  msg.sender */\n      caller\n        /* \"Buy_ERupee.sol\":4366:4394  userFundsMapping[msg.sender] */\n      0xffffffffffffffffffffffffffffffffffffffff\n      and\n      0xffffffffffffffffffffffffffffffffffffffff\n      and\n      dup2\n      mstore\n      0x20\n      add\n      swap1\n      dup2\n      mstore\n      0x20\n      add\n      0x00\n      keccak256\n      0x00\n        /* \"Buy_ERupee.sol\":4366:4405  userFundsMapping[msg.sender] += _amount */\n      dup3\n      dup3\n      sload\n      tag_260\n      swap2\n      swap1\n      tag_134\n      jump\t// in\n    tag_260:\n      swap3\n      pop\n      pop\n      dup2\n      swap1\n      sstore\n      pop\n        /* \"Buy_ERupee.sol\":3667:4412  {... */\n      pop\n      pop\n      pop\n      pop\n        /* \"Buy_ERupee.sol\":3604:4412  function buy_With_note_denominations(uint256 _amount) external {... */\n      pop\n      jump\t// out\n        /* \"Buy_ERupee.sol\":719:760  address public two_hundred_Rupee_contract */\n    tag_107:\n      0x07\n      0x00\n      swap1\n      sload\n      swap1\n      0x0100\n      exp\n      swap1\n      div\n      0xffffffffffffffffffffffffffffffffffffffff\n      and\n      dup2\n      jump\t// out\n        /* \"Buy_ERupee.sol\":432:465  address public one_Rupee_contract */\n    tag_110:\n      0x00\n      dup1\n      sload\n      swap1\n      0x0100\n      exp\n      swap1\n      div\n      0xffffffffffffffffffffffffffffffffffffffff\n      and\n      dup2\n      jump\t// out\n        /* \"Buy_ERupee.sol\":4418:4778  function fetchUserNotes(address _user)... */\n    tag_127:\n        /* \"Buy_ERupee.sol\":4491:4508  uint256[9] memory */\n      tag_261\n      tag_129\n      jump\t// in\n    tag_261:\n        /* \"Buy_ERupee.sol\":4524:4551  uint256[9] memory _availArr */\n      tag_263\n      tag_129\n      jump\t// in\n    tag_263:\n        /* \"Buy_ERupee.sol\":4566:4575  uint256 i */\n      0x00\n        /* \"Buy_ERupee.sol\":4561:4746  for (uint256 i = 0; i < 9; i++) {... */\n    tag_264:\n        /* \"Buy_ERupee.sol\":4585:4586  9 */\n      0x09\n        /* \"Buy_ERupee.sol\":4581:4582  i */\n      dup2\n        /* \"Buy_ERupee.sol\":4581:4586  i < 9 */\n      lt\n        /* \"Buy_ERupee.sol\":4561:4746  for (uint256 i = 0; i < 9; i++) {... */\n      iszero\n      tag_265\n      jumpi\n        /* \"Buy_ERupee.sol\":4607:4632  IMyToken __Rupee_contract */\n      0x00\n        /* \"Buy_ERupee.sol\":4644:4662  _rupeeContractList */\n      0x0a\n        /* \"Buy_ERupee.sol\":4663:4664  i */\n      dup3\n        /* \"Buy_ERupee.sol\":4644:4665  _rupeeContractList[i] */\n      0x09\n      dup2\n      lt\n      tag_267\n      jumpi\n      tag_268\n      tag_143\n      jump\t// in\n    tag_268:\n    tag_267:\n      add\n      0x00\n      swap1\n      sload\n      swap1\n      0x0100\n      exp\n      swap1\n      div\n      0xffffffffffffffffffffffffffffffffffffffff\n      and\n        /* \"Buy_ERupee.sol\":4607:4666  IMyToken __Rupee_contract = IMyToken(_rupeeContractList[i]) */\n      swap1\n      pop\n        /* \"Buy_ERupee.sol\":4695:4711  __Rupee_contract */\n      dup1\n        /* \"Buy_ERupee.sol\":4695:4728  __Rupee_contract.return_num_notes */\n      0xffffffffffffffffffffffffffffffffffffffff\n      and\n      0x83e38d3b\n        /* \"Buy_ERupee.sol\":4729:4734  _user */\n      dup7\n        /* \"Buy_ERupee.sol\":4695:4735  __Rupee_contract.return_num_notes(_user) */\n      mload(0x40)\n      dup3\n      0xffffffff\n      and\n      0xe0\n      shl\n      dup2\n      mstore\n      0x04\n      add\n      tag_270\n      swap2\n      swap1\n      tag_38\n      jump\t// in\n    tag_270:\n      0x20\n      mload(0x40)\n      dup1\n      dup4\n      sub\n      dup2\n      0x00\n      dup8\n      gas\n      call\n      iszero\n      dup1\n      iszero\n      tag_272\n      jumpi\n      returndatasize\n      0x00\n      dup1\n      returndatacopy\n      revert(0x00, returndatasize)\n    tag_272:\n      pop\n      pop\n      pop\n      pop\n      mload(0x40)\n      returndatasize\n      not(0x1f)\n      0x1f\n      dup3\n      add\n      and\n      dup3\n      add\n      dup1\n      0x40\n      mstore\n      pop\n      dup2\n      add\n      swap1\n      tag_273\n      swap2\n      swap1\n      tag_274\n      jump\t// in\n    tag_273:\n        /* \"Buy_ERupee.sol\":4680:4689  _availArr */\n      dup4\n        /* \"Buy_ERupee.sol\":4690:4691  i */\n      dup4\n        /* \"Buy_ERupee.sol\":4680:4692  _availArr[i] */\n      0x09\n      dup2\n      lt\n      tag_275\n      jumpi\n      tag_276\n      tag_143\n      jump\t// in\n    tag_276:\n    tag_275:\n      0x20\n      mul\n      add\n        /* \"Buy_ERupee.sol\":4680:4735  _availArr[i] = __Rupee_contract.return_num_notes(_user) */\n      dup2\n      dup2\n      mstore\n      pop\n      pop\n        /* \"Buy_ERupee.sol\":4593:4746  {... */\n      pop\n        /* \"Buy_ERupee.sol\":4588:4591  i++ */\n      dup1\n      dup1\n      tag_277\n      swap1\n      tag_148\n      jump\t// in\n    tag_277:\n      swap2\n      pop\n      pop\n        /* \"Buy_ERupee.sol\":4561:4746  for (uint256 i = 0; i < 9; i++) {... */\n      jump(tag_264)\n    tag_265:\n      pop\n        /* \"Buy_ERupee.sol\":4762:4771  _availArr */\n      dup1\n        /* \"Buy_ERupee.sol\":4755:4771  return _availArr */\n      swap2\n      pop\n      pop\n        /* \"Buy_ERupee.sol\":4418:4778  function fetchUserNotes(address _user)... */\n      swap2\n      swap1\n      pop\n      jump\t// out\n        /* \"Buy_ERupee.sol\":7394:8917  function sendNFT(... */\n    tag_211:\n        /* \"Buy_ERupee.sol\":7558:7567  uint256 i */\n      0x00\n        /* \"Buy_ERupee.sol\":7553:7813  for (uint256 i = 0; i < 9; i++) {... */\n    tag_279:\n        /* \"Buy_ERupee.sol\":7577:7578  9 */\n      0x09\n        /* \"Buy_ERupee.sol\":7573:7574  i */\n      dup2\n        /* \"Buy_ERupee.sol\":7573:7578  i < 9 */\n      lt\n        /* \"Buy_ERupee.sol\":7553:7813  for (uint256 i = 0; i < 9; i++) {... */\n      iszero\n      tag_280\n      jumpi\n        /* \"Buy_ERupee.sol\":7604:7613  uint256 j */\n      0x00\n        /* \"Buy_ERupee.sol\":7599:7803  for (uint256 j = 0; j < _transferArr[i]; j++) {... */\n    tag_282:\n        /* \"Buy_ERupee.sol\":7623:7635  _transferArr */\n      dup6\n        /* \"Buy_ERupee.sol\":7636:7637  i */\n      dup3\n        /* \"Buy_ERupee.sol\":7623:7638  _transferArr[i] */\n      0x09\n      dup2\n      lt\n      tag_285\n      jumpi\n      tag_286\n      tag_143\n      jump\t// in\n    tag_286:\n    tag_285:\n      0x20\n      mul\n      add\n      mload\n        /* \"Buy_ERupee.sol\":7619:7620  j */\n      dup2\n        /* \"Buy_ERupee.sol\":7619:7638  j < _transferArr[i] */\n      lt\n        /* \"Buy_ERupee.sol\":7599:7803  for (uint256 j = 0; j < _transferArr[i]; j++) {... */\n      iszero\n      tag_283\n      jumpi\n        /* \"Buy_ERupee.sol\":7663:7688  IMyToken __Rupee_contract */\n      0x00\n        /* \"Buy_ERupee.sol\":7700:7718  _rupeeContractList */\n      0x0a\n        /* \"Buy_ERupee.sol\":7719:7720  i */\n      dup4\n        /* \"Buy_ERupee.sol\":7700:7721  _rupeeContractList[i] */\n      0x09\n      dup2\n      lt\n      tag_287\n      jumpi\n      tag_288\n      tag_143\n      jump\t// in\n    tag_288:\n    tag_287:\n      add\n      0x00\n      swap1\n      sload\n      swap1\n      0x0100\n      exp\n      swap1\n      div\n      0xffffffffffffffffffffffffffffffffffffffff\n      and\n        /* \"Buy_ERupee.sol\":7663:7722  IMyToken __Rupee_contract = IMyToken(_rupeeContractList[i]) */\n      swap1\n      pop\n        /* \"Buy_ERupee.sol\":7740:7756  __Rupee_contract */\n      dup1\n        /* \"Buy_ERupee.sol\":7740:7771  __Rupee_contract.transfer_rupee */\n      0xffffffffffffffffffffffffffffffffffffffff\n      and\n      0x83c587df\n        /* \"Buy_ERupee.sol\":7772:7782  msg.sender */\n      caller\n        /* \"Buy_ERupee.sol\":7784:7787  _to */\n      dup9\n        /* \"Buy_ERupee.sol\":7740:7788  __Rupee_contract.transfer_rupee(msg.sender, _to) */\n      mload(0x40)\n      dup4\n      0xffffffff\n      and\n      0xe0\n      shl\n      dup2\n      mstore\n      0x04\n      add\n      tag_290\n      swap3\n      swap2\n      swap1\n      tag_203\n      jump\t// in\n    tag_290:\n      0x00\n      mload(0x40)\n      dup1\n      dup4\n      sub\n      dup2\n      0x00\n      dup8\n      dup1\n      extcodesize\n      iszero\n      dup1\n      iszero\n      tag_291\n      jumpi\n      0x00\n      dup1\n      revert\n    tag_291:\n      pop\n      gas\n      call\n      iszero\n      dup1\n      iszero\n      tag_293\n      jumpi\n      returndatasize\n      0x00\n      dup1\n      returndatacopy\n      revert(0x00, returndatasize)\n    tag_293:\n      pop\n      pop\n      pop\n      pop\n        /* \"Buy_ERupee.sol\":7645:7803  {... */\n      pop\n        /* \"Buy_ERupee.sol\":7640:7643  j++ */\n      dup1\n      dup1\n      tag_294\n      swap1\n      tag_148\n      jump\t// in\n    tag_294:\n      swap2\n      pop\n      pop\n        /* \"Buy_ERupee.sol\":7599:7803  for (uint256 j = 0; j < _transferArr[i]; j++) {... */\n      jump(tag_282)\n    tag_283:\n      pop\n        /* \"Buy_ERupee.sol\":7580:7583  i++ */\n      dup1\n      dup1\n      tag_295\n      swap1\n      tag_148\n      jump\t// in\n    tag_295:\n      swap2\n      pop\n      pop\n        /* \"Buy_ERupee.sol\":7553:7813  for (uint256 i = 0; i < 9; i++) {... */\n      jump(tag_279)\n    tag_280:\n      pop\n        /* \"Buy_ERupee.sol\":7823:7836  uint256 _num1 */\n      0x00\n        /* \"Buy_ERupee.sol\":7839:7848  _rem_mint */\n      dup3\n        /* \"Buy_ERupee.sol\":7823:7848  uint256 _num1 = _rem_mint */\n      swap1\n      pop\n        /* \"Buy_ERupee.sol\":7858:7871  uint256 _num2 */\n      0x00\n        /* \"Buy_ERupee.sol\":7874:7885  _rem_change */\n      dup3\n        /* \"Buy_ERupee.sol\":7858:7885  uint256 _num2 = _rem_change */\n      swap1\n      pop\n        /* \"Buy_ERupee.sol\":7895:7932  uint256[9] memory NoteNeeded_rem_mint */\n      tag_296\n      tag_129\n      jump\t// in\n    tag_296:\n        /* \"Buy_ERupee.sol\":7942:7981  uint256[9] memory NoteNeeded_rem_change */\n      tag_297\n      tag_129\n      jump\t// in\n    tag_297:\n        /* \"Buy_ERupee.sol\":7997:8006  uint256 k */\n      0x00\n        /* \"Buy_ERupee.sol\":7992:8182  for (uint256 k = 0; k < 9; k++) {... */\n    tag_298:\n        /* \"Buy_ERupee.sol\":8016:8017  9 */\n      0x09\n        /* \"Buy_ERupee.sol\":8012:8013  k */\n      dup2\n        /* \"Buy_ERupee.sol\":8012:8017  k < 9 */\n      lt\n        /* \"Buy_ERupee.sol\":7992:8182  for (uint256 k = 0; k < 9; k++) {... */\n      iszero\n      tag_299\n      jumpi\n        /* \"Buy_ERupee.sol\":8038:8050  uint256 temp */\n      0x00\n        /* \"Buy_ERupee.sol\":8085:8127  noteCalculation(_num1, denominationArr[k]) */\n      tag_301\n        /* \"Buy_ERupee.sol\":8101:8106  _num1 */\n      dup7\n        /* \"Buy_ERupee.sol\":8108:8123  denominationArr */\n      0x19\n        /* \"Buy_ERupee.sol\":8124:8125  k */\n      dup5\n        /* \"Buy_ERupee.sol\":8108:8126  denominationArr[k] */\n      dup2\n      sload\n      dup2\n      lt\n      tag_302\n      jumpi\n      tag_303\n      tag_143\n      jump\t// in\n    tag_303:\n    tag_302:\n      swap1\n      0x00\n      mstore\n      keccak256(0x00, 0x20)\n      add\n      sload\n        /* \"Buy_ERupee.sol\":8085:8100  noteCalculation */\n      tag_58\n        /* \"Buy_ERupee.sol\":8085:8127  noteCalculation(_num1, denominationArr[k]) */\n      jump\t// in\n    tag_301:\n        /* \"Buy_ERupee.sol\":8068:8128  (temp, _num1) = (noteCalculation(_num1, denominationArr[k])) */\n      dup1\n      swap8\n      pop\n      dup2\n      swap3\n      pop\n      pop\n      pop\n        /* \"Buy_ERupee.sol\":8167:8171  temp */\n      dup1\n        /* \"Buy_ERupee.sol\":8142:8161  NoteNeeded_rem_mint */\n      dup5\n        /* \"Buy_ERupee.sol\":8162:8163  k */\n      dup4\n        /* \"Buy_ERupee.sol\":8142:8164  NoteNeeded_rem_mint[k] */\n      0x09\n      dup2\n      lt\n      tag_305\n      jumpi\n      tag_306\n      tag_143\n      jump\t// in\n    tag_306:\n    tag_305:\n      0x20\n      mul\n      add\n        /* \"Buy_ERupee.sol\":8142:8171  NoteNeeded_rem_mint[k] = temp */\n      dup2\n      dup2\n      mstore\n      pop\n      pop\n        /* \"Buy_ERupee.sol\":8024:8182  {... */\n      pop\n        /* \"Buy_ERupee.sol\":8019:8022  k++ */\n      dup1\n      dup1\n      tag_307\n      swap1\n      tag_148\n      jump\t// in\n    tag_307:\n      swap2\n      pop\n      pop\n        /* \"Buy_ERupee.sol\":7992:8182  for (uint256 k = 0; k < 9; k++) {... */\n      jump(tag_298)\n    tag_299:\n      pop\n        /* \"Buy_ERupee.sol\":8197:8206  uint256 i */\n      0x00\n        /* \"Buy_ERupee.sol\":8192:8448  for (uint256 i = 0; i < 9; i++) {... */\n    tag_308:\n        /* \"Buy_ERupee.sol\":8216:8217  9 */\n      0x09\n        /* \"Buy_ERupee.sol\":8212:8213  i */\n      dup2\n        /* \"Buy_ERupee.sol\":8212:8217  i < 9 */\n      lt\n        /* \"Buy_ERupee.sol\":8192:8448  for (uint256 i = 0; i < 9; i++) {... */\n      iszero\n      tag_309\n      jumpi\n        /* \"Buy_ERupee.sol\":8243:8252  uint256 j */\n      0x00\n        /* \"Buy_ERupee.sol\":8238:8438  for (uint256 j = 0; j < NoteNeeded_rem_mint[i]; j++) {... */\n    tag_311:\n        /* \"Buy_ERupee.sol\":8262:8281  NoteNeeded_rem_mint */\n      dup4\n        /* \"Buy_ERupee.sol\":8282:8283  i */\n      dup3\n        /* \"Buy_ERupee.sol\":8262:8284  NoteNeeded_rem_mint[i] */\n      0x09\n      dup2\n      lt\n      tag_314\n      jumpi\n      tag_315\n      tag_143\n      jump\t// in\n    tag_315:\n    tag_314:\n      0x20\n      mul\n      add\n      mload\n        /* \"Buy_ERupee.sol\":8258:8259  j */\n      dup2\n        /* \"Buy_ERupee.sol\":8258:8284  j < NoteNeeded_rem_mint[i] */\n      lt\n        /* \"Buy_ERupee.sol\":8238:8438  for (uint256 j = 0; j < NoteNeeded_rem_mint[i]; j++) {... */\n      iszero\n      tag_312\n      jumpi\n        /* \"Buy_ERupee.sol\":8309:8334  IMyToken __Rupee_contract */\n      0x00\n        /* \"Buy_ERupee.sol\":8346:8364  _rupeeContractList */\n      0x0a\n        /* \"Buy_ERupee.sol\":8365:8366  i */\n      dup4\n        /* \"Buy_ERupee.sol\":8346:8367  _rupeeContractList[i] */\n      0x09\n      dup2\n      lt\n      tag_316\n      jumpi\n      tag_317\n      tag_143\n      jump\t// in\n    tag_317:\n    tag_316:\n      add\n      0x00\n      swap1\n      sload\n      swap1\n      0x0100\n      exp\n      swap1\n      div\n      0xffffffffffffffffffffffffffffffffffffffff\n      and\n        /* \"Buy_ERupee.sol\":8309:8368  IMyToken __Rupee_contract = IMyToken(_rupeeContractList[i]) */\n      swap1\n      pop\n        /* \"Buy_ERupee.sol\":8386:8402  __Rupee_contract */\n      dup1\n        /* \"Buy_ERupee.sol\":8386:8411  __Rupee_contract.safeMint */\n      0xffffffffffffffffffffffffffffffffffffffff\n      and\n      0x40d097c3\n        /* \"Buy_ERupee.sol\":8412:8422  msg.sender */\n      caller\n        /* \"Buy_ERupee.sol\":8386:8423  __Rupee_contract.safeMint(msg.sender) */\n      mload(0x40)\n      dup3\n      0xffffffff\n      and\n      0xe0\n      shl\n      dup2\n      mstore\n      0x04\n      add\n      tag_319\n      swap2\n      swap1\n      tag_38\n      jump\t// in\n    tag_319:\n      0x00\n      mload(0x40)\n      dup1\n      dup4\n      sub\n      dup2\n      0x00\n      dup8\n      dup1\n      extcodesize\n      iszero\n      dup1\n      iszero\n      tag_320\n      jumpi\n      0x00\n      dup1\n      revert\n    tag_320:\n      pop\n      gas\n      call\n      iszero\n      dup1\n      iszero\n      tag_322\n      jumpi\n      returndatasize\n      0x00\n      dup1\n      returndatacopy\n      revert(0x00, returndatasize)\n    tag_322:\n      pop\n      pop\n      pop\n      pop\n        /* \"Buy_ERupee.sol\":8291:8438  {... */\n      pop\n        /* \"Buy_ERupee.sol\":8286:8289  j++ */\n      dup1\n      dup1\n      tag_323\n      swap1\n      tag_148\n      jump\t// in\n    tag_323:\n      swap2\n      pop\n      pop\n        /* \"Buy_ERupee.sol\":8238:8438  for (uint256 j = 0; j < NoteNeeded_rem_mint[i]; j++) {... */\n      jump(tag_311)\n    tag_312:\n      pop\n        /* \"Buy_ERupee.sol\":8219:8222  i++ */\n      dup1\n      dup1\n      tag_324\n      swap1\n      tag_148\n      jump\t// in\n    tag_324:\n      swap2\n      pop\n      pop\n        /* \"Buy_ERupee.sol\":8192:8448  for (uint256 i = 0; i < 9; i++) {... */\n      jump(tag_308)\n    tag_309:\n      pop\n        /* \"Buy_ERupee.sol\":8463:8472  uint256 k */\n      0x00\n        /* \"Buy_ERupee.sol\":8458:8650  for (uint256 k = 0; k < 9; k++) {... */\n    tag_325:\n        /* \"Buy_ERupee.sol\":8482:8483  9 */\n      0x09\n        /* \"Buy_ERupee.sol\":8478:8479  k */\n      dup2\n        /* \"Buy_ERupee.sol\":8478:8483  k < 9 */\n      lt\n        /* \"Buy_ERupee.sol\":8458:8650  for (uint256 k = 0; k < 9; k++) {... */\n      iszero\n      tag_326\n      jumpi\n        /* \"Buy_ERupee.sol\":8504:8516  uint256 temp */\n      0x00\n        /* \"Buy_ERupee.sol\":8551:8593  noteCalculation(_num2, denominationArr[k]) */\n      tag_328\n        /* \"Buy_ERupee.sol\":8567:8572  _num2 */\n      dup6\n        /* \"Buy_ERupee.sol\":8574:8589  denominationArr */\n      0x19\n        /* \"Buy_ERupee.sol\":8590:8591  k */\n      dup5\n        /* \"Buy_ERupee.sol\":8574:8592  denominationArr[k] */\n      dup2\n      sload\n      dup2\n      lt\n      tag_329\n      jumpi\n      tag_330\n      tag_143\n      jump\t// in\n    tag_330:\n    tag_329:\n      swap1\n      0x00\n      mstore\n      keccak256(0x00, 0x20)\n      add\n      sload\n        /* \"Buy_ERupee.sol\":8551:8566  noteCalculation */\n      tag_58\n        /* \"Buy_ERupee.sol\":8551:8593  noteCalculation(_num2, denominationArr[k]) */\n      jump\t// in\n    tag_328:\n        /* \"Buy_ERupee.sol\":8534:8594  (temp, _num2) = (noteCalculation(_num2, denominationArr[k])) */\n      dup1\n      swap7\n      pop\n      dup2\n      swap3\n      pop\n      pop\n      pop\n        /* \"Buy_ERupee.sol\":8635:8639  temp */\n      dup1\n        /* \"Buy_ERupee.sol\":8608:8629  NoteNeeded_rem_change */\n      dup4\n        /* \"Buy_ERupee.sol\":8630:8631  k */\n      dup4\n        /* \"Buy_ERupee.sol\":8608:8632  NoteNeeded_rem_change[k] */\n      0x09\n      dup2\n      lt\n      tag_332\n      jumpi\n      tag_333\n      tag_143\n      jump\t// in\n    tag_333:\n    tag_332:\n      0x20\n      mul\n      add\n        /* \"Buy_ERupee.sol\":8608:8639  NoteNeeded_rem_change[k] = temp */\n      dup2\n      dup2\n      mstore\n      pop\n      pop\n        /* \"Buy_ERupee.sol\":8490:8650  {... */\n      pop\n        /* \"Buy_ERupee.sol\":8485:8488  k++ */\n      dup1\n      dup1\n      tag_334\n      swap1\n      tag_148\n      jump\t// in\n    tag_334:\n      swap2\n      pop\n      pop\n        /* \"Buy_ERupee.sol\":8458:8650  for (uint256 k = 0; k < 9; k++) {... */\n      jump(tag_325)\n    tag_326:\n      pop\n        /* \"Buy_ERupee.sol\":8665:8674  uint256 i */\n      0x00\n        /* \"Buy_ERupee.sol\":8660:8911  for (uint256 i = 0; i < 9; i++) {... */\n    tag_335:\n        /* \"Buy_ERupee.sol\":8684:8685  9 */\n      0x09\n        /* \"Buy_ERupee.sol\":8680:8681  i */\n      dup2\n        /* \"Buy_ERupee.sol\":8680:8685  i < 9 */\n      lt\n        /* \"Buy_ERupee.sol\":8660:8911  for (uint256 i = 0; i < 9; i++) {... */\n      iszero\n      tag_336\n      jumpi\n        /* \"Buy_ERupee.sol\":8711:8720  uint256 j */\n      0x00\n        /* \"Buy_ERupee.sol\":8706:8901  for (uint256 j = 0; j < NoteNeeded_rem_change[i]; j++) {... */\n    tag_338:\n        /* \"Buy_ERupee.sol\":8730:8751  NoteNeeded_rem_change */\n      dup3\n        /* \"Buy_ERupee.sol\":8752:8753  i */\n      dup3\n        /* \"Buy_ERupee.sol\":8730:8754  NoteNeeded_rem_change[i] */\n      0x09\n      dup2\n      lt\n      tag_341\n      jumpi\n      tag_342\n      tag_143\n      jump\t// in\n    tag_342:\n    tag_341:\n      0x20\n      mul\n      add\n      mload\n        /* \"Buy_ERupee.sol\":8726:8727  j */\n      dup2\n        /* \"Buy_ERupee.sol\":8726:8754  j < NoteNeeded_rem_change[i] */\n      lt\n        /* \"Buy_ERupee.sol\":8706:8901  for (uint256 j = 0; j < NoteNeeded_rem_change[i]; j++) {... */\n      iszero\n      tag_339\n      jumpi\n        /* \"Buy_ERupee.sol\":8779:8804  IMyToken __Rupee_contract */\n      0x00\n        /* \"Buy_ERupee.sol\":8816:8834  _rupeeContractList */\n      0x0a\n        /* \"Buy_ERupee.sol\":8835:8836  i */\n      dup4\n        /* \"Buy_ERupee.sol\":8816:8837  _rupeeContractList[i] */\n      0x09\n      dup2\n      lt\n      tag_343\n      jumpi\n      tag_344\n      tag_143\n      jump\t// in\n    tag_344:\n    tag_343:\n      add\n      0x00\n      swap1\n      sload\n      swap1\n      0x0100\n      exp\n      swap1\n      div\n      0xffffffffffffffffffffffffffffffffffffffff\n      and\n        /* \"Buy_ERupee.sol\":8779:8838  IMyToken __Rupee_contract = IMyToken(_rupeeContractList[i]) */\n      swap1\n      pop\n        /* \"Buy_ERupee.sol\":8856:8872  __Rupee_contract */\n      dup1\n        /* \"Buy_ERupee.sol\":8856:8881  __Rupee_contract.safeMint */\n      0xffffffffffffffffffffffffffffffffffffffff\n      and\n      0x40d097c3\n        /* \"Buy_ERupee.sol\":8882:8885  _to */\n      dup12\n        /* \"Buy_ERupee.sol\":8856:8886  __Rupee_contract.safeMint(_to) */\n      mload(0x40)\n      dup3\n      0xffffffff\n      and\n      0xe0\n      shl\n      dup2\n      mstore\n      0x04\n      add\n      tag_346\n      swap2\n      swap1\n      tag_38\n      jump\t// in\n    tag_346:\n      0x00\n      mload(0x40)\n      dup1\n      dup4\n      sub\n      dup2\n      0x00\n      dup8\n      dup1\n      extcodesize\n      iszero\n      dup1\n      iszero\n      tag_347\n      jumpi\n      0x00\n      dup1\n      revert\n    tag_347:\n      pop\n      gas\n      call\n      iszero\n      dup1\n      iszero\n      tag_349\n      jumpi\n      returndatasize\n      0x00\n      dup1\n      returndatacopy\n      revert(0x00, returndatasize)\n    tag_349:\n      pop\n      pop\n      pop\n      pop\n        /* \"Buy_ERupee.sol\":8761:8901  {... */\n      pop\n        /* \"Buy_ERupee.sol\":8756:8759  j++ */\n      dup1\n      dup1\n      tag_350\n      swap1\n      tag_148\n      jump\t// in\n    tag_350:\n      swap2\n      pop\n      pop\n        /* \"Buy_ERupee.sol\":8706:8901  for (uint256 j = 0; j < NoteNeeded_rem_change[i]; j++) {... */\n      jump(tag_338)\n    tag_339:\n      pop\n        /* \"Buy_ERupee.sol\":8687:8690  i++ */\n      dup1\n      dup1\n      tag_351\n      swap1\n      tag_148\n      jump\t// in\n    tag_351:\n      swap2\n      pop\n      pop\n        /* \"Buy_ERupee.sol\":8660:8911  for (uint256 i = 0; i < 9; i++) {... */\n      jump(tag_335)\n    tag_336:\n      pop\n        /* \"Buy_ERupee.sol\":7543:8917  {... */\n      pop\n      pop\n      pop\n      pop\n        /* \"Buy_ERupee.sol\":7394:8917  function sendNFT(... */\n      pop\n      pop\n      pop\n      pop\n      jump\t// out\n    tag_129:\n      mload(0x40)\n      dup1\n      0x0120\n      add\n      0x40\n      mstore\n      dup1\n      0x09\n      swap1\n      0x20\n      dup3\n      mul\n      dup1\n      calldatasize\n      dup4\n      calldatacopy\n      dup1\n      dup3\n      add\n      swap2\n      pop\n      pop\n      swap1\n      pop\n      pop\n      swap1\n      jump\t// out\n    tag_221:\n      dup3\n      0x09\n      dup2\n      add\n      swap3\n      dup3\n      iszero\n      tag_352\n      jumpi\n      swap2\n      0x20\n      mul\n      dup3\n      add\n    tag_353:\n      dup3\n      dup2\n      gt\n      iszero\n      tag_354\n      jumpi\n      dup3\n      mload\n      dup3\n      exp(0x0100, 0x00)\n      dup2\n      sload\n      dup2\n      0xffffffffffffffffffffffffffffffffffffffff\n      mul\n      not\n      and\n      swap1\n      dup4\n      0xffffffffffffffffffffffffffffffffffffffff\n      and\n      mul\n      or\n      swap1\n      sstore\n      pop\n      swap2\n      0x20\n      add\n      swap2\n      swap1\n      0x01\n      add\n      swap1\n      jump(tag_353)\n    tag_354:\n    tag_352:\n      pop\n      swap1\n      pop\n      tag_355\n      swap2\n      swap1\n      tag_356\n      jump\t// in\n    tag_355:\n      pop\n      swap1\n      jump\t// out\n    tag_356:\n    tag_357:\n      dup1\n      dup3\n      gt\n      iszero\n      tag_358\n      jumpi\n      0x00\n      dup2\n      0x00\n      swap1\n      sstore\n      pop\n      0x01\n      add\n      jump(tag_357)\n    tag_358:\n      pop\n      swap1\n      jump\t// out\n        /* \"#utility.yul\":88:205   */\n    tag_360:\n        /* \"#utility.yul\":197:198   */\n      0x00\n        /* \"#utility.yul\":194:195   */\n      dup1\n        /* \"#utility.yul\":187:199   */\n      revert\n        /* \"#utility.yul\":334:460   */\n    tag_362:\n        /* \"#utility.yul\":371:378   */\n      0x00\n        /* \"#utility.yul\":411:453   */\n      0xffffffffffffffffffffffffffffffffffffffff\n        /* \"#utility.yul\":404:409   */\n      dup3\n        /* \"#utility.yul\":400:454   */\n      and\n        /* \"#utility.yul\":389:454   */\n      swap1\n      pop\n        /* \"#utility.yul\":334:460   */\n      swap2\n      swap1\n      pop\n      jump\t// out\n        /* \"#utility.yul\":466:562   */\n    tag_363:\n        /* \"#utility.yul\":503:510   */\n      0x00\n        /* \"#utility.yul\":532:556   */\n      tag_391\n        /* \"#utility.yul\":550:555   */\n      dup3\n        /* \"#utility.yul\":532:556   */\n      tag_362\n      jump\t// in\n    tag_391:\n        /* \"#utility.yul\":521:556   */\n      swap1\n      pop\n        /* \"#utility.yul\":466:562   */\n      swap2\n      swap1\n      pop\n      jump\t// out\n        /* \"#utility.yul\":568:690   */\n    tag_364:\n        /* \"#utility.yul\":641:665   */\n      tag_393\n        /* \"#utility.yul\":659:664   */\n      dup2\n        /* \"#utility.yul\":641:665   */\n      tag_363\n      jump\t// in\n    tag_393:\n        /* \"#utility.yul\":634:639   */\n      dup2\n        /* \"#utility.yul\":631:666   */\n      eq\n        /* \"#utility.yul\":621:684   */\n      tag_394\n      jumpi\n        /* \"#utility.yul\":680:681   */\n      0x00\n        /* \"#utility.yul\":677:678   */\n      dup1\n        /* \"#utility.yul\":670:682   */\n      revert\n        /* \"#utility.yul\":621:684   */\n    tag_394:\n        /* \"#utility.yul\":568:690   */\n      pop\n      jump\t// out\n        /* \"#utility.yul\":696:835   */\n    tag_365:\n        /* \"#utility.yul\":742:747   */\n      0x00\n        /* \"#utility.yul\":780:786   */\n      dup2\n        /* \"#utility.yul\":767:787   */\n      calldataload\n        /* \"#utility.yul\":758:787   */\n      swap1\n      pop\n        /* \"#utility.yul\":796:829   */\n      tag_396\n        /* \"#utility.yul\":823:828   */\n      dup2\n        /* \"#utility.yul\":796:829   */\n      tag_364\n      jump\t// in\n    tag_396:\n        /* \"#utility.yul\":696:835   */\n      swap3\n      swap2\n      pop\n      pop\n      jump\t// out\n        /* \"#utility.yul\":841:1170   */\n    tag_31:\n        /* \"#utility.yul\":900:906   */\n      0x00\n        /* \"#utility.yul\":949:951   */\n      0x20\n        /* \"#utility.yul\":937:946   */\n      dup3\n        /* \"#utility.yul\":928:935   */\n      dup5\n        /* \"#utility.yul\":924:947   */\n      sub\n        /* \"#utility.yul\":920:952   */\n      slt\n        /* \"#utility.yul\":917:1036   */\n      iszero\n      tag_398\n      jumpi\n        /* \"#utility.yul\":955:1034   */\n      tag_399\n      tag_360\n      jump\t// in\n    tag_399:\n        /* \"#utility.yul\":917:1036   */\n    tag_398:\n        /* \"#utility.yul\":1075:1076   */\n      0x00\n        /* \"#utility.yul\":1100:1153   */\n      tag_400\n        /* \"#utility.yul\":1145:1152   */\n      dup5\n        /* \"#utility.yul\":1136:1142   */\n      dup3\n        /* \"#utility.yul\":1125:1134   */\n      dup6\n        /* \"#utility.yul\":1121:1143   */\n      add\n        /* \"#utility.yul\":1100:1153   */\n      tag_365\n      jump\t// in\n    tag_400:\n        /* \"#utility.yul\":1090:1153   */\n      swap2\n      pop\n        /* \"#utility.yul\":1046:1163   */\n      pop\n        /* \"#utility.yul\":841:1170   */\n      swap3\n      swap2\n      pop\n      pop\n      jump\t// out\n        /* \"#utility.yul\":1176:1266   */\n    tag_366:\n        /* \"#utility.yul\":1210:1217   */\n      0x00\n        /* \"#utility.yul\":1253:1258   */\n      dup2\n        /* \"#utility.yul\":1246:1259   */\n      iszero\n        /* \"#utility.yul\":1239:1260   */\n      iszero\n        /* \"#utility.yul\":1228:1260   */\n      swap1\n      pop\n        /* \"#utility.yul\":1176:1266   */\n      swap2\n      swap1\n      pop\n      jump\t// out\n        /* \"#utility.yul\":1272:1381   */\n    tag_367:\n        /* \"#utility.yul\":1353:1374   */\n      tag_403\n        /* \"#utility.yul\":1368:1373   */\n      dup2\n        /* \"#utility.yul\":1353:1374   */\n      tag_366\n      jump\t// in\n    tag_403:\n        /* \"#utility.yul\":1348:1351   */\n      dup3\n        /* \"#utility.yul\":1341:1375   */\n      mstore\n        /* \"#utility.yul\":1272:1381   */\n      pop\n      pop\n      jump\t// out\n        /* \"#utility.yul\":1387:1597   */\n    tag_34:\n        /* \"#utility.yul\":1474:1478   */\n      0x00\n        /* \"#utility.yul\":1512:1514   */\n      0x20\n        /* \"#utility.yul\":1501:1510   */\n      dup3\n        /* \"#utility.yul\":1497:1515   */\n      add\n        /* \"#utility.yul\":1489:1515   */\n      swap1\n      pop\n        /* \"#utility.yul\":1525:1590   */\n      tag_405\n        /* \"#utility.yul\":1587:1588   */\n      0x00\n        /* \"#utility.yul\":1576:1585   */\n      dup4\n        /* \"#utility.yul\":1572:1589   */\n      add\n        /* \"#utility.yul\":1563:1569   */\n      dup5\n        /* \"#utility.yul\":1525:1590   */\n      tag_367\n      jump\t// in\n    tag_405:\n        /* \"#utility.yul\":1387:1597   */\n      swap3\n      swap2\n      pop\n      pop\n      jump\t// out\n        /* \"#utility.yul\":1603:1721   */\n    tag_368:\n        /* \"#utility.yul\":1690:1714   */\n      tag_407\n        /* \"#utility.yul\":1708:1713   */\n      dup2\n        /* \"#utility.yul\":1690:1714   */\n      tag_363\n      jump\t// in\n    tag_407:\n        /* \"#utility.yul\":1685:1688   */\n      dup3\n        /* \"#utility.yul\":1678:1715   */\n      mstore\n        /* \"#utility.yul\":1603:1721   */\n      pop\n      pop\n      jump\t// out\n        /* \"#utility.yul\":1727:1949   */\n    tag_38:\n        /* \"#utility.yul\":1820:1824   */\n      0x00\n        /* \"#utility.yul\":1858:1860   */\n      0x20\n        /* \"#utility.yul\":1847:1856   */\n      dup3\n        /* \"#utility.yul\":1843:1861   */\n      add\n        /* \"#utility.yul\":1835:1861   */\n      swap1\n      pop\n        /* \"#utility.yul\":1871:1942   */\n      tag_409\n        /* \"#utility.yul\":1939:1940   */\n      0x00\n        /* \"#utility.yul\":1928:1937   */\n      dup4\n        /* \"#utility.yul\":1924:1941   */\n      add\n        /* \"#utility.yul\":1915:1921   */\n      dup5\n        /* \"#utility.yul\":1871:1942   */\n      tag_368\n      jump\t// in\n    tag_409:\n        /* \"#utility.yul\":1727:1949   */\n      swap3\n      swap2\n      pop\n      pop\n      jump\t// out\n        /* \"#utility.yul\":1955:2032   */\n    tag_369:\n        /* \"#utility.yul\":1992:1999   */\n      0x00\n        /* \"#utility.yul\":2021:2026   */\n      dup2\n        /* \"#utility.yul\":2010:2026   */\n      swap1\n      pop\n        /* \"#utility.yul\":1955:2032   */\n      swap2\n      swap1\n      pop\n      jump\t// out\n        /* \"#utility.yul\":2038:2156   */\n    tag_370:\n        /* \"#utility.yul\":2125:2149   */\n      tag_412\n        /* \"#utility.yul\":2143:2148   */\n      dup2\n        /* \"#utility.yul\":2125:2149   */\n      tag_369\n      jump\t// in\n    tag_412:\n        /* \"#utility.yul\":2120:2123   */\n      dup3\n        /* \"#utility.yul\":2113:2150   */\n      mstore\n        /* \"#utility.yul\":2038:2156   */\n      pop\n      pop\n      jump\t// out\n        /* \"#utility.yul\":2162:2384   */\n    tag_43:\n        /* \"#utility.yul\":2255:2259   */\n      0x00\n        /* \"#utility.yul\":2293:2295   */\n      0x20\n        /* \"#utility.yul\":2282:2291   */\n      dup3\n        /* \"#utility.yul\":2278:2296   */\n      add\n        /* \"#utility.yul\":2270:2296   */\n      swap1\n      pop\n        /* \"#utility.yul\":2306:2377   */\n      tag_414\n        /* \"#utility.yul\":2374:2375   */\n      0x00\n        /* \"#utility.yul\":2363:2372   */\n      dup4\n        /* \"#utility.yul\":2359:2376   */\n      add\n        /* \"#utility.yul\":2350:2356   */\n      dup5\n        /* \"#utility.yul\":2306:2377   */\n      tag_370\n      jump\t// in\n    tag_414:\n        /* \"#utility.yul\":2162:2384   */\n      swap3\n      swap2\n      pop\n      pop\n      jump\t// out\n        /* \"#utility.yul\":2390:2512   */\n    tag_371:\n        /* \"#utility.yul\":2463:2487   */\n      tag_416\n        /* \"#utility.yul\":2481:2486   */\n      dup2\n        /* \"#utility.yul\":2463:2487   */\n      tag_369\n      jump\t// in\n    tag_416:\n        /* \"#utility.yul\":2456:2461   */\n      dup2\n        /* \"#utility.yul\":2453:2488   */\n      eq\n        /* \"#utility.yul\":2443:2506   */\n      tag_417\n      jumpi\n        /* \"#utility.yul\":2502:2503   */\n      0x00\n        /* \"#utility.yul\":2499:2500   */\n      dup1\n        /* \"#utility.yul\":2492:2504   */\n      revert\n        /* \"#utility.yul\":2443:2506   */\n    tag_417:\n        /* \"#utility.yul\":2390:2512   */\n      pop\n      jump\t// out\n        /* \"#utility.yul\":2518:2657   */\n    tag_372:\n        /* \"#utility.yul\":2564:2569   */\n      0x00\n        /* \"#utility.yul\":2602:2608   */\n      dup2\n        /* \"#utility.yul\":2589:2609   */\n      calldataload\n        /* \"#utility.yul\":2580:2609   */\n      swap1\n      pop\n        /* \"#utility.yul\":2618:2651   */\n      tag_419\n        /* \"#utility.yul\":2645:2650   */\n      dup2\n        /* \"#utility.yul\":2618:2651   */\n      tag_371\n      jump\t// in\n    tag_419:\n        /* \"#utility.yul\":2518:2657   */\n      swap3\n      swap2\n      pop\n      pop\n      jump\t// out\n        /* \"#utility.yul\":2663:3137   */\n    tag_49:\n        /* \"#utility.yul\":2731:2737   */\n      0x00\n        /* \"#utility.yul\":2739:2745   */\n      dup1\n        /* \"#utility.yul\":2788:2790   */\n      0x40\n        /* \"#utility.yul\":2776:2785   */\n      dup4\n        /* \"#utility.yul\":2767:2774   */\n      dup6\n        /* \"#utility.yul\":2763:2786   */\n      sub\n        /* \"#utility.yul\":2759:2791   */\n      slt\n        /* \"#utility.yul\":2756:2875   */\n      iszero\n      tag_421\n      jumpi\n        /* \"#utility.yul\":2794:2873   */\n      tag_422\n      tag_360\n      jump\t// in\n    tag_422:\n        /* \"#utility.yul\":2756:2875   */\n    tag_421:\n        /* \"#utility.yul\":2914:2915   */\n      0x00\n        /* \"#utility.yul\":2939:2992   */\n      tag_423\n        /* \"#utility.yul\":2984:2991   */\n      dup6\n        /* \"#utility.yul\":2975:2981   */\n      dup3\n        /* \"#utility.yul\":2964:2973   */\n      dup7\n        /* \"#utility.yul\":2960:2982   */\n      add\n        /* \"#utility.yul\":2939:2992   */\n      tag_372\n      jump\t// in\n    tag_423:\n        /* \"#utility.yul\":2929:2992   */\n      swap3\n      pop\n        /* \"#utility.yul\":2885:3002   */\n      pop\n        /* \"#utility.yul\":3041:3043   */\n      0x20\n        /* \"#utility.yul\":3067:3120   */\n      tag_424\n        /* \"#utility.yul\":3112:3119   */\n      dup6\n        /* \"#utility.yul\":3103:3109   */\n      dup3\n        /* \"#utility.yul\":3092:3101   */\n      dup7\n        /* \"#utility.yul\":3088:3110   */\n      add\n        /* \"#utility.yul\":3067:3120   */\n      tag_365\n      jump\t// in\n    tag_424:\n        /* \"#utility.yul\":3057:3120   */\n      swap2\n      pop\n        /* \"#utility.yul\":3012:3130   */\n      pop\n        /* \"#utility.yul\":2663:3137   */\n      swap3\n      pop\n      swap3\n      swap1\n      pop\n      jump\t// out\n        /* \"#utility.yul\":3143:3617   */\n    tag_57:\n        /* \"#utility.yul\":3211:3217   */\n      0x00\n        /* \"#utility.yul\":3219:3225   */\n      dup1\n        /* \"#utility.yul\":3268:3270   */\n      0x40\n        /* \"#utility.yul\":3256:3265   */\n      dup4\n        /* \"#utility.yul\":3247:3254   */\n      dup6\n        /* \"#utility.yul\":3243:3266   */\n      sub\n        /* \"#utility.yul\":3239:3271   */\n      slt\n        /* \"#utility.yul\":3236:3355   */\n      iszero\n      tag_426\n      jumpi\n        /* \"#utility.yul\":3274:3353   */\n      tag_427\n      tag_360\n      jump\t// in\n    tag_427:\n        /* \"#utility.yul\":3236:3355   */\n    tag_426:\n        /* \"#utility.yul\":3394:3395   */\n      0x00\n        /* \"#utility.yul\":3419:3472   */\n      tag_428\n        /* \"#utility.yul\":3464:3471   */\n      dup6\n        /* \"#utility.yul\":3455:3461   */\n      dup3\n        /* \"#utility.yul\":3444:3453   */\n      dup7\n        /* \"#utility.yul\":3440:3462   */\n      add\n        /* \"#utility.yul\":3419:3472   */\n      tag_372\n      jump\t// in\n    tag_428:\n        /* \"#utility.yul\":3409:3472   */\n      swap3\n      pop\n        /* \"#utility.yul\":3365:3482   */\n      pop\n        /* \"#utility.yul\":3521:3523   */\n      0x20\n        /* \"#utility.yul\":3547:3600   */\n      tag_429\n        /* \"#utility.yul\":3592:3599   */\n      dup6\n        /* \"#utility.yul\":3583:3589   */\n      dup3\n        /* \"#utility.yul\":3572:3581   */\n      dup7\n        /* \"#utility.yul\":3568:3590   */\n      add\n        /* \"#utility.yul\":3547:3600   */\n      tag_372\n      jump\t// in\n    tag_429:\n        /* \"#utility.yul\":3537:3600   */\n      swap2\n      pop\n        /* \"#utility.yul\":3492:3610   */\n      pop\n        /* \"#utility.yul\":3143:3617   */\n      swap3\n      pop\n      swap3\n      swap1\n      pop\n      jump\t// out\n        /* \"#utility.yul\":3623:3955   */\n    tag_60:\n        /* \"#utility.yul\":3744:3748   */\n      0x00\n        /* \"#utility.yul\":3782:3784   */\n      0x40\n        /* \"#utility.yul\":3771:3780   */\n      dup3\n        /* \"#utility.yul\":3767:3785   */\n      add\n        /* \"#utility.yul\":3759:3785   */\n      swap1\n      pop\n        /* \"#utility.yul\":3795:3866   */\n      tag_431\n        /* \"#utility.yul\":3863:3864   */\n      0x00\n        /* \"#utility.yul\":3852:3861   */\n      dup4\n        /* \"#utility.yul\":3848:3865   */\n      add\n        /* \"#utility.yul\":3839:3845   */\n      dup6\n        /* \"#utility.yul\":3795:3866   */\n      tag_370\n      jump\t// in\n    tag_431:\n        /* \"#utility.yul\":3876:3948   */\n      tag_432\n        /* \"#utility.yul\":3944:3946   */\n      0x20\n        /* \"#utility.yul\":3933:3942   */\n      dup4\n        /* \"#utility.yul\":3929:3947   */\n      add\n        /* \"#utility.yul\":3920:3926   */\n      dup5\n        /* \"#utility.yul\":3876:3948   */\n      tag_370\n      jump\t// in\n    tag_432:\n        /* \"#utility.yul\":3623:3955   */\n      swap4\n      swap3\n      pop\n      pop\n      pop\n      jump\t// out\n        /* \"#utility.yul\":3961:4290   */\n    tag_97:\n        /* \"#utility.yul\":4020:4026   */\n      0x00\n        /* \"#utility.yul\":4069:4071   */\n      0x20\n        /* \"#utility.yul\":4057:4066   */\n      dup3\n        /* \"#utility.yul\":4048:4055   */\n      dup5\n        /* \"#utility.yul\":4044:4067   */\n      sub\n        /* \"#utility.yul\":4040:4072   */\n      slt\n        /* \"#utility.yul\":4037:4156   */\n      iszero\n      tag_434\n      jumpi\n        /* \"#utility.yul\":4075:4154   */\n      tag_435\n      tag_360\n      jump\t// in\n    tag_435:\n        /* \"#utility.yul\":4037:4156   */\n    tag_434:\n        /* \"#utility.yul\":4195:4196   */\n      0x00\n        /* \"#utility.yul\":4220:4273   */\n      tag_436\n        /* \"#utility.yul\":4265:4272   */\n      dup5\n        /* \"#utility.yul\":4256:4262   */\n      dup3\n        /* \"#utility.yul\":4245:4254   */\n      dup6\n        /* \"#utility.yul\":4241:4263   */\n      add\n        /* \"#utility.yul\":4220:4273   */\n      tag_372\n      jump\t// in\n    tag_436:\n        /* \"#utility.yul\":4210:4273   */\n      swap2\n      pop\n        /* \"#utility.yul\":4166:4283   */\n      pop\n        /* \"#utility.yul\":3961:4290   */\n      swap3\n      swap2\n      pop\n      pop\n      jump\t// out\n        /* \"#utility.yul\":4296:4465   */\n    tag_373:\n        /* \"#utility.yul\":4380:4391   */\n      0x00\n        /* \"#utility.yul\":4414:4420   */\n      dup3\n        /* \"#utility.yul\":4409:4412   */\n      dup3\n        /* \"#utility.yul\":4402:4421   */\n      mstore\n        /* \"#utility.yul\":4454:4458   */\n      0x20\n        /* \"#utility.yul\":4449:4452   */\n      dup3\n        /* \"#utility.yul\":4445:4459   */\n      add\n        /* \"#utility.yul\":4430:4459   */\n      swap1\n      pop\n        /* \"#utility.yul\":4296:4465   */\n      swap3\n      swap2\n      pop\n      pop\n      jump\t// out\n        /* \"#utility.yul\":4471:4648   */\n    tag_374:\n        /* \"#utility.yul\":4611:4640   */\n      0x63616e206f6e6c792062652063616c6c6564206279206f776e65720000000000\n        /* \"#utility.yul\":4607:4608   */\n      0x00\n        /* \"#utility.yul\":4599:4605   */\n      dup3\n        /* \"#utility.yul\":4595:4609   */\n      add\n        /* \"#utility.yul\":4588:4641   */\n      mstore\n        /* \"#utility.yul\":4471:4648   */\n      pop\n      jump\t// out\n        /* \"#utility.yul\":4654:5020   */\n    tag_375:\n        /* \"#utility.yul\":4796:4799   */\n      0x00\n        /* \"#utility.yul\":4817:4884   */\n      tag_440\n        /* \"#utility.yul\":4881:4883   */\n      0x1b\n        /* \"#utility.yul\":4876:4879   */\n      dup4\n        /* \"#utility.yul\":4817:4884   */\n      tag_373\n      jump\t// in\n    tag_440:\n        /* \"#utility.yul\":4810:4884   */\n      swap2\n      pop\n        /* \"#utility.yul\":4893:4986   */\n      tag_441\n        /* \"#utility.yul\":4982:4985   */\n      dup3\n        /* \"#utility.yul\":4893:4986   */\n      tag_374\n      jump\t// in\n    tag_441:\n        /* \"#utility.yul\":5011:5013   */\n      0x20\n        /* \"#utility.yul\":5006:5009   */\n      dup3\n        /* \"#utility.yul\":5002:5014   */\n      add\n        /* \"#utility.yul\":4995:5014   */\n      swap1\n      pop\n        /* \"#utility.yul\":4654:5020   */\n      swap2\n      swap1\n      pop\n      jump\t// out\n        /* \"#utility.yul\":5026:5445   */\n    tag_116:\n        /* \"#utility.yul\":5192:5196   */\n      0x00\n        /* \"#utility.yul\":5230:5232   */\n      0x20\n        /* \"#utility.yul\":5219:5228   */\n      dup3\n        /* \"#utility.yul\":5215:5233   */\n      add\n        /* \"#utility.yul\":5207:5233   */\n      swap1\n      pop\n        /* \"#utility.yul\":5279:5288   */\n      dup2\n        /* \"#utility.yul\":5273:5277   */\n      dup2\n        /* \"#utility.yul\":5269:5289   */\n      sub\n        /* \"#utility.yul\":5265:5266   */\n      0x00\n        /* \"#utility.yul\":5254:5263   */\n      dup4\n        /* \"#utility.yul\":5250:5267   */\n      add\n        /* \"#utility.yul\":5243:5290   */\n      mstore\n        /* \"#utility.yul\":5307:5438   */\n      tag_443\n        /* \"#utility.yul\":5433:5437   */\n      dup2\n        /* \"#utility.yul\":5307:5438   */\n      tag_375\n      jump\t// in\n    tag_443:\n        /* \"#utility.yul\":5299:5438   */\n      swap1\n      pop\n        /* \"#utility.yul\":5026:5445   */\n      swap2\n      swap1\n      pop\n      jump\t// out\n        /* \"#utility.yul\":5451:5671   */\n    tag_376:\n        /* \"#utility.yul\":5591:5625   */\n      0x72656369657665722773206164647265737320697320626c61636b6c69737465\n        /* \"#utility.yul\":5587:5588   */\n      0x00\n        /* \"#utility.yul\":5579:5585   */\n      dup3\n        /* \"#utility.yul\":5575:5589   */\n      add\n        /* \"#utility.yul\":5568:5626   */\n      mstore\n        /* \"#utility.yul\":5660:5663   */\n      0x6400000000000000000000000000000000000000000000000000000000000000\n        /* \"#utility.yul\":5655:5657   */\n      0x20\n        /* \"#utility.yul\":5647:5653   */\n      dup3\n        /* \"#utility.yul\":5643:5658   */\n      add\n        /* \"#utility.yul\":5636:5664   */\n      mstore\n        /* \"#utility.yul\":5451:5671   */\n      pop\n      jump\t// out\n        /* \"#utility.yul\":5677:6043   */\n    tag_377:\n        /* \"#utility.yul\":5819:5822   */\n      0x00\n        /* \"#utility.yul\":5840:5907   */\n      tag_446\n        /* \"#utility.yul\":5904:5906   */\n      0x21\n        /* \"#utility.yul\":5899:5902   */\n      dup4\n        /* \"#utility.yul\":5840:5907   */\n      tag_373\n      jump\t// in\n    tag_446:\n        /* \"#utility.yul\":5833:5907   */\n      swap2\n      pop\n        /* \"#utility.yul\":5916:6009   */\n      tag_447\n        /* \"#utility.yul\":6005:6008   */\n      dup3\n        /* \"#utility.yul\":5916:6009   */\n      tag_376\n      jump\t// in\n    tag_447:\n        /* \"#utility.yul\":6034:6036   */\n      0x40\n        /* \"#utility.yul\":6029:6032   */\n      dup3\n        /* \"#utility.yul\":6025:6037   */\n      add\n        /* \"#utility.yul\":6018:6037   */\n      swap1\n      pop\n        /* \"#utility.yul\":5677:6043   */\n      swap2\n      swap1\n      pop\n      jump\t// out\n        /* \"#utility.yul\":6049:6468   */\n    tag_121:\n        /* \"#utility.yul\":6215:6219   */\n      0x00\n        /* \"#utility.yul\":6253:6255   */\n      0x20\n        /* \"#utility.yul\":6242:6251   */\n      dup3\n        /* \"#utility.yul\":6238:6256   */\n      add\n        /* \"#utility.yul\":6230:6256   */\n      swap1\n      pop\n        /* \"#utility.yul\":6302:6311   */\n      dup2\n        /* \"#utility.yul\":6296:6300   */\n      dup2\n        /* \"#utility.yul\":6292:6312   */\n      sub\n        /* \"#utility.yul\":6288:6289   */\n      0x00\n        /* \"#utility.yul\":6277:6286   */\n      dup4\n        /* \"#utility.yul\":6273:6290   */\n      add\n        /* \"#utility.yul\":6266:6313   */\n      mstore\n        /* \"#utility.yul\":6330:6461   */\n      tag_449\n        /* \"#utility.yul\":6456:6460   */\n      dup2\n        /* \"#utility.yul\":6330:6461   */\n      tag_377\n      jump\t// in\n    tag_449:\n        /* \"#utility.yul\":6322:6461   */\n      swap1\n      pop\n        /* \"#utility.yul\":6049:6468   */\n      swap2\n      swap1\n      pop\n      jump\t// out\n        /* \"#utility.yul\":6474:6653   */\n    tag_378:\n        /* \"#utility.yul\":6614:6645   */\n      0x66756e647320617265206c657373207468616e20726571756573746564000000\n        /* \"#utility.yul\":6610:6611   */\n      0x00\n        /* \"#utility.yul\":6602:6608   */\n      dup3\n        /* \"#utility.yul\":6598:6612   */\n      add\n        /* \"#utility.yul\":6591:6646   */\n      mstore\n        /* \"#utility.yul\":6474:6653   */\n      pop\n      jump\t// out\n        /* \"#utility.yul\":6659:7025   */\n    tag_379:\n        /* \"#utility.yul\":6801:6804   */\n      0x00\n        /* \"#utility.yul\":6822:6889   */\n      tag_452\n        /* \"#utility.yul\":6886:6888   */\n      0x1d\n        /* \"#utility.yul\":6881:6884   */\n      dup4\n        /* \"#utility.yul\":6822:6889   */\n      tag_373\n      jump\t// in\n    tag_452:\n        /* \"#utility.yul\":6815:6889   */\n      swap2\n      pop\n        /* \"#utility.yul\":6898:6991   */\n      tag_453\n        /* \"#utility.yul\":6987:6990   */\n      dup3\n        /* \"#utility.yul\":6898:6991   */\n      tag_378\n      jump\t// in\n    tag_453:\n        /* \"#utility.yul\":7016:7018   */\n      0x20\n        /* \"#utility.yul\":7011:7014   */\n      dup3\n        /* \"#utility.yul\":7007:7019   */\n      add\n        /* \"#utility.yul\":7000:7019   */\n      swap1\n      pop\n        /* \"#utility.yul\":6659:7025   */\n      swap2\n      swap1\n      pop\n      jump\t// out\n        /* \"#utility.yul\":7031:7450   */\n    tag_125:\n        /* \"#utility.yul\":7197:7201   */\n      0x00\n        /* \"#utility.yul\":7235:7237   */\n      0x20\n        /* \"#utility.yul\":7224:7233   */\n      dup3\n        /* \"#utility.yul\":7220:7238   */\n      add\n        /* \"#utility.yul\":7212:7238   */\n      swap1\n      pop\n        /* \"#utility.yul\":7284:7293   */\n      dup2\n        /* \"#utility.yul\":7278:7282   */\n      dup2\n        /* \"#utility.yul\":7274:7294   */\n      sub\n        /* \"#utility.yul\":7270:7271   */\n      0x00\n        /* \"#utility.yul\":7259:7268   */\n      dup4\n        /* \"#utility.yul\":7255:7272   */\n      add\n        /* \"#utility.yul\":7248:7295   */\n      mstore\n        /* \"#utility.yul\":7312:7443   */\n      tag_455\n        /* \"#utility.yul\":7438:7442   */\n      dup2\n        /* \"#utility.yul\":7312:7443   */\n      tag_379\n      jump\t// in\n    tag_455:\n        /* \"#utility.yul\":7304:7443   */\n      swap1\n      pop\n        /* \"#utility.yul\":7031:7450   */\n      swap2\n      swap1\n      pop\n      jump\t// out\n        /* \"#utility.yul\":7456:7636   */\n    tag_380:\n        /* \"#utility.yul\":7504:7581   */\n      0x4e487b7100000000000000000000000000000000000000000000000000000000\n        /* \"#utility.yul\":7501:7502   */\n      0x00\n        /* \"#utility.yul\":7494:7582   */\n      mstore\n        /* \"#utility.yul\":7601:7605   */\n      0x11\n        /* \"#utility.yul\":7598:7599   */\n      0x04\n        /* \"#utility.yul\":7591:7606   */\n      mstore\n        /* \"#utility.yul\":7625:7629   */\n      0x24\n        /* \"#utility.yul\":7622:7623   */\n      0x00\n        /* \"#utility.yul\":7615:7630   */\n      revert\n        /* \"#utility.yul\":7642:7836   */\n    tag_132:\n        /* \"#utility.yul\":7682:7686   */\n      0x00\n        /* \"#utility.yul\":7702:7722   */\n      tag_458\n        /* \"#utility.yul\":7720:7721   */\n      dup3\n        /* \"#utility.yul\":7702:7722   */\n      tag_369\n      jump\t// in\n    tag_458:\n        /* \"#utility.yul\":7697:7722   */\n      swap2\n      pop\n        /* \"#utility.yul\":7736:7756   */\n      tag_459\n        /* \"#utility.yul\":7754:7755   */\n      dup4\n        /* \"#utility.yul\":7736:7756   */\n      tag_369\n      jump\t// in\n    tag_459:\n        /* \"#utility.yul\":7731:7756   */\n      swap3\n      pop\n        /* \"#utility.yul\":7780:7781   */\n      dup3\n        /* \"#utility.yul\":7777:7778   */\n      dup3\n        /* \"#utility.yul\":7773:7782   */\n      sub\n        /* \"#utility.yul\":7765:7782   */\n      swap1\n      pop\n        /* \"#utility.yul\":7804:7805   */\n      dup2\n        /* \"#utility.yul\":7798:7802   */\n      dup2\n        /* \"#utility.yul\":7795:7806   */\n      gt\n        /* \"#utility.yul\":7792:7829   */\n      iszero\n      tag_460\n      jumpi\n        /* \"#utility.yul\":7809:7827   */\n      tag_461\n      tag_380\n      jump\t// in\n    tag_461:\n        /* \"#utility.yul\":7792:7829   */\n    tag_460:\n        /* \"#utility.yul\":7642:7836   */\n      swap3\n      swap2\n      pop\n      pop\n      jump\t// out\n        /* \"#utility.yul\":7842:8033   */\n    tag_134:\n        /* \"#utility.yul\":7882:7885   */\n      0x00\n        /* \"#utility.yul\":7901:7921   */\n      tag_463\n        /* \"#utility.yul\":7919:7920   */\n      dup3\n        /* \"#utility.yul\":7901:7921   */\n      tag_369\n      jump\t// in\n    tag_463:\n        /* \"#utility.yul\":7896:7921   */\n      swap2\n      pop\n        /* \"#utility.yul\":7935:7955   */\n      tag_464\n        /* \"#utility.yul\":7953:7954   */\n      dup4\n        /* \"#utility.yul\":7935:7955   */\n      tag_369\n      jump\t// in\n    tag_464:\n        /* \"#utility.yul\":7930:7955   */\n      swap3\n      pop\n        /* \"#utility.yul\":7978:7979   */\n      dup3\n        /* \"#utility.yul\":7975:7976   */\n      dup3\n        /* \"#utility.yul\":7971:7980   */\n      add\n        /* \"#utility.yul\":7964:7980   */\n      swap1\n      pop\n        /* \"#utility.yul\":7999:8002   */\n      dup1\n        /* \"#utility.yul\":7996:7997   */\n      dup3\n        /* \"#utility.yul\":7993:8003   */\n      gt\n        /* \"#utility.yul\":7990:8026   */\n      iszero\n      tag_465\n      jumpi\n        /* \"#utility.yul\":8006:8024   */\n      tag_466\n      tag_380\n      jump\t// in\n    tag_466:\n        /* \"#utility.yul\":7990:8026   */\n    tag_465:\n        /* \"#utility.yul\":7842:8033   */\n      swap3\n      swap2\n      pop\n      pop\n      jump\t// out\n        /* \"#utility.yul\":8039:8219   */\n    tag_381:\n        /* \"#utility.yul\":8087:8164   */\n      0x4e487b7100000000000000000000000000000000000000000000000000000000\n        /* \"#utility.yul\":8084:8085   */\n      0x00\n        /* \"#utility.yul\":8077:8165   */\n      mstore\n        /* \"#utility.yul\":8184:8188   */\n      0x12\n        /* \"#utility.yul\":8181:8182   */\n      0x04\n        /* \"#utility.yul\":8174:8189   */\n      mstore\n        /* \"#utility.yul\":8208:8212   */\n      0x24\n        /* \"#utility.yul\":8205:8206   */\n      0x00\n        /* \"#utility.yul\":8198:8213   */\n      revert\n        /* \"#utility.yul\":8225:8410   */\n    tag_136:\n        /* \"#utility.yul\":8265:8266   */\n      0x00\n        /* \"#utility.yul\":8282:8302   */\n      tag_469\n        /* \"#utility.yul\":8300:8301   */\n      dup3\n        /* \"#utility.yul\":8282:8302   */\n      tag_369\n      jump\t// in\n    tag_469:\n        /* \"#utility.yul\":8277:8302   */\n      swap2\n      pop\n        /* \"#utility.yul\":8316:8336   */\n      tag_470\n        /* \"#utility.yul\":8334:8335   */\n      dup4\n        /* \"#utility.yul\":8316:8336   */\n      tag_369\n      jump\t// in\n    tag_470:\n        /* \"#utility.yul\":8311:8336   */\n      swap3\n      pop\n        /* \"#utility.yul\":8355:8356   */\n      dup3\n        /* \"#utility.yul\":8345:8380   */\n      tag_471\n      jumpi\n        /* \"#utility.yul\":8360:8378   */\n      tag_472\n      tag_381\n      jump\t// in\n    tag_472:\n        /* \"#utility.yul\":8345:8380   */\n    tag_471:\n        /* \"#utility.yul\":8402:8403   */\n      dup3\n        /* \"#utility.yul\":8399:8400   */\n      dup3\n        /* \"#utility.yul\":8395:8404   */\n      div\n        /* \"#utility.yul\":8390:8404   */\n      swap1\n      pop\n        /* \"#utility.yul\":8225:8410   */\n      swap3\n      swap2\n      pop\n      pop\n      jump\t// out\n        /* \"#utility.yul\":8416:8596   */\n    tag_143:\n        /* \"#utility.yul\":8464:8541   */\n      0x4e487b7100000000000000000000000000000000000000000000000000000000\n        /* \"#utility.yul\":8461:8462   */\n      0x00\n        /* \"#utility.yul\":8454:8542   */\n      mstore\n        /* \"#utility.yul\":8561:8565   */\n      0x32\n        /* \"#utility.yul\":8558:8559   */\n      0x04\n        /* \"#utility.yul\":8551:8566   */\n      mstore\n        /* \"#utility.yul\":8585:8589   */\n      0x24\n        /* \"#utility.yul\":8582:8583   */\n      0x00\n        /* \"#utility.yul\":8575:8590   */\n      revert\n        /* \"#utility.yul\":8602:8835   */\n    tag_148:\n        /* \"#utility.yul\":8641:8644   */\n      0x00\n        /* \"#utility.yul\":8664:8688   */\n      tag_475\n        /* \"#utility.yul\":8682:8687   */\n      dup3\n        /* \"#utility.yul\":8664:8688   */\n      tag_369\n      jump\t// in\n    tag_475:\n        /* \"#utility.yul\":8655:8688   */\n      swap2\n      pop\n        /* \"#utility.yul\":8710:8776   */\n      0xffffffffffffffffffffffffffffffffffffffffffffffffffffffffffffffff\n        /* \"#utility.yul\":8703:8708   */\n      dup3\n        /* \"#utility.yul\":8700:8777   */\n      sub\n        /* \"#utility.yul\":8697:8800   */\n      tag_476\n      jumpi\n        /* \"#utility.yul\":8780:8798   */\n      tag_477\n      tag_380\n      jump\t// in\n    tag_477:\n        /* \"#utility.yul\":8697:8800   */\n    tag_476:\n        /* \"#utility.yul\":8827:8828   */\n      0x01\n        /* \"#utility.yul\":8820:8825   */\n      dup3\n        /* \"#utility.yul\":8816:8829   */\n      add\n        /* \"#utility.yul\":8809:8829   */\n      swap1\n      pop\n        /* \"#utility.yul\":8602:8835   */\n      swap2\n      swap1\n      pop\n      jump\t// out\n        /* \"#utility.yul\":8841:9251   */\n    tag_163:\n        /* \"#utility.yul\":8881:8888   */\n      0x00\n        /* \"#utility.yul\":8904:8924   */\n      tag_479\n        /* \"#utility.yul\":8922:8923   */\n      dup3\n        /* \"#utility.yul\":8904:8924   */\n      tag_369\n      jump\t// in\n    tag_479:\n        /* \"#utility.yul\":8899:8924   */\n      swap2\n      pop\n        /* \"#utility.yul\":8938:8958   */\n      tag_480\n        /* \"#utility.yul\":8956:8957   */\n      dup4\n        /* \"#utility.yul\":8938:8958   */\n      tag_369\n      jump\t// in\n    tag_480:\n        /* \"#utility.yul\":8933:8958   */\n      swap3\n      pop\n        /* \"#utility.yul\":8993:8994   */\n      dup3\n        /* \"#utility.yul\":8990:8991   */\n      dup3\n        /* \"#utility.yul\":8986:8995   */\n      mul\n        /* \"#utility.yul\":9015:9045   */\n      tag_481\n        /* \"#utility.yul\":9033:9044   */\n      dup2\n        /* \"#utility.yul\":9015:9045   */\n      tag_369\n      jump\t// in\n    tag_481:\n        /* \"#utility.yul\":9004:9045   */\n      swap2\n      pop\n        /* \"#utility.yul\":9194:9195   */\n      dup3\n        /* \"#utility.yul\":9185:9192   */\n      dup3\n        /* \"#utility.yul\":9181:9196   */\n      div\n        /* \"#utility.yul\":9178:9179   */\n      dup5\n        /* \"#utility.yul\":9175:9197   */\n      eq\n        /* \"#utility.yul\":9155:9156   */\n      dup4\n        /* \"#utility.yul\":9148:9157   */\n      iszero\n        /* \"#utility.yul\":9128:9211   */\n      or\n        /* \"#utility.yul\":9105:9244   */\n      tag_482\n      jumpi\n        /* \"#utility.yul\":9224:9242   */\n      tag_483\n      tag_380\n      jump\t// in\n    tag_483:\n        /* \"#utility.yul\":9105:9244   */\n    tag_482:\n        /* \"#utility.yul\":8889:9251   */\n      pop\n        /* \"#utility.yul\":8841:9251   */\n      swap3\n      swap2\n      pop\n      pop\n      jump\t// out\n        /* \"#utility.yul\":9257:9589   */\n    tag_203:\n        /* \"#utility.yul\":9378:9382   */\n      0x00\n        /* \"#utility.yul\":9416:9418   */\n      0x40\n        /* \"#utility.yul\":9405:9414   */\n      dup3\n        /* \"#utility.yul\":9401:9419   */\n      add\n        /* \"#utility.yul\":9393:9419   */\n      swap1\n      pop\n        /* \"#utility.yul\":9429:9500   */\n      tag_485\n        /* \"#utility.yul\":9497:9498   */\n      0x00\n        /* \"#utility.yul\":9486:9495   */\n      dup4\n        /* \"#utility.yul\":9482:9499   */\n      add\n        /* \"#utility.yul\":9473:9479   */\n      dup6\n        /* \"#utility.yul\":9429:9500   */\n      tag_368\n      jump\t// in\n    tag_485:\n        /* \"#utility.yul\":9510:9582   */\n      tag_486\n        /* \"#utility.yul\":9578:9580   */\n      0x20\n        /* \"#utility.yul\":9567:9576   */\n      dup4\n        /* \"#utility.yul\":9563:9581   */\n      add\n        /* \"#utility.yul\":9554:9560   */\n      dup5\n        /* \"#utility.yul\":9510:9582   */\n      tag_368\n      jump\t// in\n    tag_486:\n        /* \"#utility.yul\":9257:9589   */\n      swap4\n      swap3\n      pop\n      pop\n      pop\n      jump\t// out\n        /* \"#utility.yul\":9595:9766   */\n    tag_208:\n        /* \"#utility.yul\":9634:9637   */\n      0x00\n        /* \"#utility.yul\":9657:9681   */\n      tag_488\n        /* \"#utility.yul\":9675:9680   */\n      dup3\n        /* \"#utility.yul\":9657:9681   */\n      tag_369\n      jump\t// in\n    tag_488:\n        /* \"#utility.yul\":9648:9681   */\n      swap2\n      pop\n        /* \"#utility.yul\":9703:9707   */\n      0x00\n        /* \"#utility.yul\":9696:9701   */\n      dup3\n        /* \"#utility.yul\":9693:9708   */\n      sub\n        /* \"#utility.yul\":9690:9731   */\n      tag_489\n      jumpi\n        /* \"#utility.yul\":9711:9729   */\n      tag_490\n      tag_380\n      jump\t// in\n    tag_490:\n        /* \"#utility.yul\":9690:9731   */\n    tag_489:\n        /* \"#utility.yul\":9758:9759   */\n      0x01\n        /* \"#utility.yul\":9751:9756   */\n      dup3\n        /* \"#utility.yul\":9747:9760   */\n      sub\n        /* \"#utility.yul\":9740:9760   */\n      swap1\n      pop\n        /* \"#utility.yul\":9595:9766   */\n      swap2\n      swap1\n      pop\n      jump\t// out\n        /* \"#utility.yul\":9772:9948   */\n    tag_215:\n        /* \"#utility.yul\":9804:9805   */\n      0x00\n        /* \"#utility.yul\":9821:9841   */\n      tag_492\n        /* \"#utility.yul\":9839:9840   */\n      dup3\n        /* \"#utility.yul\":9821:9841   */\n      tag_369\n      jump\t// in\n    tag_492:\n        /* \"#utility.yul\":9816:9841   */\n      swap2\n      pop\n        /* \"#utility.yul\":9855:9875   */\n      tag_493\n        /* \"#utility.yul\":9873:9874   */\n      dup4\n        /* \"#utility.yul\":9855:9875   */\n      tag_369\n      jump\t// in\n    tag_493:\n        /* \"#utility.yul\":9850:9875   */\n      swap3\n      pop\n        /* \"#utility.yul\":9894:9895   */\n      dup3\n        /* \"#utility.yul\":9884:9919   */\n      tag_494\n      jumpi\n        /* \"#utility.yul\":9899:9917   */\n      tag_495\n      tag_381\n      jump\t// in\n    tag_495:\n        /* \"#utility.yul\":9884:9919   */\n    tag_494:\n        /* \"#utility.yul\":9940:9941   */\n      dup3\n        /* \"#utility.yul\":9937:9938   */\n      dup3\n        /* \"#utility.yul\":9933:9942   */\n      mod\n        /* \"#utility.yul\":9928:9942   */\n      swap1\n      pop\n        /* \"#utility.yul\":9772:9948   */\n      swap3\n      swap2\n      pop\n      pop\n      jump\t// out\n        /* \"#utility.yul\":9954:10396   */\n    tag_227:\n        /* \"#utility.yul\":10103:10107   */\n      0x00\n        /* \"#utility.yul\":10141:10143   */\n      0x60\n        /* \"#utility.yul\":10130:10139   */\n      dup3\n        /* \"#utility.yul\":10126:10144   */\n      add\n        /* \"#utility.yul\":10118:10144   */\n      swap1\n      pop\n        /* \"#utility.yul\":10154:10225   */\n      tag_497\n        /* \"#utility.yul\":10222:10223   */\n      0x00\n        /* \"#utility.yul\":10211:10220   */\n      dup4\n        /* \"#utility.yul\":10207:10224   */\n      add\n        /* \"#utility.yul\":10198:10204   */\n      dup7\n        /* \"#utility.yul\":10154:10225   */\n      tag_368\n      jump\t// in\n    tag_497:\n        /* \"#utility.yul\":10235:10307   */\n      tag_498\n        /* \"#utility.yul\":10303:10305   */\n      0x20\n        /* \"#utility.yul\":10292:10301   */\n      dup4\n        /* \"#utility.yul\":10288:10306   */\n      add\n        /* \"#utility.yul\":10279:10285   */\n      dup6\n        /* \"#utility.yul\":10235:10307   */\n      tag_368\n      jump\t// in\n    tag_498:\n        /* \"#utility.yul\":10317:10389   */\n      tag_499\n        /* \"#utility.yul\":10385:10387   */\n      0x40\n        /* \"#utility.yul\":10374:10383   */\n      dup4\n        /* \"#utility.yul\":10370:10388   */\n      add\n        /* \"#utility.yul\":10361:10367   */\n      dup5\n        /* \"#utility.yul\":10317:10389   */\n      tag_370\n      jump\t// in\n    tag_499:\n        /* \"#utility.yul\":9954:10396   */\n      swap5\n      swap4\n      pop\n      pop\n      pop\n      pop\n      jump\t// out\n        /* \"#utility.yul\":10402:10518   */\n    tag_382:\n        /* \"#utility.yul\":10472:10493   */\n      tag_501\n        /* \"#utility.yul\":10487:10492   */\n      dup2\n        /* \"#utility.yul\":10472:10493   */\n      tag_366\n      jump\t// in\n    tag_501:\n        /* \"#utility.yul\":10465:10470   */\n      dup2\n        /* \"#utility.yul\":10462:10494   */\n      eq\n        /* \"#utility.yul\":10452:10512   */\n      tag_502\n      jumpi\n        /* \"#utility.yul\":10508:10509   */\n      0x00\n        /* \"#utility.yul\":10505:10506   */\n      dup1\n        /* \"#utility.yul\":10498:10510   */\n      revert\n        /* \"#utility.yul\":10452:10512   */\n    tag_502:\n        /* \"#utility.yul\":10402:10518   */\n      pop\n      jump\t// out\n        /* \"#utility.yul\":10524:10661   */\n    tag_383:\n        /* \"#utility.yul\":10578:10583   */\n      0x00\n        /* \"#utility.yul\":10609:10615   */\n      dup2\n        /* \"#utility.yul\":10603:10616   */\n      mload\n        /* \"#utility.yul\":10594:10616   */\n      swap1\n      pop\n        /* \"#utility.yul\":10625:10655   */\n      tag_504\n        /* \"#utility.yul\":10649:10654   */\n      dup2\n        /* \"#utility.yul\":10625:10655   */\n      tag_382\n      jump\t// in\n    tag_504:\n        /* \"#utility.yul\":10524:10661   */\n      swap3\n      swap2\n      pop\n      pop\n      jump\t// out\n        /* \"#utility.yul\":10667:11012   */\n    tag_231:\n        /* \"#utility.yul\":10734:10740   */\n      0x00\n        /* \"#utility.yul\":10783:10785   */\n      0x20\n        /* \"#utility.yul\":10771:10780   */\n      dup3\n        /* \"#utility.yul\":10762:10769   */\n      dup5\n        /* \"#utility.yul\":10758:10781   */\n      sub\n        /* \"#utility.yul\":10754:10786   */\n      slt\n        /* \"#utility.yul\":10751:10870   */\n      iszero\n      tag_506\n      jumpi\n        /* \"#utility.yul\":10789:10868   */\n      tag_507\n      tag_360\n      jump\t// in\n    tag_507:\n        /* \"#utility.yul\":10751:10870   */\n    tag_506:\n        /* \"#utility.yul\":10909:10910   */\n      0x00\n        /* \"#utility.yul\":10934:10995   */\n      tag_508\n        /* \"#utility.yul\":10987:10994   */\n      dup5\n        /* \"#utility.yul\":10978:10984   */\n      dup3\n        /* \"#utility.yul\":10967:10976   */\n      dup6\n        /* \"#utility.yul\":10963:10985   */\n      add\n        /* \"#utility.yul\":10934:10995   */\n      tag_383\n      jump\t// in\n    tag_508:\n        /* \"#utility.yul\":10924:10995   */\n      swap2\n      pop\n        /* \"#utility.yul\":10880:11005   */\n      pop\n        /* \"#utility.yul\":10667:11012   */\n      swap3\n      swap2\n      pop\n      pop\n      jump\t// out\n        /* \"#utility.yul\":11018:11161   */\n    tag_384:\n        /* \"#utility.yul\":11075:11080   */\n      0x00\n        /* \"#utility.yul\":11106:11112   */\n      dup2\n        /* \"#utility.yul\":11100:11113   */\n      mload\n        /* \"#utility.yul\":11091:11113   */\n      swap1\n      pop\n        /* \"#utility.yul\":11122:11155   */\n      tag_510\n        /* \"#utility.yul\":11149:11154   */\n      dup2\n        /* \"#utility.yul\":11122:11155   */\n      tag_371\n      jump\t// in\n    tag_510:\n        /* \"#utility.yul\":11018:11161   */\n      swap3\n      swap2\n      pop\n      pop\n      jump\t// out\n        /* \"#utility.yul\":11167:11518   */\n    tag_274:\n        /* \"#utility.yul\":11237:11243   */\n      0x00\n        /* \"#utility.yul\":11286:11288   */\n      0x20\n        /* \"#utility.yul\":11274:11283   */\n      dup3\n        /* \"#utility.yul\":11265:11272   */\n      dup5\n        /* \"#utility.yul\":11261:11284   */\n      sub\n        /* \"#utility.yul\":11257:11289   */\n      slt\n        /* \"#utility.yul\":11254:11373   */\n      iszero\n      tag_512\n      jumpi\n        /* \"#utility.yul\":11292:11371   */\n      tag_513\n      tag_360\n      jump\t// in\n    tag_513:\n        /* \"#utility.yul\":11254:11373   */\n    tag_512:\n        /* \"#utility.yul\":11412:11413   */\n      0x00\n        /* \"#utility.yul\":11437:11501   */\n      tag_514\n        /* \"#utility.yul\":11493:11500   */\n      dup5\n        /* \"#utility.yul\":11484:11490   */\n      dup3\n        /* \"#utility.yul\":11473:11482   */\n      dup6\n        /* \"#utility.yul\":11469:11491   */\n      add\n        /* \"#utility.yul\":11437:11501   */\n      tag_384\n      jump\t// in\n    tag_514:\n        /* \"#utility.yul\":11427:11501   */\n      swap2\n      pop\n        /* \"#utility.yul\":11383:11511   */\n      pop\n        /* \"#utility.yul\":11167:11518   */\n      swap3\n      swap2\n      pop\n      pop\n      jump\t// out\n\n    auxdata: 0xa26469706673582212204985383ff28cabc0932c6808d9be826dfbb4fb8681d8a5dd64fcae11ca96f76964736f6c63430008150033\n}\n",
				"bytecode": {
					"linkReferences": {},
					"object": "60a060405260006013556040518061012001604052806101f461ffff16815260200160c861ffff168152602001606461ffff168152602001603261ffff168152602001601461ffff168152602001600a61ffff168152602001600561ffff168152602001600261ffff168152602001600161ffff16815250601990600962000089929190620000d2565b503480156200009757600080fd5b503373ffffffffffffffffffffffffffffffffffffffff1660808173ffffffffffffffffffffffffffffffffffffffff168152505062000149565b82805482825590600052602060002090810192821562000117579160200282015b8281111562000116578251829061ffff16905591602001919060010190620000f3565b5b5090506200012691906200012a565b5090565b5b80821115620001455760008160009055506001016200012b565b5090565b6080516120306200016c600039600081816105150152610cb701526120306000f3fe608060405234801561001057600080fd5b506004361061014d5760003560e01c8063b150019a116100c3578063e84530fb1161007c578063e84530fb146103a9578063eb4f81f3146103c7578063f0483d73146103f7578063f509159814610415578063fa137b2a14610431578063fc07dbb81461044f5761014d565b8063b150019a146102e3578063cca7963614610301578063d26813d31461031f578063d68cfc141461033d578063dd188dc31461035b578063e0d6d5301461038b5761014d565b8063588a2c0911610115578063588a2c091461021c578063600fa18e1461023a5780636affb7291461026b57806370cd47df146102895780639a5b9d62146102a7578063a805588e146102c55761014d565b806326541b4a146101525780633ef0116d1461018257806343d6a6a2146101a05780634838d165146101d05780634ca9deb9146101ec575b600080fd5b61016c600480360381019061016791906119b7565b61046d565b60405161017991906119ff565b60405180910390f35b61018a61048d565b6040516101979190611a29565b60405180910390f35b6101ba60048036038101906101b591906119b7565b6104b3565b6040516101c79190611a5d565b60405180910390f35b6101ea60048036038101906101e591906119b7565b6104fc565b005b61020660048036038101906102019190611aa4565b6105e5565b6040516102139190611a5d565b60405180910390f35b610224610b59565b6040516102319190611a29565b60405180910390f35b610254600480360381019061024f9190611ae4565b610b7f565b604051610262929190611b24565b60405180910390f35b610273610bb4565b6040516102809190611a29565b60405180910390f35b610291610bda565b60405161029e9190611a29565b60405180910390f35b6102af610c00565b6040516102bc9190611a29565b60405180910390f35b6102cd610c26565b6040516102da9190611a5d565b60405180910390f35b6102eb610c2c565b6040516102f89190611a29565b60405180910390f35b610309610c52565b6040516103169190611a29565b60405180910390f35b610327610c78565b6040516103349190611a5d565b60405180910390f35b610345610c7e565b6040516103529190611a5d565b60405180910390f35b610375600480360381019061037091906119b7565b610c84565b6040516103829190611a5d565b60405180910390f35b610393610c9c565b6040516103a091906119ff565b60405180910390f35b6103b1611055565b6040516103be9190611a5d565b60405180910390f35b6103e160048036038101906103dc9190611b4d565b61105b565b6040516103ee9190611a29565b60405180910390f35b6103ff611091565b60405161040c9190611a29565b60405180910390f35b61042f600480360381019061042a9190611b4d565b6110b7565b005b610439611347565b6040516104469190611a29565b60405180910390f35b61045761136d565b6040516104649190611a29565b60405180910390f35b60186020528060005260406000206000915054906101000a900460ff1681565b600260009054906101000a900473ffffffffffffffffffffffffffffffffffffffff1681565b6000601760008373ffffffffffffffffffffffffffffffffffffffff1673ffffffffffffffffffffffffffffffffffffffff168152602001908152602001600020549050919050565b3373ffffffffffffffffffffffffffffffffffffffff167f000000000000000000000000000000000000000000000000000000000000000073ffffffffffffffffffffffffffffffffffffffff161461058a576040517f08c379a000000000000000000000000000000000000000000000000000000000815260040161058190611bd7565b60405180910390fd5b6001601860008373ffffffffffffffffffffffffffffffffffffffff1673ffffffffffffffffffffffffffffffffffffffff16815260200190815260200160002060006101000a81548160ff02191690831515021790555050565b60008160001515601860008373ffffffffffffffffffffffffffffffffffffffff1673ffffffffffffffffffffffffffffffffffffffff16815260200190815260200160002060009054906101000a900460ff1615151461067b576040517f08c379a000000000000000000000000000000000000000000000000000000000815260040161067290611c69565b60405180910390fd5b83601760003373ffffffffffffffffffffffffffffffffffffffff1673ffffffffffffffffffffffffffffffffffffffff1681526020019081526020016000205410156106fd576040517f08c379a00000000000000000000000000000000000000000000000000000000081526004016106f490611cd5565b60405180910390fd5b600061070833611391565b9050610712611897565b61071a611897565b86601760003373ffffffffffffffffffffffffffffffffffffffff1673ffffffffffffffffffffffffffffffffffffffff16815260200190815260200160002060008282546107699190611d24565b9250508190555086601760008873ffffffffffffffffffffffffffffffffffffffff1673ffffffffffffffffffffffffffffffffffffffff16815260200190815260200160002060008282546107bf9190611d58565b925050819055506000670de0b6b3a7640000886107dc9190611dbb565b9050600080600080600090505b600981101561085557600061081c866019848154811061080c5761080b611dec565b5b9060005260206000200154610b7f565b80975081925050508088836009811061083857610837611dec565b5b60200201818152505050808061084d90611e1b565b9150506107e9565b506000805b6009811015610b3d5787816009811061087657610875611dec565b5b602002015189826009811061088e5761088d611dec565b5b60200201511115610963578781600981106108ac576108ab611dec565b5b6020020151601982815481106108c5576108c4611dec565b5b90600052602060002001546108da9190611e63565b826108e59190611d58565b91508781600981106108fa576108f9611dec565b5b602002015187826009811061091257610911611dec565b5b60200201818152505087816009811061092e5761092d611dec565b5b602002015189826009811061094657610945611dec565b5b602002018181516109579190611d24565b91508181525050610b2a565b600082670de0b6b3a76400008f61097a9190611dbb565b6109849190611d24565b905060006001836109959190611d24565b90505b60008110610b2357601981815481106109b4576109b3611dec565b5b9060005260206000200154821080156109e4575060008b82600981106109dd576109dc611dec565b5b6020020151115b15610b105781601982815481106109fe576109fd611dec565b5b9060005260206000200154610a139190611d24565b96508660198281548110610a2a57610a29611dec565b5b9060005260206000200154610a3f9190611d24565b955060198181548110610a5557610a54611dec565b5b906000526020600020015494506000600a8260098110610a7857610a77611dec565b5b0160009054906101000a900473ffffffffffffffffffffffffffffffffffffffff1690508073ffffffffffffffffffffffffffffffffffffffff166383c587df3360006040518363ffffffff1660e01b8152600401610ad8929190611ea5565b600060405180830381600087803b158015610af257600080fd5b505af1158015610b06573d6000803e3d6000fd5b5050505050610b23565b8080610b1b90611ece565b915050610998565b5050610b3d565b8080610b3590611e1b565b91505061085a565b50610b4a868c868661149d565b50505050505050505092915050565b600560009054906101000a900473ffffffffffffffffffffffffffffffffffffffff1681565b60008060008385610b909190611dbb565b90508385610b9e9190611ef7565b6016819055508060165492509250509250929050565b600460009054906101000a900473ffffffffffffffffffffffffffffffffffffffff1681565b600160009054906101000a900473ffffffffffffffffffffffffffffffffffffffff1681565b600860009054906101000a900473ffffffffffffffffffffffffffffffffffffffff1681565b60135481565b600360009054906101000a900473ffffffffffffffffffffffffffffffffffffffff1681565b600960009054906101000a900473ffffffffffffffffffffffffffffffffffffffff1681565b60145481565b60165481565b60176020528060005260406000206000915090505481565b60003373ffffffffffffffffffffffffffffffffffffffff167f000000000000000000000000000000000000000000000000000000000000000073ffffffffffffffffffffffffffffffffffffffff1614610d2c576040517f08c379a0000000000000000000000000000000000000000000000000000000008152600401610d2390611bd7565b60405180910390fd5b600073d54d3f6c3b863f29d4fc1d1e2ae0eac27b13d2ef9050600073e5fde1987e7ec52b92e4f939c2b64299748a3d4490506000738cec8d539d468cd19563174eff7705067a9fd5829050600073b16c4005acab743e1ef2039f4d3e1fd693bea34d90506000737d148294204e94e9592be603c15e231b67fb1d879050600073ca7dd6c3edf65eec61cec7212df319610a72e4799050600073e0c8919c807d262deb2957eefa512fe383094c839050600073df035655ff59008a07f46e16b1b9788fe4169ea29050600073ec4ae94411412cbed68c531a5df7a0a7a1534de390506000737e05b6af7e51b614b9920a0328a91c3a09a3315a905080600960006101000a81548173ffffffffffffffffffffffffffffffffffffffff021916908373ffffffffffffffffffffffffffffffffffffffff1602179055506040518061012001604052808373ffffffffffffffffffffffffffffffffffffffff1673ffffffffffffffffffffffffffffffffffffffff1681526020018473ffffffffffffffffffffffffffffffffffffffff1673ffffffffffffffffffffffffffffffffffffffff1681526020018573ffffffffffffffffffffffffffffffffffffffff1673ffffffffffffffffffffffffffffffffffffffff1681526020018673ffffffffffffffffffffffffffffffffffffffff1673ffffffffffffffffffffffffffffffffffffffff1681526020018773ffffffffffffffffffffffffffffffffffffffff1673ffffffffffffffffffffffffffffffffffffffff1681526020018873ffffffffffffffffffffffffffffffffffffffff1673ffffffffffffffffffffffffffffffffffffffff1681526020018973ffffffffffffffffffffffffffffffffffffffff1673ffffffffffffffffffffffffffffffffffffffff1681526020018a73ffffffffffffffffffffffffffffffffffffffff1673ffffffffffffffffffffffffffffffffffffffff1681526020018b73ffffffffffffffffffffffffffffffffffffffff1673ffffffffffffffffffffffffffffffffffffffff16815250600a9060096110439291906118ba565b5060019a505050505050505050505090565b60155481565b600a816009811061106b57600080fd5b016000915054906101000a900473ffffffffffffffffffffffffffffffffffffffff1681565b600660009054906101000a900473ffffffffffffffffffffffffffffffffffffffff1681565b6110bf611897565b6000600960009054906101000a900473ffffffffffffffffffffffffffffffffffffffff1690508073ffffffffffffffffffffffffffffffffffffffff166323b872dd3330866040518463ffffffff1660e01b815260040161112393929190611f28565b6020604051808303816000875af1158015611142573d6000803e3d6000fd5b505050506040513d601f19601f820116820180604052508101906111669190611f8b565b506000670de0b6b3a76400008461117d9190611dbb565b905060005b60098110156111ee5760006111b583601984815481106111a5576111a4611dec565b5b9060005260206000200154610b7f565b8094508192505050808583600981106111d1576111d0611dec565b5b6020020181815250505080806111e690611e1b565b915050611182565b5060005b60098110156112ea5760005b84826009811061121157611210611dec565b5b60200201518110156112d6576000600a836009811061123357611232611dec565b5b0160009054906101000a900473ffffffffffffffffffffffffffffffffffffffff1690508073ffffffffffffffffffffffffffffffffffffffff166340d097c3336040518263ffffffff1660e01b81526004016112909190611a29565b600060405180830381600087803b1580156112aa57600080fd5b505af11580156112be573d6000803e3d6000fd5b505050505080806112ce90611e1b565b9150506111fe565b5080806112e290611e1b565b9150506111f2565b84601760003373ffffffffffffffffffffffffffffffffffffffff1673ffffffffffffffffffffffffffffffffffffffff16815260200190815260200160002060008282546113399190611d58565b925050819055505050505050565b600760009054906101000a900473ffffffffffffffffffffffffffffffffffffffff1681565b60008054906101000a900473ffffffffffffffffffffffffffffffffffffffff1681565b611399611897565b6113a1611897565b60005b6009811015611493576000600a82600981106113c3576113c2611dec565b5b0160009054906101000a900473ffffffffffffffffffffffffffffffffffffffff1690508073ffffffffffffffffffffffffffffffffffffffff166383e38d3b866040518263ffffffff1660e01b81526004016114209190611a29565b6020604051808303816000875af115801561143f573d6000803e3d6000fd5b505050506040513d601f19601f820116820180604052508101906114639190611fcd565b83836009811061147657611475611dec565b5b60200201818152505050808061148b90611e1b565b9150506113a4565b5080915050919050565b60005b600981101561159a5760005b8582600981106114bf576114be611dec565b5b6020020151811015611586576000600a83600981106114e1576114e0611dec565b5b0160009054906101000a900473ffffffffffffffffffffffffffffffffffffffff1690508073ffffffffffffffffffffffffffffffffffffffff166383c587df33886040518363ffffffff1660e01b8152600401611540929190611ea5565b600060405180830381600087803b15801561155a57600080fd5b505af115801561156e573d6000803e3d6000fd5b5050505050808061157e90611e1b565b9150506114ac565b50808061159290611e1b565b9150506114a0565b50600082905060008290506115ad611897565b6115b5611897565b60005b60098110156116245760006115eb86601984815481106115db576115da611dec565b5b9060005260206000200154610b7f565b80975081925050508084836009811061160757611606611dec565b5b60200201818152505050808061161c90611e1b565b9150506115b8565b5060005b60098110156117205760005b83826009811061164757611646611dec565b5b602002015181101561170c576000600a836009811061166957611668611dec565b5b0160009054906101000a900473ffffffffffffffffffffffffffffffffffffffff1690508073ffffffffffffffffffffffffffffffffffffffff166340d097c3336040518263ffffffff1660e01b81526004016116c69190611a29565b600060405180830381600087803b1580156116e057600080fd5b505af11580156116f4573d6000803e3d6000fd5b5050505050808061170490611e1b565b915050611634565b50808061171890611e1b565b915050611628565b5060005b6009811015611790576000611757856019848154811061174757611746611dec565b5b9060005260206000200154610b7f565b80965081925050508083836009811061177357611772611dec565b5b60200201818152505050808061178890611e1b565b915050611724565b5060005b600981101561188c5760005b8282600981106117b3576117b2611dec565b5b6020020151811015611878576000600a83600981106117d5576117d4611dec565b5b0160009054906101000a900473ffffffffffffffffffffffffffffffffffffffff1690508073ffffffffffffffffffffffffffffffffffffffff166340d097c38b6040518263ffffffff1660e01b81526004016118329190611a29565b600060405180830381600087803b15801561184c57600080fd5b505af1158015611860573d6000803e3d6000fd5b5050505050808061187090611e1b565b9150506117a0565b50808061188490611e1b565b915050611794565b505050505050505050565b604051806101200160405280600990602082028036833780820191505090505090565b8260098101928215611926579160200282015b828111156119255782518260006101000a81548173ffffffffffffffffffffffffffffffffffffffff021916908373ffffffffffffffffffffffffffffffffffffffff160217905550916020019190600101906118cd565b5b5090506119339190611937565b5090565b5b80821115611950576000816000905550600101611938565b5090565b600080fd5b600073ffffffffffffffffffffffffffffffffffffffff82169050919050565b600061198482611959565b9050919050565b61199481611979565b811461199f57600080fd5b50565b6000813590506119b18161198b565b92915050565b6000602082840312156119cd576119cc611954565b5b60006119db848285016119a2565b91505092915050565b60008115159050919050565b6119f9816119e4565b82525050565b6000602082019050611a1460008301846119f0565b92915050565b611a2381611979565b82525050565b6000602082019050611a3e6000830184611a1a565b92915050565b6000819050919050565b611a5781611a44565b82525050565b6000602082019050611a726000830184611a4e565b92915050565b611a8181611a44565b8114611a8c57600080fd5b50565b600081359050611a9e81611a78565b92915050565b60008060408385031215611abb57611aba611954565b5b6000611ac985828601611a8f565b9250506020611ada858286016119a2565b9150509250929050565b60008060408385031215611afb57611afa611954565b5b6000611b0985828601611a8f565b9250506020611b1a85828601611a8f565b9150509250929050565b6000604082019050611b396000830185611a4e565b611b466020830184611a4e565b9392505050565b600060208284031215611b6357611b62611954565b5b6000611b7184828501611a8f565b91505092915050565b600082825260208201905092915050565b7f63616e206f6e6c792062652063616c6c6564206279206f776e65720000000000600082015250565b6000611bc1601b83611b7a565b9150611bcc82611b8b565b602082019050919050565b60006020820190508181036000830152611bf081611bb4565b9050919050565b7f72656369657665722773206164647265737320697320626c61636b6c6973746560008201527f6400000000000000000000000000000000000000000000000000000000000000602082015250565b6000611c53602183611b7a565b9150611c5e82611bf7565b604082019050919050565b60006020820190508181036000830152611c8281611c46565b9050919050565b7f66756e647320617265206c657373207468616e20726571756573746564000000600082015250565b6000611cbf601d83611b7a565b9150611cca82611c89565b602082019050919050565b60006020820190508181036000830152611cee81611cb2565b9050919050565b7f4e487b7100000000000000000000000000000000000000000000000000000000600052601160045260246000fd5b6000611d2f82611a44565b9150611d3a83611a44565b9250828203905081811115611d5257611d51611cf5565b5b92915050565b6000611d6382611a44565b9150611d6e83611a44565b9250828201905080821115611d8657611d85611cf5565b5b92915050565b7f4e487b7100000000000000000000000000000000000000000000000000000000600052601260045260246000fd5b6000611dc682611a44565b9150611dd183611a44565b925082611de157611de0611d8c565b5b828204905092915050565b7f4e487b7100000000000000000000000000000000000000000000000000000000600052603260045260246000fd5b6000611e2682611a44565b91507fffffffffffffffffffffffffffffffffffffffffffffffffffffffffffffffff8203611e5857611e57611cf5565b5b600182019050919050565b6000611e6e82611a44565b9150611e7983611a44565b9250828202611e8781611a44565b91508282048414831517611e9e57611e9d611cf5565b5b5092915050565b6000604082019050611eba6000830185611a1a565b611ec76020830184611a1a565b9392505050565b6000611ed982611a44565b915060008203611eec57611eeb611cf5565b5b600182039050919050565b6000611f0282611a44565b9150611f0d83611a44565b925082611f1d57611f1c611d8c565b5b828206905092915050565b6000606082019050611f3d6000830186611a1a565b611f4a6020830185611a1a565b611f576040830184611a4e565b949350505050565b611f68816119e4565b8114611f7357600080fd5b50565b600081519050611f8581611f5f565b92915050565b600060208284031215611fa157611fa0611954565b5b6000611faf84828501611f76565b91505092915050565b600081519050611fc781611a78565b92915050565b600060208284031215611fe357611fe2611954565b5b6000611ff184828501611fb8565b9150509291505056fea26469706673582212204985383ff28cabc0932c6808d9be826dfbb4fb8681d8a5dd64fcae11ca96f76964736f6c63430008150033",
					"opcodes": "PUSH1 0xA0 PUSH1 0x40 MSTORE PUSH1 0x0 PUSH1 0x13 SSTORE PUSH1 0x40 MLOAD DUP1 PUSH2 0x120 ADD PUSH1 0x40 MSTORE DUP1 PUSH2 0x1F4 PUSH2 0xFFFF AND DUP2 MSTORE PUSH1 0x20 ADD PUSH1 0xC8 PUSH2 0xFFFF AND DUP2 MSTORE PUSH1 0x20 ADD PUSH1 0x64 PUSH2 0xFFFF AND DUP2 MSTORE PUSH1 0x20 ADD PUSH1 0x32 PUSH2 0xFFFF AND DUP2 MSTORE PUSH1 0x20 ADD PUSH1 0x14 PUSH2 0xFFFF AND DUP2 MSTORE PUSH1 0x20 ADD PUSH1 0xA PUSH2 0xFFFF AND DUP2 MSTORE PUSH1 0x20 ADD PUSH1 0x5 PUSH2 0xFFFF AND DUP2 MSTORE PUSH1 0x20 ADD PUSH1 0x2 PUSH2 0xFFFF AND DUP2 MSTORE PUSH1 0x20 ADD PUSH1 0x1 PUSH2 0xFFFF AND DUP2 MSTORE POP PUSH1 0x19 SWAP1 PUSH1 0x9 PUSH3 0x89 SWAP3 SWAP2 SWAP1 PUSH3 0xD2 JUMP JUMPDEST POP CALLVALUE DUP1 ISZERO PUSH3 0x97 JUMPI PUSH1 0x0 DUP1 REVERT JUMPDEST POP CALLER PUSH20 0xFFFFFFFFFFFFFFFFFFFFFFFFFFFFFFFFFFFFFFFF AND PUSH1 0x80 DUP2 PUSH20 0xFFFFFFFFFFFFFFFFFFFFFFFFFFFFFFFFFFFFFFFF AND DUP2 MSTORE POP POP PUSH3 0x149 JUMP JUMPDEST DUP3 DUP1 SLOAD DUP3 DUP3 SSTORE SWAP1 PUSH1 0x0 MSTORE PUSH1 0x20 PUSH1 0x0 KECCAK256 SWAP1 DUP2 ADD SWAP3 DUP3 ISZERO PUSH3 0x117 JUMPI SWAP2 PUSH1 0x20 MUL DUP3 ADD JUMPDEST DUP3 DUP2 GT ISZERO PUSH3 0x116 JUMPI DUP3 MLOAD DUP3 SWAP1 PUSH2 0xFFFF AND SWAP1 SSTORE SWAP2 PUSH1 0x20 ADD SWAP2 SWAP1 PUSH1 0x1 ADD SWAP1 PUSH3 0xF3 JUMP JUMPDEST JUMPDEST POP SWAP1 POP PUSH3 0x126 SWAP2 SWAP1 PUSH3 0x12A JUMP JUMPDEST POP SWAP1 JUMP JUMPDEST JUMPDEST DUP1 DUP3 GT ISZERO PUSH3 0x145 JUMPI PUSH1 0x0 DUP2 PUSH1 0x0 SWAP1 SSTORE POP PUSH1 0x1 ADD PUSH3 0x12B JUMP JUMPDEST POP SWAP1 JUMP JUMPDEST PUSH1 0x80 MLOAD PUSH2 0x2030 PUSH3 0x16C PUSH1 0x0 CODECOPY PUSH1 0x0 DUP2 DUP2 PUSH2 0x515 ADD MSTORE PUSH2 0xCB7 ADD MSTORE PUSH2 0x2030 PUSH1 0x0 RETURN INVALID PUSH1 0x80 PUSH1 0x40 MSTORE CALLVALUE DUP1 ISZERO PUSH2 0x10 JUMPI PUSH1 0x0 DUP1 REVERT JUMPDEST POP PUSH1 0x4 CALLDATASIZE LT PUSH2 0x14D JUMPI PUSH1 0x0 CALLDATALOAD PUSH1 0xE0 SHR DUP1 PUSH4 0xB150019A GT PUSH2 0xC3 JUMPI DUP1 PUSH4 0xE84530FB GT PUSH2 0x7C JUMPI DUP1 PUSH4 0xE84530FB EQ PUSH2 0x3A9 JUMPI DUP1 PUSH4 0xEB4F81F3 EQ PUSH2 0x3C7 JUMPI DUP1 PUSH4 0xF0483D73 EQ PUSH2 0x3F7 JUMPI DUP1 PUSH4 0xF5091598 EQ PUSH2 0x415 JUMPI DUP1 PUSH4 0xFA137B2A EQ PUSH2 0x431 JUMPI DUP1 PUSH4 0xFC07DBB8 EQ PUSH2 0x44F JUMPI PUSH2 0x14D JUMP JUMPDEST DUP1 PUSH4 0xB150019A EQ PUSH2 0x2E3 JUMPI DUP1 PUSH4 0xCCA79636 EQ PUSH2 0x301 JUMPI DUP1 PUSH4 0xD26813D3 EQ PUSH2 0x31F JUMPI DUP1 PUSH4 0xD68CFC14 EQ PUSH2 0x33D JUMPI DUP1 PUSH4 0xDD188DC3 EQ PUSH2 0x35B JUMPI DUP1 PUSH4 0xE0D6D530 EQ PUSH2 0x38B JUMPI PUSH2 0x14D JUMP JUMPDEST DUP1 PUSH4 0x588A2C09 GT PUSH2 0x115 JUMPI DUP1 PUSH4 0x588A2C09 EQ PUSH2 0x21C JUMPI DUP1 PUSH4 0x600FA18E EQ PUSH2 0x23A JUMPI DUP1 PUSH4 0x6AFFB729 EQ PUSH2 0x26B JUMPI DUP1 PUSH4 0x70CD47DF EQ PUSH2 0x289 JUMPI DUP1 PUSH4 0x9A5B9D62 EQ PUSH2 0x2A7 JUMPI DUP1 PUSH4 0xA805588E EQ PUSH2 0x2C5 JUMPI PUSH2 0x14D JUMP JUMPDEST DUP1 PUSH4 0x26541B4A EQ PUSH2 0x152 JUMPI DUP1 PUSH4 0x3EF0116D EQ PUSH2 0x182 JUMPI DUP1 PUSH4 0x43D6A6A2 EQ PUSH2 0x1A0 JUMPI DUP1 PUSH4 0x4838D165 EQ PUSH2 0x1D0 JUMPI DUP1 PUSH4 0x4CA9DEB9 EQ PUSH2 0x1EC JUMPI JUMPDEST PUSH1 0x0 DUP1 REVERT JUMPDEST PUSH2 0x16C PUSH1 0x4 DUP1 CALLDATASIZE SUB DUP2 ADD SWAP1 PUSH2 0x167 SWAP2 SWAP1 PUSH2 0x19B7 JUMP JUMPDEST PUSH2 0x46D JUMP JUMPDEST PUSH1 0x40 MLOAD PUSH2 0x179 SWAP2 SWAP1 PUSH2 0x19FF JUMP JUMPDEST PUSH1 0x40 MLOAD DUP1 SWAP2 SUB SWAP1 RETURN JUMPDEST PUSH2 0x18A PUSH2 0x48D JUMP JUMPDEST PUSH1 0x40 MLOAD PUSH2 0x197 SWAP2 SWAP1 PUSH2 0x1A29 JUMP JUMPDEST PUSH1 0x40 MLOAD DUP1 SWAP2 SUB SWAP1 RETURN JUMPDEST PUSH2 0x1BA PUSH1 0x4 DUP1 CALLDATASIZE SUB DUP2 ADD SWAP1 PUSH2 0x1B5 SWAP2 SWAP1 PUSH2 0x19B7 JUMP JUMPDEST PUSH2 0x4B3 JUMP JUMPDEST PUSH1 0x40 MLOAD PUSH2 0x1C7 SWAP2 SWAP1 PUSH2 0x1A5D JUMP JUMPDEST PUSH1 0x40 MLOAD DUP1 SWAP2 SUB SWAP1 RETURN JUMPDEST PUSH2 0x1EA PUSH1 0x4 DUP1 CALLDATASIZE SUB DUP2 ADD SWAP1 PUSH2 0x1E5 SWAP2 SWAP1 PUSH2 0x19B7 JUMP JUMPDEST PUSH2 0x4FC JUMP JUMPDEST STOP JUMPDEST PUSH2 0x206 PUSH1 0x4 DUP1 CALLDATASIZE SUB DUP2 ADD SWAP1 PUSH2 0x201 SWAP2 SWAP1 PUSH2 0x1AA4 JUMP JUMPDEST PUSH2 0x5E5 JUMP JUMPDEST PUSH1 0x40 MLOAD PUSH2 0x213 SWAP2 SWAP1 PUSH2 0x1A5D JUMP JUMPDEST PUSH1 0x40 MLOAD DUP1 SWAP2 SUB SWAP1 RETURN JUMPDEST PUSH2 0x224 PUSH2 0xB59 JUMP JUMPDEST PUSH1 0x40 MLOAD PUSH2 0x231 SWAP2 SWAP1 PUSH2 0x1A29 JUMP JUMPDEST PUSH1 0x40 MLOAD DUP1 SWAP2 SUB SWAP1 RETURN JUMPDEST PUSH2 0x254 PUSH1 0x4 DUP1 CALLDATASIZE SUB DUP2 ADD SWAP1 PUSH2 0x24F SWAP2 SWAP1 PUSH2 0x1AE4 JUMP JUMPDEST PUSH2 0xB7F JUMP JUMPDEST PUSH1 0x40 MLOAD PUSH2 0x262 SWAP3 SWAP2 SWAP1 PUSH2 0x1B24 JUMP JUMPDEST PUSH1 0x40 MLOAD DUP1 SWAP2 SUB SWAP1 RETURN JUMPDEST PUSH2 0x273 PUSH2 0xBB4 JUMP JUMPDEST PUSH1 0x40 MLOAD PUSH2 0x280 SWAP2 SWAP1 PUSH2 0x1A29 JUMP JUMPDEST PUSH1 0x40 MLOAD DUP1 SWAP2 SUB SWAP1 RETURN JUMPDEST PUSH2 0x291 PUSH2 0xBDA JUMP JUMPDEST PUSH1 0x40 MLOAD PUSH2 0x29E SWAP2 SWAP1 PUSH2 0x1A29 JUMP JUMPDEST PUSH1 0x40 MLOAD DUP1 SWAP2 SUB SWAP1 RETURN JUMPDEST PUSH2 0x2AF PUSH2 0xC00 JUMP JUMPDEST PUSH1 0x40 MLOAD PUSH2 0x2BC SWAP2 SWAP1 PUSH2 0x1A29 JUMP JUMPDEST PUSH1 0x40 MLOAD DUP1 SWAP2 SUB SWAP1 RETURN JUMPDEST PUSH2 0x2CD PUSH2 0xC26 JUMP JUMPDEST PUSH1 0x40 MLOAD PUSH2 0x2DA SWAP2 SWAP1 PUSH2 0x1A5D JUMP JUMPDEST PUSH1 0x40 MLOAD DUP1 SWAP2 SUB SWAP1 RETURN JUMPDEST PUSH2 0x2EB PUSH2 0xC2C JUMP JUMPDEST PUSH1 0x40 MLOAD PUSH2 0x2F8 SWAP2 SWAP1 PUSH2 0x1A29 JUMP JUMPDEST PUSH1 0x40 MLOAD DUP1 SWAP2 SUB SWAP1 RETURN JUMPDEST PUSH2 0x309 PUSH2 0xC52 JUMP JUMPDEST PUSH1 0x40 MLOAD PUSH2 0x316 SWAP2 SWAP1 PUSH2 0x1A29 JUMP JUMPDEST PUSH1 0x40 MLOAD DUP1 SWAP2 SUB SWAP1 RETURN JUMPDEST PUSH2 0x327 PUSH2 0xC78 JUMP JUMPDEST PUSH1 0x40 MLOAD PUSH2 0x334 SWAP2 SWAP1 PUSH2 0x1A5D JUMP JUMPDEST PUSH1 0x40 MLOAD DUP1 SWAP2 SUB SWAP1 RETURN JUMPDEST PUSH2 0x345 PUSH2 0xC7E JUMP JUMPDEST PUSH1 0x40 MLOAD PUSH2 0x352 SWAP2 SWAP1 PUSH2 0x1A5D JUMP JUMPDEST PUSH1 0x40 MLOAD DUP1 SWAP2 SUB SWAP1 RETURN JUMPDEST PUSH2 0x375 PUSH1 0x4 DUP1 CALLDATASIZE SUB DUP2 ADD SWAP1 PUSH2 0x370 SWAP2 SWAP1 PUSH2 0x19B7 JUMP JUMPDEST PUSH2 0xC84 JUMP JUMPDEST PUSH1 0x40 MLOAD PUSH2 0x382 SWAP2 SWAP1 PUSH2 0x1A5D JUMP JUMPDEST PUSH1 0x40 MLOAD DUP1 SWAP2 SUB SWAP1 RETURN JUMPDEST PUSH2 0x393 PUSH2 0xC9C JUMP JUMPDEST PUSH1 0x40 MLOAD PUSH2 0x3A0 SWAP2 SWAP1 PUSH2 0x19FF JUMP JUMPDEST PUSH1 0x40 MLOAD DUP1 SWAP2 SUB SWAP1 RETURN JUMPDEST PUSH2 0x3B1 PUSH2 0x1055 JUMP JUMPDEST PUSH1 0x40 MLOAD PUSH2 0x3BE SWAP2 SWAP1 PUSH2 0x1A5D JUMP JUMPDEST PUSH1 0x40 MLOAD DUP1 SWAP2 SUB SWAP1 RETURN JUMPDEST PUSH2 0x3E1 PUSH1 0x4 DUP1 CALLDATASIZE SUB DUP2 ADD SWAP1 PUSH2 0x3DC SWAP2 SWAP1 PUSH2 0x1B4D JUMP JUMPDEST PUSH2 0x105B JUMP JUMPDEST PUSH1 0x40 MLOAD PUSH2 0x3EE SWAP2 SWAP1 PUSH2 0x1A29 JUMP JUMPDEST PUSH1 0x40 MLOAD DUP1 SWAP2 SUB SWAP1 RETURN JUMPDEST PUSH2 0x3FF PUSH2 0x1091 JUMP JUMPDEST PUSH1 0x40 MLOAD PUSH2 0x40C SWAP2 SWAP1 PUSH2 0x1A29 JUMP JUMPDEST PUSH1 0x40 MLOAD DUP1 SWAP2 SUB SWAP1 RETURN JUMPDEST PUSH2 0x42F PUSH1 0x4 DUP1 CALLDATASIZE SUB DUP2 ADD SWAP1 PUSH2 0x42A SWAP2 SWAP1 PUSH2 0x1B4D JUMP JUMPDEST PUSH2 0x10B7 JUMP JUMPDEST STOP JUMPDEST PUSH2 0x439 PUSH2 0x1347 JUMP JUMPDEST PUSH1 0x40 MLOAD PUSH2 0x446 SWAP2 SWAP1 PUSH2 0x1A29 JUMP JUMPDEST PUSH1 0x40 MLOAD DUP1 SWAP2 SUB SWAP1 RETURN JUMPDEST PUSH2 0x457 PUSH2 0x136D JUMP JUMPDEST PUSH1 0x40 MLOAD PUSH2 0x464 SWAP2 SWAP1 PUSH2 0x1A29 JUMP JUMPDEST PUSH1 0x40 MLOAD DUP1 SWAP2 SUB SWAP1 RETURN JUMPDEST PUSH1 0x18 PUSH1 0x20 MSTORE DUP1 PUSH1 0x0 MSTORE PUSH1 0x40 PUSH1 0x0 KECCAK256 PUSH1 0x0 SWAP2 POP SLOAD SWAP1 PUSH2 0x100 EXP SWAP1 DIV PUSH1 0xFF AND DUP2 JUMP JUMPDEST PUSH1 0x2 PUSH1 0x0 SWAP1 SLOAD SWAP1 PUSH2 0x100 EXP SWAP1 DIV PUSH20 0xFFFFFFFFFFFFFFFFFFFFFFFFFFFFFFFFFFFFFFFF AND DUP2 JUMP JUMPDEST PUSH1 0x0 PUSH1 0x17 PUSH1 0x0 DUP4 PUSH20 0xFFFFFFFFFFFFFFFFFFFFFFFFFFFFFFFFFFFFFFFF AND PUSH20 0xFFFFFFFFFFFFFFFFFFFFFFFFFFFFFFFFFFFFFFFF AND DUP2 MSTORE PUSH1 0x20 ADD SWAP1 DUP2 MSTORE PUSH1 0x20 ADD PUSH1 0x0 KECCAK256 SLOAD SWAP1 POP SWAP2 SWAP1 POP JUMP JUMPDEST CALLER PUSH20 0xFFFFFFFFFFFFFFFFFFFFFFFFFFFFFFFFFFFFFFFF AND PUSH32 0x0 PUSH20 0xFFFFFFFFFFFFFFFFFFFFFFFFFFFFFFFFFFFFFFFF AND EQ PUSH2 0x58A JUMPI PUSH1 0x40 MLOAD PUSH32 0x8C379A000000000000000000000000000000000000000000000000000000000 DUP2 MSTORE PUSH1 0x4 ADD PUSH2 0x581 SWAP1 PUSH2 0x1BD7 JUMP JUMPDEST PUSH1 0x40 MLOAD DUP1 SWAP2 SUB SWAP1 REVERT JUMPDEST PUSH1 0x1 PUSH1 0x18 PUSH1 0x0 DUP4 PUSH20 0xFFFFFFFFFFFFFFFFFFFFFFFFFFFFFFFFFFFFFFFF AND PUSH20 0xFFFFFFFFFFFFFFFFFFFFFFFFFFFFFFFFFFFFFFFF AND DUP2 MSTORE PUSH1 0x20 ADD SWAP1 DUP2 MSTORE PUSH1 0x20 ADD PUSH1 0x0 KECCAK256 PUSH1 0x0 PUSH2 0x100 EXP DUP2 SLOAD DUP2 PUSH1 0xFF MUL NOT AND SWAP1 DUP4 ISZERO ISZERO MUL OR SWAP1 SSTORE POP POP JUMP JUMPDEST PUSH1 0x0 DUP2 PUSH1 0x0 ISZERO ISZERO PUSH1 0x18 PUSH1 0x0 DUP4 PUSH20 0xFFFFFFFFFFFFFFFFFFFFFFFFFFFFFFFFFFFFFFFF AND PUSH20 0xFFFFFFFFFFFFFFFFFFFFFFFFFFFFFFFFFFFFFFFF AND DUP2 MSTORE PUSH1 0x20 ADD SWAP1 DUP2 MSTORE PUSH1 0x20 ADD PUSH1 0x0 KECCAK256 PUSH1 0x0 SWAP1 SLOAD SWAP1 PUSH2 0x100 EXP SWAP1 DIV PUSH1 0xFF AND ISZERO ISZERO EQ PUSH2 0x67B JUMPI PUSH1 0x40 MLOAD PUSH32 0x8C379A000000000000000000000000000000000000000000000000000000000 DUP2 MSTORE PUSH1 0x4 ADD PUSH2 0x672 SWAP1 PUSH2 0x1C69 JUMP JUMPDEST PUSH1 0x40 MLOAD DUP1 SWAP2 SUB SWAP1 REVERT JUMPDEST DUP4 PUSH1 0x17 PUSH1 0x0 CALLER PUSH20 0xFFFFFFFFFFFFFFFFFFFFFFFFFFFFFFFFFFFFFFFF AND PUSH20 0xFFFFFFFFFFFFFFFFFFFFFFFFFFFFFFFFFFFFFFFF AND DUP2 MSTORE PUSH1 0x20 ADD SWAP1 DUP2 MSTORE PUSH1 0x20 ADD PUSH1 0x0 KECCAK256 SLOAD LT ISZERO PUSH2 0x6FD JUMPI PUSH1 0x40 MLOAD PUSH32 0x8C379A000000000000000000000000000000000000000000000000000000000 DUP2 MSTORE PUSH1 0x4 ADD PUSH2 0x6F4 SWAP1 PUSH2 0x1CD5 JUMP JUMPDEST PUSH1 0x40 MLOAD DUP1 SWAP2 SUB SWAP1 REVERT JUMPDEST PUSH1 0x0 PUSH2 0x708 CALLER PUSH2 0x1391 JUMP JUMPDEST SWAP1 POP PUSH2 0x712 PUSH2 0x1897 JUMP JUMPDEST PUSH2 0x71A PUSH2 0x1897 JUMP JUMPDEST DUP7 PUSH1 0x17 PUSH1 0x0 CALLER PUSH20 0xFFFFFFFFFFFFFFFFFFFFFFFFFFFFFFFFFFFFFFFF AND PUSH20 0xFFFFFFFFFFFFFFFFFFFFFFFFFFFFFFFFFFFFFFFF AND DUP2 MSTORE PUSH1 0x20 ADD SWAP1 DUP2 MSTORE PUSH1 0x20 ADD PUSH1 0x0 KECCAK256 PUSH1 0x0 DUP3 DUP3 SLOAD PUSH2 0x769 SWAP2 SWAP1 PUSH2 0x1D24 JUMP JUMPDEST SWAP3 POP POP DUP2 SWAP1 SSTORE POP DUP7 PUSH1 0x17 PUSH1 0x0 DUP9 PUSH20 0xFFFFFFFFFFFFFFFFFFFFFFFFFFFFFFFFFFFFFFFF AND PUSH20 0xFFFFFFFFFFFFFFFFFFFFFFFFFFFFFFFFFFFFFFFF AND DUP2 MSTORE PUSH1 0x20 ADD SWAP1 DUP2 MSTORE PUSH1 0x20 ADD PUSH1 0x0 KECCAK256 PUSH1 0x0 DUP3 DUP3 SLOAD PUSH2 0x7BF SWAP2 SWAP1 PUSH2 0x1D58 JUMP JUMPDEST SWAP3 POP POP DUP2 SWAP1 SSTORE POP PUSH1 0x0 PUSH8 0xDE0B6B3A7640000 DUP9 PUSH2 0x7DC SWAP2 SWAP1 PUSH2 0x1DBB JUMP JUMPDEST SWAP1 POP PUSH1 0x0 DUP1 PUSH1 0x0 DUP1 PUSH1 0x0 SWAP1 POP JUMPDEST PUSH1 0x9 DUP2 LT ISZERO PUSH2 0x855 JUMPI PUSH1 0x0 PUSH2 0x81C DUP7 PUSH1 0x19 DUP5 DUP2 SLOAD DUP2 LT PUSH2 0x80C JUMPI PUSH2 0x80B PUSH2 0x1DEC JUMP JUMPDEST JUMPDEST SWAP1 PUSH1 0x0 MSTORE PUSH1 0x20 PUSH1 0x0 KECCAK256 ADD SLOAD PUSH2 0xB7F JUMP JUMPDEST DUP1 SWAP8 POP DUP2 SWAP3 POP POP POP DUP1 DUP9 DUP4 PUSH1 0x9 DUP2 LT PUSH2 0x838 JUMPI PUSH2 0x837 PUSH2 0x1DEC JUMP JUMPDEST JUMPDEST PUSH1 0x20 MUL ADD DUP2 DUP2 MSTORE POP POP POP DUP1 DUP1 PUSH2 0x84D SWAP1 PUSH2 0x1E1B JUMP JUMPDEST SWAP2 POP POP PUSH2 0x7E9 JUMP JUMPDEST POP PUSH1 0x0 DUP1 JUMPDEST PUSH1 0x9 DUP2 LT ISZERO PUSH2 0xB3D JUMPI DUP8 DUP2 PUSH1 0x9 DUP2 LT PUSH2 0x876 JUMPI PUSH2 0x875 PUSH2 0x1DEC JUMP JUMPDEST JUMPDEST PUSH1 0x20 MUL ADD MLOAD DUP10 DUP3 PUSH1 0x9 DUP2 LT PUSH2 0x88E JUMPI PUSH2 0x88D PUSH2 0x1DEC JUMP JUMPDEST JUMPDEST PUSH1 0x20 MUL ADD MLOAD GT ISZERO PUSH2 0x963 JUMPI DUP8 DUP2 PUSH1 0x9 DUP2 LT PUSH2 0x8AC JUMPI PUSH2 0x8AB PUSH2 0x1DEC JUMP JUMPDEST JUMPDEST PUSH1 0x20 MUL ADD MLOAD PUSH1 0x19 DUP3 DUP2 SLOAD DUP2 LT PUSH2 0x8C5 JUMPI PUSH2 0x8C4 PUSH2 0x1DEC JUMP JUMPDEST JUMPDEST SWAP1 PUSH1 0x0 MSTORE PUSH1 0x20 PUSH1 0x0 KECCAK256 ADD SLOAD PUSH2 0x8DA SWAP2 SWAP1 PUSH2 0x1E63 JUMP JUMPDEST DUP3 PUSH2 0x8E5 SWAP2 SWAP1 PUSH2 0x1D58 JUMP JUMPDEST SWAP2 POP DUP8 DUP2 PUSH1 0x9 DUP2 LT PUSH2 0x8FA JUMPI PUSH2 0x8F9 PUSH2 0x1DEC JUMP JUMPDEST JUMPDEST PUSH1 0x20 MUL ADD MLOAD DUP8 DUP3 PUSH1 0x9 DUP2 LT PUSH2 0x912 JUMPI PUSH2 0x911 PUSH2 0x1DEC JUMP JUMPDEST JUMPDEST PUSH1 0x20 MUL ADD DUP2 DUP2 MSTORE POP POP DUP8 DUP2 PUSH1 0x9 DUP2 LT PUSH2 0x92E JUMPI PUSH2 0x92D PUSH2 0x1DEC JUMP JUMPDEST JUMPDEST PUSH1 0x20 MUL ADD MLOAD DUP10 DUP3 PUSH1 0x9 DUP2 LT PUSH2 0x946 JUMPI PUSH2 0x945 PUSH2 0x1DEC JUMP JUMPDEST JUMPDEST PUSH1 0x20 MUL ADD DUP2 DUP2 MLOAD PUSH2 0x957 SWAP2 SWAP1 PUSH2 0x1D24 JUMP JUMPDEST SWAP2 POP DUP2 DUP2 MSTORE POP POP PUSH2 0xB2A JUMP JUMPDEST PUSH1 0x0 DUP3 PUSH8 0xDE0B6B3A7640000 DUP16 PUSH2 0x97A SWAP2 SWAP1 PUSH2 0x1DBB JUMP JUMPDEST PUSH2 0x984 SWAP2 SWAP1 PUSH2 0x1D24 JUMP JUMPDEST SWAP1 POP PUSH1 0x0 PUSH1 0x1 DUP4 PUSH2 0x995 SWAP2 SWAP1 PUSH2 0x1D24 JUMP JUMPDEST SWAP1 POP JUMPDEST PUSH1 0x0 DUP2 LT PUSH2 0xB23 JUMPI PUSH1 0x19 DUP2 DUP2 SLOAD DUP2 LT PUSH2 0x9B4 JUMPI PUSH2 0x9B3 PUSH2 0x1DEC JUMP JUMPDEST JUMPDEST SWAP1 PUSH1 0x0 MSTORE PUSH1 0x20 PUSH1 0x0 KECCAK256 ADD SLOAD DUP3 LT DUP1 ISZERO PUSH2 0x9E4 JUMPI POP PUSH1 0x0 DUP12 DUP3 PUSH1 0x9 DUP2 LT PUSH2 0x9DD JUMPI PUSH2 0x9DC PUSH2 0x1DEC JUMP JUMPDEST JUMPDEST PUSH1 0x20 MUL ADD MLOAD GT JUMPDEST ISZERO PUSH2 0xB10 JUMPI DUP2 PUSH1 0x19 DUP3 DUP2 SLOAD DUP2 LT PUSH2 0x9FE JUMPI PUSH2 0x9FD PUSH2 0x1DEC JUMP JUMPDEST JUMPDEST SWAP1 PUSH1 0x0 MSTORE PUSH1 0x20 PUSH1 0x0 KECCAK256 ADD SLOAD PUSH2 0xA13 SWAP2 SWAP1 PUSH2 0x1D24 JUMP JUMPDEST SWAP7 POP DUP7 PUSH1 0x19 DUP3 DUP2 SLOAD DUP2 LT PUSH2 0xA2A JUMPI PUSH2 0xA29 PUSH2 0x1DEC JUMP JUMPDEST JUMPDEST SWAP1 PUSH1 0x0 MSTORE PUSH1 0x20 PUSH1 0x0 KECCAK256 ADD SLOAD PUSH2 0xA3F SWAP2 SWAP1 PUSH2 0x1D24 JUMP JUMPDEST SWAP6 POP PUSH1 0x19 DUP2 DUP2 SLOAD DUP2 LT PUSH2 0xA55 JUMPI PUSH2 0xA54 PUSH2 0x1DEC JUMP JUMPDEST JUMPDEST SWAP1 PUSH1 0x0 MSTORE PUSH1 0x20 PUSH1 0x0 KECCAK256 ADD SLOAD SWAP5 POP PUSH1 0x0 PUSH1 0xA DUP3 PUSH1 0x9 DUP2 LT PUSH2 0xA78 JUMPI PUSH2 0xA77 PUSH2 0x1DEC JUMP JUMPDEST JUMPDEST ADD PUSH1 0x0 SWAP1 SLOAD SWAP1 PUSH2 0x100 EXP SWAP1 DIV PUSH20 0xFFFFFFFFFFFFFFFFFFFFFFFFFFFFFFFFFFFFFFFF AND SWAP1 POP DUP1 PUSH20 0xFFFFFFFFFFFFFFFFFFFFFFFFFFFFFFFFFFFFFFFF AND PUSH4 0x83C587DF CALLER PUSH1 0x0 PUSH1 0x40 MLOAD DUP4 PUSH4 0xFFFFFFFF AND PUSH1 0xE0 SHL DUP2 MSTORE PUSH1 0x4 ADD PUSH2 0xAD8 SWAP3 SWAP2 SWAP1 PUSH2 0x1EA5 JUMP JUMPDEST PUSH1 0x0 PUSH1 0x40 MLOAD DUP1 DUP4 SUB DUP2 PUSH1 0x0 DUP8 DUP1 EXTCODESIZE ISZERO DUP1 ISZERO PUSH2 0xAF2 JUMPI PUSH1 0x0 DUP1 REVERT JUMPDEST POP GAS CALL ISZERO DUP1 ISZERO PUSH2 0xB06 JUMPI RETURNDATASIZE PUSH1 0x0 DUP1 RETURNDATACOPY RETURNDATASIZE PUSH1 0x0 REVERT JUMPDEST POP POP POP POP POP PUSH2 0xB23 JUMP JUMPDEST DUP1 DUP1 PUSH2 0xB1B SWAP1 PUSH2 0x1ECE JUMP JUMPDEST SWAP2 POP POP PUSH2 0x998 JUMP JUMPDEST POP POP PUSH2 0xB3D JUMP JUMPDEST DUP1 DUP1 PUSH2 0xB35 SWAP1 PUSH2 0x1E1B JUMP JUMPDEST SWAP2 POP POP PUSH2 0x85A JUMP JUMPDEST POP PUSH2 0xB4A DUP7 DUP13 DUP7 DUP7 PUSH2 0x149D JUMP JUMPDEST POP POP POP POP POP POP POP POP POP SWAP3 SWAP2 POP POP JUMP JUMPDEST PUSH1 0x5 PUSH1 0x0 SWAP1 SLOAD SWAP1 PUSH2 0x100 EXP SWAP1 DIV PUSH20 0xFFFFFFFFFFFFFFFFFFFFFFFFFFFFFFFFFFFFFFFF AND DUP2 JUMP JUMPDEST PUSH1 0x0 DUP1 PUSH1 0x0 DUP4 DUP6 PUSH2 0xB90 SWAP2 SWAP1 PUSH2 0x1DBB JUMP JUMPDEST SWAP1 POP DUP4 DUP6 PUSH2 0xB9E SWAP2 SWAP1 PUSH2 0x1EF7 JUMP JUMPDEST PUSH1 0x16 DUP2 SWAP1 SSTORE POP DUP1 PUSH1 0x16 SLOAD SWAP3 POP SWAP3 POP POP SWAP3 POP SWAP3 SWAP1 POP JUMP JUMPDEST PUSH1 0x4 PUSH1 0x0 SWAP1 SLOAD SWAP1 PUSH2 0x100 EXP SWAP1 DIV PUSH20 0xFFFFFFFFFFFFFFFFFFFFFFFFFFFFFFFFFFFFFFFF AND DUP2 JUMP JUMPDEST PUSH1 0x1 PUSH1 0x0 SWAP1 SLOAD SWAP1 PUSH2 0x100 EXP SWAP1 DIV PUSH20 0xFFFFFFFFFFFFFFFFFFFFFFFFFFFFFFFFFFFFFFFF AND DUP2 JUMP JUMPDEST PUSH1 0x8 PUSH1 0x0 SWAP1 SLOAD SWAP1 PUSH2 0x100 EXP SWAP1 DIV PUSH20 0xFFFFFFFFFFFFFFFFFFFFFFFFFFFFFFFFFFFFFFFF AND DUP2 JUMP JUMPDEST PUSH1 0x13 SLOAD DUP2 JUMP JUMPDEST PUSH1 0x3 PUSH1 0x0 SWAP1 SLOAD SWAP1 PUSH2 0x100 EXP SWAP1 DIV PUSH20 0xFFFFFFFFFFFFFFFFFFFFFFFFFFFFFFFFFFFFFFFF AND DUP2 JUMP JUMPDEST PUSH1 0x9 PUSH1 0x0 SWAP1 SLOAD SWAP1 PUSH2 0x100 EXP SWAP1 DIV PUSH20 0xFFFFFFFFFFFFFFFFFFFFFFFFFFFFFFFFFFFFFFFF AND DUP2 JUMP JUMPDEST PUSH1 0x14 SLOAD DUP2 JUMP JUMPDEST PUSH1 0x16 SLOAD DUP2 JUMP JUMPDEST PUSH1 0x17 PUSH1 0x20 MSTORE DUP1 PUSH1 0x0 MSTORE PUSH1 0x40 PUSH1 0x0 KECCAK256 PUSH1 0x0 SWAP2 POP SWAP1 POP SLOAD DUP2 JUMP JUMPDEST PUSH1 0x0 CALLER PUSH20 0xFFFFFFFFFFFFFFFFFFFFFFFFFFFFFFFFFFFFFFFF AND PUSH32 0x0 PUSH20 0xFFFFFFFFFFFFFFFFFFFFFFFFFFFFFFFFFFFFFFFF AND EQ PUSH2 0xD2C JUMPI PUSH1 0x40 MLOAD PUSH32 0x8C379A000000000000000000000000000000000000000000000000000000000 DUP2 MSTORE PUSH1 0x4 ADD PUSH2 0xD23 SWAP1 PUSH2 0x1BD7 JUMP JUMPDEST PUSH1 0x40 MLOAD DUP1 SWAP2 SUB SWAP1 REVERT JUMPDEST PUSH1 0x0 PUSH20 0xD54D3F6C3B863F29D4FC1D1E2AE0EAC27B13D2EF SWAP1 POP PUSH1 0x0 PUSH20 0xE5FDE1987E7EC52B92E4F939C2B64299748A3D44 SWAP1 POP PUSH1 0x0 PUSH20 0x8CEC8D539D468CD19563174EFF7705067A9FD582 SWAP1 POP PUSH1 0x0 PUSH20 0xB16C4005ACAB743E1EF2039F4D3E1FD693BEA34D SWAP1 POP PUSH1 0x0 PUSH20 0x7D148294204E94E9592BE603C15E231B67FB1D87 SWAP1 POP PUSH1 0x0 PUSH20 0xCA7DD6C3EDF65EEC61CEC7212DF319610A72E479 SWAP1 POP PUSH1 0x0 PUSH20 0xE0C8919C807D262DEB2957EEFA512FE383094C83 SWAP1 POP PUSH1 0x0 PUSH20 0xDF035655FF59008A07F46E16B1B9788FE4169EA2 SWAP1 POP PUSH1 0x0 PUSH20 0xEC4AE94411412CBED68C531A5DF7A0A7A1534DE3 SWAP1 POP PUSH1 0x0 PUSH20 0x7E05B6AF7E51B614B9920A0328A91C3A09A3315A SWAP1 POP DUP1 PUSH1 0x9 PUSH1 0x0 PUSH2 0x100 EXP DUP2 SLOAD DUP2 PUSH20 0xFFFFFFFFFFFFFFFFFFFFFFFFFFFFFFFFFFFFFFFF MUL NOT AND SWAP1 DUP4 PUSH20 0xFFFFFFFFFFFFFFFFFFFFFFFFFFFFFFFFFFFFFFFF AND MUL OR SWAP1 SSTORE POP PUSH1 0x40 MLOAD DUP1 PUSH2 0x120 ADD PUSH1 0x40 MSTORE DUP1 DUP4 PUSH20 0xFFFFFFFFFFFFFFFFFFFFFFFFFFFFFFFFFFFFFFFF AND PUSH20 0xFFFFFFFFFFFFFFFFFFFFFFFFFFFFFFFFFFFFFFFF AND DUP2 MSTORE PUSH1 0x20 ADD DUP5 PUSH20 0xFFFFFFFFFFFFFFFFFFFFFFFFFFFFFFFFFFFFFFFF AND PUSH20 0xFFFFFFFFFFFFFFFFFFFFFFFFFFFFFFFFFFFFFFFF AND DUP2 MSTORE PUSH1 0x20 ADD DUP6 PUSH20 0xFFFFFFFFFFFFFFFFFFFFFFFFFFFFFFFFFFFFFFFF AND PUSH20 0xFFFFFFFFFFFFFFFFFFFFFFFFFFFFFFFFFFFFFFFF AND DUP2 MSTORE PUSH1 0x20 ADD DUP7 PUSH20 0xFFFFFFFFFFFFFFFFFFFFFFFFFFFFFFFFFFFFFFFF AND PUSH20 0xFFFFFFFFFFFFFFFFFFFFFFFFFFFFFFFFFFFFFFFF AND DUP2 MSTORE PUSH1 0x20 ADD DUP8 PUSH20 0xFFFFFFFFFFFFFFFFFFFFFFFFFFFFFFFFFFFFFFFF AND PUSH20 0xFFFFFFFFFFFFFFFFFFFFFFFFFFFFFFFFFFFFFFFF AND DUP2 MSTORE PUSH1 0x20 ADD DUP9 PUSH20 0xFFFFFFFFFFFFFFFFFFFFFFFFFFFFFFFFFFFFFFFF AND PUSH20 0xFFFFFFFFFFFFFFFFFFFFFFFFFFFFFFFFFFFFFFFF AND DUP2 MSTORE PUSH1 0x20 ADD DUP10 PUSH20 0xFFFFFFFFFFFFFFFFFFFFFFFFFFFFFFFFFFFFFFFF AND PUSH20 0xFFFFFFFFFFFFFFFFFFFFFFFFFFFFFFFFFFFFFFFF AND DUP2 MSTORE PUSH1 0x20 ADD DUP11 PUSH20 0xFFFFFFFFFFFFFFFFFFFFFFFFFFFFFFFFFFFFFFFF AND PUSH20 0xFFFFFFFFFFFFFFFFFFFFFFFFFFFFFFFFFFFFFFFF AND DUP2 MSTORE PUSH1 0x20 ADD DUP12 PUSH20 0xFFFFFFFFFFFFFFFFFFFFFFFFFFFFFFFFFFFFFFFF AND PUSH20 0xFFFFFFFFFFFFFFFFFFFFFFFFFFFFFFFFFFFFFFFF AND DUP2 MSTORE POP PUSH1 0xA SWAP1 PUSH1 0x9 PUSH2 0x1043 SWAP3 SWAP2 SWAP1 PUSH2 0x18BA JUMP JUMPDEST POP PUSH1 0x1 SWAP11 POP POP POP POP POP POP POP POP POP POP POP SWAP1 JUMP JUMPDEST PUSH1 0x15 SLOAD DUP2 JUMP JUMPDEST PUSH1 0xA DUP2 PUSH1 0x9 DUP2 LT PUSH2 0x106B JUMPI PUSH1 0x0 DUP1 REVERT JUMPDEST ADD PUSH1 0x0 SWAP2 POP SLOAD SWAP1 PUSH2 0x100 EXP SWAP1 DIV PUSH20 0xFFFFFFFFFFFFFFFFFFFFFFFFFFFFFFFFFFFFFFFF AND DUP2 JUMP JUMPDEST PUSH1 0x6 PUSH1 0x0 SWAP1 SLOAD SWAP1 PUSH2 0x100 EXP SWAP1 DIV PUSH20 0xFFFFFFFFFFFFFFFFFFFFFFFFFFFFFFFFFFFFFFFF AND DUP2 JUMP JUMPDEST PUSH2 0x10BF PUSH2 0x1897 JUMP JUMPDEST PUSH1 0x0 PUSH1 0x9 PUSH1 0x0 SWAP1 SLOAD SWAP1 PUSH2 0x100 EXP SWAP1 DIV PUSH20 0xFFFFFFFFFFFFFFFFFFFFFFFFFFFFFFFFFFFFFFFF AND SWAP1 POP DUP1 PUSH20 0xFFFFFFFFFFFFFFFFFFFFFFFFFFFFFFFFFFFFFFFF AND PUSH4 0x23B872DD CALLER ADDRESS DUP7 PUSH1 0x40 MLOAD DUP5 PUSH4 0xFFFFFFFF AND PUSH1 0xE0 SHL DUP2 MSTORE PUSH1 0x4 ADD PUSH2 0x1123 SWAP4 SWAP3 SWAP2 SWAP1 PUSH2 0x1F28 JUMP JUMPDEST PUSH1 0x20 PUSH1 0x40 MLOAD DUP1 DUP4 SUB DUP2 PUSH1 0x0 DUP8 GAS CALL ISZERO DUP1 ISZERO PUSH2 0x1142 JUMPI RETURNDATASIZE PUSH1 0x0 DUP1 RETURNDATACOPY RETURNDATASIZE PUSH1 0x0 REVERT JUMPDEST POP POP POP POP PUSH1 0x40 MLOAD RETURNDATASIZE PUSH1 0x1F NOT PUSH1 0x1F DUP3 ADD AND DUP3 ADD DUP1 PUSH1 0x40 MSTORE POP DUP2 ADD SWAP1 PUSH2 0x1166 SWAP2 SWAP1 PUSH2 0x1F8B JUMP JUMPDEST POP PUSH1 0x0 PUSH8 0xDE0B6B3A7640000 DUP5 PUSH2 0x117D SWAP2 SWAP1 PUSH2 0x1DBB JUMP JUMPDEST SWAP1 POP PUSH1 0x0 JUMPDEST PUSH1 0x9 DUP2 LT ISZERO PUSH2 0x11EE JUMPI PUSH1 0x0 PUSH2 0x11B5 DUP4 PUSH1 0x19 DUP5 DUP2 SLOAD DUP2 LT PUSH2 0x11A5 JUMPI PUSH2 0x11A4 PUSH2 0x1DEC JUMP JUMPDEST JUMPDEST SWAP1 PUSH1 0x0 MSTORE PUSH1 0x20 PUSH1 0x0 KECCAK256 ADD SLOAD PUSH2 0xB7F JUMP JUMPDEST DUP1 SWAP5 POP DUP2 SWAP3 POP POP POP DUP1 DUP6 DUP4 PUSH1 0x9 DUP2 LT PUSH2 0x11D1 JUMPI PUSH2 0x11D0 PUSH2 0x1DEC JUMP JUMPDEST JUMPDEST PUSH1 0x20 MUL ADD DUP2 DUP2 MSTORE POP POP POP DUP1 DUP1 PUSH2 0x11E6 SWAP1 PUSH2 0x1E1B JUMP JUMPDEST SWAP2 POP POP PUSH2 0x1182 JUMP JUMPDEST POP PUSH1 0x0 JUMPDEST PUSH1 0x9 DUP2 LT ISZERO PUSH2 0x12EA JUMPI PUSH1 0x0 JUMPDEST DUP5 DUP3 PUSH1 0x9 DUP2 LT PUSH2 0x1211 JUMPI PUSH2 0x1210 PUSH2 0x1DEC JUMP JUMPDEST JUMPDEST PUSH1 0x20 MUL ADD MLOAD DUP2 LT ISZERO PUSH2 0x12D6 JUMPI PUSH1 0x0 PUSH1 0xA DUP4 PUSH1 0x9 DUP2 LT PUSH2 0x1233 JUMPI PUSH2 0x1232 PUSH2 0x1DEC JUMP JUMPDEST JUMPDEST ADD PUSH1 0x0 SWAP1 SLOAD SWAP1 PUSH2 0x100 EXP SWAP1 DIV PUSH20 0xFFFFFFFFFFFFFFFFFFFFFFFFFFFFFFFFFFFFFFFF AND SWAP1 POP DUP1 PUSH20 0xFFFFFFFFFFFFFFFFFFFFFFFFFFFFFFFFFFFFFFFF AND PUSH4 0x40D097C3 CALLER PUSH1 0x40 MLOAD DUP3 PUSH4 0xFFFFFFFF AND PUSH1 0xE0 SHL DUP2 MSTORE PUSH1 0x4 ADD PUSH2 0x1290 SWAP2 SWAP1 PUSH2 0x1A29 JUMP JUMPDEST PUSH1 0x0 PUSH1 0x40 MLOAD DUP1 DUP4 SUB DUP2 PUSH1 0x0 DUP8 DUP1 EXTCODESIZE ISZERO DUP1 ISZERO PUSH2 0x12AA JUMPI PUSH1 0x0 DUP1 REVERT JUMPDEST POP GAS CALL ISZERO DUP1 ISZERO PUSH2 0x12BE JUMPI RETURNDATASIZE PUSH1 0x0 DUP1 RETURNDATACOPY RETURNDATASIZE PUSH1 0x0 REVERT JUMPDEST POP POP POP POP POP DUP1 DUP1 PUSH2 0x12CE SWAP1 PUSH2 0x1E1B JUMP JUMPDEST SWAP2 POP POP PUSH2 0x11FE JUMP JUMPDEST POP DUP1 DUP1 PUSH2 0x12E2 SWAP1 PUSH2 0x1E1B JUMP JUMPDEST SWAP2 POP POP PUSH2 0x11F2 JUMP JUMPDEST DUP5 PUSH1 0x17 PUSH1 0x0 CALLER PUSH20 0xFFFFFFFFFFFFFFFFFFFFFFFFFFFFFFFFFFFFFFFF AND PUSH20 0xFFFFFFFFFFFFFFFFFFFFFFFFFFFFFFFFFFFFFFFF AND DUP2 MSTORE PUSH1 0x20 ADD SWAP1 DUP2 MSTORE PUSH1 0x20 ADD PUSH1 0x0 KECCAK256 PUSH1 0x0 DUP3 DUP3 SLOAD PUSH2 0x1339 SWAP2 SWAP1 PUSH2 0x1D58 JUMP JUMPDEST SWAP3 POP POP DUP2 SWAP1 SSTORE POP POP POP POP POP POP JUMP JUMPDEST PUSH1 0x7 PUSH1 0x0 SWAP1 SLOAD SWAP1 PUSH2 0x100 EXP SWAP1 DIV PUSH20 0xFFFFFFFFFFFFFFFFFFFFFFFFFFFFFFFFFFFFFFFF AND DUP2 JUMP JUMPDEST PUSH1 0x0 DUP1 SLOAD SWAP1 PUSH2 0x100 EXP SWAP1 DIV PUSH20 0xFFFFFFFFFFFFFFFFFFFFFFFFFFFFFFFFFFFFFFFF AND DUP2 JUMP JUMPDEST PUSH2 0x1399 PUSH2 0x1897 JUMP JUMPDEST PUSH2 0x13A1 PUSH2 0x1897 JUMP JUMPDEST PUSH1 0x0 JUMPDEST PUSH1 0x9 DUP2 LT ISZERO PUSH2 0x1493 JUMPI PUSH1 0x0 PUSH1 0xA DUP3 PUSH1 0x9 DUP2 LT PUSH2 0x13C3 JUMPI PUSH2 0x13C2 PUSH2 0x1DEC JUMP JUMPDEST JUMPDEST ADD PUSH1 0x0 SWAP1 SLOAD SWAP1 PUSH2 0x100 EXP SWAP1 DIV PUSH20 0xFFFFFFFFFFFFFFFFFFFFFFFFFFFFFFFFFFFFFFFF AND SWAP1 POP DUP1 PUSH20 0xFFFFFFFFFFFFFFFFFFFFFFFFFFFFFFFFFFFFFFFF AND PUSH4 0x83E38D3B DUP7 PUSH1 0x40 MLOAD DUP3 PUSH4 0xFFFFFFFF AND PUSH1 0xE0 SHL DUP2 MSTORE PUSH1 0x4 ADD PUSH2 0x1420 SWAP2 SWAP1 PUSH2 0x1A29 JUMP JUMPDEST PUSH1 0x20 PUSH1 0x40 MLOAD DUP1 DUP4 SUB DUP2 PUSH1 0x0 DUP8 GAS CALL ISZERO DUP1 ISZERO PUSH2 0x143F JUMPI RETURNDATASIZE PUSH1 0x0 DUP1 RETURNDATACOPY RETURNDATASIZE PUSH1 0x0 REVERT JUMPDEST POP POP POP POP PUSH1 0x40 MLOAD RETURNDATASIZE PUSH1 0x1F NOT PUSH1 0x1F DUP3 ADD AND DUP3 ADD DUP1 PUSH1 0x40 MSTORE POP DUP2 ADD SWAP1 PUSH2 0x1463 SWAP2 SWAP1 PUSH2 0x1FCD JUMP JUMPDEST DUP4 DUP4 PUSH1 0x9 DUP2 LT PUSH2 0x1476 JUMPI PUSH2 0x1475 PUSH2 0x1DEC JUMP JUMPDEST JUMPDEST PUSH1 0x20 MUL ADD DUP2 DUP2 MSTORE POP POP POP DUP1 DUP1 PUSH2 0x148B SWAP1 PUSH2 0x1E1B JUMP JUMPDEST SWAP2 POP POP PUSH2 0x13A4 JUMP JUMPDEST POP DUP1 SWAP2 POP POP SWAP2 SWAP1 POP JUMP JUMPDEST PUSH1 0x0 JUMPDEST PUSH1 0x9 DUP2 LT ISZERO PUSH2 0x159A JUMPI PUSH1 0x0 JUMPDEST DUP6 DUP3 PUSH1 0x9 DUP2 LT PUSH2 0x14BF JUMPI PUSH2 0x14BE PUSH2 0x1DEC JUMP JUMPDEST JUMPDEST PUSH1 0x20 MUL ADD MLOAD DUP2 LT ISZERO PUSH2 0x1586 JUMPI PUSH1 0x0 PUSH1 0xA DUP4 PUSH1 0x9 DUP2 LT PUSH2 0x14E1 JUMPI PUSH2 0x14E0 PUSH2 0x1DEC JUMP JUMPDEST JUMPDEST ADD PUSH1 0x0 SWAP1 SLOAD SWAP1 PUSH2 0x100 EXP SWAP1 DIV PUSH20 0xFFFFFFFFFFFFFFFFFFFFFFFFFFFFFFFFFFFFFFFF AND SWAP1 POP DUP1 PUSH20 0xFFFFFFFFFFFFFFFFFFFFFFFFFFFFFFFFFFFFFFFF AND PUSH4 0x83C587DF CALLER DUP9 PUSH1 0x40 MLOAD DUP4 PUSH4 0xFFFFFFFF AND PUSH1 0xE0 SHL DUP2 MSTORE PUSH1 0x4 ADD PUSH2 0x1540 SWAP3 SWAP2 SWAP1 PUSH2 0x1EA5 JUMP JUMPDEST PUSH1 0x0 PUSH1 0x40 MLOAD DUP1 DUP4 SUB DUP2 PUSH1 0x0 DUP8 DUP1 EXTCODESIZE ISZERO DUP1 ISZERO PUSH2 0x155A JUMPI PUSH1 0x0 DUP1 REVERT JUMPDEST POP GAS CALL ISZERO DUP1 ISZERO PUSH2 0x156E JUMPI RETURNDATASIZE PUSH1 0x0 DUP1 RETURNDATACOPY RETURNDATASIZE PUSH1 0x0 REVERT JUMPDEST POP POP POP POP POP DUP1 DUP1 PUSH2 0x157E SWAP1 PUSH2 0x1E1B JUMP JUMPDEST SWAP2 POP POP PUSH2 0x14AC JUMP JUMPDEST POP DUP1 DUP1 PUSH2 0x1592 SWAP1 PUSH2 0x1E1B JUMP JUMPDEST SWAP2 POP POP PUSH2 0x14A0 JUMP JUMPDEST POP PUSH1 0x0 DUP3 SWAP1 POP PUSH1 0x0 DUP3 SWAP1 POP PUSH2 0x15AD PUSH2 0x1897 JUMP JUMPDEST PUSH2 0x15B5 PUSH2 0x1897 JUMP JUMPDEST PUSH1 0x0 JUMPDEST PUSH1 0x9 DUP2 LT ISZERO PUSH2 0x1624 JUMPI PUSH1 0x0 PUSH2 0x15EB DUP7 PUSH1 0x19 DUP5 DUP2 SLOAD DUP2 LT PUSH2 0x15DB JUMPI PUSH2 0x15DA PUSH2 0x1DEC JUMP JUMPDEST JUMPDEST SWAP1 PUSH1 0x0 MSTORE PUSH1 0x20 PUSH1 0x0 KECCAK256 ADD SLOAD PUSH2 0xB7F JUMP JUMPDEST DUP1 SWAP8 POP DUP2 SWAP3 POP POP POP DUP1 DUP5 DUP4 PUSH1 0x9 DUP2 LT PUSH2 0x1607 JUMPI PUSH2 0x1606 PUSH2 0x1DEC JUMP JUMPDEST JUMPDEST PUSH1 0x20 MUL ADD DUP2 DUP2 MSTORE POP POP POP DUP1 DUP1 PUSH2 0x161C SWAP1 PUSH2 0x1E1B JUMP JUMPDEST SWAP2 POP POP PUSH2 0x15B8 JUMP JUMPDEST POP PUSH1 0x0 JUMPDEST PUSH1 0x9 DUP2 LT ISZERO PUSH2 0x1720 JUMPI PUSH1 0x0 JUMPDEST DUP4 DUP3 PUSH1 0x9 DUP2 LT PUSH2 0x1647 JUMPI PUSH2 0x1646 PUSH2 0x1DEC JUMP JUMPDEST JUMPDEST PUSH1 0x20 MUL ADD MLOAD DUP2 LT ISZERO PUSH2 0x170C JUMPI PUSH1 0x0 PUSH1 0xA DUP4 PUSH1 0x9 DUP2 LT PUSH2 0x1669 JUMPI PUSH2 0x1668 PUSH2 0x1DEC JUMP JUMPDEST JUMPDEST ADD PUSH1 0x0 SWAP1 SLOAD SWAP1 PUSH2 0x100 EXP SWAP1 DIV PUSH20 0xFFFFFFFFFFFFFFFFFFFFFFFFFFFFFFFFFFFFFFFF AND SWAP1 POP DUP1 PUSH20 0xFFFFFFFFFFFFFFFFFFFFFFFFFFFFFFFFFFFFFFFF AND PUSH4 0x40D097C3 CALLER PUSH1 0x40 MLOAD DUP3 PUSH4 0xFFFFFFFF AND PUSH1 0xE0 SHL DUP2 MSTORE PUSH1 0x4 ADD PUSH2 0x16C6 SWAP2 SWAP1 PUSH2 0x1A29 JUMP JUMPDEST PUSH1 0x0 PUSH1 0x40 MLOAD DUP1 DUP4 SUB DUP2 PUSH1 0x0 DUP8 DUP1 EXTCODESIZE ISZERO DUP1 ISZERO PUSH2 0x16E0 JUMPI PUSH1 0x0 DUP1 REVERT JUMPDEST POP GAS CALL ISZERO DUP1 ISZERO PUSH2 0x16F4 JUMPI RETURNDATASIZE PUSH1 0x0 DUP1 RETURNDATACOPY RETURNDATASIZE PUSH1 0x0 REVERT JUMPDEST POP POP POP POP POP DUP1 DUP1 PUSH2 0x1704 SWAP1 PUSH2 0x1E1B JUMP JUMPDEST SWAP2 POP POP PUSH2 0x1634 JUMP JUMPDEST POP DUP1 DUP1 PUSH2 0x1718 SWAP1 PUSH2 0x1E1B JUMP JUMPDEST SWAP2 POP POP PUSH2 0x1628 JUMP JUMPDEST POP PUSH1 0x0 JUMPDEST PUSH1 0x9 DUP2 LT ISZERO PUSH2 0x1790 JUMPI PUSH1 0x0 PUSH2 0x1757 DUP6 PUSH1 0x19 DUP5 DUP2 SLOAD DUP2 LT PUSH2 0x1747 JUMPI PUSH2 0x1746 PUSH2 0x1DEC JUMP JUMPDEST JUMPDEST SWAP1 PUSH1 0x0 MSTORE PUSH1 0x20 PUSH1 0x0 KECCAK256 ADD SLOAD PUSH2 0xB7F JUMP JUMPDEST DUP1 SWAP7 POP DUP2 SWAP3 POP POP POP DUP1 DUP4 DUP4 PUSH1 0x9 DUP2 LT PUSH2 0x1773 JUMPI PUSH2 0x1772 PUSH2 0x1DEC JUMP JUMPDEST JUMPDEST PUSH1 0x20 MUL ADD DUP2 DUP2 MSTORE POP POP POP DUP1 DUP1 PUSH2 0x1788 SWAP1 PUSH2 0x1E1B JUMP JUMPDEST SWAP2 POP POP PUSH2 0x1724 JUMP JUMPDEST POP PUSH1 0x0 JUMPDEST PUSH1 0x9 DUP2 LT ISZERO PUSH2 0x188C JUMPI PUSH1 0x0 JUMPDEST DUP3 DUP3 PUSH1 0x9 DUP2 LT PUSH2 0x17B3 JUMPI PUSH2 0x17B2 PUSH2 0x1DEC JUMP JUMPDEST JUMPDEST PUSH1 0x20 MUL ADD MLOAD DUP2 LT ISZERO PUSH2 0x1878 JUMPI PUSH1 0x0 PUSH1 0xA DUP4 PUSH1 0x9 DUP2 LT PUSH2 0x17D5 JUMPI PUSH2 0x17D4 PUSH2 0x1DEC JUMP JUMPDEST JUMPDEST ADD PUSH1 0x0 SWAP1 SLOAD SWAP1 PUSH2 0x100 EXP SWAP1 DIV PUSH20 0xFFFFFFFFFFFFFFFFFFFFFFFFFFFFFFFFFFFFFFFF AND SWAP1 POP DUP1 PUSH20 0xFFFFFFFFFFFFFFFFFFFFFFFFFFFFFFFFFFFFFFFF AND PUSH4 0x40D097C3 DUP12 PUSH1 0x40 MLOAD DUP3 PUSH4 0xFFFFFFFF AND PUSH1 0xE0 SHL DUP2 MSTORE PUSH1 0x4 ADD PUSH2 0x1832 SWAP2 SWAP1 PUSH2 0x1A29 JUMP JUMPDEST PUSH1 0x0 PUSH1 0x40 MLOAD DUP1 DUP4 SUB DUP2 PUSH1 0x0 DUP8 DUP1 EXTCODESIZE ISZERO DUP1 ISZERO PUSH2 0x184C JUMPI PUSH1 0x0 DUP1 REVERT JUMPDEST POP GAS CALL ISZERO DUP1 ISZERO PUSH2 0x1860 JUMPI RETURNDATASIZE PUSH1 0x0 DUP1 RETURNDATACOPY RETURNDATASIZE PUSH1 0x0 REVERT JUMPDEST POP POP POP POP POP DUP1 DUP1 PUSH2 0x1870 SWAP1 PUSH2 0x1E1B JUMP JUMPDEST SWAP2 POP POP PUSH2 0x17A0 JUMP JUMPDEST POP DUP1 DUP1 PUSH2 0x1884 SWAP1 PUSH2 0x1E1B JUMP JUMPDEST SWAP2 POP POP PUSH2 0x1794 JUMP JUMPDEST POP POP POP POP POP POP POP POP POP JUMP JUMPDEST PUSH1 0x40 MLOAD DUP1 PUSH2 0x120 ADD PUSH1 0x40 MSTORE DUP1 PUSH1 0x9 SWAP1 PUSH1 0x20 DUP3 MUL DUP1 CALLDATASIZE DUP4 CALLDATACOPY DUP1 DUP3 ADD SWAP2 POP POP SWAP1 POP POP SWAP1 JUMP JUMPDEST DUP3 PUSH1 0x9 DUP2 ADD SWAP3 DUP3 ISZERO PUSH2 0x1926 JUMPI SWAP2 PUSH1 0x20 MUL DUP3 ADD JUMPDEST DUP3 DUP2 GT ISZERO PUSH2 0x1925 JUMPI DUP3 MLOAD DUP3 PUSH1 0x0 PUSH2 0x100 EXP DUP2 SLOAD DUP2 PUSH20 0xFFFFFFFFFFFFFFFFFFFFFFFFFFFFFFFFFFFFFFFF MUL NOT AND SWAP1 DUP4 PUSH20 0xFFFFFFFFFFFFFFFFFFFFFFFFFFFFFFFFFFFFFFFF AND MUL OR SWAP1 SSTORE POP SWAP2 PUSH1 0x20 ADD SWAP2 SWAP1 PUSH1 0x1 ADD SWAP1 PUSH2 0x18CD JUMP JUMPDEST JUMPDEST POP SWAP1 POP PUSH2 0x1933 SWAP2 SWAP1 PUSH2 0x1937 JUMP JUMPDEST POP SWAP1 JUMP JUMPDEST JUMPDEST DUP1 DUP3 GT ISZERO PUSH2 0x1950 JUMPI PUSH1 0x0 DUP2 PUSH1 0x0 SWAP1 SSTORE POP PUSH1 0x1 ADD PUSH2 0x1938 JUMP JUMPDEST POP SWAP1 JUMP JUMPDEST PUSH1 0x0 DUP1 REVERT JUMPDEST PUSH1 0x0 PUSH20 0xFFFFFFFFFFFFFFFFFFFFFFFFFFFFFFFFFFFFFFFF DUP3 AND SWAP1 POP SWAP2 SWAP1 POP JUMP JUMPDEST PUSH1 0x0 PUSH2 0x1984 DUP3 PUSH2 0x1959 JUMP JUMPDEST SWAP1 POP SWAP2 SWAP1 POP JUMP JUMPDEST PUSH2 0x1994 DUP2 PUSH2 0x1979 JUMP JUMPDEST DUP2 EQ PUSH2 0x199F JUMPI PUSH1 0x0 DUP1 REVERT JUMPDEST POP JUMP JUMPDEST PUSH1 0x0 DUP2 CALLDATALOAD SWAP1 POP PUSH2 0x19B1 DUP2 PUSH2 0x198B JUMP JUMPDEST SWAP3 SWAP2 POP POP JUMP JUMPDEST PUSH1 0x0 PUSH1 0x20 DUP3 DUP5 SUB SLT ISZERO PUSH2 0x19CD JUMPI PUSH2 0x19CC PUSH2 0x1954 JUMP JUMPDEST JUMPDEST PUSH1 0x0 PUSH2 0x19DB DUP5 DUP3 DUP6 ADD PUSH2 0x19A2 JUMP JUMPDEST SWAP2 POP POP SWAP3 SWAP2 POP POP JUMP JUMPDEST PUSH1 0x0 DUP2 ISZERO ISZERO SWAP1 POP SWAP2 SWAP1 POP JUMP JUMPDEST PUSH2 0x19F9 DUP2 PUSH2 0x19E4 JUMP JUMPDEST DUP3 MSTORE POP POP JUMP JUMPDEST PUSH1 0x0 PUSH1 0x20 DUP3 ADD SWAP1 POP PUSH2 0x1A14 PUSH1 0x0 DUP4 ADD DUP5 PUSH2 0x19F0 JUMP JUMPDEST SWAP3 SWAP2 POP POP JUMP JUMPDEST PUSH2 0x1A23 DUP2 PUSH2 0x1979 JUMP JUMPDEST DUP3 MSTORE POP POP JUMP JUMPDEST PUSH1 0x0 PUSH1 0x20 DUP3 ADD SWAP1 POP PUSH2 0x1A3E PUSH1 0x0 DUP4 ADD DUP5 PUSH2 0x1A1A JUMP JUMPDEST SWAP3 SWAP2 POP POP JUMP JUMPDEST PUSH1 0x0 DUP2 SWAP1 POP SWAP2 SWAP1 POP JUMP JUMPDEST PUSH2 0x1A57 DUP2 PUSH2 0x1A44 JUMP JUMPDEST DUP3 MSTORE POP POP JUMP JUMPDEST PUSH1 0x0 PUSH1 0x20 DUP3 ADD SWAP1 POP PUSH2 0x1A72 PUSH1 0x0 DUP4 ADD DUP5 PUSH2 0x1A4E JUMP JUMPDEST SWAP3 SWAP2 POP POP JUMP JUMPDEST PUSH2 0x1A81 DUP2 PUSH2 0x1A44 JUMP JUMPDEST DUP2 EQ PUSH2 0x1A8C JUMPI PUSH1 0x0 DUP1 REVERT JUMPDEST POP JUMP JUMPDEST PUSH1 0x0 DUP2 CALLDATALOAD SWAP1 POP PUSH2 0x1A9E DUP2 PUSH2 0x1A78 JUMP JUMPDEST SWAP3 SWAP2 POP POP JUMP JUMPDEST PUSH1 0x0 DUP1 PUSH1 0x40 DUP4 DUP6 SUB SLT ISZERO PUSH2 0x1ABB JUMPI PUSH2 0x1ABA PUSH2 0x1954 JUMP JUMPDEST JUMPDEST PUSH1 0x0 PUSH2 0x1AC9 DUP6 DUP3 DUP7 ADD PUSH2 0x1A8F JUMP JUMPDEST SWAP3 POP POP PUSH1 0x20 PUSH2 0x1ADA DUP6 DUP3 DUP7 ADD PUSH2 0x19A2 JUMP JUMPDEST SWAP2 POP POP SWAP3 POP SWAP3 SWAP1 POP JUMP JUMPDEST PUSH1 0x0 DUP1 PUSH1 0x40 DUP4 DUP6 SUB SLT ISZERO PUSH2 0x1AFB JUMPI PUSH2 0x1AFA PUSH2 0x1954 JUMP JUMPDEST JUMPDEST PUSH1 0x0 PUSH2 0x1B09 DUP6 DUP3 DUP7 ADD PUSH2 0x1A8F JUMP JUMPDEST SWAP3 POP POP PUSH1 0x20 PUSH2 0x1B1A DUP6 DUP3 DUP7 ADD PUSH2 0x1A8F JUMP JUMPDEST SWAP2 POP POP SWAP3 POP SWAP3 SWAP1 POP JUMP JUMPDEST PUSH1 0x0 PUSH1 0x40 DUP3 ADD SWAP1 POP PUSH2 0x1B39 PUSH1 0x0 DUP4 ADD DUP6 PUSH2 0x1A4E JUMP JUMPDEST PUSH2 0x1B46 PUSH1 0x20 DUP4 ADD DUP5 PUSH2 0x1A4E JUMP JUMPDEST SWAP4 SWAP3 POP POP POP JUMP JUMPDEST PUSH1 0x0 PUSH1 0x20 DUP3 DUP5 SUB SLT ISZERO PUSH2 0x1B63 JUMPI PUSH2 0x1B62 PUSH2 0x1954 JUMP JUMPDEST JUMPDEST PUSH1 0x0 PUSH2 0x1B71 DUP5 DUP3 DUP6 ADD PUSH2 0x1A8F JUMP JUMPDEST SWAP2 POP POP SWAP3 SWAP2 POP POP JUMP JUMPDEST PUSH1 0x0 DUP3 DUP3 MSTORE PUSH1 0x20 DUP3 ADD SWAP1 POP SWAP3 SWAP2 POP POP JUMP JUMPDEST PUSH32 0x63616E206F6E6C792062652063616C6C6564206279206F776E65720000000000 PUSH1 0x0 DUP3 ADD MSTORE POP JUMP JUMPDEST PUSH1 0x0 PUSH2 0x1BC1 PUSH1 0x1B DUP4 PUSH2 0x1B7A JUMP JUMPDEST SWAP2 POP PUSH2 0x1BCC DUP3 PUSH2 0x1B8B JUMP JUMPDEST PUSH1 0x20 DUP3 ADD SWAP1 POP SWAP2 SWAP1 POP JUMP JUMPDEST PUSH1 0x0 PUSH1 0x20 DUP3 ADD SWAP1 POP DUP2 DUP2 SUB PUSH1 0x0 DUP4 ADD MSTORE PUSH2 0x1BF0 DUP2 PUSH2 0x1BB4 JUMP JUMPDEST SWAP1 POP SWAP2 SWAP1 POP JUMP JUMPDEST PUSH32 0x72656369657665722773206164647265737320697320626C61636B6C69737465 PUSH1 0x0 DUP3 ADD MSTORE PUSH32 0x6400000000000000000000000000000000000000000000000000000000000000 PUSH1 0x20 DUP3 ADD MSTORE POP JUMP JUMPDEST PUSH1 0x0 PUSH2 0x1C53 PUSH1 0x21 DUP4 PUSH2 0x1B7A JUMP JUMPDEST SWAP2 POP PUSH2 0x1C5E DUP3 PUSH2 0x1BF7 JUMP JUMPDEST PUSH1 0x40 DUP3 ADD SWAP1 POP SWAP2 SWAP1 POP JUMP JUMPDEST PUSH1 0x0 PUSH1 0x20 DUP3 ADD SWAP1 POP DUP2 DUP2 SUB PUSH1 0x0 DUP4 ADD MSTORE PUSH2 0x1C82 DUP2 PUSH2 0x1C46 JUMP JUMPDEST SWAP1 POP SWAP2 SWAP1 POP JUMP JUMPDEST PUSH32 0x66756E647320617265206C657373207468616E20726571756573746564000000 PUSH1 0x0 DUP3 ADD MSTORE POP JUMP JUMPDEST PUSH1 0x0 PUSH2 0x1CBF PUSH1 0x1D DUP4 PUSH2 0x1B7A JUMP JUMPDEST SWAP2 POP PUSH2 0x1CCA DUP3 PUSH2 0x1C89 JUMP JUMPDEST PUSH1 0x20 DUP3 ADD SWAP1 POP SWAP2 SWAP1 POP JUMP JUMPDEST PUSH1 0x0 PUSH1 0x20 DUP3 ADD SWAP1 POP DUP2 DUP2 SUB PUSH1 0x0 DUP4 ADD MSTORE PUSH2 0x1CEE DUP2 PUSH2 0x1CB2 JUMP JUMPDEST SWAP1 POP SWAP2 SWAP1 POP JUMP JUMPDEST PUSH32 0x4E487B7100000000000000000000000000000000000000000000000000000000 PUSH1 0x0 MSTORE PUSH1 0x11 PUSH1 0x4 MSTORE PUSH1 0x24 PUSH1 0x0 REVERT JUMPDEST PUSH1 0x0 PUSH2 0x1D2F DUP3 PUSH2 0x1A44 JUMP JUMPDEST SWAP2 POP PUSH2 0x1D3A DUP4 PUSH2 0x1A44 JUMP JUMPDEST SWAP3 POP DUP3 DUP3 SUB SWAP1 POP DUP2 DUP2 GT ISZERO PUSH2 0x1D52 JUMPI PUSH2 0x1D51 PUSH2 0x1CF5 JUMP JUMPDEST JUMPDEST SWAP3 SWAP2 POP POP JUMP JUMPDEST PUSH1 0x0 PUSH2 0x1D63 DUP3 PUSH2 0x1A44 JUMP JUMPDEST SWAP2 POP PUSH2 0x1D6E DUP4 PUSH2 0x1A44 JUMP JUMPDEST SWAP3 POP DUP3 DUP3 ADD SWAP1 POP DUP1 DUP3 GT ISZERO PUSH2 0x1D86 JUMPI PUSH2 0x1D85 PUSH2 0x1CF5 JUMP JUMPDEST JUMPDEST SWAP3 SWAP2 POP POP JUMP JUMPDEST PUSH32 0x4E487B7100000000000000000000000000000000000000000000000000000000 PUSH1 0x0 MSTORE PUSH1 0x12 PUSH1 0x4 MSTORE PUSH1 0x24 PUSH1 0x0 REVERT JUMPDEST PUSH1 0x0 PUSH2 0x1DC6 DUP3 PUSH2 0x1A44 JUMP JUMPDEST SWAP2 POP PUSH2 0x1DD1 DUP4 PUSH2 0x1A44 JUMP JUMPDEST SWAP3 POP DUP3 PUSH2 0x1DE1 JUMPI PUSH2 0x1DE0 PUSH2 0x1D8C JUMP JUMPDEST JUMPDEST DUP3 DUP3 DIV SWAP1 POP SWAP3 SWAP2 POP POP JUMP JUMPDEST PUSH32 0x4E487B7100000000000000000000000000000000000000000000000000000000 PUSH1 0x0 MSTORE PUSH1 0x32 PUSH1 0x4 MSTORE PUSH1 0x24 PUSH1 0x0 REVERT JUMPDEST PUSH1 0x0 PUSH2 0x1E26 DUP3 PUSH2 0x1A44 JUMP JUMPDEST SWAP2 POP PUSH32 0xFFFFFFFFFFFFFFFFFFFFFFFFFFFFFFFFFFFFFFFFFFFFFFFFFFFFFFFFFFFFFFFF DUP3 SUB PUSH2 0x1E58 JUMPI PUSH2 0x1E57 PUSH2 0x1CF5 JUMP JUMPDEST JUMPDEST PUSH1 0x1 DUP3 ADD SWAP1 POP SWAP2 SWAP1 POP JUMP JUMPDEST PUSH1 0x0 PUSH2 0x1E6E DUP3 PUSH2 0x1A44 JUMP JUMPDEST SWAP2 POP PUSH2 0x1E79 DUP4 PUSH2 0x1A44 JUMP JUMPDEST SWAP3 POP DUP3 DUP3 MUL PUSH2 0x1E87 DUP2 PUSH2 0x1A44 JUMP JUMPDEST SWAP2 POP DUP3 DUP3 DIV DUP5 EQ DUP4 ISZERO OR PUSH2 0x1E9E JUMPI PUSH2 0x1E9D PUSH2 0x1CF5 JUMP JUMPDEST JUMPDEST POP SWAP3 SWAP2 POP POP JUMP JUMPDEST PUSH1 0x0 PUSH1 0x40 DUP3 ADD SWAP1 POP PUSH2 0x1EBA PUSH1 0x0 DUP4 ADD DUP6 PUSH2 0x1A1A JUMP JUMPDEST PUSH2 0x1EC7 PUSH1 0x20 DUP4 ADD DUP5 PUSH2 0x1A1A JUMP JUMPDEST SWAP4 SWAP3 POP POP POP JUMP JUMPDEST PUSH1 0x0 PUSH2 0x1ED9 DUP3 PUSH2 0x1A44 JUMP JUMPDEST SWAP2 POP PUSH1 0x0 DUP3 SUB PUSH2 0x1EEC JUMPI PUSH2 0x1EEB PUSH2 0x1CF5 JUMP JUMPDEST JUMPDEST PUSH1 0x1 DUP3 SUB SWAP1 POP SWAP2 SWAP1 POP JUMP JUMPDEST PUSH1 0x0 PUSH2 0x1F02 DUP3 PUSH2 0x1A44 JUMP JUMPDEST SWAP2 POP PUSH2 0x1F0D DUP4 PUSH2 0x1A44 JUMP JUMPDEST SWAP3 POP DUP3 PUSH2 0x1F1D JUMPI PUSH2 0x1F1C PUSH2 0x1D8C JUMP JUMPDEST JUMPDEST DUP3 DUP3 MOD SWAP1 POP SWAP3 SWAP2 POP POP JUMP JUMPDEST PUSH1 0x0 PUSH1 0x60 DUP3 ADD SWAP1 POP PUSH2 0x1F3D PUSH1 0x0 DUP4 ADD DUP7 PUSH2 0x1A1A JUMP JUMPDEST PUSH2 0x1F4A PUSH1 0x20 DUP4 ADD DUP6 PUSH2 0x1A1A JUMP JUMPDEST PUSH2 0x1F57 PUSH1 0x40 DUP4 ADD DUP5 PUSH2 0x1A4E JUMP JUMPDEST SWAP5 SWAP4 POP POP POP POP JUMP JUMPDEST PUSH2 0x1F68 DUP2 PUSH2 0x19E4 JUMP JUMPDEST DUP2 EQ PUSH2 0x1F73 JUMPI PUSH1 0x0 DUP1 REVERT JUMPDEST POP JUMP JUMPDEST PUSH1 0x0 DUP2 MLOAD SWAP1 POP PUSH2 0x1F85 DUP2 PUSH2 0x1F5F JUMP JUMPDEST SWAP3 SWAP2 POP POP JUMP JUMPDEST PUSH1 0x0 PUSH1 0x20 DUP3 DUP5 SUB SLT ISZERO PUSH2 0x1FA1 JUMPI PUSH2 0x1FA0 PUSH2 0x1954 JUMP JUMPDEST JUMPDEST PUSH1 0x0 PUSH2 0x1FAF DUP5 DUP3 DUP6 ADD PUSH2 0x1F76 JUMP JUMPDEST SWAP2 POP POP SWAP3 SWAP2 POP POP JUMP JUMPDEST PUSH1 0x0 DUP2 MLOAD SWAP1 POP PUSH2 0x1FC7 DUP2 PUSH2 0x1A78 JUMP JUMPDEST SWAP3 SWAP2 POP POP JUMP JUMPDEST PUSH1 0x0 PUSH1 0x20 DUP3 DUP5 SUB SLT ISZERO PUSH2 0x1FE3 JUMPI PUSH2 0x1FE2 PUSH2 0x1954 JUMP JUMPDEST JUMPDEST PUSH1 0x0 PUSH2 0x1FF1 DUP5 DUP3 DUP6 ADD PUSH2 0x1FB8 JUMP JUMPDEST SWAP2 POP POP SWAP3 SWAP2 POP POP JUMP INVALID LOG2 PUSH5 0x6970667358 0x22 SLT KECCAK256 0x49 DUP6 CODESIZE EXTCODEHASH CALLCODE DUP13 0xAB 0xC0 SWAP4 0x2C PUSH9 0x8D9BE826DFBB4FB86 DUP2 0xD8 0xA5 0xDD PUSH5 0xFCAE11CA96 0xF7 PUSH10 0x64736F6C634300081500 CALLER "
				},
				"gasEstimates": {
					"creation": {
						"codeDepositCost": "1648000",
						"executionCost": "infinite",
						"totalCost": "infinite"
					},
					"external": {
						"_10RupeeCount()": "2496",
						"_20RupeeCount()": "2451",
						"_5RupeeCount()": "2562",
						"_num()": "2518",
						"_rupeeContractList(uint256)": "2849",
						"blackList(address)": "infinite",
						"buy_With_note_denominations(uint256)": "infinite",
						"fifty_Rupee_contract()": "2537",
						"five_Rupee_contract()": "2560",
						"five_hundred_Rupee_contract()": "2625",
						"getUserFundAmt(address)": "2909",
						"isBlackListedMapping(address)": "2869",
						"noteCalculation(uint256,uint256)": "infinite",
						"one_Rupee_contract()": "2643",
						"one_hundred_Rupee_contract()": "2580",
						"rupee_contract_ERC20()": "2559",
						"setContracts()": "infinite",
						"ten_Rupee_contract()": "2537",
						"transferAmount(uint256,address)": "infinite",
						"twenty_Rupee_contract()": "2581",
						"two_Rupee_contract()": "2603",
						"two_hundred_Rupee_contract()": "2624",
						"userFundsMapping(address)": "2925"
					},
					"internal": {
						"fetchUserNotes(address)": "infinite",
						"sendNFT(uint256[9] memory,address,uint256,uint256)": "infinite"
					}
				},
				"methodIdentifiers": {
					"_10RupeeCount()": "d26813d3",
					"_20RupeeCount()": "e84530fb",
					"_5RupeeCount()": "a805588e",
					"_num()": "d68cfc14",
					"_rupeeContractList(uint256)": "eb4f81f3",
					"blackList(address)": "4838d165",
					"buy_With_note_denominations(uint256)": "f5091598",
					"fifty_Rupee_contract()": "588a2c09",
					"five_Rupee_contract()": "3ef0116d",
					"five_hundred_Rupee_contract()": "9a5b9d62",
					"getUserFundAmt(address)": "43d6a6a2",
					"isBlackListedMapping(address)": "26541b4a",
					"noteCalculation(uint256,uint256)": "600fa18e",
					"one_Rupee_contract()": "fc07dbb8",
					"one_hundred_Rupee_contract()": "f0483d73",
					"rupee_contract_ERC20()": "cca79636",
					"setContracts()": "e0d6d530",
					"ten_Rupee_contract()": "b150019a",
					"transferAmount(uint256,address)": "4ca9deb9",
					"twenty_Rupee_contract()": "6affb729",
					"two_Rupee_contract()": "70cd47df",
					"two_hundred_Rupee_contract()": "fa137b2a",
					"userFundsMapping(address)": "dd188dc3"
				}
			},
			"storageLayout": {
				"storage": [
					{
						"astId": 109,
						"contract": "Buy_ERupee.sol:buy_ERupee",
						"label": "one_Rupee_contract",
						"offset": 0,
						"slot": "0",
						"type": "t_address"
					},
					{
						"astId": 111,
						"contract": "Buy_ERupee.sol:buy_ERupee",
						"label": "two_Rupee_contract",
						"offset": 0,
						"slot": "1",
						"type": "t_address"
					},
					{
						"astId": 113,
						"contract": "Buy_ERupee.sol:buy_ERupee",
						"label": "five_Rupee_contract",
						"offset": 0,
						"slot": "2",
						"type": "t_address"
					},
					{
						"astId": 115,
						"contract": "Buy_ERupee.sol:buy_ERupee",
						"label": "ten_Rupee_contract",
						"offset": 0,
						"slot": "3",
						"type": "t_address"
					},
					{
						"astId": 117,
						"contract": "Buy_ERupee.sol:buy_ERupee",
						"label": "twenty_Rupee_contract",
						"offset": 0,
						"slot": "4",
						"type": "t_address"
					},
					{
						"astId": 119,
						"contract": "Buy_ERupee.sol:buy_ERupee",
						"label": "fifty_Rupee_contract",
						"offset": 0,
						"slot": "5",
						"type": "t_address"
					},
					{
						"astId": 121,
						"contract": "Buy_ERupee.sol:buy_ERupee",
						"label": "one_hundred_Rupee_contract",
						"offset": 0,
						"slot": "6",
						"type": "t_address"
					},
					{
						"astId": 123,
						"contract": "Buy_ERupee.sol:buy_ERupee",
						"label": "two_hundred_Rupee_contract",
						"offset": 0,
						"slot": "7",
						"type": "t_address"
					},
					{
						"astId": 125,
						"contract": "Buy_ERupee.sol:buy_ERupee",
						"label": "five_hundred_Rupee_contract",
						"offset": 0,
						"slot": "8",
						"type": "t_address"
					},
					{
						"astId": 127,
						"contract": "Buy_ERupee.sol:buy_ERupee",
						"label": "rupee_contract_ERC20",
						"offset": 0,
						"slot": "9",
						"type": "t_address"
					},
					{
						"astId": 131,
						"contract": "Buy_ERupee.sol:buy_ERupee",
						"label": "_rupeeContractList",
						"offset": 0,
						"slot": "10",
						"type": "t_array(t_address)9_storage"
					},
					{
						"astId": 134,
						"contract": "Buy_ERupee.sol:buy_ERupee",
						"label": "_5RupeeCount",
						"offset": 0,
						"slot": "19",
						"type": "t_uint256"
					},
					{
						"astId": 136,
						"contract": "Buy_ERupee.sol:buy_ERupee",
						"label": "_10RupeeCount",
						"offset": 0,
						"slot": "20",
						"type": "t_uint256"
					},
					{
						"astId": 138,
						"contract": "Buy_ERupee.sol:buy_ERupee",
						"label": "_20RupeeCount",
						"offset": 0,
						"slot": "21",
						"type": "t_uint256"
					},
					{
						"astId": 140,
						"contract": "Buy_ERupee.sol:buy_ERupee",
						"label": "_num",
						"offset": 0,
						"slot": "22",
						"type": "t_uint256"
					},
					{
						"astId": 144,
						"contract": "Buy_ERupee.sol:buy_ERupee",
						"label": "userFundsMapping",
						"offset": 0,
						"slot": "23",
						"type": "t_mapping(t_address,t_uint256)"
					},
					{
						"astId": 148,
						"contract": "Buy_ERupee.sol:buy_ERupee",
						"label": "isBlackListedMapping",
						"offset": 0,
						"slot": "24",
						"type": "t_mapping(t_address,t_bool)"
					},
					{
						"astId": 161,
						"contract": "Buy_ERupee.sol:buy_ERupee",
						"label": "denominationArr",
						"offset": 0,
						"slot": "25",
						"type": "t_array(t_uint256)dyn_storage"
					}
				],
				"types": {
					"t_address": {
						"encoding": "inplace",
						"label": "address",
						"numberOfBytes": "20"
					},
					"t_array(t_address)9_storage": {
						"base": "t_address",
						"encoding": "inplace",
						"label": "address[9]",
						"numberOfBytes": "288"
					},
					"t_array(t_uint256)dyn_storage": {
						"base": "t_uint256",
						"encoding": "dynamic_array",
						"label": "uint256[]",
						"numberOfBytes": "32"
					},
					"t_bool": {
						"encoding": "inplace",
						"label": "bool",
						"numberOfBytes": "1"
					},
					"t_mapping(t_address,t_bool)": {
						"encoding": "mapping",
						"key": "t_address",
						"label": "mapping(address => bool)",
						"numberOfBytes": "32",
						"value": "t_bool"
					},
					"t_mapping(t_address,t_uint256)": {
						"encoding": "mapping",
						"key": "t_address",
						"label": "mapping(address => uint256)",
						"numberOfBytes": "32",
						"value": "t_uint256"
					},
					"t_uint256": {
						"encoding": "inplace",
						"label": "uint256",
						"numberOfBytes": "32"
					}
				}
			},
			"userdoc": {
				"kind": "user",
				"methods": {},
				"version": 1
			}
		}
	}
}