{
	".deps/npm/@openzeppelin/contracts/token/ERC721/ERC721.sol": {
		"ERC721": {
			"abi": [
				{
					"inputs": [
						{
							"internalType": "string",
							"name": "name_",
							"type": "string"
						},
						{
							"internalType": "string",
							"name": "symbol_",
							"type": "string"
						}
					],
					"stateMutability": "nonpayable",
					"type": "constructor"
				},
				{
					"anonymous": false,
					"inputs": [
						{
							"indexed": true,
							"internalType": "address",
							"name": "owner",
							"type": "address"
						},
						{
							"indexed": true,
							"internalType": "address",
							"name": "approved",
							"type": "address"
						},
						{
							"indexed": true,
							"internalType": "uint256",
							"name": "tokenId",
							"type": "uint256"
						}
					],
					"name": "Approval",
					"type": "event"
				},
				{
					"anonymous": false,
					"inputs": [
						{
							"indexed": true,
							"internalType": "address",
							"name": "owner",
							"type": "address"
						},
						{
							"indexed": true,
							"internalType": "address",
							"name": "operator",
							"type": "address"
						},
						{
							"indexed": false,
							"internalType": "bool",
							"name": "approved",
							"type": "bool"
						}
					],
					"name": "ApprovalForAll",
					"type": "event"
				},
				{
					"anonymous": false,
					"inputs": [
						{
							"indexed": true,
							"internalType": "address",
							"name": "from",
							"type": "address"
						},
						{
							"indexed": true,
							"internalType": "address",
							"name": "to",
							"type": "address"
						},
						{
							"indexed": true,
							"internalType": "uint256",
							"name": "tokenId",
							"type": "uint256"
						}
					],
					"name": "Transfer",
					"type": "event"
				},
				{
					"inputs": [
						{
							"internalType": "address",
							"name": "from",
							"type": "address"
						},
						{
							"internalType": "address",
							"name": "to",
							"type": "address"
						},
						{
							"internalType": "uint256",
							"name": "tokenId",
							"type": "uint256"
						}
					],
					"name": "_transfer",
					"outputs": [],
					"stateMutability": "nonpayable",
					"type": "function"
				},
				{
					"inputs": [
						{
							"internalType": "address",
							"name": "to",
							"type": "address"
						},
						{
							"internalType": "uint256",
							"name": "tokenId",
							"type": "uint256"
						}
					],
					"name": "approve",
					"outputs": [],
					"stateMutability": "nonpayable",
					"type": "function"
				},
				{
					"inputs": [
						{
							"internalType": "address",
							"name": "owner",
							"type": "address"
						}
					],
					"name": "balanceOf",
					"outputs": [
						{
							"internalType": "uint256",
							"name": "",
							"type": "uint256"
						}
					],
					"stateMutability": "view",
					"type": "function"
				},
				{
					"inputs": [
						{
							"internalType": "uint256",
							"name": "tokenId",
							"type": "uint256"
						}
					],
					"name": "getApproved",
					"outputs": [
						{
							"internalType": "address",
							"name": "",
							"type": "address"
						}
					],
					"stateMutability": "view",
					"type": "function"
				},
				{
					"inputs": [
						{
							"internalType": "address",
							"name": "owner",
							"type": "address"
						},
						{
							"internalType": "address",
							"name": "operator",
							"type": "address"
						}
					],
					"name": "isApprovedForAll",
					"outputs": [
						{
							"internalType": "bool",
							"name": "",
							"type": "bool"
						}
					],
					"stateMutability": "view",
					"type": "function"
				},
				{
					"inputs": [],
					"name": "name",
					"outputs": [
						{
							"internalType": "string",
							"name": "",
							"type": "string"
						}
					],
					"stateMutability": "view",
					"type": "function"
				},
				{
					"inputs": [
						{
							"internalType": "uint256",
							"name": "tokenId",
							"type": "uint256"
						}
					],
					"name": "ownerOf",
					"outputs": [
						{
							"internalType": "address",
							"name": "",
							"type": "address"
						}
					],
					"stateMutability": "view",
					"type": "function"
				},
				{
					"inputs": [
						{
							"internalType": "address",
							"name": "from",
							"type": "address"
						},
						{
							"internalType": "address",
							"name": "to",
							"type": "address"
						},
						{
							"internalType": "uint256",
							"name": "tokenId",
							"type": "uint256"
						}
					],
					"name": "safeTransferFrom",
					"outputs": [],
					"stateMutability": "nonpayable",
					"type": "function"
				},
				{
					"inputs": [
						{
							"internalType": "address",
							"name": "from",
							"type": "address"
						},
						{
							"internalType": "address",
							"name": "to",
							"type": "address"
						},
						{
							"internalType": "uint256",
							"name": "tokenId",
							"type": "uint256"
						},
						{
							"internalType": "bytes",
							"name": "data",
							"type": "bytes"
						}
					],
					"name": "safeTransferFrom",
					"outputs": [],
					"stateMutability": "nonpayable",
					"type": "function"
				},
				{
					"inputs": [
						{
							"internalType": "address",
							"name": "operator",
							"type": "address"
						},
						{
							"internalType": "bool",
							"name": "approved",
							"type": "bool"
						}
					],
					"name": "setApprovalForAll",
					"outputs": [],
					"stateMutability": "nonpayable",
					"type": "function"
				},
				{
					"inputs": [
						{
							"internalType": "bytes4",
							"name": "interfaceId",
							"type": "bytes4"
						}
					],
					"name": "supportsInterface",
					"outputs": [
						{
							"internalType": "bool",
							"name": "",
							"type": "bool"
						}
					],
					"stateMutability": "view",
					"type": "function"
				},
				{
					"inputs": [],
					"name": "symbol",
					"outputs": [
						{
							"internalType": "string",
							"name": "",
							"type": "string"
						}
					],
					"stateMutability": "view",
					"type": "function"
				},
				{
					"inputs": [
						{
							"internalType": "uint256",
							"name": "tokenId",
							"type": "uint256"
						}
					],
					"name": "tokenURI",
					"outputs": [
						{
							"internalType": "string",
							"name": "",
							"type": "string"
						}
					],
					"stateMutability": "view",
					"type": "function"
				},
				{
					"inputs": [
						{
							"internalType": "address",
							"name": "from",
							"type": "address"
						},
						{
							"internalType": "address",
							"name": "to",
							"type": "address"
						},
						{
							"internalType": "uint256",
							"name": "tokenId",
							"type": "uint256"
						}
					],
					"name": "transferFrom",
					"outputs": [],
					"stateMutability": "nonpayable",
					"type": "function"
				}
			],
			"devdoc": {
				"details": "Implementation of https://eips.ethereum.org/EIPS/eip-721[ERC721] Non-Fungible Token Standard, including the Metadata extension, but not including the Enumerable extension, which is available separately as {ERC721Enumerable}.",
				"events": {
					"Approval(address,address,uint256)": {
						"details": "Emitted when `owner` enables `approved` to manage the `tokenId` token."
					},
					"ApprovalForAll(address,address,bool)": {
						"details": "Emitted when `owner` enables or disables (`approved`) `operator` to manage all of its assets."
					},
					"Transfer(address,address,uint256)": {
						"details": "Emitted when `tokenId` token is transferred from `from` to `to`."
					}
				},
				"kind": "dev",
				"methods": {
					"_transfer(address,address,uint256)": {
						"details": "Transfers `tokenId` from `from` to `to`.  As opposed to {transferFrom}, this imposes no restrictions on msg.sender. Requirements: - `to` cannot be the zero address. - `tokenId` token must be owned by `from`. Emits a {Transfer} event."
					},
					"approve(address,uint256)": {
						"details": "See {IERC721-approve}."
					},
					"balanceOf(address)": {
						"details": "See {IERC721-balanceOf}."
					},
					"constructor": {
						"details": "Initializes the contract by setting a `name` and a `symbol` to the token collection."
					},
					"getApproved(uint256)": {
						"details": "See {IERC721-getApproved}."
					},
					"isApprovedForAll(address,address)": {
						"details": "See {IERC721-isApprovedForAll}."
					},
					"name()": {
						"details": "See {IERC721Metadata-name}."
					},
					"ownerOf(uint256)": {
						"details": "See {IERC721-ownerOf}."
					},
					"safeTransferFrom(address,address,uint256)": {
						"details": "See {IERC721-safeTransferFrom}."
					},
					"safeTransferFrom(address,address,uint256,bytes)": {
						"details": "See {IERC721-safeTransferFrom}."
					},
					"setApprovalForAll(address,bool)": {
						"details": "See {IERC721-setApprovalForAll}."
					},
					"supportsInterface(bytes4)": {
						"details": "See {IERC165-supportsInterface}."
					},
					"symbol()": {
						"details": "See {IERC721Metadata-symbol}."
					},
					"tokenURI(uint256)": {
						"details": "See {IERC721Metadata-tokenURI}."
					},
					"transferFrom(address,address,uint256)": {
						"details": "See {IERC721-transferFrom}."
					}
				},
				"version": 1
			},
			"evm": {
				"assembly": "    /* \".deps/npm/@openzeppelin/contracts/token/ERC721/ERC721.sol\":628:16998  contract ERC721 is Context, ERC165, IERC721, IERC721Metadata {... */\n  mstore(0x40, 0x80)\n    /* \".deps/npm/@openzeppelin/contracts/token/ERC721/ERC721.sol\":1390:1503  constructor(string memory name_, string memory symbol_) {... */\n  callvalue\n  dup1\n  iszero\n  tag_1\n  jumpi\n  0x00\n  dup1\n  revert\ntag_1:\n  pop\n  mload(0x40)\n  sub(codesize, bytecodeSize)\n  dup1\n  bytecodeSize\n  dup4\n  codecopy\n  dup2\n  dup2\n  add\n  0x40\n  mstore\n  dup2\n  add\n  swap1\n  tag_2\n  swap2\n  swap1\n  tag_3\n  jump\t// in\ntag_2:\n    /* \".deps/npm/@openzeppelin/contracts/token/ERC721/ERC721.sol\":1464:1469  name_ */\n  dup2\n    /* \".deps/npm/@openzeppelin/contracts/token/ERC721/ERC721.sol\":1456:1461  _name */\n  0x00\n    /* \".deps/npm/@openzeppelin/contracts/token/ERC721/ERC721.sol\":1456:1469  _name = name_ */\n  swap1\n  dup2\n  tag_6\n  swap2\n  swap1\n  tag_7\n  jump\t// in\ntag_6:\n  pop\n    /* \".deps/npm/@openzeppelin/contracts/token/ERC721/ERC721.sol\":1489:1496  symbol_ */\n  dup1\n    /* \".deps/npm/@openzeppelin/contracts/token/ERC721/ERC721.sol\":1479:1486  _symbol */\n  0x01\n    /* \".deps/npm/@openzeppelin/contracts/token/ERC721/ERC721.sol\":1479:1496  _symbol = symbol_ */\n  swap1\n  dup2\n  tag_8\n  swap2\n  swap1\n  tag_7\n  jump\t// in\ntag_8:\n  pop\n    /* \".deps/npm/@openzeppelin/contracts/token/ERC721/ERC721.sol\":1390:1503  constructor(string memory name_, string memory symbol_) {... */\n  pop\n  pop\n    /* \".deps/npm/@openzeppelin/contracts/token/ERC721/ERC721.sol\":628:16998  contract ERC721 is Context, ERC165, IERC721, IERC721Metadata {... */\n  jump(tag_9)\n    /* \"#utility.yul\":7:82   */\ntag_10:\n    /* \"#utility.yul\":40:46   */\n  0x00\n    /* \"#utility.yul\":73:75   */\n  0x40\n    /* \"#utility.yul\":67:76   */\n  mload\n    /* \"#utility.yul\":57:76   */\n  swap1\n  pop\n    /* \"#utility.yul\":7:82   */\n  swap1\n  jump\t// out\n    /* \"#utility.yul\":88:205   */\ntag_11:\n    /* \"#utility.yul\":197:198   */\n  0x00\n    /* \"#utility.yul\":194:195   */\n  dup1\n    /* \"#utility.yul\":187:199   */\n  revert\n    /* \"#utility.yul\":211:328   */\ntag_12:\n    /* \"#utility.yul\":320:321   */\n  0x00\n    /* \"#utility.yul\":317:318   */\n  dup1\n    /* \"#utility.yul\":310:322   */\n  revert\n    /* \"#utility.yul\":334:451   */\ntag_13:\n    /* \"#utility.yul\":443:444   */\n  0x00\n    /* \"#utility.yul\":440:441   */\n  dup1\n    /* \"#utility.yul\":433:445   */\n  revert\n    /* \"#utility.yul\":457:574   */\ntag_14:\n    /* \"#utility.yul\":566:567   */\n  0x00\n    /* \"#utility.yul\":563:564   */\n  dup1\n    /* \"#utility.yul\":556:568   */\n  revert\n    /* \"#utility.yul\":580:682   */\ntag_15:\n    /* \"#utility.yul\":621:627   */\n  0x00\n    /* \"#utility.yul\":672:674   */\n  0x1f\n    /* \"#utility.yul\":668:675   */\n  not\n    /* \"#utility.yul\":663:665   */\n  0x1f\n    /* \"#utility.yul\":656:661   */\n  dup4\n    /* \"#utility.yul\":652:666   */\n  add\n    /* \"#utility.yul\":648:676   */\n  and\n    /* \"#utility.yul\":638:676   */\n  swap1\n  pop\n    /* \"#utility.yul\":580:682   */\n  swap2\n  swap1\n  pop\n  jump\t// out\n    /* \"#utility.yul\":688:868   */\ntag_16:\n    /* \"#utility.yul\":736:813   */\n  0x4e487b7100000000000000000000000000000000000000000000000000000000\n    /* \"#utility.yul\":733:734   */\n  0x00\n    /* \"#utility.yul\":726:814   */\n  mstore\n    /* \"#utility.yul\":833:837   */\n  0x41\n    /* \"#utility.yul\":830:831   */\n  0x04\n    /* \"#utility.yul\":823:838   */\n  mstore\n    /* \"#utility.yul\":857:861   */\n  0x24\n    /* \"#utility.yul\":854:855   */\n  0x00\n    /* \"#utility.yul\":847:862   */\n  revert\n    /* \"#utility.yul\":874:1155   */\ntag_17:\n    /* \"#utility.yul\":957:984   */\n  tag_51\n    /* \"#utility.yul\":979:983   */\n  dup3\n    /* \"#utility.yul\":957:984   */\n  tag_15\n  jump\t// in\ntag_51:\n    /* \"#utility.yul\":949:955   */\n  dup2\n    /* \"#utility.yul\":945:985   */\n  add\n    /* \"#utility.yul\":1087:1093   */\n  dup2\n    /* \"#utility.yul\":1075:1085   */\n  dup2\n    /* \"#utility.yul\":1072:1094   */\n  lt\n    /* \"#utility.yul\":1051:1069   */\n  0xffffffffffffffff\n    /* \"#utility.yul\":1039:1049   */\n  dup3\n    /* \"#utility.yul\":1036:1070   */\n  gt\n    /* \"#utility.yul\":1033:1095   */\n  or\n    /* \"#utility.yul\":1030:1118   */\n  iszero\n  tag_52\n  jumpi\n    /* \"#utility.yul\":1098:1116   */\n  tag_53\n  tag_16\n  jump\t// in\ntag_53:\n    /* \"#utility.yul\":1030:1118   */\ntag_52:\n    /* \"#utility.yul\":1138:1148   */\n  dup1\n    /* \"#utility.yul\":1134:1136   */\n  0x40\n    /* \"#utility.yul\":1127:1149   */\n  mstore\n    /* \"#utility.yul\":917:1155   */\n  pop\n    /* \"#utility.yul\":874:1155   */\n  pop\n  pop\n  jump\t// out\n    /* \"#utility.yul\":1161:1290   */\ntag_18:\n    /* \"#utility.yul\":1195:1201   */\n  0x00\n    /* \"#utility.yul\":1222:1242   */\n  tag_55\n  tag_10\n  jump\t// in\ntag_55:\n    /* \"#utility.yul\":1212:1242   */\n  swap1\n  pop\n    /* \"#utility.yul\":1251:1284   */\n  tag_56\n    /* \"#utility.yul\":1279:1283   */\n  dup3\n    /* \"#utility.yul\":1271:1277   */\n  dup3\n    /* \"#utility.yul\":1251:1284   */\n  tag_17\n  jump\t// in\ntag_56:\n    /* \"#utility.yul\":1161:1290   */\n  swap2\n  swap1\n  pop\n  jump\t// out\n    /* \"#utility.yul\":1296:1604   */\ntag_19:\n    /* \"#utility.yul\":1358:1362   */\n  0x00\n    /* \"#utility.yul\":1448:1466   */\n  0xffffffffffffffff\n    /* \"#utility.yul\":1440:1446   */\n  dup3\n    /* \"#utility.yul\":1437:1467   */\n  gt\n    /* \"#utility.yul\":1434:1490   */\n  iszero\n  tag_58\n  jumpi\n    /* \"#utility.yul\":1470:1488   */\n  tag_59\n  tag_16\n  jump\t// in\ntag_59:\n    /* \"#utility.yul\":1434:1490   */\ntag_58:\n    /* \"#utility.yul\":1508:1537   */\n  tag_60\n    /* \"#utility.yul\":1530:1536   */\n  dup3\n    /* \"#utility.yul\":1508:1537   */\n  tag_15\n  jump\t// in\ntag_60:\n    /* \"#utility.yul\":1500:1537   */\n  swap1\n  pop\n    /* \"#utility.yul\":1592:1596   */\n  0x20\n    /* \"#utility.yul\":1586:1590   */\n  dup2\n    /* \"#utility.yul\":1582:1597   */\n  add\n    /* \"#utility.yul\":1574:1597   */\n  swap1\n  pop\n    /* \"#utility.yul\":1296:1604   */\n  swap2\n  swap1\n  pop\n  jump\t// out\n    /* \"#utility.yul\":1610:1856   */\ntag_20:\n    /* \"#utility.yul\":1691:1692   */\n  0x00\n    /* \"#utility.yul\":1701:1814   */\ntag_62:\n    /* \"#utility.yul\":1715:1721   */\n  dup4\n    /* \"#utility.yul\":1712:1713   */\n  dup2\n    /* \"#utility.yul\":1709:1722   */\n  lt\n    /* \"#utility.yul\":1701:1814   */\n  iszero\n  tag_64\n  jumpi\n    /* \"#utility.yul\":1800:1801   */\n  dup1\n    /* \"#utility.yul\":1795:1798   */\n  dup3\n    /* \"#utility.yul\":1791:1802   */\n  add\n    /* \"#utility.yul\":1785:1803   */\n  mload\n    /* \"#utility.yul\":1781:1782   */\n  dup2\n    /* \"#utility.yul\":1776:1779   */\n  dup5\n    /* \"#utility.yul\":1772:1783   */\n  add\n    /* \"#utility.yul\":1765:1804   */\n  mstore\n    /* \"#utility.yul\":1737:1739   */\n  0x20\n    /* \"#utility.yul\":1734:1735   */\n  dup2\n    /* \"#utility.yul\":1730:1740   */\n  add\n    /* \"#utility.yul\":1725:1740   */\n  swap1\n  pop\n    /* \"#utility.yul\":1701:1814   */\n  jump(tag_62)\ntag_64:\n    /* \"#utility.yul\":1848:1849   */\n  0x00\n    /* \"#utility.yul\":1839:1845   */\n  dup5\n    /* \"#utility.yul\":1834:1837   */\n  dup5\n    /* \"#utility.yul\":1830:1846   */\n  add\n    /* \"#utility.yul\":1823:1850   */\n  mstore\n    /* \"#utility.yul\":1672:1856   */\n  pop\n    /* \"#utility.yul\":1610:1856   */\n  pop\n  pop\n  pop\n  jump\t// out\n    /* \"#utility.yul\":1862:2296   */\ntag_21:\n    /* \"#utility.yul\":1951:1956   */\n  0x00\n    /* \"#utility.yul\":1976:2042   */\n  tag_66\n    /* \"#utility.yul\":1992:2041   */\n  tag_67\n    /* \"#utility.yul\":2034:2040   */\n  dup5\n    /* \"#utility.yul\":1992:2041   */\n  tag_19\n  jump\t// in\ntag_67:\n    /* \"#utility.yul\":1976:2042   */\n  tag_18\n  jump\t// in\ntag_66:\n    /* \"#utility.yul\":1967:2042   */\n  swap1\n  pop\n    /* \"#utility.yul\":2065:2071   */\n  dup3\n    /* \"#utility.yul\":2058:2063   */\n  dup2\n    /* \"#utility.yul\":2051:2072   */\n  mstore\n    /* \"#utility.yul\":2103:2107   */\n  0x20\n    /* \"#utility.yul\":2096:2101   */\n  dup2\n    /* \"#utility.yul\":2092:2108   */\n  add\n    /* \"#utility.yul\":2141:2144   */\n  dup5\n    /* \"#utility.yul\":2132:2138   */\n  dup5\n    /* \"#utility.yul\":2127:2130   */\n  dup5\n    /* \"#utility.yul\":2123:2139   */\n  add\n    /* \"#utility.yul\":2120:2145   */\n  gt\n    /* \"#utility.yul\":2117:2229   */\n  iszero\n  tag_68\n  jumpi\n    /* \"#utility.yul\":2148:2227   */\n  tag_69\n  tag_14\n  jump\t// in\ntag_69:\n    /* \"#utility.yul\":2117:2229   */\ntag_68:\n    /* \"#utility.yul\":2238:2290   */\n  tag_70\n    /* \"#utility.yul\":2283:2289   */\n  dup5\n    /* \"#utility.yul\":2278:2281   */\n  dup3\n    /* \"#utility.yul\":2273:2276   */\n  dup6\n    /* \"#utility.yul\":2238:2290   */\n  tag_20\n  jump\t// in\ntag_70:\n    /* \"#utility.yul\":1957:2296   */\n  pop\n    /* \"#utility.yul\":1862:2296   */\n  swap4\n  swap3\n  pop\n  pop\n  pop\n  jump\t// out\n    /* \"#utility.yul\":2316:2671   */\ntag_22:\n    /* \"#utility.yul\":2383:2388   */\n  0x00\n    /* \"#utility.yul\":2432:2435   */\n  dup3\n    /* \"#utility.yul\":2425:2429   */\n  0x1f\n    /* \"#utility.yul\":2417:2423   */\n  dup4\n    /* \"#utility.yul\":2413:2430   */\n  add\n    /* \"#utility.yul\":2409:2436   */\n  slt\n    /* \"#utility.yul\":2399:2521   */\n  tag_72\n  jumpi\n    /* \"#utility.yul\":2440:2519   */\n  tag_73\n  tag_13\n  jump\t// in\ntag_73:\n    /* \"#utility.yul\":2399:2521   */\ntag_72:\n    /* \"#utility.yul\":2550:2556   */\n  dup2\n    /* \"#utility.yul\":2544:2557   */\n  mload\n    /* \"#utility.yul\":2575:2665   */\n  tag_74\n    /* \"#utility.yul\":2661:2664   */\n  dup5\n    /* \"#utility.yul\":2653:2659   */\n  dup3\n    /* \"#utility.yul\":2646:2650   */\n  0x20\n    /* \"#utility.yul\":2638:2644   */\n  dup7\n    /* \"#utility.yul\":2634:2651   */\n  add\n    /* \"#utility.yul\":2575:2665   */\n  tag_21\n  jump\t// in\ntag_74:\n    /* \"#utility.yul\":2566:2665   */\n  swap2\n  pop\n    /* \"#utility.yul\":2389:2671   */\n  pop\n    /* \"#utility.yul\":2316:2671   */\n  swap3\n  swap2\n  pop\n  pop\n  jump\t// out\n    /* \"#utility.yul\":2677:3530   */\ntag_3:\n    /* \"#utility.yul\":2776:2782   */\n  0x00\n    /* \"#utility.yul\":2784:2790   */\n  dup1\n    /* \"#utility.yul\":2833:2835   */\n  0x40\n    /* \"#utility.yul\":2821:2830   */\n  dup4\n    /* \"#utility.yul\":2812:2819   */\n  dup6\n    /* \"#utility.yul\":2808:2831   */\n  sub\n    /* \"#utility.yul\":2804:2836   */\n  slt\n    /* \"#utility.yul\":2801:2920   */\n  iszero\n  tag_76\n  jumpi\n    /* \"#utility.yul\":2839:2918   */\n  tag_77\n  tag_11\n  jump\t// in\ntag_77:\n    /* \"#utility.yul\":2801:2920   */\ntag_76:\n    /* \"#utility.yul\":2980:2981   */\n  0x00\n    /* \"#utility.yul\":2969:2978   */\n  dup4\n    /* \"#utility.yul\":2965:2982   */\n  add\n    /* \"#utility.yul\":2959:2983   */\n  mload\n    /* \"#utility.yul\":3010:3028   */\n  0xffffffffffffffff\n    /* \"#utility.yul\":3002:3008   */\n  dup2\n    /* \"#utility.yul\":2999:3029   */\n  gt\n    /* \"#utility.yul\":2996:3113   */\n  iszero\n  tag_78\n  jumpi\n    /* \"#utility.yul\":3032:3111   */\n  tag_79\n  tag_12\n  jump\t// in\ntag_79:\n    /* \"#utility.yul\":2996:3113   */\ntag_78:\n    /* \"#utility.yul\":3137:3211   */\n  tag_80\n    /* \"#utility.yul\":3203:3210   */\n  dup6\n    /* \"#utility.yul\":3194:3200   */\n  dup3\n    /* \"#utility.yul\":3183:3192   */\n  dup7\n    /* \"#utility.yul\":3179:3201   */\n  add\n    /* \"#utility.yul\":3137:3211   */\n  tag_22\n  jump\t// in\ntag_80:\n    /* \"#utility.yul\":3127:3211   */\n  swap3\n  pop\n    /* \"#utility.yul\":2930:3221   */\n  pop\n    /* \"#utility.yul\":3281:3283   */\n  0x20\n    /* \"#utility.yul\":3270:3279   */\n  dup4\n    /* \"#utility.yul\":3266:3284   */\n  add\n    /* \"#utility.yul\":3260:3285   */\n  mload\n    /* \"#utility.yul\":3312:3330   */\n  0xffffffffffffffff\n    /* \"#utility.yul\":3304:3310   */\n  dup2\n    /* \"#utility.yul\":3301:3331   */\n  gt\n    /* \"#utility.yul\":3298:3415   */\n  iszero\n  tag_81\n  jumpi\n    /* \"#utility.yul\":3334:3413   */\n  tag_82\n  tag_12\n  jump\t// in\ntag_82:\n    /* \"#utility.yul\":3298:3415   */\ntag_81:\n    /* \"#utility.yul\":3439:3513   */\n  tag_83\n    /* \"#utility.yul\":3505:3512   */\n  dup6\n    /* \"#utility.yul\":3496:3502   */\n  dup3\n    /* \"#utility.yul\":3485:3494   */\n  dup7\n    /* \"#utility.yul\":3481:3503   */\n  add\n    /* \"#utility.yul\":3439:3513   */\n  tag_22\n  jump\t// in\ntag_83:\n    /* \"#utility.yul\":3429:3513   */\n  swap2\n  pop\n    /* \"#utility.yul\":3231:3523   */\n  pop\n    /* \"#utility.yul\":2677:3530   */\n  swap3\n  pop\n  swap3\n  swap1\n  pop\n  jump\t// out\n    /* \"#utility.yul\":3536:3635   */\ntag_23:\n    /* \"#utility.yul\":3588:3594   */\n  0x00\n    /* \"#utility.yul\":3622:3627   */\n  dup2\n    /* \"#utility.yul\":3616:3628   */\n  mload\n    /* \"#utility.yul\":3606:3628   */\n  swap1\n  pop\n    /* \"#utility.yul\":3536:3635   */\n  swap2\n  swap1\n  pop\n  jump\t// out\n    /* \"#utility.yul\":3641:3821   */\ntag_24:\n    /* \"#utility.yul\":3689:3766   */\n  0x4e487b7100000000000000000000000000000000000000000000000000000000\n    /* \"#utility.yul\":3686:3687   */\n  0x00\n    /* \"#utility.yul\":3679:3767   */\n  mstore\n    /* \"#utility.yul\":3786:3790   */\n  0x22\n    /* \"#utility.yul\":3783:3784   */\n  0x04\n    /* \"#utility.yul\":3776:3791   */\n  mstore\n    /* \"#utility.yul\":3810:3814   */\n  0x24\n    /* \"#utility.yul\":3807:3808   */\n  0x00\n    /* \"#utility.yul\":3800:3815   */\n  revert\n    /* \"#utility.yul\":3827:4147   */\ntag_25:\n    /* \"#utility.yul\":3871:3877   */\n  0x00\n    /* \"#utility.yul\":3908:3909   */\n  0x02\n    /* \"#utility.yul\":3902:3906   */\n  dup3\n    /* \"#utility.yul\":3898:3910   */\n  div\n    /* \"#utility.yul\":3888:3910   */\n  swap1\n  pop\n    /* \"#utility.yul\":3955:3956   */\n  0x01\n    /* \"#utility.yul\":3949:3953   */\n  dup3\n    /* \"#utility.yul\":3945:3957   */\n  and\n    /* \"#utility.yul\":3976:3994   */\n  dup1\n    /* \"#utility.yul\":3966:4047   */\n  tag_87\n  jumpi\n    /* \"#utility.yul\":4032:4036   */\n  0x7f\n    /* \"#utility.yul\":4024:4030   */\n  dup3\n    /* \"#utility.yul\":4020:4037   */\n  and\n    /* \"#utility.yul\":4010:4037   */\n  swap2\n  pop\n    /* \"#utility.yul\":3966:4047   */\ntag_87:\n    /* \"#utility.yul\":4094:4096   */\n  0x20\n    /* \"#utility.yul\":4086:4092   */\n  dup3\n    /* \"#utility.yul\":4083:4097   */\n  lt\n    /* \"#utility.yul\":4063:4081   */\n  dup2\n    /* \"#utility.yul\":4060:4098   */\n  sub\n    /* \"#utility.yul\":4057:4141   */\n  tag_88\n  jumpi\n    /* \"#utility.yul\":4113:4131   */\n  tag_89\n  tag_24\n  jump\t// in\ntag_89:\n    /* \"#utility.yul\":4057:4141   */\ntag_88:\n    /* \"#utility.yul\":3878:4147   */\n  pop\n    /* \"#utility.yul\":3827:4147   */\n  swap2\n  swap1\n  pop\n  jump\t// out\n    /* \"#utility.yul\":4153:4294   */\ntag_26:\n    /* \"#utility.yul\":4202:4206   */\n  0x00\n    /* \"#utility.yul\":4225:4228   */\n  dup2\n    /* \"#utility.yul\":4217:4228   */\n  swap1\n  pop\n    /* \"#utility.yul\":4248:4251   */\n  dup2\n    /* \"#utility.yul\":4245:4246   */\n  0x00\n    /* \"#utility.yul\":4238:4252   */\n  mstore\n    /* \"#utility.yul\":4282:4286   */\n  0x20\n    /* \"#utility.yul\":4279:4280   */\n  0x00\n    /* \"#utility.yul\":4269:4287   */\n  keccak256\n    /* \"#utility.yul\":4261:4287   */\n  swap1\n  pop\n    /* \"#utility.yul\":4153:4294   */\n  swap2\n  swap1\n  pop\n  jump\t// out\n    /* \"#utility.yul\":4300:4393   */\ntag_27:\n    /* \"#utility.yul\":4337:4343   */\n  0x00\n    /* \"#utility.yul\":4384:4386   */\n  0x20\n    /* \"#utility.yul\":4379:4381   */\n  0x1f\n    /* \"#utility.yul\":4372:4377   */\n  dup4\n    /* \"#utility.yul\":4368:4382   */\n  add\n    /* \"#utility.yul\":4364:4387   */\n  div\n    /* \"#utility.yul\":4354:4387   */\n  swap1\n  pop\n    /* \"#utility.yul\":4300:4393   */\n  swap2\n  swap1\n  pop\n  jump\t// out\n    /* \"#utility.yul\":4399:4506   */\ntag_28:\n    /* \"#utility.yul\":4443:4451   */\n  0x00\n    /* \"#utility.yul\":4493:4498   */\n  dup3\n    /* \"#utility.yul\":4487:4491   */\n  dup3\n    /* \"#utility.yul\":4483:4499   */\n  shl\n    /* \"#utility.yul\":4462:4499   */\n  swap1\n  pop\n    /* \"#utility.yul\":4399:4506   */\n  swap3\n  swap2\n  pop\n  pop\n  jump\t// out\n    /* \"#utility.yul\":4512:4905   */\ntag_29:\n    /* \"#utility.yul\":4581:4587   */\n  0x00\n    /* \"#utility.yul\":4631:4632   */\n  0x08\n    /* \"#utility.yul\":4619:4629   */\n  dup4\n    /* \"#utility.yul\":4615:4633   */\n  mul\n    /* \"#utility.yul\":4654:4751   */\n  tag_94\n    /* \"#utility.yul\":4684:4750   */\n  0xffffffffffffffffffffffffffffffffffffffffffffffffffffffffffffffff\n    /* \"#utility.yul\":4673:4682   */\n  dup3\n    /* \"#utility.yul\":4654:4751   */\n  tag_28\n  jump\t// in\ntag_94:\n    /* \"#utility.yul\":4772:4811   */\n  tag_95\n    /* \"#utility.yul\":4802:4810   */\n  dup7\n    /* \"#utility.yul\":4791:4800   */\n  dup4\n    /* \"#utility.yul\":4772:4811   */\n  tag_28\n  jump\t// in\ntag_95:\n    /* \"#utility.yul\":4760:4811   */\n  swap6\n  pop\n    /* \"#utility.yul\":4844:4848   */\n  dup1\n    /* \"#utility.yul\":4840:4849   */\n  not\n    /* \"#utility.yul\":4833:4838   */\n  dup5\n    /* \"#utility.yul\":4829:4850   */\n  and\n    /* \"#utility.yul\":4820:4850   */\n  swap4\n  pop\n    /* \"#utility.yul\":4893:4897   */\n  dup1\n    /* \"#utility.yul\":4883:4891   */\n  dup7\n    /* \"#utility.yul\":4879:4898   */\n  and\n    /* \"#utility.yul\":4872:4877   */\n  dup5\n    /* \"#utility.yul\":4869:4899   */\n  or\n    /* \"#utility.yul\":4859:4899   */\n  swap3\n  pop\n    /* \"#utility.yul\":4588:4905   */\n  pop\n  pop\n    /* \"#utility.yul\":4512:4905   */\n  swap4\n  swap3\n  pop\n  pop\n  pop\n  jump\t// out\n    /* \"#utility.yul\":4911:4988   */\ntag_30:\n    /* \"#utility.yul\":4948:4955   */\n  0x00\n    /* \"#utility.yul\":4977:4982   */\n  dup2\n    /* \"#utility.yul\":4966:4982   */\n  swap1\n  pop\n    /* \"#utility.yul\":4911:4988   */\n  swap2\n  swap1\n  pop\n  jump\t// out\n    /* \"#utility.yul\":4994:5054   */\ntag_31:\n    /* \"#utility.yul\":5022:5025   */\n  0x00\n    /* \"#utility.yul\":5043:5048   */\n  dup2\n    /* \"#utility.yul\":5036:5048   */\n  swap1\n  pop\n    /* \"#utility.yul\":4994:5054   */\n  swap2\n  swap1\n  pop\n  jump\t// out\n    /* \"#utility.yul\":5060:5202   */\ntag_32:\n    /* \"#utility.yul\":5110:5119   */\n  0x00\n    /* \"#utility.yul\":5143:5196   */\n  tag_99\n    /* \"#utility.yul\":5161:5195   */\n  tag_100\n    /* \"#utility.yul\":5170:5194   */\n  tag_101\n    /* \"#utility.yul\":5188:5193   */\n  dup5\n    /* \"#utility.yul\":5170:5194   */\n  tag_30\n  jump\t// in\ntag_101:\n    /* \"#utility.yul\":5161:5195   */\n  tag_31\n  jump\t// in\ntag_100:\n    /* \"#utility.yul\":5143:5196   */\n  tag_30\n  jump\t// in\ntag_99:\n    /* \"#utility.yul\":5130:5196   */\n  swap1\n  pop\n    /* \"#utility.yul\":5060:5202   */\n  swap2\n  swap1\n  pop\n  jump\t// out\n    /* \"#utility.yul\":5208:5283   */\ntag_33:\n    /* \"#utility.yul\":5251:5254   */\n  0x00\n    /* \"#utility.yul\":5272:5277   */\n  dup2\n    /* \"#utility.yul\":5265:5277   */\n  swap1\n  pop\n    /* \"#utility.yul\":5208:5283   */\n  swap2\n  swap1\n  pop\n  jump\t// out\n    /* \"#utility.yul\":5289:5558   */\ntag_34:\n    /* \"#utility.yul\":5399:5438   */\n  tag_104\n    /* \"#utility.yul\":5430:5437   */\n  dup4\n    /* \"#utility.yul\":5399:5438   */\n  tag_32\n  jump\t// in\ntag_104:\n    /* \"#utility.yul\":5460:5551   */\n  tag_105\n    /* \"#utility.yul\":5509:5550   */\n  tag_106\n    /* \"#utility.yul\":5533:5549   */\n  dup3\n    /* \"#utility.yul\":5509:5550   */\n  tag_33\n  jump\t// in\ntag_106:\n    /* \"#utility.yul\":5501:5507   */\n  dup5\n    /* \"#utility.yul\":5494:5498   */\n  dup5\n    /* \"#utility.yul\":5488:5499   */\n  sload\n    /* \"#utility.yul\":5460:5551   */\n  tag_29\n  jump\t// in\ntag_105:\n    /* \"#utility.yul\":5454:5458   */\n  dup3\n    /* \"#utility.yul\":5447:5552   */\n  sstore\n    /* \"#utility.yul\":5365:5558   */\n  pop\n    /* \"#utility.yul\":5289:5558   */\n  pop\n  pop\n  pop\n  jump\t// out\n    /* \"#utility.yul\":5564:5637   */\ntag_35:\n    /* \"#utility.yul\":5609:5612   */\n  0x00\n    /* \"#utility.yul\":5564:5637   */\n  swap1\n  jump\t// out\n    /* \"#utility.yul\":5643:5832   */\ntag_36:\n    /* \"#utility.yul\":5720:5752   */\n  tag_109\n  tag_35\n  jump\t// in\ntag_109:\n    /* \"#utility.yul\":5761:5826   */\n  tag_110\n    /* \"#utility.yul\":5819:5825   */\n  dup2\n    /* \"#utility.yul\":5811:5817   */\n  dup5\n    /* \"#utility.yul\":5805:5809   */\n  dup5\n    /* \"#utility.yul\":5761:5826   */\n  tag_34\n  jump\t// in\ntag_110:\n    /* \"#utility.yul\":5696:5832   */\n  pop\n    /* \"#utility.yul\":5643:5832   */\n  pop\n  pop\n  jump\t// out\n    /* \"#utility.yul\":5838:6024   */\ntag_37:\n    /* \"#utility.yul\":5898:6018   */\ntag_112:\n    /* \"#utility.yul\":5915:5918   */\n  dup2\n    /* \"#utility.yul\":5908:5913   */\n  dup2\n    /* \"#utility.yul\":5905:5919   */\n  lt\n    /* \"#utility.yul\":5898:6018   */\n  iszero\n  tag_114\n  jumpi\n    /* \"#utility.yul\":5969:6008   */\n  tag_115\n    /* \"#utility.yul\":6006:6007   */\n  0x00\n    /* \"#utility.yul\":5999:6004   */\n  dup3\n    /* \"#utility.yul\":5969:6008   */\n  tag_36\n  jump\t// in\ntag_115:\n    /* \"#utility.yul\":5942:5943   */\n  0x01\n    /* \"#utility.yul\":5935:5940   */\n  dup2\n    /* \"#utility.yul\":5931:5944   */\n  add\n    /* \"#utility.yul\":5922:5944   */\n  swap1\n  pop\n    /* \"#utility.yul\":5898:6018   */\n  jump(tag_112)\ntag_114:\n    /* \"#utility.yul\":5838:6024   */\n  pop\n  pop\n  jump\t// out\n    /* \"#utility.yul\":6030:6573   */\ntag_38:\n    /* \"#utility.yul\":6131:6133   */\n  0x1f\n    /* \"#utility.yul\":6126:6129   */\n  dup3\n    /* \"#utility.yul\":6123:6134   */\n  gt\n    /* \"#utility.yul\":6120:6566   */\n  iszero\n  tag_117\n  jumpi\n    /* \"#utility.yul\":6165:6203   */\n  tag_118\n    /* \"#utility.yul\":6197:6202   */\n  dup2\n    /* \"#utility.yul\":6165:6203   */\n  tag_26\n  jump\t// in\ntag_118:\n    /* \"#utility.yul\":6249:6278   */\n  tag_119\n    /* \"#utility.yul\":6267:6277   */\n  dup5\n    /* \"#utility.yul\":6249:6278   */\n  tag_27\n  jump\t// in\ntag_119:\n    /* \"#utility.yul\":6239:6247   */\n  dup2\n    /* \"#utility.yul\":6235:6279   */\n  add\n    /* \"#utility.yul\":6432:6434   */\n  0x20\n    /* \"#utility.yul\":6420:6430   */\n  dup6\n    /* \"#utility.yul\":6417:6435   */\n  lt\n    /* \"#utility.yul\":6414:6463   */\n  iszero\n  tag_120\n  jumpi\n    /* \"#utility.yul\":6453:6461   */\n  dup2\n    /* \"#utility.yul\":6438:6461   */\n  swap1\n  pop\n    /* \"#utility.yul\":6414:6463   */\ntag_120:\n    /* \"#utility.yul\":6476:6556   */\n  tag_121\n    /* \"#utility.yul\":6532:6554   */\n  tag_122\n    /* \"#utility.yul\":6550:6553   */\n  dup6\n    /* \"#utility.yul\":6532:6554   */\n  tag_27\n  jump\t// in\ntag_122:\n    /* \"#utility.yul\":6522:6530   */\n  dup4\n    /* \"#utility.yul\":6518:6555   */\n  add\n    /* \"#utility.yul\":6505:6516   */\n  dup3\n    /* \"#utility.yul\":6476:6556   */\n  tag_37\n  jump\t// in\ntag_121:\n    /* \"#utility.yul\":6135:6566   */\n  pop\n  pop\n    /* \"#utility.yul\":6120:6566   */\ntag_117:\n    /* \"#utility.yul\":6030:6573   */\n  pop\n  pop\n  pop\n  jump\t// out\n    /* \"#utility.yul\":6579:6696   */\ntag_39:\n    /* \"#utility.yul\":6633:6641   */\n  0x00\n    /* \"#utility.yul\":6683:6688   */\n  dup3\n    /* \"#utility.yul\":6677:6681   */\n  dup3\n    /* \"#utility.yul\":6673:6689   */\n  shr\n    /* \"#utility.yul\":6652:6689   */\n  swap1\n  pop\n    /* \"#utility.yul\":6579:6696   */\n  swap3\n  swap2\n  pop\n  pop\n  jump\t// out\n    /* \"#utility.yul\":6702:6871   */\ntag_40:\n    /* \"#utility.yul\":6746:6752   */\n  0x00\n    /* \"#utility.yul\":6779:6830   */\n  tag_125\n    /* \"#utility.yul\":6827:6828   */\n  0x00\n    /* \"#utility.yul\":6823:6829   */\n  not\n    /* \"#utility.yul\":6815:6820   */\n  dup5\n    /* \"#utility.yul\":6812:6813   */\n  0x08\n    /* \"#utility.yul\":6808:6821   */\n  mul\n    /* \"#utility.yul\":6779:6830   */\n  tag_39\n  jump\t// in\ntag_125:\n    /* \"#utility.yul\":6775:6831   */\n  not\n    /* \"#utility.yul\":6860:6864   */\n  dup1\n    /* \"#utility.yul\":6854:6858   */\n  dup4\n    /* \"#utility.yul\":6850:6865   */\n  and\n    /* \"#utility.yul\":6840:6865   */\n  swap2\n  pop\n    /* \"#utility.yul\":6753:6871   */\n  pop\n    /* \"#utility.yul\":6702:6871   */\n  swap3\n  swap2\n  pop\n  pop\n  jump\t// out\n    /* \"#utility.yul\":6876:7171   */\ntag_41:\n    /* \"#utility.yul\":6952:6956   */\n  0x00\n    /* \"#utility.yul\":7098:7127   */\n  tag_127\n    /* \"#utility.yul\":7123:7126   */\n  dup4\n    /* \"#utility.yul\":7117:7121   */\n  dup4\n    /* \"#utility.yul\":7098:7127   */\n  tag_40\n  jump\t// in\ntag_127:\n    /* \"#utility.yul\":7090:7127   */\n  swap2\n  pop\n    /* \"#utility.yul\":7160:7163   */\n  dup3\n    /* \"#utility.yul\":7157:7158   */\n  0x02\n    /* \"#utility.yul\":7153:7164   */\n  mul\n    /* \"#utility.yul\":7147:7151   */\n  dup3\n    /* \"#utility.yul\":7144:7165   */\n  or\n    /* \"#utility.yul\":7136:7165   */\n  swap1\n  pop\n    /* \"#utility.yul\":6876:7171   */\n  swap3\n  swap2\n  pop\n  pop\n  jump\t// out\n    /* \"#utility.yul\":7176:8571   */\ntag_7:\n    /* \"#utility.yul\":7293:7330   */\n  tag_129\n    /* \"#utility.yul\":7326:7329   */\n  dup3\n    /* \"#utility.yul\":7293:7330   */\n  tag_23\n  jump\t// in\ntag_129:\n    /* \"#utility.yul\":7395:7413   */\n  0xffffffffffffffff\n    /* \"#utility.yul\":7387:7393   */\n  dup2\n    /* \"#utility.yul\":7384:7414   */\n  gt\n    /* \"#utility.yul\":7381:7437   */\n  iszero\n  tag_130\n  jumpi\n    /* \"#utility.yul\":7417:7435   */\n  tag_131\n  tag_16\n  jump\t// in\ntag_131:\n    /* \"#utility.yul\":7381:7437   */\ntag_130:\n    /* \"#utility.yul\":7461:7499   */\n  tag_132\n    /* \"#utility.yul\":7493:7497   */\n  dup3\n    /* \"#utility.yul\":7487:7498   */\n  sload\n    /* \"#utility.yul\":7461:7499   */\n  tag_25\n  jump\t// in\ntag_132:\n    /* \"#utility.yul\":7546:7613   */\n  tag_133\n    /* \"#utility.yul\":7606:7612   */\n  dup3\n    /* \"#utility.yul\":7598:7604   */\n  dup3\n    /* \"#utility.yul\":7592:7596   */\n  dup6\n    /* \"#utility.yul\":7546:7613   */\n  tag_38\n  jump\t// in\ntag_133:\n    /* \"#utility.yul\":7640:7641   */\n  0x00\n    /* \"#utility.yul\":7664:7668   */\n  0x20\n    /* \"#utility.yul\":7651:7668   */\n  swap1\n  pop\n    /* \"#utility.yul\":7696:7698   */\n  0x1f\n    /* \"#utility.yul\":7688:7694   */\n  dup4\n    /* \"#utility.yul\":7685:7699   */\n  gt\n    /* \"#utility.yul\":7713:7714   */\n  0x01\n    /* \"#utility.yul\":7708:8326   */\n  dup2\n  eq\n  tag_135\n  jumpi\n    /* \"#utility.yul\":8370:8371   */\n  0x00\n    /* \"#utility.yul\":8387:8393   */\n  dup5\n    /* \"#utility.yul\":8384:8461   */\n  iszero\n  tag_136\n  jumpi\n    /* \"#utility.yul\":8436:8445   */\n  dup3\n    /* \"#utility.yul\":8431:8434   */\n  dup8\n    /* \"#utility.yul\":8427:8446   */\n  add\n    /* \"#utility.yul\":8421:8447   */\n  mload\n    /* \"#utility.yul\":8412:8447   */\n  swap1\n  pop\n    /* \"#utility.yul\":8384:8461   */\ntag_136:\n    /* \"#utility.yul\":8487:8554   */\n  tag_137\n    /* \"#utility.yul\":8547:8553   */\n  dup6\n    /* \"#utility.yul\":8540:8545   */\n  dup3\n    /* \"#utility.yul\":8487:8554   */\n  tag_41\n  jump\t// in\ntag_137:\n    /* \"#utility.yul\":8481:8485   */\n  dup7\n    /* \"#utility.yul\":8474:8555   */\n  sstore\n    /* \"#utility.yul\":8343:8565   */\n  pop\n    /* \"#utility.yul\":7678:8565   */\n  jump(tag_134)\n    /* \"#utility.yul\":7708:8326   */\ntag_135:\n    /* \"#utility.yul\":7760:7764   */\n  0x1f\n    /* \"#utility.yul\":7756:7765   */\n  not\n    /* \"#utility.yul\":7748:7754   */\n  dup5\n    /* \"#utility.yul\":7744:7766   */\n  and\n    /* \"#utility.yul\":7794:7831   */\n  tag_138\n    /* \"#utility.yul\":7826:7830   */\n  dup7\n    /* \"#utility.yul\":7794:7831   */\n  tag_26\n  jump\t// in\ntag_138:\n    /* \"#utility.yul\":7853:7854   */\n  0x00\n    /* \"#utility.yul\":7867:8075   */\ntag_139:\n    /* \"#utility.yul\":7881:7888   */\n  dup3\n    /* \"#utility.yul\":7878:7879   */\n  dup2\n    /* \"#utility.yul\":7875:7889   */\n  lt\n    /* \"#utility.yul\":7867:8075   */\n  iszero\n  tag_141\n  jumpi\n    /* \"#utility.yul\":7960:7969   */\n  dup5\n    /* \"#utility.yul\":7955:7958   */\n  dup10\n    /* \"#utility.yul\":7951:7970   */\n  add\n    /* \"#utility.yul\":7945:7971   */\n  mload\n    /* \"#utility.yul\":7937:7943   */\n  dup3\n    /* \"#utility.yul\":7930:7972   */\n  sstore\n    /* \"#utility.yul\":8011:8012   */\n  0x01\n    /* \"#utility.yul\":8003:8009   */\n  dup3\n    /* \"#utility.yul\":7999:8013   */\n  add\n    /* \"#utility.yul\":7989:8013   */\n  swap2\n  pop\n    /* \"#utility.yul\":8058:8060   */\n  0x20\n    /* \"#utility.yul\":8047:8056   */\n  dup6\n    /* \"#utility.yul\":8043:8061   */\n  add\n    /* \"#utility.yul\":8030:8061   */\n  swap5\n  pop\n    /* \"#utility.yul\":7904:7908   */\n  0x20\n    /* \"#utility.yul\":7901:7902   */\n  dup2\n    /* \"#utility.yul\":7897:7909   */\n  add\n    /* \"#utility.yul\":7892:7909   */\n  swap1\n  pop\n    /* \"#utility.yul\":7867:8075   */\n  jump(tag_139)\ntag_141:\n    /* \"#utility.yul\":8103:8109   */\n  dup7\n    /* \"#utility.yul\":8094:8101   */\n  dup4\n    /* \"#utility.yul\":8091:8110   */\n  lt\n    /* \"#utility.yul\":8088:8267   */\n  iszero\n  tag_142\n  jumpi\n    /* \"#utility.yul\":8161:8170   */\n  dup5\n    /* \"#utility.yul\":8156:8159   */\n  dup10\n    /* \"#utility.yul\":8152:8171   */\n  add\n    /* \"#utility.yul\":8146:8172   */\n  mload\n    /* \"#utility.yul\":8204:8252   */\n  tag_143\n    /* \"#utility.yul\":8246:8250   */\n  0x1f\n    /* \"#utility.yul\":8238:8244   */\n  dup10\n    /* \"#utility.yul\":8234:8251   */\n  and\n    /* \"#utility.yul\":8223:8232   */\n  dup3\n    /* \"#utility.yul\":8204:8252   */\n  tag_40\n  jump\t// in\ntag_143:\n    /* \"#utility.yul\":8196:8202   */\n  dup4\n    /* \"#utility.yul\":8189:8253   */\n  sstore\n    /* \"#utility.yul\":8111:8267   */\n  pop\n    /* \"#utility.yul\":8088:8267   */\ntag_142:\n    /* \"#utility.yul\":8313:8314   */\n  0x01\n    /* \"#utility.yul\":8309:8310   */\n  0x02\n    /* \"#utility.yul\":8301:8307   */\n  dup9\n    /* \"#utility.yul\":8297:8311   */\n  mul\n    /* \"#utility.yul\":8293:8315   */\n  add\n    /* \"#utility.yul\":8287:8291   */\n  dup9\n    /* \"#utility.yul\":8280:8316   */\n  sstore\n    /* \"#utility.yul\":7715:8326   */\n  pop\n  pop\n  pop\n    /* \"#utility.yul\":7678:8565   */\ntag_134:\n  pop\n    /* \"#utility.yul\":7268:8571   */\n  pop\n  pop\n  pop\n    /* \"#utility.yul\":7176:8571   */\n  pop\n  pop\n  jump\t// out\n    /* \".deps/npm/@openzeppelin/contracts/token/ERC721/ERC721.sol\":628:16998  contract ERC721 is Context, ERC165, IERC721, IERC721Metadata {... */\ntag_9:\n  dataSize(sub_0)\n  dup1\n  dataOffset(sub_0)\n  0x00\n  codecopy\n  0x00\n  return\nstop\n\nsub_0: assembly {\n        /* \".deps/npm/@openzeppelin/contracts/token/ERC721/ERC721.sol\":628:16998  contract ERC721 is Context, ERC165, IERC721, IERC721Metadata {... */\n      mstore(0x40, 0x80)\n      callvalue\n      dup1\n      iszero\n      tag_1\n      jumpi\n      0x00\n      dup1\n      revert\n    tag_1:\n      pop\n      jumpi(tag_2, lt(calldatasize, 0x04))\n      shr(0xe0, calldataload(0x00))\n      dup1\n      0x6352211e\n      gt\n      tag_17\n      jumpi\n      dup1\n      0xa22cb465\n      gt\n      tag_18\n      jumpi\n      dup1\n      0xa22cb465\n      eq\n      tag_13\n      jumpi\n      dup1\n      0xb88d4fde\n      eq\n      tag_14\n      jumpi\n      dup1\n      0xc87b56dd\n      eq\n      tag_15\n      jumpi\n      dup1\n      0xe985e9c5\n      eq\n      tag_16\n      jumpi\n      jump(tag_2)\n    tag_18:\n      dup1\n      0x6352211e\n      eq\n      tag_10\n      jumpi\n      dup1\n      0x70a08231\n      eq\n      tag_11\n      jumpi\n      dup1\n      0x95d89b41\n      eq\n      tag_12\n      jumpi\n      jump(tag_2)\n    tag_17:\n      dup1\n      0x095ea7b3\n      gt\n      tag_19\n      jumpi\n      dup1\n      0x095ea7b3\n      eq\n      tag_6\n      jumpi\n      dup1\n      0x23b872dd\n      eq\n      tag_7\n      jumpi\n      dup1\n      0x30e0789e\n      eq\n      tag_8\n      jumpi\n      dup1\n      0x42842e0e\n      eq\n      tag_9\n      jumpi\n      jump(tag_2)\n    tag_19:\n      dup1\n      0x01ffc9a7\n      eq\n      tag_3\n      jumpi\n      dup1\n      0x06fdde03\n      eq\n      tag_4\n      jumpi\n      dup1\n      0x081812fc\n      eq\n      tag_5\n      jumpi\n    tag_2:\n      0x00\n      dup1\n      revert\n        /* \".deps/npm/@openzeppelin/contracts/token/ERC721/ERC721.sol\":1570:1870  function supportsInterface(bytes4 interfaceId) public view virtual override(ERC165, IERC165) returns (bool) {... */\n    tag_3:\n      tag_20\n      0x04\n      dup1\n      calldatasize\n      sub\n      dup2\n      add\n      swap1\n      tag_21\n      swap2\n      swap1\n      tag_22\n      jump\t// in\n    tag_21:\n      tag_23\n      jump\t// in\n    tag_20:\n      mload(0x40)\n      tag_24\n      swap2\n      swap1\n      tag_25\n      jump\t// in\n    tag_24:\n      mload(0x40)\n      dup1\n      swap2\n      sub\n      swap1\n      return\n        /* \".deps/npm/@openzeppelin/contracts/token/ERC721/ERC721.sol\":2471:2569  function name() public view virtual override returns (string memory) {... */\n    tag_4:\n      tag_26\n      tag_27\n      jump\t// in\n    tag_26:\n      mload(0x40)\n      tag_28\n      swap2\n      swap1\n      tag_29\n      jump\t// in\n    tag_28:\n      mload(0x40)\n      dup1\n      swap2\n      sub\n      swap1\n      return\n        /* \".deps/npm/@openzeppelin/contracts/token/ERC721/ERC721.sol\":3935:4102  function getApproved(uint256 tokenId) public view virtual override returns (address) {... */\n    tag_5:\n      tag_30\n      0x04\n      dup1\n      calldatasize\n      sub\n      dup2\n      add\n      swap1\n      tag_31\n      swap2\n      swap1\n      tag_32\n      jump\t// in\n    tag_31:\n      tag_33\n      jump\t// in\n    tag_30:\n      mload(0x40)\n      tag_34\n      swap2\n      swap1\n      tag_35\n      jump\t// in\n    tag_34:\n      mload(0x40)\n      dup1\n      swap2\n      sub\n      swap1\n      return\n        /* \".deps/npm/@openzeppelin/contracts/token/ERC721/ERC721.sol\":3468:3874  function approve(address to, uint256 tokenId) public virtual override {... */\n    tag_6:\n      tag_36\n      0x04\n      dup1\n      calldatasize\n      sub\n      dup2\n      add\n      swap1\n      tag_37\n      swap2\n      swap1\n      tag_38\n      jump\t// in\n    tag_37:\n      tag_39\n      jump\t// in\n    tag_36:\n      stop\n        /* \".deps/npm/@openzeppelin/contracts/token/ERC721/ERC721.sol\":4612:4908  function transferFrom(address from, address to, uint256 tokenId) public virtual override {... */\n    tag_7:\n      tag_40\n      0x04\n      dup1\n      calldatasize\n      sub\n      dup2\n      add\n      swap1\n      tag_41\n      swap2\n      swap1\n      tag_42\n      jump\t// in\n    tag_41:\n      tag_43\n      jump\t// in\n    tag_40:\n      stop\n        /* \".deps/npm/@openzeppelin/contracts/token/ERC721/ERC721.sol\":11257:12453  function _transfer(address from, address to, uint256 tokenId) public  {... */\n    tag_8:\n      tag_44\n      0x04\n      dup1\n      calldatasize\n      sub\n      dup2\n      add\n      swap1\n      tag_45\n      swap2\n      swap1\n      tag_42\n      jump\t// in\n    tag_45:\n      tag_46\n      jump\t// in\n    tag_44:\n      stop\n        /* \".deps/npm/@openzeppelin/contracts/token/ERC721/ERC721.sol\":4974:5123  function safeTransferFrom(address from, address to, uint256 tokenId) public virtual override {... */\n    tag_9:\n      tag_47\n      0x04\n      dup1\n      calldatasize\n      sub\n      dup2\n      add\n      swap1\n      tag_48\n      swap2\n      swap1\n      tag_42\n      jump\t// in\n    tag_48:\n      tag_49\n      jump\t// in\n    tag_47:\n      stop\n        /* \".deps/npm/@openzeppelin/contracts/token/ERC721/ERC721.sol\":2190:2409  function ownerOf(uint256 tokenId) public view virtual override returns (address) {... */\n    tag_10:\n      tag_50\n      0x04\n      dup1\n      calldatasize\n      sub\n      dup2\n      add\n      swap1\n      tag_51\n      swap2\n      swap1\n      tag_32\n      jump\t// in\n    tag_51:\n      tag_52\n      jump\t// in\n    tag_50:\n      mload(0x40)\n      tag_53\n      swap2\n      swap1\n      tag_35\n      jump\t// in\n    tag_53:\n      mload(0x40)\n      dup1\n      swap2\n      sub\n      swap1\n      return\n        /* \".deps/npm/@openzeppelin/contracts/token/ERC721/ERC721.sol\":1929:2133  function balanceOf(address owner) public view virtual override returns (uint256) {... */\n    tag_11:\n      tag_54\n      0x04\n      dup1\n      calldatasize\n      sub\n      dup2\n      add\n      swap1\n      tag_55\n      swap2\n      swap1\n      tag_56\n      jump\t// in\n    tag_55:\n      tag_57\n      jump\t// in\n    tag_54:\n      mload(0x40)\n      tag_58\n      swap2\n      swap1\n      tag_59\n      jump\t// in\n    tag_58:\n      mload(0x40)\n      dup1\n      swap2\n      sub\n      swap1\n      return\n        /* \".deps/npm/@openzeppelin/contracts/token/ERC721/ERC721.sol\":2633:2735  function symbol() public view virtual override returns (string memory) {... */\n    tag_12:\n      tag_60\n      tag_61\n      jump\t// in\n    tag_60:\n      mload(0x40)\n      tag_62\n      swap2\n      swap1\n      tag_29\n      jump\t// in\n    tag_62:\n      mload(0x40)\n      dup1\n      swap2\n      sub\n      swap1\n      return\n        /* \".deps/npm/@openzeppelin/contracts/token/ERC721/ERC721.sol\":4169:4322  function setApprovalForAll(address operator, bool approved) public virtual override {... */\n    tag_13:\n      tag_63\n      0x04\n      dup1\n      calldatasize\n      sub\n      dup2\n      add\n      swap1\n      tag_64\n      swap2\n      swap1\n      tag_65\n      jump\t// in\n    tag_64:\n      tag_66\n      jump\t// in\n    tag_63:\n      stop\n        /* \".deps/npm/@openzeppelin/contracts/token/ERC721/ERC721.sol\":5189:5465  function safeTransferFrom(address from, address to, uint256 tokenId, bytes memory data) public virtual override {... */\n    tag_14:\n      tag_67\n      0x04\n      dup1\n      calldatasize\n      sub\n      dup2\n      add\n      swap1\n      tag_68\n      swap2\n      swap1\n      tag_69\n      jump\t// in\n    tag_68:\n      tag_70\n      jump\t// in\n    tag_67:\n      stop\n        /* \".deps/npm/@openzeppelin/contracts/token/ERC721/ERC721.sol\":2801:3077  function tokenURI(uint256 tokenId) public view virtual override returns (string memory) {... */\n    tag_15:\n      tag_71\n      0x04\n      dup1\n      calldatasize\n      sub\n      dup2\n      add\n      swap1\n      tag_72\n      swap2\n      swap1\n      tag_32\n      jump\t// in\n    tag_72:\n      tag_73\n      jump\t// in\n    tag_71:\n      mload(0x40)\n      tag_74\n      swap2\n      swap1\n      tag_29\n      jump\t// in\n    tag_74:\n      mload(0x40)\n      dup1\n      swap2\n      sub\n      swap1\n      return\n        /* \".deps/npm/@openzeppelin/contracts/token/ERC721/ERC721.sol\":4388:4550  function isApprovedForAll(address owner, address operator) public view virtual override returns (bool) {... */\n    tag_16:\n      tag_75\n      0x04\n      dup1\n      calldatasize\n      sub\n      dup2\n      add\n      swap1\n      tag_76\n      swap2\n      swap1\n      tag_77\n      jump\t// in\n    tag_76:\n      tag_78\n      jump\t// in\n    tag_75:\n      mload(0x40)\n      tag_79\n      swap2\n      swap1\n      tag_25\n      jump\t// in\n    tag_79:\n      mload(0x40)\n      dup1\n      swap2\n      sub\n      swap1\n      return\n        /* \".deps/npm/@openzeppelin/contracts/token/ERC721/ERC721.sol\":1570:1870  function supportsInterface(bytes4 interfaceId) public view virtual override(ERC165, IERC165) returns (bool) {... */\n    tag_23:\n        /* \".deps/npm/@openzeppelin/contracts/token/ERC721/ERC721.sol\":1672:1676  bool */\n      0x00\n        /* \".deps/npm/@openzeppelin/contracts/token/ERC721/ERC721.sol\":1722:1747  type(IERC721).interfaceId */\n      0x80ac58cd00000000000000000000000000000000000000000000000000000000\n        /* \".deps/npm/@openzeppelin/contracts/token/ERC721/ERC721.sol\":1707:1747  interfaceId == type(IERC721).interfaceId */\n      not(0xffffffffffffffffffffffffffffffffffffffffffffffffffffffff)\n      and\n        /* \".deps/npm/@openzeppelin/contracts/token/ERC721/ERC721.sol\":1707:1718  interfaceId */\n      dup3\n        /* \".deps/npm/@openzeppelin/contracts/token/ERC721/ERC721.sol\":1707:1747  interfaceId == type(IERC721).interfaceId */\n      not(0xffffffffffffffffffffffffffffffffffffffffffffffffffffffff)\n      and\n      eq\n        /* \".deps/npm/@openzeppelin/contracts/token/ERC721/ERC721.sol\":1707:1811  interfaceId == type(IERC721).interfaceId ||... */\n      dup1\n      tag_81\n      jumpi\n      pop\n        /* \".deps/npm/@openzeppelin/contracts/token/ERC721/ERC721.sol\":1778:1811  type(IERC721Metadata).interfaceId */\n      0x5b5e139f00000000000000000000000000000000000000000000000000000000\n        /* \".deps/npm/@openzeppelin/contracts/token/ERC721/ERC721.sol\":1763:1811  interfaceId == type(IERC721Metadata).interfaceId */\n      not(0xffffffffffffffffffffffffffffffffffffffffffffffffffffffff)\n      and\n        /* \".deps/npm/@openzeppelin/contracts/token/ERC721/ERC721.sol\":1763:1774  interfaceId */\n      dup3\n        /* \".deps/npm/@openzeppelin/contracts/token/ERC721/ERC721.sol\":1763:1811  interfaceId == type(IERC721Metadata).interfaceId */\n      not(0xffffffffffffffffffffffffffffffffffffffffffffffffffffffff)\n      and\n      eq\n        /* \".deps/npm/@openzeppelin/contracts/token/ERC721/ERC721.sol\":1707:1811  interfaceId == type(IERC721).interfaceId ||... */\n    tag_81:\n        /* \".deps/npm/@openzeppelin/contracts/token/ERC721/ERC721.sol\":1707:1863  interfaceId == type(IERC721).interfaceId ||... */\n      dup1\n      tag_82\n      jumpi\n      pop\n        /* \".deps/npm/@openzeppelin/contracts/token/ERC721/ERC721.sol\":1827:1863  super.supportsInterface(interfaceId) */\n      tag_83\n        /* \".deps/npm/@openzeppelin/contracts/token/ERC721/ERC721.sol\":1851:1862  interfaceId */\n      dup3\n        /* \".deps/npm/@openzeppelin/contracts/token/ERC721/ERC721.sol\":1827:1850  super.supportsInterface */\n      tag_84\n        /* \".deps/npm/@openzeppelin/contracts/token/ERC721/ERC721.sol\":1827:1863  super.supportsInterface(interfaceId) */\n      jump\t// in\n    tag_83:\n        /* \".deps/npm/@openzeppelin/contracts/token/ERC721/ERC721.sol\":1707:1863  interfaceId == type(IERC721).interfaceId ||... */\n    tag_82:\n        /* \".deps/npm/@openzeppelin/contracts/token/ERC721/ERC721.sol\":1688:1863  return... */\n      swap1\n      pop\n        /* \".deps/npm/@openzeppelin/contracts/token/ERC721/ERC721.sol\":1570:1870  function supportsInterface(bytes4 interfaceId) public view virtual override(ERC165, IERC165) returns (bool) {... */\n      swap2\n      swap1\n      pop\n      jump\t// out\n        /* \".deps/npm/@openzeppelin/contracts/token/ERC721/ERC721.sol\":2471:2569  function name() public view virtual override returns (string memory) {... */\n    tag_27:\n        /* \".deps/npm/@openzeppelin/contracts/token/ERC721/ERC721.sol\":2525:2538  string memory */\n      0x60\n        /* \".deps/npm/@openzeppelin/contracts/token/ERC721/ERC721.sol\":2557:2562  _name */\n      0x00\n        /* \".deps/npm/@openzeppelin/contracts/token/ERC721/ERC721.sol\":2550:2562  return _name */\n      dup1\n      sload\n      tag_86\n      swap1\n      tag_87\n      jump\t// in\n    tag_86:\n      dup1\n      0x1f\n      add\n      0x20\n      dup1\n      swap2\n      div\n      mul\n      0x20\n      add\n      mload(0x40)\n      swap1\n      dup2\n      add\n      0x40\n      mstore\n      dup1\n      swap3\n      swap2\n      swap1\n      dup2\n      dup2\n      mstore\n      0x20\n      add\n      dup3\n      dup1\n      sload\n      tag_88\n      swap1\n      tag_87\n      jump\t// in\n    tag_88:\n      dup1\n      iszero\n      tag_89\n      jumpi\n      dup1\n      0x1f\n      lt\n      tag_90\n      jumpi\n      0x0100\n      dup1\n      dup4\n      sload\n      div\n      mul\n      dup4\n      mstore\n      swap2\n      0x20\n      add\n      swap2\n      jump(tag_89)\n    tag_90:\n      dup3\n      add\n      swap2\n      swap1\n      0x00\n      mstore\n      keccak256(0x00, 0x20)\n      swap1\n    tag_91:\n      dup2\n      sload\n      dup2\n      mstore\n      swap1\n      0x01\n      add\n      swap1\n      0x20\n      add\n      dup1\n      dup4\n      gt\n      tag_91\n      jumpi\n      dup3\n      swap1\n      sub\n      0x1f\n      and\n      dup3\n      add\n      swap2\n    tag_89:\n      pop\n      pop\n      pop\n      pop\n      pop\n      swap1\n      pop\n        /* \".deps/npm/@openzeppelin/contracts/token/ERC721/ERC721.sol\":2471:2569  function name() public view virtual override returns (string memory) {... */\n      swap1\n      jump\t// out\n        /* \".deps/npm/@openzeppelin/contracts/token/ERC721/ERC721.sol\":3935:4102  function getApproved(uint256 tokenId) public view virtual override returns (address) {... */\n    tag_33:\n        /* \".deps/npm/@openzeppelin/contracts/token/ERC721/ERC721.sol\":4011:4018  address */\n      0x00\n        /* \".deps/npm/@openzeppelin/contracts/token/ERC721/ERC721.sol\":4030:4053  _requireMinted(tokenId) */\n      tag_93\n        /* \".deps/npm/@openzeppelin/contracts/token/ERC721/ERC721.sol\":4045:4052  tokenId */\n      dup3\n        /* \".deps/npm/@openzeppelin/contracts/token/ERC721/ERC721.sol\":4030:4044  _requireMinted */\n      tag_94\n        /* \".deps/npm/@openzeppelin/contracts/token/ERC721/ERC721.sol\":4030:4053  _requireMinted(tokenId) */\n      jump\t// in\n    tag_93:\n        /* \".deps/npm/@openzeppelin/contracts/token/ERC721/ERC721.sol\":4071:4086  _tokenApprovals */\n      0x04\n        /* \".deps/npm/@openzeppelin/contracts/token/ERC721/ERC721.sol\":4071:4095  _tokenApprovals[tokenId] */\n      0x00\n        /* \".deps/npm/@openzeppelin/contracts/token/ERC721/ERC721.sol\":4087:4094  tokenId */\n      dup4\n        /* \".deps/npm/@openzeppelin/contracts/token/ERC721/ERC721.sol\":4071:4095  _tokenApprovals[tokenId] */\n      dup2\n      mstore\n      0x20\n      add\n      swap1\n      dup2\n      mstore\n      0x20\n      add\n      0x00\n      keccak256\n      0x00\n      swap1\n      sload\n      swap1\n      0x0100\n      exp\n      swap1\n      div\n      0xffffffffffffffffffffffffffffffffffffffff\n      and\n        /* \".deps/npm/@openzeppelin/contracts/token/ERC721/ERC721.sol\":4064:4095  return _tokenApprovals[tokenId] */\n      swap1\n      pop\n        /* \".deps/npm/@openzeppelin/contracts/token/ERC721/ERC721.sol\":3935:4102  function getApproved(uint256 tokenId) public view virtual override returns (address) {... */\n      swap2\n      swap1\n      pop\n      jump\t// out\n        /* \".deps/npm/@openzeppelin/contracts/token/ERC721/ERC721.sol\":3468:3874  function approve(address to, uint256 tokenId) public virtual override {... */\n    tag_39:\n        /* \".deps/npm/@openzeppelin/contracts/token/ERC721/ERC721.sol\":3548:3561  address owner */\n      0x00\n        /* \".deps/npm/@openzeppelin/contracts/token/ERC721/ERC721.sol\":3564:3587  ERC721.ownerOf(tokenId) */\n      tag_96\n        /* \".deps/npm/@openzeppelin/contracts/token/ERC721/ERC721.sol\":3579:3586  tokenId */\n      dup3\n        /* \".deps/npm/@openzeppelin/contracts/token/ERC721/ERC721.sol\":3564:3578  ERC721.ownerOf */\n      tag_52\n        /* \".deps/npm/@openzeppelin/contracts/token/ERC721/ERC721.sol\":3564:3587  ERC721.ownerOf(tokenId) */\n      jump\t// in\n    tag_96:\n        /* \".deps/npm/@openzeppelin/contracts/token/ERC721/ERC721.sol\":3548:3587  address owner = ERC721.ownerOf(tokenId) */\n      swap1\n      pop\n        /* \".deps/npm/@openzeppelin/contracts/token/ERC721/ERC721.sol\":3611:3616  owner */\n      dup1\n        /* \".deps/npm/@openzeppelin/contracts/token/ERC721/ERC721.sol\":3605:3616  to != owner */\n      0xffffffffffffffffffffffffffffffffffffffff\n      and\n        /* \".deps/npm/@openzeppelin/contracts/token/ERC721/ERC721.sol\":3605:3607  to */\n      dup4\n        /* \".deps/npm/@openzeppelin/contracts/token/ERC721/ERC721.sol\":3605:3616  to != owner */\n      0xffffffffffffffffffffffffffffffffffffffff\n      and\n      sub\n        /* \".deps/npm/@openzeppelin/contracts/token/ERC721/ERC721.sol\":3597:3654  require(to != owner, \"ERC721: approval to current owner\") */\n      tag_97\n      jumpi\n      mload(0x40)\n      0x08c379a000000000000000000000000000000000000000000000000000000000\n      dup2\n      mstore\n      0x04\n      add\n      tag_98\n      swap1\n      tag_99\n      jump\t// in\n    tag_98:\n      mload(0x40)\n      dup1\n      swap2\n      sub\n      swap1\n      revert\n    tag_97:\n        /* \".deps/npm/@openzeppelin/contracts/token/ERC721/ERC721.sol\":3702:3707  owner */\n      dup1\n        /* \".deps/npm/@openzeppelin/contracts/token/ERC721/ERC721.sol\":3686:3707  _msgSender() == owner */\n      0xffffffffffffffffffffffffffffffffffffffff\n      and\n        /* \".deps/npm/@openzeppelin/contracts/token/ERC721/ERC721.sol\":3686:3698  _msgSender() */\n      tag_100\n        /* \".deps/npm/@openzeppelin/contracts/token/ERC721/ERC721.sol\":3686:3696  _msgSender */\n      tag_101\n        /* \".deps/npm/@openzeppelin/contracts/token/ERC721/ERC721.sol\":3686:3698  _msgSender() */\n      jump\t// in\n    tag_100:\n        /* \".deps/npm/@openzeppelin/contracts/token/ERC721/ERC721.sol\":3686:3707  _msgSender() == owner */\n      0xffffffffffffffffffffffffffffffffffffffff\n      and\n      eq\n        /* \".deps/npm/@openzeppelin/contracts/token/ERC721/ERC721.sol\":3686:3748  _msgSender() == owner || isApprovedForAll(owner, _msgSender()) */\n      dup1\n      tag_102\n      jumpi\n      pop\n        /* \".deps/npm/@openzeppelin/contracts/token/ERC721/ERC721.sol\":3711:3748  isApprovedForAll(owner, _msgSender()) */\n      tag_103\n        /* \".deps/npm/@openzeppelin/contracts/token/ERC721/ERC721.sol\":3728:3733  owner */\n      dup2\n        /* \".deps/npm/@openzeppelin/contracts/token/ERC721/ERC721.sol\":3735:3747  _msgSender() */\n      tag_104\n        /* \".deps/npm/@openzeppelin/contracts/token/ERC721/ERC721.sol\":3735:3745  _msgSender */\n      tag_101\n        /* \".deps/npm/@openzeppelin/contracts/token/ERC721/ERC721.sol\":3735:3747  _msgSender() */\n      jump\t// in\n    tag_104:\n        /* \".deps/npm/@openzeppelin/contracts/token/ERC721/ERC721.sol\":3711:3727  isApprovedForAll */\n      tag_78\n        /* \".deps/npm/@openzeppelin/contracts/token/ERC721/ERC721.sol\":3711:3748  isApprovedForAll(owner, _msgSender()) */\n      jump\t// in\n    tag_103:\n        /* \".deps/npm/@openzeppelin/contracts/token/ERC721/ERC721.sol\":3686:3748  _msgSender() == owner || isApprovedForAll(owner, _msgSender()) */\n    tag_102:\n        /* \".deps/npm/@openzeppelin/contracts/token/ERC721/ERC721.sol\":3665:3835  require(... */\n      tag_105\n      jumpi\n      mload(0x40)\n      0x08c379a000000000000000000000000000000000000000000000000000000000\n      dup2\n      mstore\n      0x04\n      add\n      tag_106\n      swap1\n      tag_107\n      jump\t// in\n    tag_106:\n      mload(0x40)\n      dup1\n      swap2\n      sub\n      swap1\n      revert\n    tag_105:\n        /* \".deps/npm/@openzeppelin/contracts/token/ERC721/ERC721.sol\":3846:3867  _approve(to, tokenId) */\n      tag_108\n        /* \".deps/npm/@openzeppelin/contracts/token/ERC721/ERC721.sol\":3855:3857  to */\n      dup4\n        /* \".deps/npm/@openzeppelin/contracts/token/ERC721/ERC721.sol\":3859:3866  tokenId */\n      dup4\n        /* \".deps/npm/@openzeppelin/contracts/token/ERC721/ERC721.sol\":3846:3854  _approve */\n      tag_109\n        /* \".deps/npm/@openzeppelin/contracts/token/ERC721/ERC721.sol\":3846:3867  _approve(to, tokenId) */\n      jump\t// in\n    tag_108:\n        /* \".deps/npm/@openzeppelin/contracts/token/ERC721/ERC721.sol\":3538:3874  {... */\n      pop\n        /* \".deps/npm/@openzeppelin/contracts/token/ERC721/ERC721.sol\":3468:3874  function approve(address to, uint256 tokenId) public virtual override {... */\n      pop\n      pop\n      jump\t// out\n        /* \".deps/npm/@openzeppelin/contracts/token/ERC721/ERC721.sol\":4612:4908  function transferFrom(address from, address to, uint256 tokenId) public virtual override {... */\n    tag_43:\n        /* \".deps/npm/@openzeppelin/contracts/token/ERC721/ERC721.sol\":4771:4812  _isApprovedOrOwner(_msgSender(), tokenId) */\n      tag_111\n        /* \".deps/npm/@openzeppelin/contracts/token/ERC721/ERC721.sol\":4790:4802  _msgSender() */\n      tag_112\n        /* \".deps/npm/@openzeppelin/contracts/token/ERC721/ERC721.sol\":4790:4800  _msgSender */\n      tag_101\n        /* \".deps/npm/@openzeppelin/contracts/token/ERC721/ERC721.sol\":4790:4802  _msgSender() */\n      jump\t// in\n    tag_112:\n        /* \".deps/npm/@openzeppelin/contracts/token/ERC721/ERC721.sol\":4804:4811  tokenId */\n      dup3\n        /* \".deps/npm/@openzeppelin/contracts/token/ERC721/ERC721.sol\":4771:4789  _isApprovedOrOwner */\n      tag_113\n        /* \".deps/npm/@openzeppelin/contracts/token/ERC721/ERC721.sol\":4771:4812  _isApprovedOrOwner(_msgSender(), tokenId) */\n      jump\t// in\n    tag_111:\n        /* \".deps/npm/@openzeppelin/contracts/token/ERC721/ERC721.sol\":4763:4862  require(_isApprovedOrOwner(_msgSender(), tokenId), \"ERC721: caller is not token owner or approved\") */\n      tag_114\n      jumpi\n      mload(0x40)\n      0x08c379a000000000000000000000000000000000000000000000000000000000\n      dup2\n      mstore\n      0x04\n      add\n      tag_115\n      swap1\n      tag_116\n      jump\t// in\n    tag_115:\n      mload(0x40)\n      dup1\n      swap2\n      sub\n      swap1\n      revert\n    tag_114:\n        /* \".deps/npm/@openzeppelin/contracts/token/ERC721/ERC721.sol\":4873:4901  _transfer(from, to, tokenId) */\n      tag_117\n        /* \".deps/npm/@openzeppelin/contracts/token/ERC721/ERC721.sol\":4883:4887  from */\n      dup4\n        /* \".deps/npm/@openzeppelin/contracts/token/ERC721/ERC721.sol\":4889:4891  to */\n      dup4\n        /* \".deps/npm/@openzeppelin/contracts/token/ERC721/ERC721.sol\":4893:4900  tokenId */\n      dup4\n        /* \".deps/npm/@openzeppelin/contracts/token/ERC721/ERC721.sol\":4873:4882  _transfer */\n      tag_46\n        /* \".deps/npm/@openzeppelin/contracts/token/ERC721/ERC721.sol\":4873:4901  _transfer(from, to, tokenId) */\n      jump\t// in\n    tag_117:\n        /* \".deps/npm/@openzeppelin/contracts/token/ERC721/ERC721.sol\":4612:4908  function transferFrom(address from, address to, uint256 tokenId) public virtual override {... */\n      pop\n      pop\n      pop\n      jump\t// out\n        /* \".deps/npm/@openzeppelin/contracts/token/ERC721/ERC721.sol\":11257:12453  function _transfer(address from, address to, uint256 tokenId) public  {... */\n    tag_46:\n        /* \".deps/npm/@openzeppelin/contracts/token/ERC721/ERC721.sol\":11372:11376  from */\n      dup3\n        /* \".deps/npm/@openzeppelin/contracts/token/ERC721/ERC721.sol\":11345:11376  ERC721.ownerOf(tokenId) == from */\n      0xffffffffffffffffffffffffffffffffffffffff\n      and\n        /* \".deps/npm/@openzeppelin/contracts/token/ERC721/ERC721.sol\":11345:11368  ERC721.ownerOf(tokenId) */\n      tag_119\n        /* \".deps/npm/@openzeppelin/contracts/token/ERC721/ERC721.sol\":11360:11367  tokenId */\n      dup3\n        /* \".deps/npm/@openzeppelin/contracts/token/ERC721/ERC721.sol\":11345:11359  ERC721.ownerOf */\n      tag_52\n        /* \".deps/npm/@openzeppelin/contracts/token/ERC721/ERC721.sol\":11345:11368  ERC721.ownerOf(tokenId) */\n      jump\t// in\n    tag_119:\n        /* \".deps/npm/@openzeppelin/contracts/token/ERC721/ERC721.sol\":11345:11376  ERC721.ownerOf(tokenId) == from */\n      0xffffffffffffffffffffffffffffffffffffffff\n      and\n      eq\n        /* \".deps/npm/@openzeppelin/contracts/token/ERC721/ERC721.sol\":11337:11418  require(ERC721.ownerOf(tokenId) == from, \"ERC721: transfer from incorrect owner\") */\n      tag_120\n      jumpi\n      mload(0x40)\n      0x08c379a000000000000000000000000000000000000000000000000000000000\n      dup2\n      mstore\n      0x04\n      add\n      tag_121\n      swap1\n      tag_122\n      jump\t// in\n    tag_121:\n      mload(0x40)\n      dup1\n      swap2\n      sub\n      swap1\n      revert\n    tag_120:\n        /* \".deps/npm/@openzeppelin/contracts/token/ERC721/ERC721.sol\":11506:11548  _beforeTokenTransfer(from, to, tokenId, 1) */\n      tag_123\n        /* \".deps/npm/@openzeppelin/contracts/token/ERC721/ERC721.sol\":11527:11531  from */\n      dup4\n        /* \".deps/npm/@openzeppelin/contracts/token/ERC721/ERC721.sol\":11533:11535  to */\n      dup4\n        /* \".deps/npm/@openzeppelin/contracts/token/ERC721/ERC721.sol\":11537:11544  tokenId */\n      dup4\n        /* \".deps/npm/@openzeppelin/contracts/token/ERC721/ERC721.sol\":11546:11547  1 */\n      0x01\n        /* \".deps/npm/@openzeppelin/contracts/token/ERC721/ERC721.sol\":11506:11526  _beforeTokenTransfer */\n      tag_124\n        /* \".deps/npm/@openzeppelin/contracts/token/ERC721/ERC721.sol\":11506:11548  _beforeTokenTransfer(from, to, tokenId, 1) */\n      jump\t// in\n    tag_123:\n        /* \".deps/npm/@openzeppelin/contracts/token/ERC721/ERC721.sol\":11675:11679  from */\n      dup3\n        /* \".deps/npm/@openzeppelin/contracts/token/ERC721/ERC721.sol\":11648:11679  ERC721.ownerOf(tokenId) == from */\n      0xffffffffffffffffffffffffffffffffffffffff\n      and\n        /* \".deps/npm/@openzeppelin/contracts/token/ERC721/ERC721.sol\":11648:11671  ERC721.ownerOf(tokenId) */\n      tag_125\n        /* \".deps/npm/@openzeppelin/contracts/token/ERC721/ERC721.sol\":11663:11670  tokenId */\n      dup3\n        /* \".deps/npm/@openzeppelin/contracts/token/ERC721/ERC721.sol\":11648:11662  ERC721.ownerOf */\n      tag_52\n        /* \".deps/npm/@openzeppelin/contracts/token/ERC721/ERC721.sol\":11648:11671  ERC721.ownerOf(tokenId) */\n      jump\t// in\n    tag_125:\n        /* \".deps/npm/@openzeppelin/contracts/token/ERC721/ERC721.sol\":11648:11679  ERC721.ownerOf(tokenId) == from */\n      0xffffffffffffffffffffffffffffffffffffffff\n      and\n      eq\n        /* \".deps/npm/@openzeppelin/contracts/token/ERC721/ERC721.sol\":11640:11721  require(ERC721.ownerOf(tokenId) == from, \"ERC721: transfer from incorrect owner\") */\n      tag_126\n      jumpi\n      mload(0x40)\n      0x08c379a000000000000000000000000000000000000000000000000000000000\n      dup2\n      mstore\n      0x04\n      add\n      tag_127\n      swap1\n      tag_122\n      jump\t// in\n    tag_127:\n      mload(0x40)\n      dup1\n      swap2\n      sub\n      swap1\n      revert\n    tag_126:\n        /* \".deps/npm/@openzeppelin/contracts/token/ERC721/ERC721.sol\":11790:11805  _tokenApprovals */\n      0x04\n        /* \".deps/npm/@openzeppelin/contracts/token/ERC721/ERC721.sol\":11790:11814  _tokenApprovals[tokenId] */\n      0x00\n        /* \".deps/npm/@openzeppelin/contracts/token/ERC721/ERC721.sol\":11806:11813  tokenId */\n      dup3\n        /* \".deps/npm/@openzeppelin/contracts/token/ERC721/ERC721.sol\":11790:11814  _tokenApprovals[tokenId] */\n      dup2\n      mstore\n      0x20\n      add\n      swap1\n      dup2\n      mstore\n      0x20\n      add\n      0x00\n      keccak256\n      0x00\n        /* \".deps/npm/@openzeppelin/contracts/token/ERC721/ERC721.sol\":11783:11814  delete _tokenApprovals[tokenId] */\n      0x0100\n      exp\n      dup2\n      sload\n      swap1\n      0xffffffffffffffffffffffffffffffffffffffff\n      mul\n      not\n      and\n      swap1\n      sstore\n        /* \".deps/npm/@openzeppelin/contracts/token/ERC721/ERC721.sol\":12277:12278  1 */\n      0x01\n        /* \".deps/npm/@openzeppelin/contracts/token/ERC721/ERC721.sol\":12258:12267  _balances */\n      0x03\n        /* \".deps/npm/@openzeppelin/contracts/token/ERC721/ERC721.sol\":12258:12273  _balances[from] */\n      0x00\n        /* \".deps/npm/@openzeppelin/contracts/token/ERC721/ERC721.sol\":12268:12272  from */\n      dup6\n        /* \".deps/npm/@openzeppelin/contracts/token/ERC721/ERC721.sol\":12258:12273  _balances[from] */\n      0xffffffffffffffffffffffffffffffffffffffff\n      and\n      0xffffffffffffffffffffffffffffffffffffffff\n      and\n      dup2\n      mstore\n      0x20\n      add\n      swap1\n      dup2\n      mstore\n      0x20\n      add\n      0x00\n      keccak256\n      0x00\n        /* \".deps/npm/@openzeppelin/contracts/token/ERC721/ERC721.sol\":12258:12278  _balances[from] -= 1 */\n      dup3\n      dup3\n      sload\n      sub\n      swap3\n      pop\n      pop\n      dup2\n      swap1\n      sstore\n      pop\n        /* \".deps/npm/@openzeppelin/contracts/token/ERC721/ERC721.sol\":12309:12310  1 */\n      0x01\n        /* \".deps/npm/@openzeppelin/contracts/token/ERC721/ERC721.sol\":12292:12301  _balances */\n      0x03\n        /* \".deps/npm/@openzeppelin/contracts/token/ERC721/ERC721.sol\":12292:12305  _balances[to] */\n      0x00\n        /* \".deps/npm/@openzeppelin/contracts/token/ERC721/ERC721.sol\":12302:12304  to */\n      dup5\n        /* \".deps/npm/@openzeppelin/contracts/token/ERC721/ERC721.sol\":12292:12305  _balances[to] */\n      0xffffffffffffffffffffffffffffffffffffffff\n      and\n      0xffffffffffffffffffffffffffffffffffffffff\n      and\n      dup2\n      mstore\n      0x20\n      add\n      swap1\n      dup2\n      mstore\n      0x20\n      add\n      0x00\n      keccak256\n      0x00\n        /* \".deps/npm/@openzeppelin/contracts/token/ERC721/ERC721.sol\":12292:12310  _balances[to] += 1 */\n      dup3\n      dup3\n      sload\n      add\n      swap3\n      pop\n      pop\n      dup2\n      swap1\n      sstore\n      pop\n        /* \".deps/npm/@openzeppelin/contracts/token/ERC721/ERC721.sol\":12349:12351  to */\n      dup2\n        /* \".deps/npm/@openzeppelin/contracts/token/ERC721/ERC721.sol\":12330:12337  _owners */\n      0x02\n        /* \".deps/npm/@openzeppelin/contracts/token/ERC721/ERC721.sol\":12330:12346  _owners[tokenId] */\n      0x00\n        /* \".deps/npm/@openzeppelin/contracts/token/ERC721/ERC721.sol\":12338:12345  tokenId */\n      dup4\n        /* \".deps/npm/@openzeppelin/contracts/token/ERC721/ERC721.sol\":12330:12346  _owners[tokenId] */\n      dup2\n      mstore\n      0x20\n      add\n      swap1\n      dup2\n      mstore\n      0x20\n      add\n      0x00\n      keccak256\n      0x00\n        /* \".deps/npm/@openzeppelin/contracts/token/ERC721/ERC721.sol\":12330:12351  _owners[tokenId] = to */\n      0x0100\n      exp\n      dup2\n      sload\n      dup2\n      0xffffffffffffffffffffffffffffffffffffffff\n      mul\n      not\n      and\n      swap1\n      dup4\n      0xffffffffffffffffffffffffffffffffffffffff\n      and\n      mul\n      or\n      swap1\n      sstore\n      pop\n        /* \".deps/npm/@openzeppelin/contracts/token/ERC721/ERC721.sol\":12386:12393  tokenId */\n      dup1\n        /* \".deps/npm/@openzeppelin/contracts/token/ERC721/ERC721.sol\":12382:12384  to */\n      dup3\n        /* \".deps/npm/@openzeppelin/contracts/token/ERC721/ERC721.sol\":12367:12394  Transfer(from, to, tokenId) */\n      0xffffffffffffffffffffffffffffffffffffffff\n      and\n        /* \".deps/npm/@openzeppelin/contracts/token/ERC721/ERC721.sol\":12376:12380  from */\n      dup5\n        /* \".deps/npm/@openzeppelin/contracts/token/ERC721/ERC721.sol\":12367:12394  Transfer(from, to, tokenId) */\n      0xffffffffffffffffffffffffffffffffffffffff\n      and\n      0xddf252ad1be2c89b69c2b068fc378daa952ba7f163c4a11628f55a4df523b3ef\n      mload(0x40)\n      mload(0x40)\n      dup1\n      swap2\n      sub\n      swap1\n      log4\n        /* \".deps/npm/@openzeppelin/contracts/token/ERC721/ERC721.sol\":12405:12446  _afterTokenTransfer(from, to, tokenId, 1) */\n      tag_128\n        /* \".deps/npm/@openzeppelin/contracts/token/ERC721/ERC721.sol\":12425:12429  from */\n      dup4\n        /* \".deps/npm/@openzeppelin/contracts/token/ERC721/ERC721.sol\":12431:12433  to */\n      dup4\n        /* \".deps/npm/@openzeppelin/contracts/token/ERC721/ERC721.sol\":12435:12442  tokenId */\n      dup4\n        /* \".deps/npm/@openzeppelin/contracts/token/ERC721/ERC721.sol\":12444:12445  1 */\n      0x01\n        /* \".deps/npm/@openzeppelin/contracts/token/ERC721/ERC721.sol\":12405:12424  _afterTokenTransfer */\n      tag_129\n        /* \".deps/npm/@openzeppelin/contracts/token/ERC721/ERC721.sol\":12405:12446  _afterTokenTransfer(from, to, tokenId, 1) */\n      jump\t// in\n    tag_128:\n        /* \".deps/npm/@openzeppelin/contracts/token/ERC721/ERC721.sol\":11257:12453  function _transfer(address from, address to, uint256 tokenId) public  {... */\n      pop\n      pop\n      pop\n      jump\t// out\n        /* \".deps/npm/@openzeppelin/contracts/token/ERC721/ERC721.sol\":4974:5123  function safeTransferFrom(address from, address to, uint256 tokenId) public virtual override {... */\n    tag_49:\n        /* \".deps/npm/@openzeppelin/contracts/token/ERC721/ERC721.sol\":5077:5116  safeTransferFrom(from, to, tokenId, \"\") */\n      tag_131\n        /* \".deps/npm/@openzeppelin/contracts/token/ERC721/ERC721.sol\":5094:5098  from */\n      dup4\n        /* \".deps/npm/@openzeppelin/contracts/token/ERC721/ERC721.sol\":5100:5102  to */\n      dup4\n        /* \".deps/npm/@openzeppelin/contracts/token/ERC721/ERC721.sol\":5104:5111  tokenId */\n      dup4\n        /* \".deps/npm/@openzeppelin/contracts/token/ERC721/ERC721.sol\":5077:5116  safeTransferFrom(from, to, tokenId, \"\") */\n      mload(0x40)\n      dup1\n      0x20\n      add\n      0x40\n      mstore\n      dup1\n      0x00\n      dup2\n      mstore\n      pop\n        /* \".deps/npm/@openzeppelin/contracts/token/ERC721/ERC721.sol\":5077:5093  safeTransferFrom */\n      tag_70\n        /* \".deps/npm/@openzeppelin/contracts/token/ERC721/ERC721.sol\":5077:5116  safeTransferFrom(from, to, tokenId, \"\") */\n      jump\t// in\n    tag_131:\n        /* \".deps/npm/@openzeppelin/contracts/token/ERC721/ERC721.sol\":4974:5123  function safeTransferFrom(address from, address to, uint256 tokenId) public virtual override {... */\n      pop\n      pop\n      pop\n      jump\t// out\n        /* \".deps/npm/@openzeppelin/contracts/token/ERC721/ERC721.sol\":2190:2409  function ownerOf(uint256 tokenId) public view virtual override returns (address) {... */\n    tag_52:\n        /* \".deps/npm/@openzeppelin/contracts/token/ERC721/ERC721.sol\":2262:2269  address */\n      0x00\n        /* \".deps/npm/@openzeppelin/contracts/token/ERC721/ERC721.sol\":2281:2294  address owner */\n      dup1\n        /* \".deps/npm/@openzeppelin/contracts/token/ERC721/ERC721.sol\":2297:2314  _ownerOf(tokenId) */\n      tag_133\n        /* \".deps/npm/@openzeppelin/contracts/token/ERC721/ERC721.sol\":2306:2313  tokenId */\n      dup4\n        /* \".deps/npm/@openzeppelin/contracts/token/ERC721/ERC721.sol\":2297:2305  _ownerOf */\n      tag_134\n        /* \".deps/npm/@openzeppelin/contracts/token/ERC721/ERC721.sol\":2297:2314  _ownerOf(tokenId) */\n      jump\t// in\n    tag_133:\n        /* \".deps/npm/@openzeppelin/contracts/token/ERC721/ERC721.sol\":2281:2314  address owner = _ownerOf(tokenId) */\n      swap1\n      pop\n        /* \".deps/npm/@openzeppelin/contracts/token/ERC721/ERC721.sol\":2349:2350  0 */\n      0x00\n        /* \".deps/npm/@openzeppelin/contracts/token/ERC721/ERC721.sol\":2332:2351  owner != address(0) */\n      0xffffffffffffffffffffffffffffffffffffffff\n      and\n        /* \".deps/npm/@openzeppelin/contracts/token/ERC721/ERC721.sol\":2332:2337  owner */\n      dup2\n        /* \".deps/npm/@openzeppelin/contracts/token/ERC721/ERC721.sol\":2332:2351  owner != address(0) */\n      0xffffffffffffffffffffffffffffffffffffffff\n      and\n      sub\n        /* \".deps/npm/@openzeppelin/contracts/token/ERC721/ERC721.sol\":2324:2380  require(owner != address(0), \"ERC721: invalid token ID\") */\n      tag_135\n      jumpi\n      mload(0x40)\n      0x08c379a000000000000000000000000000000000000000000000000000000000\n      dup2\n      mstore\n      0x04\n      add\n      tag_136\n      swap1\n      tag_137\n      jump\t// in\n    tag_136:\n      mload(0x40)\n      dup1\n      swap2\n      sub\n      swap1\n      revert\n    tag_135:\n        /* \".deps/npm/@openzeppelin/contracts/token/ERC721/ERC721.sol\":2397:2402  owner */\n      dup1\n        /* \".deps/npm/@openzeppelin/contracts/token/ERC721/ERC721.sol\":2390:2402  return owner */\n      swap2\n      pop\n      pop\n        /* \".deps/npm/@openzeppelin/contracts/token/ERC721/ERC721.sol\":2190:2409  function ownerOf(uint256 tokenId) public view virtual override returns (address) {... */\n      swap2\n      swap1\n      pop\n      jump\t// out\n        /* \".deps/npm/@openzeppelin/contracts/token/ERC721/ERC721.sol\":1929:2133  function balanceOf(address owner) public view virtual override returns (uint256) {... */\n    tag_57:\n        /* \".deps/npm/@openzeppelin/contracts/token/ERC721/ERC721.sol\":2001:2008  uint256 */\n      0x00\n        /* \".deps/npm/@openzeppelin/contracts/token/ERC721/ERC721.sol\":2045:2046  0 */\n      dup1\n        /* \".deps/npm/@openzeppelin/contracts/token/ERC721/ERC721.sol\":2028:2047  owner != address(0) */\n      0xffffffffffffffffffffffffffffffffffffffff\n      and\n        /* \".deps/npm/@openzeppelin/contracts/token/ERC721/ERC721.sol\":2028:2033  owner */\n      dup3\n        /* \".deps/npm/@openzeppelin/contracts/token/ERC721/ERC721.sol\":2028:2047  owner != address(0) */\n      0xffffffffffffffffffffffffffffffffffffffff\n      and\n      sub\n        /* \".deps/npm/@openzeppelin/contracts/token/ERC721/ERC721.sol\":2020:2093  require(owner != address(0), \"ERC721: address zero is not a valid owner\") */\n      tag_139\n      jumpi\n      mload(0x40)\n      0x08c379a000000000000000000000000000000000000000000000000000000000\n      dup2\n      mstore\n      0x04\n      add\n      tag_140\n      swap1\n      tag_141\n      jump\t// in\n    tag_140:\n      mload(0x40)\n      dup1\n      swap2\n      sub\n      swap1\n      revert\n    tag_139:\n        /* \".deps/npm/@openzeppelin/contracts/token/ERC721/ERC721.sol\":2110:2119  _balances */\n      0x03\n        /* \".deps/npm/@openzeppelin/contracts/token/ERC721/ERC721.sol\":2110:2126  _balances[owner] */\n      0x00\n        /* \".deps/npm/@openzeppelin/contracts/token/ERC721/ERC721.sol\":2120:2125  owner */\n      dup4\n        /* \".deps/npm/@openzeppelin/contracts/token/ERC721/ERC721.sol\":2110:2126  _balances[owner] */\n      0xffffffffffffffffffffffffffffffffffffffff\n      and\n      0xffffffffffffffffffffffffffffffffffffffff\n      and\n      dup2\n      mstore\n      0x20\n      add\n      swap1\n      dup2\n      mstore\n      0x20\n      add\n      0x00\n      keccak256\n      sload\n        /* \".deps/npm/@openzeppelin/contracts/token/ERC721/ERC721.sol\":2103:2126  return _balances[owner] */\n      swap1\n      pop\n        /* \".deps/npm/@openzeppelin/contracts/token/ERC721/ERC721.sol\":1929:2133  function balanceOf(address owner) public view virtual override returns (uint256) {... */\n      swap2\n      swap1\n      pop\n      jump\t// out\n        /* \".deps/npm/@openzeppelin/contracts/token/ERC721/ERC721.sol\":2633:2735  function symbol() public view virtual override returns (string memory) {... */\n    tag_61:\n        /* \".deps/npm/@openzeppelin/contracts/token/ERC721/ERC721.sol\":2689:2702  string memory */\n      0x60\n        /* \".deps/npm/@openzeppelin/contracts/token/ERC721/ERC721.sol\":2721:2728  _symbol */\n      0x01\n        /* \".deps/npm/@openzeppelin/contracts/token/ERC721/ERC721.sol\":2714:2728  return _symbol */\n      dup1\n      sload\n      tag_143\n      swap1\n      tag_87\n      jump\t// in\n    tag_143:\n      dup1\n      0x1f\n      add\n      0x20\n      dup1\n      swap2\n      div\n      mul\n      0x20\n      add\n      mload(0x40)\n      swap1\n      dup2\n      add\n      0x40\n      mstore\n      dup1\n      swap3\n      swap2\n      swap1\n      dup2\n      dup2\n      mstore\n      0x20\n      add\n      dup3\n      dup1\n      sload\n      tag_144\n      swap1\n      tag_87\n      jump\t// in\n    tag_144:\n      dup1\n      iszero\n      tag_145\n      jumpi\n      dup1\n      0x1f\n      lt\n      tag_146\n      jumpi\n      0x0100\n      dup1\n      dup4\n      sload\n      div\n      mul\n      dup4\n      mstore\n      swap2\n      0x20\n      add\n      swap2\n      jump(tag_145)\n    tag_146:\n      dup3\n      add\n      swap2\n      swap1\n      0x00\n      mstore\n      keccak256(0x00, 0x20)\n      swap1\n    tag_147:\n      dup2\n      sload\n      dup2\n      mstore\n      swap1\n      0x01\n      add\n      swap1\n      0x20\n      add\n      dup1\n      dup4\n      gt\n      tag_147\n      jumpi\n      dup3\n      swap1\n      sub\n      0x1f\n      and\n      dup3\n      add\n      swap2\n    tag_145:\n      pop\n      pop\n      pop\n      pop\n      pop\n      swap1\n      pop\n        /* \".deps/npm/@openzeppelin/contracts/token/ERC721/ERC721.sol\":2633:2735  function symbol() public view virtual override returns (string memory) {... */\n      swap1\n      jump\t// out\n        /* \".deps/npm/@openzeppelin/contracts/token/ERC721/ERC721.sol\":4169:4322  function setApprovalForAll(address operator, bool approved) public virtual override {... */\n    tag_66:\n        /* \".deps/npm/@openzeppelin/contracts/token/ERC721/ERC721.sol\":4263:4315  _setApprovalForAll(_msgSender(), operator, approved) */\n      tag_149\n        /* \".deps/npm/@openzeppelin/contracts/token/ERC721/ERC721.sol\":4282:4294  _msgSender() */\n      tag_150\n        /* \".deps/npm/@openzeppelin/contracts/token/ERC721/ERC721.sol\":4282:4292  _msgSender */\n      tag_101\n        /* \".deps/npm/@openzeppelin/contracts/token/ERC721/ERC721.sol\":4282:4294  _msgSender() */\n      jump\t// in\n    tag_150:\n        /* \".deps/npm/@openzeppelin/contracts/token/ERC721/ERC721.sol\":4296:4304  operator */\n      dup4\n        /* \".deps/npm/@openzeppelin/contracts/token/ERC721/ERC721.sol\":4306:4314  approved */\n      dup4\n        /* \".deps/npm/@openzeppelin/contracts/token/ERC721/ERC721.sol\":4263:4281  _setApprovalForAll */\n      tag_151\n        /* \".deps/npm/@openzeppelin/contracts/token/ERC721/ERC721.sol\":4263:4315  _setApprovalForAll(_msgSender(), operator, approved) */\n      jump\t// in\n    tag_149:\n        /* \".deps/npm/@openzeppelin/contracts/token/ERC721/ERC721.sol\":4169:4322  function setApprovalForAll(address operator, bool approved) public virtual override {... */\n      pop\n      pop\n      jump\t// out\n        /* \".deps/npm/@openzeppelin/contracts/token/ERC721/ERC721.sol\":5189:5465  function safeTransferFrom(address from, address to, uint256 tokenId, bytes memory data) public virtual override {... */\n    tag_70:\n        /* \".deps/npm/@openzeppelin/contracts/token/ERC721/ERC721.sol\":5319:5360  _isApprovedOrOwner(_msgSender(), tokenId) */\n      tag_153\n        /* \".deps/npm/@openzeppelin/contracts/token/ERC721/ERC721.sol\":5338:5350  _msgSender() */\n      tag_154\n        /* \".deps/npm/@openzeppelin/contracts/token/ERC721/ERC721.sol\":5338:5348  _msgSender */\n      tag_101\n        /* \".deps/npm/@openzeppelin/contracts/token/ERC721/ERC721.sol\":5338:5350  _msgSender() */\n      jump\t// in\n    tag_154:\n        /* \".deps/npm/@openzeppelin/contracts/token/ERC721/ERC721.sol\":5352:5359  tokenId */\n      dup4\n        /* \".deps/npm/@openzeppelin/contracts/token/ERC721/ERC721.sol\":5319:5337  _isApprovedOrOwner */\n      tag_113\n        /* \".deps/npm/@openzeppelin/contracts/token/ERC721/ERC721.sol\":5319:5360  _isApprovedOrOwner(_msgSender(), tokenId) */\n      jump\t// in\n    tag_153:\n        /* \".deps/npm/@openzeppelin/contracts/token/ERC721/ERC721.sol\":5311:5410  require(_isApprovedOrOwner(_msgSender(), tokenId), \"ERC721: caller is not token owner or approved\") */\n      tag_155\n      jumpi\n      mload(0x40)\n      0x08c379a000000000000000000000000000000000000000000000000000000000\n      dup2\n      mstore\n      0x04\n      add\n      tag_156\n      swap1\n      tag_116\n      jump\t// in\n    tag_156:\n      mload(0x40)\n      dup1\n      swap2\n      sub\n      swap1\n      revert\n    tag_155:\n        /* \".deps/npm/@openzeppelin/contracts/token/ERC721/ERC721.sol\":5420:5458  _safeTransfer(from, to, tokenId, data) */\n      tag_157\n        /* \".deps/npm/@openzeppelin/contracts/token/ERC721/ERC721.sol\":5434:5438  from */\n      dup5\n        /* \".deps/npm/@openzeppelin/contracts/token/ERC721/ERC721.sol\":5440:5442  to */\n      dup5\n        /* \".deps/npm/@openzeppelin/contracts/token/ERC721/ERC721.sol\":5444:5451  tokenId */\n      dup5\n        /* \".deps/npm/@openzeppelin/contracts/token/ERC721/ERC721.sol\":5453:5457  data */\n      dup5\n        /* \".deps/npm/@openzeppelin/contracts/token/ERC721/ERC721.sol\":5420:5433  _safeTransfer */\n      tag_158\n        /* \".deps/npm/@openzeppelin/contracts/token/ERC721/ERC721.sol\":5420:5458  _safeTransfer(from, to, tokenId, data) */\n      jump\t// in\n    tag_157:\n        /* \".deps/npm/@openzeppelin/contracts/token/ERC721/ERC721.sol\":5189:5465  function safeTransferFrom(address from, address to, uint256 tokenId, bytes memory data) public virtual override {... */\n      pop\n      pop\n      pop\n      pop\n      jump\t// out\n        /* \".deps/npm/@openzeppelin/contracts/token/ERC721/ERC721.sol\":2801:3077  function tokenURI(uint256 tokenId) public view virtual override returns (string memory) {... */\n    tag_73:\n        /* \".deps/npm/@openzeppelin/contracts/token/ERC721/ERC721.sol\":2874:2887  string memory */\n      0x60\n        /* \".deps/npm/@openzeppelin/contracts/token/ERC721/ERC721.sol\":2899:2922  _requireMinted(tokenId) */\n      tag_160\n        /* \".deps/npm/@openzeppelin/contracts/token/ERC721/ERC721.sol\":2914:2921  tokenId */\n      dup3\n        /* \".deps/npm/@openzeppelin/contracts/token/ERC721/ERC721.sol\":2899:2913  _requireMinted */\n      tag_94\n        /* \".deps/npm/@openzeppelin/contracts/token/ERC721/ERC721.sol\":2899:2922  _requireMinted(tokenId) */\n      jump\t// in\n    tag_160:\n        /* \".deps/npm/@openzeppelin/contracts/token/ERC721/ERC721.sol\":2933:2954  string memory baseURI */\n      0x00\n        /* \".deps/npm/@openzeppelin/contracts/token/ERC721/ERC721.sol\":2957:2967  _baseURI() */\n      tag_161\n        /* \".deps/npm/@openzeppelin/contracts/token/ERC721/ERC721.sol\":2957:2965  _baseURI */\n      tag_162\n        /* \".deps/npm/@openzeppelin/contracts/token/ERC721/ERC721.sol\":2957:2967  _baseURI() */\n      jump\t// in\n    tag_161:\n        /* \".deps/npm/@openzeppelin/contracts/token/ERC721/ERC721.sol\":2933:2967  string memory baseURI = _baseURI() */\n      swap1\n      pop\n        /* \".deps/npm/@openzeppelin/contracts/token/ERC721/ERC721.sol\":3008:3009  0 */\n      0x00\n        /* \".deps/npm/@openzeppelin/contracts/token/ERC721/ERC721.sol\":2990:2997  baseURI */\n      dup2\n        /* \".deps/npm/@openzeppelin/contracts/token/ERC721/ERC721.sol\":2984:3005  bytes(baseURI).length */\n      mload\n        /* \".deps/npm/@openzeppelin/contracts/token/ERC721/ERC721.sol\":2984:3009  bytes(baseURI).length > 0 */\n      gt\n        /* \".deps/npm/@openzeppelin/contracts/token/ERC721/ERC721.sol\":2984:3070  bytes(baseURI).length > 0 ? string(abi.encodePacked(baseURI, tokenId.toString())) : \"\" */\n      tag_163\n      jumpi\n      mload(0x40)\n      dup1\n      0x20\n      add\n      0x40\n      mstore\n      dup1\n      0x00\n      dup2\n      mstore\n      pop\n      jump(tag_164)\n    tag_163:\n        /* \".deps/npm/@openzeppelin/contracts/token/ERC721/ERC721.sol\":3036:3043  baseURI */\n      dup1\n        /* \".deps/npm/@openzeppelin/contracts/token/ERC721/ERC721.sol\":3045:3063  tokenId.toString() */\n      tag_165\n        /* \".deps/npm/@openzeppelin/contracts/token/ERC721/ERC721.sol\":3045:3052  tokenId */\n      dup5\n        /* \".deps/npm/@openzeppelin/contracts/token/ERC721/ERC721.sol\":3045:3061  tokenId.toString */\n      tag_166\n        /* \".deps/npm/@openzeppelin/contracts/token/ERC721/ERC721.sol\":3045:3063  tokenId.toString() */\n      jump\t// in\n    tag_165:\n        /* \".deps/npm/@openzeppelin/contracts/token/ERC721/ERC721.sol\":3019:3064  abi.encodePacked(baseURI, tokenId.toString()) */\n      add(0x20, mload(0x40))\n      tag_167\n      swap3\n      swap2\n      swap1\n      tag_168\n      jump\t// in\n    tag_167:\n      mload(0x40)\n      0x20\n      dup2\n      dup4\n      sub\n      sub\n      dup2\n      mstore\n      swap1\n      0x40\n      mstore\n        /* \".deps/npm/@openzeppelin/contracts/token/ERC721/ERC721.sol\":2984:3070  bytes(baseURI).length > 0 ? string(abi.encodePacked(baseURI, tokenId.toString())) : \"\" */\n    tag_164:\n        /* \".deps/npm/@openzeppelin/contracts/token/ERC721/ERC721.sol\":2977:3070  return bytes(baseURI).length > 0 ? string(abi.encodePacked(baseURI, tokenId.toString())) : \"\" */\n      swap2\n      pop\n      pop\n        /* \".deps/npm/@openzeppelin/contracts/token/ERC721/ERC721.sol\":2801:3077  function tokenURI(uint256 tokenId) public view virtual override returns (string memory) {... */\n      swap2\n      swap1\n      pop\n      jump\t// out\n        /* \".deps/npm/@openzeppelin/contracts/token/ERC721/ERC721.sol\":4388:4550  function isApprovedForAll(address owner, address operator) public view virtual override returns (bool) {... */\n    tag_78:\n        /* \".deps/npm/@openzeppelin/contracts/token/ERC721/ERC721.sol\":4485:4489  bool */\n      0x00\n        /* \".deps/npm/@openzeppelin/contracts/token/ERC721/ERC721.sol\":4508:4526  _operatorApprovals */\n      0x05\n        /* \".deps/npm/@openzeppelin/contracts/token/ERC721/ERC721.sol\":4508:4533  _operatorApprovals[owner] */\n      0x00\n        /* \".deps/npm/@openzeppelin/contracts/token/ERC721/ERC721.sol\":4527:4532  owner */\n      dup5\n        /* \".deps/npm/@openzeppelin/contracts/token/ERC721/ERC721.sol\":4508:4533  _operatorApprovals[owner] */\n      0xffffffffffffffffffffffffffffffffffffffff\n      and\n      0xffffffffffffffffffffffffffffffffffffffff\n      and\n      dup2\n      mstore\n      0x20\n      add\n      swap1\n      dup2\n      mstore\n      0x20\n      add\n      0x00\n      keccak256\n        /* \".deps/npm/@openzeppelin/contracts/token/ERC721/ERC721.sol\":4508:4543  _operatorApprovals[owner][operator] */\n      0x00\n        /* \".deps/npm/@openzeppelin/contracts/token/ERC721/ERC721.sol\":4534:4542  operator */\n      dup4\n        /* \".deps/npm/@openzeppelin/contracts/token/ERC721/ERC721.sol\":4508:4543  _operatorApprovals[owner][operator] */\n      0xffffffffffffffffffffffffffffffffffffffff\n      and\n      0xffffffffffffffffffffffffffffffffffffffff\n      and\n      dup2\n      mstore\n      0x20\n      add\n      swap1\n      dup2\n      mstore\n      0x20\n      add\n      0x00\n      keccak256\n      0x00\n      swap1\n      sload\n      swap1\n      0x0100\n      exp\n      swap1\n      div\n      0xff\n      and\n        /* \".deps/npm/@openzeppelin/contracts/token/ERC721/ERC721.sol\":4501:4543  return _operatorApprovals[owner][operator] */\n      swap1\n      pop\n        /* \".deps/npm/@openzeppelin/contracts/token/ERC721/ERC721.sol\":4388:4550  function isApprovedForAll(address owner, address operator) public view virtual override returns (bool) {... */\n      swap3\n      swap2\n      pop\n      pop\n      jump\t// out\n        /* \".deps/npm/@openzeppelin/contracts/utils/introspection/ERC165.sol\":829:984  function supportsInterface(bytes4 interfaceId) public view virtual override returns (bool) {... */\n    tag_84:\n        /* \".deps/npm/@openzeppelin/contracts/utils/introspection/ERC165.sol\":914:918  bool */\n      0x00\n        /* \".deps/npm/@openzeppelin/contracts/utils/introspection/ERC165.sol\":952:977  type(IERC165).interfaceId */\n      0x01ffc9a700000000000000000000000000000000000000000000000000000000\n        /* \".deps/npm/@openzeppelin/contracts/utils/introspection/ERC165.sol\":937:977  interfaceId == type(IERC165).interfaceId */\n      not(0xffffffffffffffffffffffffffffffffffffffffffffffffffffffff)\n      and\n        /* \".deps/npm/@openzeppelin/contracts/utils/introspection/ERC165.sol\":937:948  interfaceId */\n      dup3\n        /* \".deps/npm/@openzeppelin/contracts/utils/introspection/ERC165.sol\":937:977  interfaceId == type(IERC165).interfaceId */\n      not(0xffffffffffffffffffffffffffffffffffffffffffffffffffffffff)\n      and\n      eq\n        /* \".deps/npm/@openzeppelin/contracts/utils/introspection/ERC165.sol\":930:977  return interfaceId == type(IERC165).interfaceId */\n      swap1\n      pop\n        /* \".deps/npm/@openzeppelin/contracts/utils/introspection/ERC165.sol\":829:984  function supportsInterface(bytes4 interfaceId) public view virtual override returns (bool) {... */\n      swap2\n      swap1\n      pop\n      jump\t// out\n        /* \".deps/npm/@openzeppelin/contracts/token/ERC721/ERC721.sol\":13233:13366  function _requireMinted(uint256 tokenId) internal view virtual {... */\n    tag_94:\n        /* \".deps/npm/@openzeppelin/contracts/token/ERC721/ERC721.sol\":13314:13330  _exists(tokenId) */\n      tag_172\n        /* \".deps/npm/@openzeppelin/contracts/token/ERC721/ERC721.sol\":13322:13329  tokenId */\n      dup2\n        /* \".deps/npm/@openzeppelin/contracts/token/ERC721/ERC721.sol\":13314:13321  _exists */\n      tag_173\n        /* \".deps/npm/@openzeppelin/contracts/token/ERC721/ERC721.sol\":13314:13330  _exists(tokenId) */\n      jump\t// in\n    tag_172:\n        /* \".deps/npm/@openzeppelin/contracts/token/ERC721/ERC721.sol\":13306:13359  require(_exists(tokenId), \"ERC721: invalid token ID\") */\n      tag_174\n      jumpi\n      mload(0x40)\n      0x08c379a000000000000000000000000000000000000000000000000000000000\n      dup2\n      mstore\n      0x04\n      add\n      tag_175\n      swap1\n      tag_137\n      jump\t// in\n    tag_175:\n      mload(0x40)\n      dup1\n      swap2\n      sub\n      swap1\n      revert\n    tag_174:\n        /* \".deps/npm/@openzeppelin/contracts/token/ERC721/ERC721.sol\":13233:13366  function _requireMinted(uint256 tokenId) internal view virtual {... */\n      pop\n      jump\t// out\n        /* \".deps/npm/@openzeppelin/contracts/utils/Context.sol\":640:736  function _msgSender() internal view virtual returns (address) {... */\n    tag_101:\n        /* \".deps/npm/@openzeppelin/contracts/utils/Context.sol\":693:700  address */\n      0x00\n        /* \".deps/npm/@openzeppelin/contracts/utils/Context.sol\":719:729  msg.sender */\n      caller\n        /* \".deps/npm/@openzeppelin/contracts/utils/Context.sol\":712:729  return msg.sender */\n      swap1\n      pop\n        /* \".deps/npm/@openzeppelin/contracts/utils/Context.sol\":640:736  function _msgSender() internal view virtual returns (address) {... */\n      swap1\n      jump\t// out\n        /* \".deps/npm/@openzeppelin/contracts/token/ERC721/ERC721.sol\":12565:12736  function _approve(address to, uint256 tokenId) internal virtual {... */\n    tag_109:\n        /* \".deps/npm/@openzeppelin/contracts/token/ERC721/ERC721.sol\":12666:12668  to */\n      dup2\n        /* \".deps/npm/@openzeppelin/contracts/token/ERC721/ERC721.sol\":12639:12654  _tokenApprovals */\n      0x04\n        /* \".deps/npm/@openzeppelin/contracts/token/ERC721/ERC721.sol\":12639:12663  _tokenApprovals[tokenId] */\n      0x00\n        /* \".deps/npm/@openzeppelin/contracts/token/ERC721/ERC721.sol\":12655:12662  tokenId */\n      dup4\n        /* \".deps/npm/@openzeppelin/contracts/token/ERC721/ERC721.sol\":12639:12663  _tokenApprovals[tokenId] */\n      dup2\n      mstore\n      0x20\n      add\n      swap1\n      dup2\n      mstore\n      0x20\n      add\n      0x00\n      keccak256\n      0x00\n        /* \".deps/npm/@openzeppelin/contracts/token/ERC721/ERC721.sol\":12639:12668  _tokenApprovals[tokenId] = to */\n      0x0100\n      exp\n      dup2\n      sload\n      dup2\n      0xffffffffffffffffffffffffffffffffffffffff\n      mul\n      not\n      and\n      swap1\n      dup4\n      0xffffffffffffffffffffffffffffffffffffffff\n      and\n      mul\n      or\n      swap1\n      sstore\n      pop\n        /* \".deps/npm/@openzeppelin/contracts/token/ERC721/ERC721.sol\":12721:12728  tokenId */\n      dup1\n        /* \".deps/npm/@openzeppelin/contracts/token/ERC721/ERC721.sol\":12717:12719  to */\n      dup3\n        /* \".deps/npm/@openzeppelin/contracts/token/ERC721/ERC721.sol\":12683:12729  Approval(ERC721.ownerOf(tokenId), to, tokenId) */\n      0xffffffffffffffffffffffffffffffffffffffff\n      and\n        /* \".deps/npm/@openzeppelin/contracts/token/ERC721/ERC721.sol\":12692:12715  ERC721.ownerOf(tokenId) */\n      tag_178\n        /* \".deps/npm/@openzeppelin/contracts/token/ERC721/ERC721.sol\":12707:12714  tokenId */\n      dup4\n        /* \".deps/npm/@openzeppelin/contracts/token/ERC721/ERC721.sol\":12692:12706  ERC721.ownerOf */\n      tag_52\n        /* \".deps/npm/@openzeppelin/contracts/token/ERC721/ERC721.sol\":12692:12715  ERC721.ownerOf(tokenId) */\n      jump\t// in\n    tag_178:\n        /* \".deps/npm/@openzeppelin/contracts/token/ERC721/ERC721.sol\":12683:12729  Approval(ERC721.ownerOf(tokenId), to, tokenId) */\n      0xffffffffffffffffffffffffffffffffffffffff\n      and\n      0x8c5be1e5ebec7d5bd14f71427d1e84f3dd0314c0f7b2291e5b200ac8c7c3b925\n      mload(0x40)\n      mload(0x40)\n      dup1\n      swap2\n      sub\n      swap1\n      log4\n        /* \".deps/npm/@openzeppelin/contracts/token/ERC721/ERC721.sol\":12565:12736  function _approve(address to, uint256 tokenId) internal virtual {... */\n      pop\n      pop\n      jump\t// out\n        /* \".deps/npm/@openzeppelin/contracts/token/ERC721/ERC721.sol\":7404:7665  function _isApprovedOrOwner(address spender, uint256 tokenId) internal view virtual returns (bool) {... */\n    tag_113:\n        /* \".deps/npm/@openzeppelin/contracts/token/ERC721/ERC721.sol\":7497:7501  bool */\n      0x00\n        /* \".deps/npm/@openzeppelin/contracts/token/ERC721/ERC721.sol\":7513:7526  address owner */\n      dup1\n        /* \".deps/npm/@openzeppelin/contracts/token/ERC721/ERC721.sol\":7529:7552  ERC721.ownerOf(tokenId) */\n      tag_180\n        /* \".deps/npm/@openzeppelin/contracts/token/ERC721/ERC721.sol\":7544:7551  tokenId */\n      dup4\n        /* \".deps/npm/@openzeppelin/contracts/token/ERC721/ERC721.sol\":7529:7543  ERC721.ownerOf */\n      tag_52\n        /* \".deps/npm/@openzeppelin/contracts/token/ERC721/ERC721.sol\":7529:7552  ERC721.ownerOf(tokenId) */\n      jump\t// in\n    tag_180:\n        /* \".deps/npm/@openzeppelin/contracts/token/ERC721/ERC721.sol\":7513:7552  address owner = ERC721.ownerOf(tokenId) */\n      swap1\n      pop\n        /* \".deps/npm/@openzeppelin/contracts/token/ERC721/ERC721.sol\":7581:7586  owner */\n      dup1\n        /* \".deps/npm/@openzeppelin/contracts/token/ERC721/ERC721.sol\":7570:7586  spender == owner */\n      0xffffffffffffffffffffffffffffffffffffffff\n      and\n        /* \".deps/npm/@openzeppelin/contracts/token/ERC721/ERC721.sol\":7570:7577  spender */\n      dup5\n        /* \".deps/npm/@openzeppelin/contracts/token/ERC721/ERC721.sol\":7570:7586  spender == owner */\n      0xffffffffffffffffffffffffffffffffffffffff\n      and\n      eq\n        /* \".deps/npm/@openzeppelin/contracts/token/ERC721/ERC721.sol\":7570:7622  spender == owner || isApprovedForAll(owner, spender) */\n      dup1\n      tag_181\n      jumpi\n      pop\n        /* \".deps/npm/@openzeppelin/contracts/token/ERC721/ERC721.sol\":7590:7622  isApprovedForAll(owner, spender) */\n      tag_182\n        /* \".deps/npm/@openzeppelin/contracts/token/ERC721/ERC721.sol\":7607:7612  owner */\n      dup2\n        /* \".deps/npm/@openzeppelin/contracts/token/ERC721/ERC721.sol\":7614:7621  spender */\n      dup6\n        /* \".deps/npm/@openzeppelin/contracts/token/ERC721/ERC721.sol\":7590:7606  isApprovedForAll */\n      tag_78\n        /* \".deps/npm/@openzeppelin/contracts/token/ERC721/ERC721.sol\":7590:7622  isApprovedForAll(owner, spender) */\n      jump\t// in\n    tag_182:\n        /* \".deps/npm/@openzeppelin/contracts/token/ERC721/ERC721.sol\":7570:7622  spender == owner || isApprovedForAll(owner, spender) */\n    tag_181:\n        /* \".deps/npm/@openzeppelin/contracts/token/ERC721/ERC721.sol\":7570:7657  spender == owner || isApprovedForAll(owner, spender) || getApproved(tokenId) == spender */\n      dup1\n      tag_183\n      jumpi\n      pop\n        /* \".deps/npm/@openzeppelin/contracts/token/ERC721/ERC721.sol\":7650:7657  spender */\n      dup4\n        /* \".deps/npm/@openzeppelin/contracts/token/ERC721/ERC721.sol\":7626:7657  getApproved(tokenId) == spender */\n      0xffffffffffffffffffffffffffffffffffffffff\n      and\n        /* \".deps/npm/@openzeppelin/contracts/token/ERC721/ERC721.sol\":7626:7646  getApproved(tokenId) */\n      tag_184\n        /* \".deps/npm/@openzeppelin/contracts/token/ERC721/ERC721.sol\":7638:7645  tokenId */\n      dup5\n        /* \".deps/npm/@openzeppelin/contracts/token/ERC721/ERC721.sol\":7626:7637  getApproved */\n      tag_33\n        /* \".deps/npm/@openzeppelin/contracts/token/ERC721/ERC721.sol\":7626:7646  getApproved(tokenId) */\n      jump\t// in\n    tag_184:\n        /* \".deps/npm/@openzeppelin/contracts/token/ERC721/ERC721.sol\":7626:7657  getApproved(tokenId) == spender */\n      0xffffffffffffffffffffffffffffffffffffffff\n      and\n      eq\n        /* \".deps/npm/@openzeppelin/contracts/token/ERC721/ERC721.sol\":7570:7657  spender == owner || isApprovedForAll(owner, spender) || getApproved(tokenId) == spender */\n    tag_183:\n        /* \".deps/npm/@openzeppelin/contracts/token/ERC721/ERC721.sol\":7562:7658  return (spender == owner || isApprovedForAll(owner, spender) || getApproved(tokenId) == spender) */\n      swap2\n      pop\n      pop\n        /* \".deps/npm/@openzeppelin/contracts/token/ERC721/ERC721.sol\":7404:7665  function _isApprovedOrOwner(address spender, uint256 tokenId) internal view virtual returns (bool) {... */\n      swap3\n      swap2\n      pop\n      pop\n      jump\t// out\n        /* \".deps/npm/@openzeppelin/contracts/token/ERC721/ERC721.sol\":15465:15581  function _beforeTokenTransfer(address from, address to, uint256 firstTokenId, uint256 batchSize) internal virtual {} */\n    tag_124:\n      pop\n      pop\n      pop\n      pop\n      jump\t// out\n        /* \".deps/npm/@openzeppelin/contracts/token/ERC721/ERC721.sol\":16287:16402  function _afterTokenTransfer(address from, address to, uint256 firstTokenId, uint256 batchSize) internal virtual {} */\n    tag_129:\n      pop\n      pop\n      pop\n      pop\n      jump\t// out\n        /* \".deps/npm/@openzeppelin/contracts/token/ERC721/ERC721.sol\":6702:6817  function _ownerOf(uint256 tokenId) internal view virtual returns (address) {... */\n    tag_134:\n        /* \".deps/npm/@openzeppelin/contracts/token/ERC721/ERC721.sol\":6768:6775  address */\n      0x00\n        /* \".deps/npm/@openzeppelin/contracts/token/ERC721/ERC721.sol\":6794:6801  _owners */\n      0x02\n        /* \".deps/npm/@openzeppelin/contracts/token/ERC721/ERC721.sol\":6794:6810  _owners[tokenId] */\n      0x00\n        /* \".deps/npm/@openzeppelin/contracts/token/ERC721/ERC721.sol\":6802:6809  tokenId */\n      dup4\n        /* \".deps/npm/@openzeppelin/contracts/token/ERC721/ERC721.sol\":6794:6810  _owners[tokenId] */\n      dup2\n      mstore\n      0x20\n      add\n      swap1\n      dup2\n      mstore\n      0x20\n      add\n      0x00\n      keccak256\n      0x00\n      swap1\n      sload\n      swap1\n      0x0100\n      exp\n      swap1\n      div\n      0xffffffffffffffffffffffffffffffffffffffff\n      and\n        /* \".deps/npm/@openzeppelin/contracts/token/ERC721/ERC721.sol\":6787:6810  return _owners[tokenId] */\n      swap1\n      pop\n        /* \".deps/npm/@openzeppelin/contracts/token/ERC721/ERC721.sol\":6702:6817  function _ownerOf(uint256 tokenId) internal view virtual returns (address) {... */\n      swap2\n      swap1\n      pop\n      jump\t// out\n        /* \".deps/npm/@openzeppelin/contracts/token/ERC721/ERC721.sol\":12872:13149  function _setApprovalForAll(address owner, address operator, bool approved) internal virtual {... */\n    tag_151:\n        /* \".deps/npm/@openzeppelin/contracts/token/ERC721/ERC721.sol\":12992:13000  operator */\n      dup2\n        /* \".deps/npm/@openzeppelin/contracts/token/ERC721/ERC721.sol\":12983:13000  owner != operator */\n      0xffffffffffffffffffffffffffffffffffffffff\n      and\n        /* \".deps/npm/@openzeppelin/contracts/token/ERC721/ERC721.sol\":12983:12988  owner */\n      dup4\n        /* \".deps/npm/@openzeppelin/contracts/token/ERC721/ERC721.sol\":12983:13000  owner != operator */\n      0xffffffffffffffffffffffffffffffffffffffff\n      and\n      sub\n        /* \".deps/npm/@openzeppelin/contracts/token/ERC721/ERC721.sol\":12975:13030  require(owner != operator, \"ERC721: approve to caller\") */\n      tag_189\n      jumpi\n      mload(0x40)\n      0x08c379a000000000000000000000000000000000000000000000000000000000\n      dup2\n      mstore\n      0x04\n      add\n      tag_190\n      swap1\n      tag_191\n      jump\t// in\n    tag_190:\n      mload(0x40)\n      dup1\n      swap2\n      sub\n      swap1\n      revert\n    tag_189:\n        /* \".deps/npm/@openzeppelin/contracts/token/ERC721/ERC721.sol\":13078:13086  approved */\n      dup1\n        /* \".deps/npm/@openzeppelin/contracts/token/ERC721/ERC721.sol\":13040:13058  _operatorApprovals */\n      0x05\n        /* \".deps/npm/@openzeppelin/contracts/token/ERC721/ERC721.sol\":13040:13065  _operatorApprovals[owner] */\n      0x00\n        /* \".deps/npm/@openzeppelin/contracts/token/ERC721/ERC721.sol\":13059:13064  owner */\n      dup6\n        /* \".deps/npm/@openzeppelin/contracts/token/ERC721/ERC721.sol\":13040:13065  _operatorApprovals[owner] */\n      0xffffffffffffffffffffffffffffffffffffffff\n      and\n      0xffffffffffffffffffffffffffffffffffffffff\n      and\n      dup2\n      mstore\n      0x20\n      add\n      swap1\n      dup2\n      mstore\n      0x20\n      add\n      0x00\n      keccak256\n        /* \".deps/npm/@openzeppelin/contracts/token/ERC721/ERC721.sol\":13040:13075  _operatorApprovals[owner][operator] */\n      0x00\n        /* \".deps/npm/@openzeppelin/contracts/token/ERC721/ERC721.sol\":13066:13074  operator */\n      dup5\n        /* \".deps/npm/@openzeppelin/contracts/token/ERC721/ERC721.sol\":13040:13075  _operatorApprovals[owner][operator] */\n      0xffffffffffffffffffffffffffffffffffffffff\n      and\n      0xffffffffffffffffffffffffffffffffffffffff\n      and\n      dup2\n      mstore\n      0x20\n      add\n      swap1\n      dup2\n      mstore\n      0x20\n      add\n      0x00\n      keccak256\n      0x00\n        /* \".deps/npm/@openzeppelin/contracts/token/ERC721/ERC721.sol\":13040:13086  _operatorApprovals[owner][operator] = approved */\n      0x0100\n      exp\n      dup2\n      sload\n      dup2\n      0xff\n      mul\n      not\n      and\n      swap1\n      dup4\n      iszero\n      iszero\n      mul\n      or\n      swap1\n      sstore\n      pop\n        /* \".deps/npm/@openzeppelin/contracts/token/ERC721/ERC721.sol\":13123:13131  operator */\n      dup2\n        /* \".deps/npm/@openzeppelin/contracts/token/ERC721/ERC721.sol\":13101:13142  ApprovalForAll(owner, operator, approved) */\n      0xffffffffffffffffffffffffffffffffffffffff\n      and\n        /* \".deps/npm/@openzeppelin/contracts/token/ERC721/ERC721.sol\":13116:13121  owner */\n      dup4\n        /* \".deps/npm/@openzeppelin/contracts/token/ERC721/ERC721.sol\":13101:13142  ApprovalForAll(owner, operator, approved) */\n      0xffffffffffffffffffffffffffffffffffffffff\n      and\n      0x17307eab39ab6107e8899845ad3d59bd9653f200f220920489ca2b5937696c31\n        /* \".deps/npm/@openzeppelin/contracts/token/ERC721/ERC721.sol\":13133:13141  approved */\n      dup4\n        /* \".deps/npm/@openzeppelin/contracts/token/ERC721/ERC721.sol\":13101:13142  ApprovalForAll(owner, operator, approved) */\n      mload(0x40)\n      tag_192\n      swap2\n      swap1\n      tag_25\n      jump\t// in\n    tag_192:\n      mload(0x40)\n      dup1\n      swap2\n      sub\n      swap1\n      log3\n        /* \".deps/npm/@openzeppelin/contracts/token/ERC721/ERC721.sol\":12872:13149  function _setApprovalForAll(address owner, address operator, bool approved) internal virtual {... */\n      pop\n      pop\n      pop\n      jump\t// out\n        /* \".deps/npm/@openzeppelin/contracts/token/ERC721/ERC721.sol\":6326:6593  function _safeTransfer(address from, address to, uint256 tokenId, bytes memory data) internal virtual {... */\n    tag_158:\n        /* \".deps/npm/@openzeppelin/contracts/token/ERC721/ERC721.sol\":6438:6466  _transfer(from, to, tokenId) */\n      tag_194\n        /* \".deps/npm/@openzeppelin/contracts/token/ERC721/ERC721.sol\":6448:6452  from */\n      dup5\n        /* \".deps/npm/@openzeppelin/contracts/token/ERC721/ERC721.sol\":6454:6456  to */\n      dup5\n        /* \".deps/npm/@openzeppelin/contracts/token/ERC721/ERC721.sol\":6458:6465  tokenId */\n      dup5\n        /* \".deps/npm/@openzeppelin/contracts/token/ERC721/ERC721.sol\":6438:6447  _transfer */\n      tag_46\n        /* \".deps/npm/@openzeppelin/contracts/token/ERC721/ERC721.sol\":6438:6466  _transfer(from, to, tokenId) */\n      jump\t// in\n    tag_194:\n        /* \".deps/npm/@openzeppelin/contracts/token/ERC721/ERC721.sol\":6484:6531  _checkOnERC721Received(from, to, tokenId, data) */\n      tag_195\n        /* \".deps/npm/@openzeppelin/contracts/token/ERC721/ERC721.sol\":6507:6511  from */\n      dup5\n        /* \".deps/npm/@openzeppelin/contracts/token/ERC721/ERC721.sol\":6513:6515  to */\n      dup5\n        /* \".deps/npm/@openzeppelin/contracts/token/ERC721/ERC721.sol\":6517:6524  tokenId */\n      dup5\n        /* \".deps/npm/@openzeppelin/contracts/token/ERC721/ERC721.sol\":6526:6530  data */\n      dup5\n        /* \".deps/npm/@openzeppelin/contracts/token/ERC721/ERC721.sol\":6484:6506  _checkOnERC721Received */\n      tag_196\n        /* \".deps/npm/@openzeppelin/contracts/token/ERC721/ERC721.sol\":6484:6531  _checkOnERC721Received(from, to, tokenId, data) */\n      jump\t// in\n    tag_195:\n        /* \".deps/npm/@openzeppelin/contracts/token/ERC721/ERC721.sol\":6476:6586  require(_checkOnERC721Received(from, to, tokenId, data), \"ERC721: transfer to non ERC721Receiver implementer\") */\n      tag_197\n      jumpi\n      mload(0x40)\n      0x08c379a000000000000000000000000000000000000000000000000000000000\n      dup2\n      mstore\n      0x04\n      add\n      tag_198\n      swap1\n      tag_199\n      jump\t// in\n    tag_198:\n      mload(0x40)\n      dup1\n      swap2\n      sub\n      swap1\n      revert\n    tag_197:\n        /* \".deps/npm/@openzeppelin/contracts/token/ERC721/ERC721.sol\":6326:6593  function _safeTransfer(address from, address to, uint256 tokenId, bytes memory data) internal virtual {... */\n      pop\n      pop\n      pop\n      pop\n      jump\t// out\n        /* \".deps/npm/@openzeppelin/contracts/token/ERC721/ERC721.sol\":3319:3411  function _baseURI() internal view virtual returns (string memory) {... */\n    tag_162:\n        /* \".deps/npm/@openzeppelin/contracts/token/ERC721/ERC721.sol\":3370:3383  string memory */\n      0x60\n        /* \".deps/npm/@openzeppelin/contracts/token/ERC721/ERC721.sol\":3395:3404  return \"\" */\n      mload(0x40)\n      dup1\n      0x20\n      add\n      0x40\n      mstore\n      dup1\n      0x00\n      dup2\n      mstore\n      pop\n      swap1\n      pop\n        /* \".deps/npm/@openzeppelin/contracts/token/ERC721/ERC721.sol\":3319:3411  function _baseURI() internal view virtual returns (string memory) {... */\n      swap1\n      jump\t// out\n        /* \".deps/npm/@openzeppelin/contracts/utils/Strings.sol\":447:1143  function toString(uint256 value) internal pure returns (string memory) {... */\n    tag_166:\n        /* \".deps/npm/@openzeppelin/contracts/utils/Strings.sol\":503:516  string memory */\n      0x60\n        /* \".deps/npm/@openzeppelin/contracts/utils/Strings.sol\":552:566  uint256 length */\n      0x00\n        /* \".deps/npm/@openzeppelin/contracts/utils/Strings.sol\":589:590  1 */\n      0x01\n        /* \".deps/npm/@openzeppelin/contracts/utils/Strings.sol\":569:586  Math.log10(value) */\n      tag_202\n        /* \".deps/npm/@openzeppelin/contracts/utils/Strings.sol\":580:585  value */\n      dup5\n        /* \".deps/npm/@openzeppelin/contracts/utils/Strings.sol\":569:579  Math.log10 */\n      tag_203\n        /* \".deps/npm/@openzeppelin/contracts/utils/Strings.sol\":569:586  Math.log10(value) */\n      jump\t// in\n    tag_202:\n        /* \".deps/npm/@openzeppelin/contracts/utils/Strings.sol\":569:590  Math.log10(value) + 1 */\n      add\n        /* \".deps/npm/@openzeppelin/contracts/utils/Strings.sol\":552:590  uint256 length = Math.log10(value) + 1 */\n      swap1\n      pop\n        /* \".deps/npm/@openzeppelin/contracts/utils/Strings.sol\":604:624  string memory buffer */\n      0x00\n        /* \".deps/npm/@openzeppelin/contracts/utils/Strings.sol\":638:644  length */\n      dup2\n        /* \".deps/npm/@openzeppelin/contracts/utils/Strings.sol\":627:645  new string(length) */\n      0xffffffffffffffff\n      dup2\n      gt\n      iszero\n      tag_204\n      jumpi\n      tag_205\n      tag_206\n      jump\t// in\n    tag_205:\n    tag_204:\n      mload(0x40)\n      swap1\n      dup1\n      dup3\n      mstore\n      dup1\n      0x1f\n      add\n      not(0x1f)\n      and\n      0x20\n      add\n      dup3\n      add\n      0x40\n      mstore\n      dup1\n      iszero\n      tag_207\n      jumpi\n      dup2\n      0x20\n      add\n      0x01\n      dup3\n      mul\n      dup1\n      calldatasize\n      dup4\n      calldatacopy\n      dup1\n      dup3\n      add\n      swap2\n      pop\n      pop\n      swap1\n      pop\n    tag_207:\n      pop\n        /* \".deps/npm/@openzeppelin/contracts/utils/Strings.sol\":604:645  string memory buffer = new string(length) */\n      swap1\n      pop\n        /* \".deps/npm/@openzeppelin/contracts/utils/Strings.sol\":659:670  uint256 ptr */\n      0x00\n        /* \".deps/npm/@openzeppelin/contracts/utils/Strings.sol\":785:791  length */\n      dup3\n        /* \".deps/npm/@openzeppelin/contracts/utils/Strings.sol\":781:783  32 */\n      0x20\n        /* \".deps/npm/@openzeppelin/contracts/utils/Strings.sol\":777:792  add(32, length) */\n      add\n        /* \".deps/npm/@openzeppelin/contracts/utils/Strings.sol\":769:775  buffer */\n      dup3\n        /* \".deps/npm/@openzeppelin/contracts/utils/Strings.sol\":765:793  add(buffer, add(32, length)) */\n      add\n        /* \".deps/npm/@openzeppelin/contracts/utils/Strings.sol\":758:793  ptr := add(buffer, add(32, length)) */\n      swap1\n      pop\n        /* \".deps/npm/@openzeppelin/contracts/utils/Strings.sol\":820:1100  while (true) {... */\n    tag_208:\n        /* \".deps/npm/@openzeppelin/contracts/utils/Strings.sol\":827:831  true */\n      0x01\n        /* \".deps/npm/@openzeppelin/contracts/utils/Strings.sol\":820:1100  while (true) {... */\n      iszero\n      tag_209\n      jumpi\n        /* \".deps/npm/@openzeppelin/contracts/utils/Strings.sol\":851:856  ptr-- */\n      dup1\n      dup1\n      0x01\n      swap1\n      sub\n      swap2\n      pop\n      pop\n        /* \".deps/npm/@openzeppelin/contracts/utils/Strings.sol\":990:998  _SYMBOLS */\n      0x3031323334353637383961626364656600000000000000000000000000000000\n        /* \".deps/npm/@openzeppelin/contracts/utils/Strings.sol\":985:987  10 */\n      0x0a\n        /* \".deps/npm/@openzeppelin/contracts/utils/Strings.sol\":978:983  value */\n      dup7\n        /* \".deps/npm/@openzeppelin/contracts/utils/Strings.sol\":974:988  mod(value, 10) */\n      mod\n        /* \".deps/npm/@openzeppelin/contracts/utils/Strings.sol\":969:999  byte(mod(value, 10), _SYMBOLS) */\n      byte\n        /* \".deps/npm/@openzeppelin/contracts/utils/Strings.sol\":964:967  ptr */\n      dup2\n        /* \".deps/npm/@openzeppelin/contracts/utils/Strings.sol\":956:1000  mstore8(ptr, byte(mod(value, 10), _SYMBOLS)) */\n      mstore8\n        /* \".deps/npm/@openzeppelin/contracts/utils/Strings.sol\":1044:1046  10 */\n      0x0a\n        /* \".deps/npm/@openzeppelin/contracts/utils/Strings.sol\":1035:1046  value /= 10 */\n      dup6\n      dup2\n      tag_210\n      jumpi\n      tag_211\n      tag_212\n      jump\t// in\n    tag_211:\n    tag_210:\n      div\n      swap5\n      pop\n        /* \".deps/npm/@openzeppelin/contracts/utils/Strings.sol\":1077:1078  0 */\n      0x00\n        /* \".deps/npm/@openzeppelin/contracts/utils/Strings.sol\":1068:1073  value */\n      dup6\n        /* \".deps/npm/@openzeppelin/contracts/utils/Strings.sol\":1068:1078  value == 0 */\n      sub\n        /* \".deps/npm/@openzeppelin/contracts/utils/Strings.sol\":820:1100  while (true) {... */\n      tag_208\n        /* \".deps/npm/@openzeppelin/contracts/utils/Strings.sol\":1064:1085  if (value == 0) break */\n      jumpi\n        /* \".deps/npm/@openzeppelin/contracts/utils/Strings.sol\":820:1100  while (true) {... */\n    tag_209:\n        /* \".deps/npm/@openzeppelin/contracts/utils/Strings.sol\":1120:1126  buffer */\n      dup2\n        /* \".deps/npm/@openzeppelin/contracts/utils/Strings.sol\":1113:1126  return buffer */\n      swap4\n      pop\n      pop\n      pop\n      pop\n        /* \".deps/npm/@openzeppelin/contracts/utils/Strings.sol\":447:1143  function toString(uint256 value) internal pure returns (string memory) {... */\n      swap2\n      swap1\n      pop\n      jump\t// out\n        /* \".deps/npm/@openzeppelin/contracts/token/ERC721/ERC721.sol\":7120:7246  function _exists(uint256 tokenId) internal view virtual returns (bool) {... */\n    tag_173:\n        /* \".deps/npm/@openzeppelin/contracts/token/ERC721/ERC721.sol\":7185:7189  bool */\n      0x00\n        /* \".deps/npm/@openzeppelin/contracts/token/ERC721/ERC721.sol\":7237:7238  0 */\n      dup1\n        /* \".deps/npm/@openzeppelin/contracts/token/ERC721/ERC721.sol\":7208:7239  _ownerOf(tokenId) != address(0) */\n      0xffffffffffffffffffffffffffffffffffffffff\n      and\n        /* \".deps/npm/@openzeppelin/contracts/token/ERC721/ERC721.sol\":7208:7225  _ownerOf(tokenId) */\n      tag_215\n        /* \".deps/npm/@openzeppelin/contracts/token/ERC721/ERC721.sol\":7217:7224  tokenId */\n      dup4\n        /* \".deps/npm/@openzeppelin/contracts/token/ERC721/ERC721.sol\":7208:7216  _ownerOf */\n      tag_134\n        /* \".deps/npm/@openzeppelin/contracts/token/ERC721/ERC721.sol\":7208:7225  _ownerOf(tokenId) */\n      jump\t// in\n    tag_215:\n        /* \".deps/npm/@openzeppelin/contracts/token/ERC721/ERC721.sol\":7208:7239  _ownerOf(tokenId) != address(0) */\n      0xffffffffffffffffffffffffffffffffffffffff\n      and\n      eq\n      iszero\n        /* \".deps/npm/@openzeppelin/contracts/token/ERC721/ERC721.sol\":7201:7239  return _ownerOf(tokenId) != address(0) */\n      swap1\n      pop\n        /* \".deps/npm/@openzeppelin/contracts/token/ERC721/ERC721.sol\":7120:7246  function _exists(uint256 tokenId) internal view virtual returns (bool) {... */\n      swap2\n      swap1\n      pop\n      jump\t// out\n        /* \".deps/npm/@openzeppelin/contracts/token/ERC721/ERC721.sol\":13918:14749  function _checkOnERC721Received(... */\n    tag_196:\n        /* \".deps/npm/@openzeppelin/contracts/token/ERC721/ERC721.sol\":14067:14071  bool */\n      0x00\n        /* \".deps/npm/@openzeppelin/contracts/token/ERC721/ERC721.sol\":14087:14102  to.isContract() */\n      tag_217\n        /* \".deps/npm/@openzeppelin/contracts/token/ERC721/ERC721.sol\":14087:14089  to */\n      dup5\n        /* \".deps/npm/@openzeppelin/contracts/token/ERC721/ERC721.sol\":14087:14100  to.isContract */\n      0xffffffffffffffffffffffffffffffffffffffff\n      and\n      tag_218\n        /* \".deps/npm/@openzeppelin/contracts/token/ERC721/ERC721.sol\":14087:14102  to.isContract() */\n      jump\t// in\n    tag_217:\n        /* \".deps/npm/@openzeppelin/contracts/token/ERC721/ERC721.sol\":14083:14743  if (to.isContract()) {... */\n      iszero\n      tag_219\n      jumpi\n        /* \".deps/npm/@openzeppelin/contracts/token/ERC721/ERC721.sol\":14138:14140  to */\n      dup4\n        /* \".deps/npm/@openzeppelin/contracts/token/ERC721/ERC721.sol\":14122:14158  IERC721Receiver(to).onERC721Received */\n      0xffffffffffffffffffffffffffffffffffffffff\n      and\n      0x150b7a02\n        /* \".deps/npm/@openzeppelin/contracts/token/ERC721/ERC721.sol\":14159:14171  _msgSender() */\n      tag_220\n        /* \".deps/npm/@openzeppelin/contracts/token/ERC721/ERC721.sol\":14159:14169  _msgSender */\n      tag_101\n        /* \".deps/npm/@openzeppelin/contracts/token/ERC721/ERC721.sol\":14159:14171  _msgSender() */\n      jump\t// in\n    tag_220:\n        /* \".deps/npm/@openzeppelin/contracts/token/ERC721/ERC721.sol\":14173:14177  from */\n      dup8\n        /* \".deps/npm/@openzeppelin/contracts/token/ERC721/ERC721.sol\":14179:14186  tokenId */\n      dup7\n        /* \".deps/npm/@openzeppelin/contracts/token/ERC721/ERC721.sol\":14188:14192  data */\n      dup7\n        /* \".deps/npm/@openzeppelin/contracts/token/ERC721/ERC721.sol\":14122:14193  IERC721Receiver(to).onERC721Received(_msgSender(), from, tokenId, data) */\n      mload(0x40)\n      dup6\n      0xffffffff\n      and\n      0xe0\n      shl\n      dup2\n      mstore\n      0x04\n      add\n      tag_221\n      swap5\n      swap4\n      swap3\n      swap2\n      swap1\n      tag_222\n      jump\t// in\n    tag_221:\n      0x20\n      mload(0x40)\n      dup1\n      dup4\n      sub\n      dup2\n      0x00\n      dup8\n      gas\n      call\n      swap3\n      pop\n      pop\n      pop\n      dup1\n      iszero\n      tag_223\n      jumpi\n      pop\n      mload(0x40)\n      returndatasize\n      not(0x1f)\n      0x1f\n      dup3\n      add\n      and\n      dup3\n      add\n      dup1\n      0x40\n      mstore\n      pop\n      dup2\n      add\n      swap1\n      tag_224\n      swap2\n      swap1\n      tag_225\n      jump\t// in\n    tag_224:\n      0x01\n    tag_223:\n        /* \".deps/npm/@openzeppelin/contracts/token/ERC721/ERC721.sol\":14118:14691  try IERC721Receiver(to).onERC721Received(_msgSender(), from, tokenId, data) returns (bytes4 retval) {... */\n      tag_226\n      jumpi\n      returndatasize\n      dup1\n      0x00\n      dup2\n      eq\n      tag_231\n      jumpi\n      mload(0x40)\n      swap2\n      pop\n      and(add(returndatasize, 0x3f), not(0x1f))\n      dup3\n      add\n      0x40\n      mstore\n      returndatasize\n      dup3\n      mstore\n      returndatasize\n      0x00\n      0x20\n      dup5\n      add\n      returndatacopy\n      jump(tag_230)\n    tag_231:\n      0x60\n      swap2\n      pop\n    tag_230:\n      pop\n        /* \".deps/npm/@openzeppelin/contracts/token/ERC721/ERC721.sol\":14377:14378  0 */\n      0x00\n        /* \".deps/npm/@openzeppelin/contracts/token/ERC721/ERC721.sol\":14360:14366  reason */\n      dup2\n        /* \".deps/npm/@openzeppelin/contracts/token/ERC721/ERC721.sol\":14360:14373  reason.length */\n      mload\n        /* \".deps/npm/@openzeppelin/contracts/token/ERC721/ERC721.sol\":14360:14378  reason.length == 0 */\n      sub\n        /* \".deps/npm/@openzeppelin/contracts/token/ERC721/ERC721.sol\":14356:14677  if (reason.length == 0) {... */\n      tag_232\n      jumpi\n        /* \".deps/npm/@openzeppelin/contracts/token/ERC721/ERC721.sol\":14402:14462  revert(\"ERC721: transfer to non ERC721Receiver implementer\") */\n      mload(0x40)\n      0x08c379a000000000000000000000000000000000000000000000000000000000\n      dup2\n      mstore\n      0x04\n      add\n      tag_233\n      swap1\n      tag_199\n      jump\t// in\n    tag_233:\n      mload(0x40)\n      dup1\n      swap2\n      sub\n      swap1\n      revert\n        /* \".deps/npm/@openzeppelin/contracts/token/ERC721/ERC721.sol\":14356:14677  if (reason.length == 0) {... */\n    tag_232:\n        /* \".deps/npm/@openzeppelin/contracts/token/ERC721/ERC721.sol\":14629:14635  reason */\n      dup1\n        /* \".deps/npm/@openzeppelin/contracts/token/ERC721/ERC721.sol\":14623:14636  mload(reason) */\n      mload\n        /* \".deps/npm/@openzeppelin/contracts/token/ERC721/ERC721.sol\":14614:14620  reason */\n      dup2\n        /* \".deps/npm/@openzeppelin/contracts/token/ERC721/ERC721.sol\":14610:14612  32 */\n      0x20\n        /* \".deps/npm/@openzeppelin/contracts/token/ERC721/ERC721.sol\":14606:14621  add(32, reason) */\n      add\n        /* \".deps/npm/@openzeppelin/contracts/token/ERC721/ERC721.sol\":14599:14637  revert(add(32, reason), mload(reason)) */\n      revert\n        /* \".deps/npm/@openzeppelin/contracts/token/ERC721/ERC721.sol\":14118:14691  try IERC721Receiver(to).onERC721Received(_msgSender(), from, tokenId, data) returns (bytes4 retval) {... */\n    tag_226:\n        /* \".deps/npm/@openzeppelin/contracts/token/ERC721/ERC721.sol\":14253:14294  IERC721Receiver.onERC721Received.selector */\n      shl(0xe0, 0x150b7a02)\n        /* \".deps/npm/@openzeppelin/contracts/token/ERC721/ERC721.sol\":14243:14294  retval == IERC721Receiver.onERC721Received.selector */\n      not(0xffffffffffffffffffffffffffffffffffffffffffffffffffffffff)\n      and\n        /* \".deps/npm/@openzeppelin/contracts/token/ERC721/ERC721.sol\":14243:14249  retval */\n      dup2\n        /* \".deps/npm/@openzeppelin/contracts/token/ERC721/ERC721.sol\":14243:14294  retval == IERC721Receiver.onERC721Received.selector */\n      not(0xffffffffffffffffffffffffffffffffffffffffffffffffffffffff)\n      and\n      eq\n        /* \".deps/npm/@openzeppelin/contracts/token/ERC721/ERC721.sol\":14236:14294  return retval == IERC721Receiver.onERC721Received.selector */\n      swap2\n      pop\n      pop\n      jump(tag_216)\n        /* \".deps/npm/@openzeppelin/contracts/token/ERC721/ERC721.sol\":14083:14743  if (to.isContract()) {... */\n    tag_219:\n        /* \".deps/npm/@openzeppelin/contracts/token/ERC721/ERC721.sol\":14728:14732  true */\n      0x01\n        /* \".deps/npm/@openzeppelin/contracts/token/ERC721/ERC721.sol\":14721:14732  return true */\n      swap1\n      pop\n        /* \".deps/npm/@openzeppelin/contracts/token/ERC721/ERC721.sol\":13918:14749  function _checkOnERC721Received(... */\n    tag_216:\n      swap5\n      swap4\n      pop\n      pop\n      pop\n      pop\n      jump\t// out\n        /* \".deps/npm/@openzeppelin/contracts/utils/math/Math.sol\":10139:11055  function log10(uint256 value) internal pure returns (uint256) {... */\n    tag_203:\n        /* \".deps/npm/@openzeppelin/contracts/utils/math/Math.sol\":10192:10199  uint256 */\n      0x00\n        /* \".deps/npm/@openzeppelin/contracts/utils/math/Math.sol\":10211:10225  uint256 result */\n      dup1\n        /* \".deps/npm/@openzeppelin/contracts/utils/math/Math.sol\":10228:10229  0 */\n      0x00\n        /* \".deps/npm/@openzeppelin/contracts/utils/math/Math.sol\":10211:10229  uint256 result = 0 */\n      swap1\n      pop\n        /* \".deps/npm/@openzeppelin/contracts/utils/math/Math.sol\":10276:10284  10 ** 64 */\n      0x184f03e93ff9f4daa797ed6e38ed64bf6a1f010000000000000000\n        /* \".deps/npm/@openzeppelin/contracts/utils/math/Math.sol\":10267:10272  value */\n      dup4\n        /* \".deps/npm/@openzeppelin/contracts/utils/math/Math.sol\":10267:10284  value >= 10 ** 64 */\n      lt\n        /* \".deps/npm/@openzeppelin/contracts/utils/math/Math.sol\":10263:10366  if (value >= 10 ** 64) {... */\n      tag_238\n      jumpi\n        /* \".deps/npm/@openzeppelin/contracts/utils/math/Math.sol\":10313:10321  10 ** 64 */\n      0x184f03e93ff9f4daa797ed6e38ed64bf6a1f010000000000000000\n        /* \".deps/npm/@openzeppelin/contracts/utils/math/Math.sol\":10304:10321  value /= 10 ** 64 */\n      dup4\n      dup2\n      tag_239\n      jumpi\n      tag_240\n      tag_212\n      jump\t// in\n    tag_240:\n    tag_239:\n      div\n      swap3\n      pop\n        /* \".deps/npm/@openzeppelin/contracts/utils/math/Math.sol\":10349:10351  64 */\n      0x40\n        /* \".deps/npm/@openzeppelin/contracts/utils/math/Math.sol\":10339:10351  result += 64 */\n      dup2\n      add\n      swap1\n      pop\n        /* \".deps/npm/@openzeppelin/contracts/utils/math/Math.sol\":10263:10366  if (value >= 10 ** 64) {... */\n    tag_238:\n        /* \".deps/npm/@openzeppelin/contracts/utils/math/Math.sol\":10392:10400  10 ** 32 */\n      0x04ee2d6d415b85acef8100000000\n        /* \".deps/npm/@openzeppelin/contracts/utils/math/Math.sol\":10383:10388  value */\n      dup4\n        /* \".deps/npm/@openzeppelin/contracts/utils/math/Math.sol\":10383:10400  value >= 10 ** 32 */\n      lt\n        /* \".deps/npm/@openzeppelin/contracts/utils/math/Math.sol\":10379:10482  if (value >= 10 ** 32) {... */\n      tag_241\n      jumpi\n        /* \".deps/npm/@openzeppelin/contracts/utils/math/Math.sol\":10429:10437  10 ** 32 */\n      0x04ee2d6d415b85acef8100000000\n        /* \".deps/npm/@openzeppelin/contracts/utils/math/Math.sol\":10420:10437  value /= 10 ** 32 */\n      dup4\n      dup2\n      tag_242\n      jumpi\n      tag_243\n      tag_212\n      jump\t// in\n    tag_243:\n    tag_242:\n      div\n      swap3\n      pop\n        /* \".deps/npm/@openzeppelin/contracts/utils/math/Math.sol\":10465:10467  32 */\n      0x20\n        /* \".deps/npm/@openzeppelin/contracts/utils/math/Math.sol\":10455:10467  result += 32 */\n      dup2\n      add\n      swap1\n      pop\n        /* \".deps/npm/@openzeppelin/contracts/utils/math/Math.sol\":10379:10482  if (value >= 10 ** 32) {... */\n    tag_241:\n        /* \".deps/npm/@openzeppelin/contracts/utils/math/Math.sol\":10508:10516  10 ** 16 */\n      0x2386f26fc10000\n        /* \".deps/npm/@openzeppelin/contracts/utils/math/Math.sol\":10499:10504  value */\n      dup4\n        /* \".deps/npm/@openzeppelin/contracts/utils/math/Math.sol\":10499:10516  value >= 10 ** 16 */\n      lt\n        /* \".deps/npm/@openzeppelin/contracts/utils/math/Math.sol\":10495:10598  if (value >= 10 ** 16) {... */\n      tag_244\n      jumpi\n        /* \".deps/npm/@openzeppelin/contracts/utils/math/Math.sol\":10545:10553  10 ** 16 */\n      0x2386f26fc10000\n        /* \".deps/npm/@openzeppelin/contracts/utils/math/Math.sol\":10536:10553  value /= 10 ** 16 */\n      dup4\n      dup2\n      tag_245\n      jumpi\n      tag_246\n      tag_212\n      jump\t// in\n    tag_246:\n    tag_245:\n      div\n      swap3\n      pop\n        /* \".deps/npm/@openzeppelin/contracts/utils/math/Math.sol\":10581:10583  16 */\n      0x10\n        /* \".deps/npm/@openzeppelin/contracts/utils/math/Math.sol\":10571:10583  result += 16 */\n      dup2\n      add\n      swap1\n      pop\n        /* \".deps/npm/@openzeppelin/contracts/utils/math/Math.sol\":10495:10598  if (value >= 10 ** 16) {... */\n    tag_244:\n        /* \".deps/npm/@openzeppelin/contracts/utils/math/Math.sol\":10624:10631  10 ** 8 */\n      0x05f5e100\n        /* \".deps/npm/@openzeppelin/contracts/utils/math/Math.sol\":10615:10620  value */\n      dup4\n        /* \".deps/npm/@openzeppelin/contracts/utils/math/Math.sol\":10615:10631  value >= 10 ** 8 */\n      lt\n        /* \".deps/npm/@openzeppelin/contracts/utils/math/Math.sol\":10611:10711  if (value >= 10 ** 8) {... */\n      tag_247\n      jumpi\n        /* \".deps/npm/@openzeppelin/contracts/utils/math/Math.sol\":10660:10667  10 ** 8 */\n      0x05f5e100\n        /* \".deps/npm/@openzeppelin/contracts/utils/math/Math.sol\":10651:10667  value /= 10 ** 8 */\n      dup4\n      dup2\n      tag_248\n      jumpi\n      tag_249\n      tag_212\n      jump\t// in\n    tag_249:\n    tag_248:\n      div\n      swap3\n      pop\n        /* \".deps/npm/@openzeppelin/contracts/utils/math/Math.sol\":10695:10696  8 */\n      0x08\n        /* \".deps/npm/@openzeppelin/contracts/utils/math/Math.sol\":10685:10696  result += 8 */\n      dup2\n      add\n      swap1\n      pop\n        /* \".deps/npm/@openzeppelin/contracts/utils/math/Math.sol\":10611:10711  if (value >= 10 ** 8) {... */\n    tag_247:\n        /* \".deps/npm/@openzeppelin/contracts/utils/math/Math.sol\":10737:10744  10 ** 4 */\n      0x2710\n        /* \".deps/npm/@openzeppelin/contracts/utils/math/Math.sol\":10728:10733  value */\n      dup4\n        /* \".deps/npm/@openzeppelin/contracts/utils/math/Math.sol\":10728:10744  value >= 10 ** 4 */\n      lt\n        /* \".deps/npm/@openzeppelin/contracts/utils/math/Math.sol\":10724:10824  if (value >= 10 ** 4) {... */\n      tag_250\n      jumpi\n        /* \".deps/npm/@openzeppelin/contracts/utils/math/Math.sol\":10773:10780  10 ** 4 */\n      0x2710\n        /* \".deps/npm/@openzeppelin/contracts/utils/math/Math.sol\":10764:10780  value /= 10 ** 4 */\n      dup4\n      dup2\n      tag_251\n      jumpi\n      tag_252\n      tag_212\n      jump\t// in\n    tag_252:\n    tag_251:\n      div\n      swap3\n      pop\n        /* \".deps/npm/@openzeppelin/contracts/utils/math/Math.sol\":10808:10809  4 */\n      0x04\n        /* \".deps/npm/@openzeppelin/contracts/utils/math/Math.sol\":10798:10809  result += 4 */\n      dup2\n      add\n      swap1\n      pop\n        /* \".deps/npm/@openzeppelin/contracts/utils/math/Math.sol\":10724:10824  if (value >= 10 ** 4) {... */\n    tag_250:\n        /* \".deps/npm/@openzeppelin/contracts/utils/math/Math.sol\":10850:10857  10 ** 2 */\n      0x64\n        /* \".deps/npm/@openzeppelin/contracts/utils/math/Math.sol\":10841:10846  value */\n      dup4\n        /* \".deps/npm/@openzeppelin/contracts/utils/math/Math.sol\":10841:10857  value >= 10 ** 2 */\n      lt\n        /* \".deps/npm/@openzeppelin/contracts/utils/math/Math.sol\":10837:10937  if (value >= 10 ** 2) {... */\n      tag_253\n      jumpi\n        /* \".deps/npm/@openzeppelin/contracts/utils/math/Math.sol\":10886:10893  10 ** 2 */\n      0x64\n        /* \".deps/npm/@openzeppelin/contracts/utils/math/Math.sol\":10877:10893  value /= 10 ** 2 */\n      dup4\n      dup2\n      tag_254\n      jumpi\n      tag_255\n      tag_212\n      jump\t// in\n    tag_255:\n    tag_254:\n      div\n      swap3\n      pop\n        /* \".deps/npm/@openzeppelin/contracts/utils/math/Math.sol\":10921:10922  2 */\n      0x02\n        /* \".deps/npm/@openzeppelin/contracts/utils/math/Math.sol\":10911:10922  result += 2 */\n      dup2\n      add\n      swap1\n      pop\n        /* \".deps/npm/@openzeppelin/contracts/utils/math/Math.sol\":10837:10937  if (value >= 10 ** 2) {... */\n    tag_253:\n        /* \".deps/npm/@openzeppelin/contracts/utils/math/Math.sol\":10963:10970  10 ** 1 */\n      0x0a\n        /* \".deps/npm/@openzeppelin/contracts/utils/math/Math.sol\":10954:10959  value */\n      dup4\n        /* \".deps/npm/@openzeppelin/contracts/utils/math/Math.sol\":10954:10970  value >= 10 ** 1 */\n      lt\n        /* \".deps/npm/@openzeppelin/contracts/utils/math/Math.sol\":10950:11016  if (value >= 10 ** 1) {... */\n      tag_256\n      jumpi\n        /* \".deps/npm/@openzeppelin/contracts/utils/math/Math.sol\":11000:11001  1 */\n      0x01\n        /* \".deps/npm/@openzeppelin/contracts/utils/math/Math.sol\":10990:11001  result += 1 */\n      dup2\n      add\n      swap1\n      pop\n        /* \".deps/npm/@openzeppelin/contracts/utils/math/Math.sol\":10950:11016  if (value >= 10 ** 1) {... */\n    tag_256:\n        /* \".deps/npm/@openzeppelin/contracts/utils/math/Math.sol\":11042:11048  result */\n      dup1\n        /* \".deps/npm/@openzeppelin/contracts/utils/math/Math.sol\":11035:11048  return result */\n      swap2\n      pop\n      pop\n        /* \".deps/npm/@openzeppelin/contracts/utils/math/Math.sol\":10139:11055  function log10(uint256 value) internal pure returns (uint256) {... */\n      swap2\n      swap1\n      pop\n      jump\t// out\n        /* \".deps/npm/@openzeppelin/contracts/utils/Address.sol\":1412:1732  function isContract(address account) internal view returns (bool) {... */\n    tag_218:\n        /* \".deps/npm/@openzeppelin/contracts/utils/Address.sol\":1472:1476  bool */\n      0x00\n        /* \".deps/npm/@openzeppelin/contracts/utils/Address.sol\":1724:1725  0 */\n      dup1\n        /* \".deps/npm/@openzeppelin/contracts/utils/Address.sol\":1702:1709  account */\n      dup3\n        /* \".deps/npm/@openzeppelin/contracts/utils/Address.sol\":1702:1721  account.code.length */\n      0xffffffffffffffffffffffffffffffffffffffff\n      and\n      extcodesize\n        /* \".deps/npm/@openzeppelin/contracts/utils/Address.sol\":1702:1725  account.code.length > 0 */\n      gt\n        /* \".deps/npm/@openzeppelin/contracts/utils/Address.sol\":1695:1725  return account.code.length > 0 */\n      swap1\n      pop\n        /* \".deps/npm/@openzeppelin/contracts/utils/Address.sol\":1412:1732  function isContract(address account) internal view returns (bool) {... */\n      swap2\n      swap1\n      pop\n      jump\t// out\n        /* \"#utility.yul\":7:82   */\n    tag_258:\n        /* \"#utility.yul\":40:46   */\n      0x00\n        /* \"#utility.yul\":73:75   */\n      0x40\n        /* \"#utility.yul\":67:76   */\n      mload\n        /* \"#utility.yul\":57:76   */\n      swap1\n      pop\n        /* \"#utility.yul\":7:82   */\n      swap1\n      jump\t// out\n        /* \"#utility.yul\":88:205   */\n    tag_259:\n        /* \"#utility.yul\":197:198   */\n      0x00\n        /* \"#utility.yul\":194:195   */\n      dup1\n        /* \"#utility.yul\":187:199   */\n      revert\n        /* \"#utility.yul\":211:328   */\n    tag_260:\n        /* \"#utility.yul\":320:321   */\n      0x00\n        /* \"#utility.yul\":317:318   */\n      dup1\n        /* \"#utility.yul\":310:322   */\n      revert\n        /* \"#utility.yul\":334:483   */\n    tag_261:\n        /* \"#utility.yul\":370:377   */\n      0x00\n        /* \"#utility.yul\":410:476   */\n      0xffffffff00000000000000000000000000000000000000000000000000000000\n        /* \"#utility.yul\":403:408   */\n      dup3\n        /* \"#utility.yul\":399:477   */\n      and\n        /* \"#utility.yul\":388:477   */\n      swap1\n      pop\n        /* \"#utility.yul\":334:483   */\n      swap2\n      swap1\n      pop\n      jump\t// out\n        /* \"#utility.yul\":489:609   */\n    tag_262:\n        /* \"#utility.yul\":561:584   */\n      tag_319\n        /* \"#utility.yul\":578:583   */\n      dup2\n        /* \"#utility.yul\":561:584   */\n      tag_261\n      jump\t// in\n    tag_319:\n        /* \"#utility.yul\":554:559   */\n      dup2\n        /* \"#utility.yul\":551:585   */\n      eq\n        /* \"#utility.yul\":541:603   */\n      tag_320\n      jumpi\n        /* \"#utility.yul\":599:600   */\n      0x00\n        /* \"#utility.yul\":596:597   */\n      dup1\n        /* \"#utility.yul\":589:601   */\n      revert\n        /* \"#utility.yul\":541:603   */\n    tag_320:\n        /* \"#utility.yul\":489:609   */\n      pop\n      jump\t// out\n        /* \"#utility.yul\":615:752   */\n    tag_263:\n        /* \"#utility.yul\":660:665   */\n      0x00\n        /* \"#utility.yul\":698:704   */\n      dup2\n        /* \"#utility.yul\":685:705   */\n      calldataload\n        /* \"#utility.yul\":676:705   */\n      swap1\n      pop\n        /* \"#utility.yul\":714:746   */\n      tag_322\n        /* \"#utility.yul\":740:745   */\n      dup2\n        /* \"#utility.yul\":714:746   */\n      tag_262\n      jump\t// in\n    tag_322:\n        /* \"#utility.yul\":615:752   */\n      swap3\n      swap2\n      pop\n      pop\n      jump\t// out\n        /* \"#utility.yul\":758:1085   */\n    tag_22:\n        /* \"#utility.yul\":816:822   */\n      0x00\n        /* \"#utility.yul\":865:867   */\n      0x20\n        /* \"#utility.yul\":853:862   */\n      dup3\n        /* \"#utility.yul\":844:851   */\n      dup5\n        /* \"#utility.yul\":840:863   */\n      sub\n        /* \"#utility.yul\":836:868   */\n      slt\n        /* \"#utility.yul\":833:952   */\n      iszero\n      tag_324\n      jumpi\n        /* \"#utility.yul\":871:950   */\n      tag_325\n      tag_259\n      jump\t// in\n    tag_325:\n        /* \"#utility.yul\":833:952   */\n    tag_324:\n        /* \"#utility.yul\":991:992   */\n      0x00\n        /* \"#utility.yul\":1016:1068   */\n      tag_326\n        /* \"#utility.yul\":1060:1067   */\n      dup5\n        /* \"#utility.yul\":1051:1057   */\n      dup3\n        /* \"#utility.yul\":1040:1049   */\n      dup6\n        /* \"#utility.yul\":1036:1058   */\n      add\n        /* \"#utility.yul\":1016:1068   */\n      tag_263\n      jump\t// in\n    tag_326:\n        /* \"#utility.yul\":1006:1068   */\n      swap2\n      pop\n        /* \"#utility.yul\":962:1078   */\n      pop\n        /* \"#utility.yul\":758:1085   */\n      swap3\n      swap2\n      pop\n      pop\n      jump\t// out\n        /* \"#utility.yul\":1091:1181   */\n    tag_264:\n        /* \"#utility.yul\":1125:1132   */\n      0x00\n        /* \"#utility.yul\":1168:1173   */\n      dup2\n        /* \"#utility.yul\":1161:1174   */\n      iszero\n        /* \"#utility.yul\":1154:1175   */\n      iszero\n        /* \"#utility.yul\":1143:1175   */\n      swap1\n      pop\n        /* \"#utility.yul\":1091:1181   */\n      swap2\n      swap1\n      pop\n      jump\t// out\n        /* \"#utility.yul\":1187:1296   */\n    tag_265:\n        /* \"#utility.yul\":1268:1289   */\n      tag_329\n        /* \"#utility.yul\":1283:1288   */\n      dup2\n        /* \"#utility.yul\":1268:1289   */\n      tag_264\n      jump\t// in\n    tag_329:\n        /* \"#utility.yul\":1263:1266   */\n      dup3\n        /* \"#utility.yul\":1256:1290   */\n      mstore\n        /* \"#utility.yul\":1187:1296   */\n      pop\n      pop\n      jump\t// out\n        /* \"#utility.yul\":1302:1512   */\n    tag_25:\n        /* \"#utility.yul\":1389:1393   */\n      0x00\n        /* \"#utility.yul\":1427:1429   */\n      0x20\n        /* \"#utility.yul\":1416:1425   */\n      dup3\n        /* \"#utility.yul\":1412:1430   */\n      add\n        /* \"#utility.yul\":1404:1430   */\n      swap1\n      pop\n        /* \"#utility.yul\":1440:1505   */\n      tag_331\n        /* \"#utility.yul\":1502:1503   */\n      0x00\n        /* \"#utility.yul\":1491:1500   */\n      dup4\n        /* \"#utility.yul\":1487:1504   */\n      add\n        /* \"#utility.yul\":1478:1484   */\n      dup5\n        /* \"#utility.yul\":1440:1505   */\n      tag_265\n      jump\t// in\n    tag_331:\n        /* \"#utility.yul\":1302:1512   */\n      swap3\n      swap2\n      pop\n      pop\n      jump\t// out\n        /* \"#utility.yul\":1518:1617   */\n    tag_266:\n        /* \"#utility.yul\":1570:1576   */\n      0x00\n        /* \"#utility.yul\":1604:1609   */\n      dup2\n        /* \"#utility.yul\":1598:1610   */\n      mload\n        /* \"#utility.yul\":1588:1610   */\n      swap1\n      pop\n        /* \"#utility.yul\":1518:1617   */\n      swap2\n      swap1\n      pop\n      jump\t// out\n        /* \"#utility.yul\":1623:1792   */\n    tag_267:\n        /* \"#utility.yul\":1707:1718   */\n      0x00\n        /* \"#utility.yul\":1741:1747   */\n      dup3\n        /* \"#utility.yul\":1736:1739   */\n      dup3\n        /* \"#utility.yul\":1729:1748   */\n      mstore\n        /* \"#utility.yul\":1781:1785   */\n      0x20\n        /* \"#utility.yul\":1776:1779   */\n      dup3\n        /* \"#utility.yul\":1772:1786   */\n      add\n        /* \"#utility.yul\":1757:1786   */\n      swap1\n      pop\n        /* \"#utility.yul\":1623:1792   */\n      swap3\n      swap2\n      pop\n      pop\n      jump\t// out\n        /* \"#utility.yul\":1798:2044   */\n    tag_268:\n        /* \"#utility.yul\":1879:1880   */\n      0x00\n        /* \"#utility.yul\":1889:2002   */\n    tag_335:\n        /* \"#utility.yul\":1903:1909   */\n      dup4\n        /* \"#utility.yul\":1900:1901   */\n      dup2\n        /* \"#utility.yul\":1897:1910   */\n      lt\n        /* \"#utility.yul\":1889:2002   */\n      iszero\n      tag_337\n      jumpi\n        /* \"#utility.yul\":1988:1989   */\n      dup1\n        /* \"#utility.yul\":1983:1986   */\n      dup3\n        /* \"#utility.yul\":1979:1990   */\n      add\n        /* \"#utility.yul\":1973:1991   */\n      mload\n        /* \"#utility.yul\":1969:1970   */\n      dup2\n        /* \"#utility.yul\":1964:1967   */\n      dup5\n        /* \"#utility.yul\":1960:1971   */\n      add\n        /* \"#utility.yul\":1953:1992   */\n      mstore\n        /* \"#utility.yul\":1925:1927   */\n      0x20\n        /* \"#utility.yul\":1922:1923   */\n      dup2\n        /* \"#utility.yul\":1918:1928   */\n      add\n        /* \"#utility.yul\":1913:1928   */\n      swap1\n      pop\n        /* \"#utility.yul\":1889:2002   */\n      jump(tag_335)\n    tag_337:\n        /* \"#utility.yul\":2036:2037   */\n      0x00\n        /* \"#utility.yul\":2027:2033   */\n      dup5\n        /* \"#utility.yul\":2022:2025   */\n      dup5\n        /* \"#utility.yul\":2018:2034   */\n      add\n        /* \"#utility.yul\":2011:2038   */\n      mstore\n        /* \"#utility.yul\":1860:2044   */\n      pop\n        /* \"#utility.yul\":1798:2044   */\n      pop\n      pop\n      pop\n      jump\t// out\n        /* \"#utility.yul\":2050:2152   */\n    tag_269:\n        /* \"#utility.yul\":2091:2097   */\n      0x00\n        /* \"#utility.yul\":2142:2144   */\n      0x1f\n        /* \"#utility.yul\":2138:2145   */\n      not\n        /* \"#utility.yul\":2133:2135   */\n      0x1f\n        /* \"#utility.yul\":2126:2131   */\n      dup4\n        /* \"#utility.yul\":2122:2136   */\n      add\n        /* \"#utility.yul\":2118:2146   */\n      and\n        /* \"#utility.yul\":2108:2146   */\n      swap1\n      pop\n        /* \"#utility.yul\":2050:2152   */\n      swap2\n      swap1\n      pop\n      jump\t// out\n        /* \"#utility.yul\":2158:2535   */\n    tag_270:\n        /* \"#utility.yul\":2246:2249   */\n      0x00\n        /* \"#utility.yul\":2274:2313   */\n      tag_340\n        /* \"#utility.yul\":2307:2312   */\n      dup3\n        /* \"#utility.yul\":2274:2313   */\n      tag_266\n      jump\t// in\n    tag_340:\n        /* \"#utility.yul\":2329:2400   */\n      tag_341\n        /* \"#utility.yul\":2393:2399   */\n      dup2\n        /* \"#utility.yul\":2388:2391   */\n      dup6\n        /* \"#utility.yul\":2329:2400   */\n      tag_267\n      jump\t// in\n    tag_341:\n        /* \"#utility.yul\":2322:2400   */\n      swap4\n      pop\n        /* \"#utility.yul\":2409:2474   */\n      tag_342\n        /* \"#utility.yul\":2467:2473   */\n      dup2\n        /* \"#utility.yul\":2462:2465   */\n      dup6\n        /* \"#utility.yul\":2455:2459   */\n      0x20\n        /* \"#utility.yul\":2448:2453   */\n      dup7\n        /* \"#utility.yul\":2444:2460   */\n      add\n        /* \"#utility.yul\":2409:2474   */\n      tag_268\n      jump\t// in\n    tag_342:\n        /* \"#utility.yul\":2499:2528   */\n      tag_343\n        /* \"#utility.yul\":2521:2527   */\n      dup2\n        /* \"#utility.yul\":2499:2528   */\n      tag_269\n      jump\t// in\n    tag_343:\n        /* \"#utility.yul\":2494:2497   */\n      dup5\n        /* \"#utility.yul\":2490:2529   */\n      add\n        /* \"#utility.yul\":2483:2529   */\n      swap2\n      pop\n        /* \"#utility.yul\":2250:2535   */\n      pop\n        /* \"#utility.yul\":2158:2535   */\n      swap3\n      swap2\n      pop\n      pop\n      jump\t// out\n        /* \"#utility.yul\":2541:2854   */\n    tag_29:\n        /* \"#utility.yul\":2654:2658   */\n      0x00\n        /* \"#utility.yul\":2692:2694   */\n      0x20\n        /* \"#utility.yul\":2681:2690   */\n      dup3\n        /* \"#utility.yul\":2677:2695   */\n      add\n        /* \"#utility.yul\":2669:2695   */\n      swap1\n      pop\n        /* \"#utility.yul\":2741:2750   */\n      dup2\n        /* \"#utility.yul\":2735:2739   */\n      dup2\n        /* \"#utility.yul\":2731:2751   */\n      sub\n        /* \"#utility.yul\":2727:2728   */\n      0x00\n        /* \"#utility.yul\":2716:2725   */\n      dup4\n        /* \"#utility.yul\":2712:2729   */\n      add\n        /* \"#utility.yul\":2705:2752   */\n      mstore\n        /* \"#utility.yul\":2769:2847   */\n      tag_345\n        /* \"#utility.yul\":2842:2846   */\n      dup2\n        /* \"#utility.yul\":2833:2839   */\n      dup5\n        /* \"#utility.yul\":2769:2847   */\n      tag_270\n      jump\t// in\n    tag_345:\n        /* \"#utility.yul\":2761:2847   */\n      swap1\n      pop\n        /* \"#utility.yul\":2541:2854   */\n      swap3\n      swap2\n      pop\n      pop\n      jump\t// out\n        /* \"#utility.yul\":2860:2937   */\n    tag_271:\n        /* \"#utility.yul\":2897:2904   */\n      0x00\n        /* \"#utility.yul\":2926:2931   */\n      dup2\n        /* \"#utility.yul\":2915:2931   */\n      swap1\n      pop\n        /* \"#utility.yul\":2860:2937   */\n      swap2\n      swap1\n      pop\n      jump\t// out\n        /* \"#utility.yul\":2943:3065   */\n    tag_272:\n        /* \"#utility.yul\":3016:3040   */\n      tag_348\n        /* \"#utility.yul\":3034:3039   */\n      dup2\n        /* \"#utility.yul\":3016:3040   */\n      tag_271\n      jump\t// in\n    tag_348:\n        /* \"#utility.yul\":3009:3014   */\n      dup2\n        /* \"#utility.yul\":3006:3041   */\n      eq\n        /* \"#utility.yul\":2996:3059   */\n      tag_349\n      jumpi\n        /* \"#utility.yul\":3055:3056   */\n      0x00\n        /* \"#utility.yul\":3052:3053   */\n      dup1\n        /* \"#utility.yul\":3045:3057   */\n      revert\n        /* \"#utility.yul\":2996:3059   */\n    tag_349:\n        /* \"#utility.yul\":2943:3065   */\n      pop\n      jump\t// out\n        /* \"#utility.yul\":3071:3210   */\n    tag_273:\n        /* \"#utility.yul\":3117:3122   */\n      0x00\n        /* \"#utility.yul\":3155:3161   */\n      dup2\n        /* \"#utility.yul\":3142:3162   */\n      calldataload\n        /* \"#utility.yul\":3133:3162   */\n      swap1\n      pop\n        /* \"#utility.yul\":3171:3204   */\n      tag_351\n        /* \"#utility.yul\":3198:3203   */\n      dup2\n        /* \"#utility.yul\":3171:3204   */\n      tag_272\n      jump\t// in\n    tag_351:\n        /* \"#utility.yul\":3071:3210   */\n      swap3\n      swap2\n      pop\n      pop\n      jump\t// out\n        /* \"#utility.yul\":3216:3545   */\n    tag_32:\n        /* \"#utility.yul\":3275:3281   */\n      0x00\n        /* \"#utility.yul\":3324:3326   */\n      0x20\n        /* \"#utility.yul\":3312:3321   */\n      dup3\n        /* \"#utility.yul\":3303:3310   */\n      dup5\n        /* \"#utility.yul\":3299:3322   */\n      sub\n        /* \"#utility.yul\":3295:3327   */\n      slt\n        /* \"#utility.yul\":3292:3411   */\n      iszero\n      tag_353\n      jumpi\n        /* \"#utility.yul\":3330:3409   */\n      tag_354\n      tag_259\n      jump\t// in\n    tag_354:\n        /* \"#utility.yul\":3292:3411   */\n    tag_353:\n        /* \"#utility.yul\":3450:3451   */\n      0x00\n        /* \"#utility.yul\":3475:3528   */\n      tag_355\n        /* \"#utility.yul\":3520:3527   */\n      dup5\n        /* \"#utility.yul\":3511:3517   */\n      dup3\n        /* \"#utility.yul\":3500:3509   */\n      dup6\n        /* \"#utility.yul\":3496:3518   */\n      add\n        /* \"#utility.yul\":3475:3528   */\n      tag_273\n      jump\t// in\n    tag_355:\n        /* \"#utility.yul\":3465:3528   */\n      swap2\n      pop\n        /* \"#utility.yul\":3421:3538   */\n      pop\n        /* \"#utility.yul\":3216:3545   */\n      swap3\n      swap2\n      pop\n      pop\n      jump\t// out\n        /* \"#utility.yul\":3551:3677   */\n    tag_274:\n        /* \"#utility.yul\":3588:3595   */\n      0x00\n        /* \"#utility.yul\":3628:3670   */\n      0xffffffffffffffffffffffffffffffffffffffff\n        /* \"#utility.yul\":3621:3626   */\n      dup3\n        /* \"#utility.yul\":3617:3671   */\n      and\n        /* \"#utility.yul\":3606:3671   */\n      swap1\n      pop\n        /* \"#utility.yul\":3551:3677   */\n      swap2\n      swap1\n      pop\n      jump\t// out\n        /* \"#utility.yul\":3683:3779   */\n    tag_275:\n        /* \"#utility.yul\":3720:3727   */\n      0x00\n        /* \"#utility.yul\":3749:3773   */\n      tag_358\n        /* \"#utility.yul\":3767:3772   */\n      dup3\n        /* \"#utility.yul\":3749:3773   */\n      tag_274\n      jump\t// in\n    tag_358:\n        /* \"#utility.yul\":3738:3773   */\n      swap1\n      pop\n        /* \"#utility.yul\":3683:3779   */\n      swap2\n      swap1\n      pop\n      jump\t// out\n        /* \"#utility.yul\":3785:3903   */\n    tag_276:\n        /* \"#utility.yul\":3872:3896   */\n      tag_360\n        /* \"#utility.yul\":3890:3895   */\n      dup2\n        /* \"#utility.yul\":3872:3896   */\n      tag_275\n      jump\t// in\n    tag_360:\n        /* \"#utility.yul\":3867:3870   */\n      dup3\n        /* \"#utility.yul\":3860:3897   */\n      mstore\n        /* \"#utility.yul\":3785:3903   */\n      pop\n      pop\n      jump\t// out\n        /* \"#utility.yul\":3909:4131   */\n    tag_35:\n        /* \"#utility.yul\":4002:4006   */\n      0x00\n        /* \"#utility.yul\":4040:4042   */\n      0x20\n        /* \"#utility.yul\":4029:4038   */\n      dup3\n        /* \"#utility.yul\":4025:4043   */\n      add\n        /* \"#utility.yul\":4017:4043   */\n      swap1\n      pop\n        /* \"#utility.yul\":4053:4124   */\n      tag_362\n        /* \"#utility.yul\":4121:4122   */\n      0x00\n        /* \"#utility.yul\":4110:4119   */\n      dup4\n        /* \"#utility.yul\":4106:4123   */\n      add\n        /* \"#utility.yul\":4097:4103   */\n      dup5\n        /* \"#utility.yul\":4053:4124   */\n      tag_276\n      jump\t// in\n    tag_362:\n        /* \"#utility.yul\":3909:4131   */\n      swap3\n      swap2\n      pop\n      pop\n      jump\t// out\n        /* \"#utility.yul\":4137:4259   */\n    tag_277:\n        /* \"#utility.yul\":4210:4234   */\n      tag_364\n        /* \"#utility.yul\":4228:4233   */\n      dup2\n        /* \"#utility.yul\":4210:4234   */\n      tag_275\n      jump\t// in\n    tag_364:\n        /* \"#utility.yul\":4203:4208   */\n      dup2\n        /* \"#utility.yul\":4200:4235   */\n      eq\n        /* \"#utility.yul\":4190:4253   */\n      tag_365\n      jumpi\n        /* \"#utility.yul\":4249:4250   */\n      0x00\n        /* \"#utility.yul\":4246:4247   */\n      dup1\n        /* \"#utility.yul\":4239:4251   */\n      revert\n        /* \"#utility.yul\":4190:4253   */\n    tag_365:\n        /* \"#utility.yul\":4137:4259   */\n      pop\n      jump\t// out\n        /* \"#utility.yul\":4265:4404   */\n    tag_278:\n        /* \"#utility.yul\":4311:4316   */\n      0x00\n        /* \"#utility.yul\":4349:4355   */\n      dup2\n        /* \"#utility.yul\":4336:4356   */\n      calldataload\n        /* \"#utility.yul\":4327:4356   */\n      swap1\n      pop\n        /* \"#utility.yul\":4365:4398   */\n      tag_367\n        /* \"#utility.yul\":4392:4397   */\n      dup2\n        /* \"#utility.yul\":4365:4398   */\n      tag_277\n      jump\t// in\n    tag_367:\n        /* \"#utility.yul\":4265:4404   */\n      swap3\n      swap2\n      pop\n      pop\n      jump\t// out\n        /* \"#utility.yul\":4410:4884   */\n    tag_38:\n        /* \"#utility.yul\":4478:4484   */\n      0x00\n        /* \"#utility.yul\":4486:4492   */\n      dup1\n        /* \"#utility.yul\":4535:4537   */\n      0x40\n        /* \"#utility.yul\":4523:4532   */\n      dup4\n        /* \"#utility.yul\":4514:4521   */\n      dup6\n        /* \"#utility.yul\":4510:4533   */\n      sub\n        /* \"#utility.yul\":4506:4538   */\n      slt\n        /* \"#utility.yul\":4503:4622   */\n      iszero\n      tag_369\n      jumpi\n        /* \"#utility.yul\":4541:4620   */\n      tag_370\n      tag_259\n      jump\t// in\n    tag_370:\n        /* \"#utility.yul\":4503:4622   */\n    tag_369:\n        /* \"#utility.yul\":4661:4662   */\n      0x00\n        /* \"#utility.yul\":4686:4739   */\n      tag_371\n        /* \"#utility.yul\":4731:4738   */\n      dup6\n        /* \"#utility.yul\":4722:4728   */\n      dup3\n        /* \"#utility.yul\":4711:4720   */\n      dup7\n        /* \"#utility.yul\":4707:4729   */\n      add\n        /* \"#utility.yul\":4686:4739   */\n      tag_278\n      jump\t// in\n    tag_371:\n        /* \"#utility.yul\":4676:4739   */\n      swap3\n      pop\n        /* \"#utility.yul\":4632:4749   */\n      pop\n        /* \"#utility.yul\":4788:4790   */\n      0x20\n        /* \"#utility.yul\":4814:4867   */\n      tag_372\n        /* \"#utility.yul\":4859:4866   */\n      dup6\n        /* \"#utility.yul\":4850:4856   */\n      dup3\n        /* \"#utility.yul\":4839:4848   */\n      dup7\n        /* \"#utility.yul\":4835:4857   */\n      add\n        /* \"#utility.yul\":4814:4867   */\n      tag_273\n      jump\t// in\n    tag_372:\n        /* \"#utility.yul\":4804:4867   */\n      swap2\n      pop\n        /* \"#utility.yul\":4759:4877   */\n      pop\n        /* \"#utility.yul\":4410:4884   */\n      swap3\n      pop\n      swap3\n      swap1\n      pop\n      jump\t// out\n        /* \"#utility.yul\":4890:5509   */\n    tag_42:\n        /* \"#utility.yul\":4967:4973   */\n      0x00\n        /* \"#utility.yul\":4975:4981   */\n      dup1\n        /* \"#utility.yul\":4983:4989   */\n      0x00\n        /* \"#utility.yul\":5032:5034   */\n      0x60\n        /* \"#utility.yul\":5020:5029   */\n      dup5\n        /* \"#utility.yul\":5011:5018   */\n      dup7\n        /* \"#utility.yul\":5007:5030   */\n      sub\n        /* \"#utility.yul\":5003:5035   */\n      slt\n        /* \"#utility.yul\":5000:5119   */\n      iszero\n      tag_374\n      jumpi\n        /* \"#utility.yul\":5038:5117   */\n      tag_375\n      tag_259\n      jump\t// in\n    tag_375:\n        /* \"#utility.yul\":5000:5119   */\n    tag_374:\n        /* \"#utility.yul\":5158:5159   */\n      0x00\n        /* \"#utility.yul\":5183:5236   */\n      tag_376\n        /* \"#utility.yul\":5228:5235   */\n      dup7\n        /* \"#utility.yul\":5219:5225   */\n      dup3\n        /* \"#utility.yul\":5208:5217   */\n      dup8\n        /* \"#utility.yul\":5204:5226   */\n      add\n        /* \"#utility.yul\":5183:5236   */\n      tag_278\n      jump\t// in\n    tag_376:\n        /* \"#utility.yul\":5173:5236   */\n      swap4\n      pop\n        /* \"#utility.yul\":5129:5246   */\n      pop\n        /* \"#utility.yul\":5285:5287   */\n      0x20\n        /* \"#utility.yul\":5311:5364   */\n      tag_377\n        /* \"#utility.yul\":5356:5363   */\n      dup7\n        /* \"#utility.yul\":5347:5353   */\n      dup3\n        /* \"#utility.yul\":5336:5345   */\n      dup8\n        /* \"#utility.yul\":5332:5354   */\n      add\n        /* \"#utility.yul\":5311:5364   */\n      tag_278\n      jump\t// in\n    tag_377:\n        /* \"#utility.yul\":5301:5364   */\n      swap3\n      pop\n        /* \"#utility.yul\":5256:5374   */\n      pop\n        /* \"#utility.yul\":5413:5415   */\n      0x40\n        /* \"#utility.yul\":5439:5492   */\n      tag_378\n        /* \"#utility.yul\":5484:5491   */\n      dup7\n        /* \"#utility.yul\":5475:5481   */\n      dup3\n        /* \"#utility.yul\":5464:5473   */\n      dup8\n        /* \"#utility.yul\":5460:5482   */\n      add\n        /* \"#utility.yul\":5439:5492   */\n      tag_273\n      jump\t// in\n    tag_378:\n        /* \"#utility.yul\":5429:5492   */\n      swap2\n      pop\n        /* \"#utility.yul\":5384:5502   */\n      pop\n        /* \"#utility.yul\":4890:5509   */\n      swap3\n      pop\n      swap3\n      pop\n      swap3\n      jump\t// out\n        /* \"#utility.yul\":5515:5844   */\n    tag_56:\n        /* \"#utility.yul\":5574:5580   */\n      0x00\n        /* \"#utility.yul\":5623:5625   */\n      0x20\n        /* \"#utility.yul\":5611:5620   */\n      dup3\n        /* \"#utility.yul\":5602:5609   */\n      dup5\n        /* \"#utility.yul\":5598:5621   */\n      sub\n        /* \"#utility.yul\":5594:5626   */\n      slt\n        /* \"#utility.yul\":5591:5710   */\n      iszero\n      tag_380\n      jumpi\n        /* \"#utility.yul\":5629:5708   */\n      tag_381\n      tag_259\n      jump\t// in\n    tag_381:\n        /* \"#utility.yul\":5591:5710   */\n    tag_380:\n        /* \"#utility.yul\":5749:5750   */\n      0x00\n        /* \"#utility.yul\":5774:5827   */\n      tag_382\n        /* \"#utility.yul\":5819:5826   */\n      dup5\n        /* \"#utility.yul\":5810:5816   */\n      dup3\n        /* \"#utility.yul\":5799:5808   */\n      dup6\n        /* \"#utility.yul\":5795:5817   */\n      add\n        /* \"#utility.yul\":5774:5827   */\n      tag_278\n      jump\t// in\n    tag_382:\n        /* \"#utility.yul\":5764:5827   */\n      swap2\n      pop\n        /* \"#utility.yul\":5720:5837   */\n      pop\n        /* \"#utility.yul\":5515:5844   */\n      swap3\n      swap2\n      pop\n      pop\n      jump\t// out\n        /* \"#utility.yul\":5850:5968   */\n    tag_279:\n        /* \"#utility.yul\":5937:5961   */\n      tag_384\n        /* \"#utility.yul\":5955:5960   */\n      dup2\n        /* \"#utility.yul\":5937:5961   */\n      tag_271\n      jump\t// in\n    tag_384:\n        /* \"#utility.yul\":5932:5935   */\n      dup3\n        /* \"#utility.yul\":5925:5962   */\n      mstore\n        /* \"#utility.yul\":5850:5968   */\n      pop\n      pop\n      jump\t// out\n        /* \"#utility.yul\":5974:6196   */\n    tag_59:\n        /* \"#utility.yul\":6067:6071   */\n      0x00\n        /* \"#utility.yul\":6105:6107   */\n      0x20\n        /* \"#utility.yul\":6094:6103   */\n      dup3\n        /* \"#utility.yul\":6090:6108   */\n      add\n        /* \"#utility.yul\":6082:6108   */\n      swap1\n      pop\n        /* \"#utility.yul\":6118:6189   */\n      tag_386\n        /* \"#utility.yul\":6186:6187   */\n      0x00\n        /* \"#utility.yul\":6175:6184   */\n      dup4\n        /* \"#utility.yul\":6171:6188   */\n      add\n        /* \"#utility.yul\":6162:6168   */\n      dup5\n        /* \"#utility.yul\":6118:6189   */\n      tag_279\n      jump\t// in\n    tag_386:\n        /* \"#utility.yul\":5974:6196   */\n      swap3\n      swap2\n      pop\n      pop\n      jump\t// out\n        /* \"#utility.yul\":6202:6318   */\n    tag_280:\n        /* \"#utility.yul\":6272:6293   */\n      tag_388\n        /* \"#utility.yul\":6287:6292   */\n      dup2\n        /* \"#utility.yul\":6272:6293   */\n      tag_264\n      jump\t// in\n    tag_388:\n        /* \"#utility.yul\":6265:6270   */\n      dup2\n        /* \"#utility.yul\":6262:6294   */\n      eq\n        /* \"#utility.yul\":6252:6312   */\n      tag_389\n      jumpi\n        /* \"#utility.yul\":6308:6309   */\n      0x00\n        /* \"#utility.yul\":6305:6306   */\n      dup1\n        /* \"#utility.yul\":6298:6310   */\n      revert\n        /* \"#utility.yul\":6252:6312   */\n    tag_389:\n        /* \"#utility.yul\":6202:6318   */\n      pop\n      jump\t// out\n        /* \"#utility.yul\":6324:6457   */\n    tag_281:\n        /* \"#utility.yul\":6367:6372   */\n      0x00\n        /* \"#utility.yul\":6405:6411   */\n      dup2\n        /* \"#utility.yul\":6392:6412   */\n      calldataload\n        /* \"#utility.yul\":6383:6412   */\n      swap1\n      pop\n        /* \"#utility.yul\":6421:6451   */\n      tag_391\n        /* \"#utility.yul\":6445:6450   */\n      dup2\n        /* \"#utility.yul\":6421:6451   */\n      tag_280\n      jump\t// in\n    tag_391:\n        /* \"#utility.yul\":6324:6457   */\n      swap3\n      swap2\n      pop\n      pop\n      jump\t// out\n        /* \"#utility.yul\":6463:6931   */\n    tag_65:\n        /* \"#utility.yul\":6528:6534   */\n      0x00\n        /* \"#utility.yul\":6536:6542   */\n      dup1\n        /* \"#utility.yul\":6585:6587   */\n      0x40\n        /* \"#utility.yul\":6573:6582   */\n      dup4\n        /* \"#utility.yul\":6564:6571   */\n      dup6\n        /* \"#utility.yul\":6560:6583   */\n      sub\n        /* \"#utility.yul\":6556:6588   */\n      slt\n        /* \"#utility.yul\":6553:6672   */\n      iszero\n      tag_393\n      jumpi\n        /* \"#utility.yul\":6591:6670   */\n      tag_394\n      tag_259\n      jump\t// in\n    tag_394:\n        /* \"#utility.yul\":6553:6672   */\n    tag_393:\n        /* \"#utility.yul\":6711:6712   */\n      0x00\n        /* \"#utility.yul\":6736:6789   */\n      tag_395\n        /* \"#utility.yul\":6781:6788   */\n      dup6\n        /* \"#utility.yul\":6772:6778   */\n      dup3\n        /* \"#utility.yul\":6761:6770   */\n      dup7\n        /* \"#utility.yul\":6757:6779   */\n      add\n        /* \"#utility.yul\":6736:6789   */\n      tag_278\n      jump\t// in\n    tag_395:\n        /* \"#utility.yul\":6726:6789   */\n      swap3\n      pop\n        /* \"#utility.yul\":6682:6799   */\n      pop\n        /* \"#utility.yul\":6838:6840   */\n      0x20\n        /* \"#utility.yul\":6864:6914   */\n      tag_396\n        /* \"#utility.yul\":6906:6913   */\n      dup6\n        /* \"#utility.yul\":6897:6903   */\n      dup3\n        /* \"#utility.yul\":6886:6895   */\n      dup7\n        /* \"#utility.yul\":6882:6904   */\n      add\n        /* \"#utility.yul\":6864:6914   */\n      tag_281\n      jump\t// in\n    tag_396:\n        /* \"#utility.yul\":6854:6914   */\n      swap2\n      pop\n        /* \"#utility.yul\":6809:6924   */\n      pop\n        /* \"#utility.yul\":6463:6931   */\n      swap3\n      pop\n      swap3\n      swap1\n      pop\n      jump\t// out\n        /* \"#utility.yul\":6937:7054   */\n    tag_282:\n        /* \"#utility.yul\":7046:7047   */\n      0x00\n        /* \"#utility.yul\":7043:7044   */\n      dup1\n        /* \"#utility.yul\":7036:7048   */\n      revert\n        /* \"#utility.yul\":7060:7177   */\n    tag_283:\n        /* \"#utility.yul\":7169:7170   */\n      0x00\n        /* \"#utility.yul\":7166:7167   */\n      dup1\n        /* \"#utility.yul\":7159:7171   */\n      revert\n        /* \"#utility.yul\":7183:7363   */\n    tag_206:\n        /* \"#utility.yul\":7231:7308   */\n      0x4e487b7100000000000000000000000000000000000000000000000000000000\n        /* \"#utility.yul\":7228:7229   */\n      0x00\n        /* \"#utility.yul\":7221:7309   */\n      mstore\n        /* \"#utility.yul\":7328:7332   */\n      0x41\n        /* \"#utility.yul\":7325:7326   */\n      0x04\n        /* \"#utility.yul\":7318:7333   */\n      mstore\n        /* \"#utility.yul\":7352:7356   */\n      0x24\n        /* \"#utility.yul\":7349:7350   */\n      0x00\n        /* \"#utility.yul\":7342:7357   */\n      revert\n        /* \"#utility.yul\":7369:7650   */\n    tag_284:\n        /* \"#utility.yul\":7452:7479   */\n      tag_401\n        /* \"#utility.yul\":7474:7478   */\n      dup3\n        /* \"#utility.yul\":7452:7479   */\n      tag_269\n      jump\t// in\n    tag_401:\n        /* \"#utility.yul\":7444:7450   */\n      dup2\n        /* \"#utility.yul\":7440:7480   */\n      add\n        /* \"#utility.yul\":7582:7588   */\n      dup2\n        /* \"#utility.yul\":7570:7580   */\n      dup2\n        /* \"#utility.yul\":7567:7589   */\n      lt\n        /* \"#utility.yul\":7546:7564   */\n      0xffffffffffffffff\n        /* \"#utility.yul\":7534:7544   */\n      dup3\n        /* \"#utility.yul\":7531:7565   */\n      gt\n        /* \"#utility.yul\":7528:7590   */\n      or\n        /* \"#utility.yul\":7525:7613   */\n      iszero\n      tag_402\n      jumpi\n        /* \"#utility.yul\":7593:7611   */\n      tag_403\n      tag_206\n      jump\t// in\n    tag_403:\n        /* \"#utility.yul\":7525:7613   */\n    tag_402:\n        /* \"#utility.yul\":7633:7643   */\n      dup1\n        /* \"#utility.yul\":7629:7631   */\n      0x40\n        /* \"#utility.yul\":7622:7644   */\n      mstore\n        /* \"#utility.yul\":7412:7650   */\n      pop\n        /* \"#utility.yul\":7369:7650   */\n      pop\n      pop\n      jump\t// out\n        /* \"#utility.yul\":7656:7785   */\n    tag_285:\n        /* \"#utility.yul\":7690:7696   */\n      0x00\n        /* \"#utility.yul\":7717:7737   */\n      tag_405\n      tag_258\n      jump\t// in\n    tag_405:\n        /* \"#utility.yul\":7707:7737   */\n      swap1\n      pop\n        /* \"#utility.yul\":7746:7779   */\n      tag_406\n        /* \"#utility.yul\":7774:7778   */\n      dup3\n        /* \"#utility.yul\":7766:7772   */\n      dup3\n        /* \"#utility.yul\":7746:7779   */\n      tag_284\n      jump\t// in\n    tag_406:\n        /* \"#utility.yul\":7656:7785   */\n      swap2\n      swap1\n      pop\n      jump\t// out\n        /* \"#utility.yul\":7791:8098   */\n    tag_286:\n        /* \"#utility.yul\":7852:7856   */\n      0x00\n        /* \"#utility.yul\":7942:7960   */\n      0xffffffffffffffff\n        /* \"#utility.yul\":7934:7940   */\n      dup3\n        /* \"#utility.yul\":7931:7961   */\n      gt\n        /* \"#utility.yul\":7928:7984   */\n      iszero\n      tag_408\n      jumpi\n        /* \"#utility.yul\":7964:7982   */\n      tag_409\n      tag_206\n      jump\t// in\n    tag_409:\n        /* \"#utility.yul\":7928:7984   */\n    tag_408:\n        /* \"#utility.yul\":8002:8031   */\n      tag_410\n        /* \"#utility.yul\":8024:8030   */\n      dup3\n        /* \"#utility.yul\":8002:8031   */\n      tag_269\n      jump\t// in\n    tag_410:\n        /* \"#utility.yul\":7994:8031   */\n      swap1\n      pop\n        /* \"#utility.yul\":8086:8090   */\n      0x20\n        /* \"#utility.yul\":8080:8084   */\n      dup2\n        /* \"#utility.yul\":8076:8091   */\n      add\n        /* \"#utility.yul\":8068:8091   */\n      swap1\n      pop\n        /* \"#utility.yul\":7791:8098   */\n      swap2\n      swap1\n      pop\n      jump\t// out\n        /* \"#utility.yul\":8104:8250   */\n    tag_287:\n        /* \"#utility.yul\":8201:8207   */\n      dup3\n        /* \"#utility.yul\":8196:8199   */\n      dup2\n        /* \"#utility.yul\":8191:8194   */\n      dup4\n        /* \"#utility.yul\":8178:8208   */\n      calldatacopy\n        /* \"#utility.yul\":8242:8243   */\n      0x00\n        /* \"#utility.yul\":8233:8239   */\n      dup4\n        /* \"#utility.yul\":8228:8231   */\n      dup4\n        /* \"#utility.yul\":8224:8240   */\n      add\n        /* \"#utility.yul\":8217:8244   */\n      mstore\n        /* \"#utility.yul\":8104:8250   */\n      pop\n      pop\n      pop\n      jump\t// out\n        /* \"#utility.yul\":8256:8679   */\n    tag_288:\n        /* \"#utility.yul\":8333:8338   */\n      0x00\n        /* \"#utility.yul\":8358:8423   */\n      tag_413\n        /* \"#utility.yul\":8374:8422   */\n      tag_414\n        /* \"#utility.yul\":8415:8421   */\n      dup5\n        /* \"#utility.yul\":8374:8422   */\n      tag_286\n      jump\t// in\n    tag_414:\n        /* \"#utility.yul\":8358:8423   */\n      tag_285\n      jump\t// in\n    tag_413:\n        /* \"#utility.yul\":8349:8423   */\n      swap1\n      pop\n        /* \"#utility.yul\":8446:8452   */\n      dup3\n        /* \"#utility.yul\":8439:8444   */\n      dup2\n        /* \"#utility.yul\":8432:8453   */\n      mstore\n        /* \"#utility.yul\":8484:8488   */\n      0x20\n        /* \"#utility.yul\":8477:8482   */\n      dup2\n        /* \"#utility.yul\":8473:8489   */\n      add\n        /* \"#utility.yul\":8522:8525   */\n      dup5\n        /* \"#utility.yul\":8513:8519   */\n      dup5\n        /* \"#utility.yul\":8508:8511   */\n      dup5\n        /* \"#utility.yul\":8504:8520   */\n      add\n        /* \"#utility.yul\":8501:8526   */\n      gt\n        /* \"#utility.yul\":8498:8610   */\n      iszero\n      tag_415\n      jumpi\n        /* \"#utility.yul\":8529:8608   */\n      tag_416\n      tag_283\n      jump\t// in\n    tag_416:\n        /* \"#utility.yul\":8498:8610   */\n    tag_415:\n        /* \"#utility.yul\":8619:8673   */\n      tag_417\n        /* \"#utility.yul\":8666:8672   */\n      dup5\n        /* \"#utility.yul\":8661:8664   */\n      dup3\n        /* \"#utility.yul\":8656:8659   */\n      dup6\n        /* \"#utility.yul\":8619:8673   */\n      tag_287\n      jump\t// in\n    tag_417:\n        /* \"#utility.yul\":8339:8679   */\n      pop\n        /* \"#utility.yul\":8256:8679   */\n      swap4\n      swap3\n      pop\n      pop\n      pop\n      jump\t// out\n        /* \"#utility.yul\":8698:9036   */\n    tag_289:\n        /* \"#utility.yul\":8753:8758   */\n      0x00\n        /* \"#utility.yul\":8802:8805   */\n      dup3\n        /* \"#utility.yul\":8795:8799   */\n      0x1f\n        /* \"#utility.yul\":8787:8793   */\n      dup4\n        /* \"#utility.yul\":8783:8800   */\n      add\n        /* \"#utility.yul\":8779:8806   */\n      slt\n        /* \"#utility.yul\":8769:8891   */\n      tag_419\n      jumpi\n        /* \"#utility.yul\":8810:8889   */\n      tag_420\n      tag_282\n      jump\t// in\n    tag_420:\n        /* \"#utility.yul\":8769:8891   */\n    tag_419:\n        /* \"#utility.yul\":8927:8933   */\n      dup2\n        /* \"#utility.yul\":8914:8934   */\n      calldataload\n        /* \"#utility.yul\":8952:9030   */\n      tag_421\n        /* \"#utility.yul\":9026:9029   */\n      dup5\n        /* \"#utility.yul\":9018:9024   */\n      dup3\n        /* \"#utility.yul\":9011:9015   */\n      0x20\n        /* \"#utility.yul\":9003:9009   */\n      dup7\n        /* \"#utility.yul\":8999:9016   */\n      add\n        /* \"#utility.yul\":8952:9030   */\n      tag_288\n      jump\t// in\n    tag_421:\n        /* \"#utility.yul\":8943:9030   */\n      swap2\n      pop\n        /* \"#utility.yul\":8759:9036   */\n      pop\n        /* \"#utility.yul\":8698:9036   */\n      swap3\n      swap2\n      pop\n      pop\n      jump\t// out\n        /* \"#utility.yul\":9042:9985   */\n    tag_69:\n        /* \"#utility.yul\":9137:9143   */\n      0x00\n        /* \"#utility.yul\":9145:9151   */\n      dup1\n        /* \"#utility.yul\":9153:9159   */\n      0x00\n        /* \"#utility.yul\":9161:9167   */\n      dup1\n        /* \"#utility.yul\":9210:9213   */\n      0x80\n        /* \"#utility.yul\":9198:9207   */\n      dup6\n        /* \"#utility.yul\":9189:9196   */\n      dup8\n        /* \"#utility.yul\":9185:9208   */\n      sub\n        /* \"#utility.yul\":9181:9214   */\n      slt\n        /* \"#utility.yul\":9178:9298   */\n      iszero\n      tag_423\n      jumpi\n        /* \"#utility.yul\":9217:9296   */\n      tag_424\n      tag_259\n      jump\t// in\n    tag_424:\n        /* \"#utility.yul\":9178:9298   */\n    tag_423:\n        /* \"#utility.yul\":9337:9338   */\n      0x00\n        /* \"#utility.yul\":9362:9415   */\n      tag_425\n        /* \"#utility.yul\":9407:9414   */\n      dup8\n        /* \"#utility.yul\":9398:9404   */\n      dup3\n        /* \"#utility.yul\":9387:9396   */\n      dup9\n        /* \"#utility.yul\":9383:9405   */\n      add\n        /* \"#utility.yul\":9362:9415   */\n      tag_278\n      jump\t// in\n    tag_425:\n        /* \"#utility.yul\":9352:9415   */\n      swap5\n      pop\n        /* \"#utility.yul\":9308:9425   */\n      pop\n        /* \"#utility.yul\":9464:9466   */\n      0x20\n        /* \"#utility.yul\":9490:9543   */\n      tag_426\n        /* \"#utility.yul\":9535:9542   */\n      dup8\n        /* \"#utility.yul\":9526:9532   */\n      dup3\n        /* \"#utility.yul\":9515:9524   */\n      dup9\n        /* \"#utility.yul\":9511:9533   */\n      add\n        /* \"#utility.yul\":9490:9543   */\n      tag_278\n      jump\t// in\n    tag_426:\n        /* \"#utility.yul\":9480:9543   */\n      swap4\n      pop\n        /* \"#utility.yul\":9435:9553   */\n      pop\n        /* \"#utility.yul\":9592:9594   */\n      0x40\n        /* \"#utility.yul\":9618:9671   */\n      tag_427\n        /* \"#utility.yul\":9663:9670   */\n      dup8\n        /* \"#utility.yul\":9654:9660   */\n      dup3\n        /* \"#utility.yul\":9643:9652   */\n      dup9\n        /* \"#utility.yul\":9639:9661   */\n      add\n        /* \"#utility.yul\":9618:9671   */\n      tag_273\n      jump\t// in\n    tag_427:\n        /* \"#utility.yul\":9608:9671   */\n      swap3\n      pop\n        /* \"#utility.yul\":9563:9681   */\n      pop\n        /* \"#utility.yul\":9748:9750   */\n      0x60\n        /* \"#utility.yul\":9737:9746   */\n      dup6\n        /* \"#utility.yul\":9733:9751   */\n      add\n        /* \"#utility.yul\":9720:9752   */\n      calldataload\n        /* \"#utility.yul\":9779:9797   */\n      0xffffffffffffffff\n        /* \"#utility.yul\":9771:9777   */\n      dup2\n        /* \"#utility.yul\":9768:9798   */\n      gt\n        /* \"#utility.yul\":9765:9882   */\n      iszero\n      tag_428\n      jumpi\n        /* \"#utility.yul\":9801:9880   */\n      tag_429\n      tag_260\n      jump\t// in\n    tag_429:\n        /* \"#utility.yul\":9765:9882   */\n    tag_428:\n        /* \"#utility.yul\":9906:9968   */\n      tag_430\n        /* \"#utility.yul\":9960:9967   */\n      dup8\n        /* \"#utility.yul\":9951:9957   */\n      dup3\n        /* \"#utility.yul\":9940:9949   */\n      dup9\n        /* \"#utility.yul\":9936:9958   */\n      add\n        /* \"#utility.yul\":9906:9968   */\n      tag_289\n      jump\t// in\n    tag_430:\n        /* \"#utility.yul\":9896:9968   */\n      swap2\n      pop\n        /* \"#utility.yul\":9691:9978   */\n      pop\n        /* \"#utility.yul\":9042:9985   */\n      swap3\n      swap6\n      swap2\n      swap5\n      pop\n      swap3\n      pop\n      jump\t// out\n        /* \"#utility.yul\":9991:10465   */\n    tag_77:\n        /* \"#utility.yul\":10059:10065   */\n      0x00\n        /* \"#utility.yul\":10067:10073   */\n      dup1\n        /* \"#utility.yul\":10116:10118   */\n      0x40\n        /* \"#utility.yul\":10104:10113   */\n      dup4\n        /* \"#utility.yul\":10095:10102   */\n      dup6\n        /* \"#utility.yul\":10091:10114   */\n      sub\n        /* \"#utility.yul\":10087:10119   */\n      slt\n        /* \"#utility.yul\":10084:10203   */\n      iszero\n      tag_432\n      jumpi\n        /* \"#utility.yul\":10122:10201   */\n      tag_433\n      tag_259\n      jump\t// in\n    tag_433:\n        /* \"#utility.yul\":10084:10203   */\n    tag_432:\n        /* \"#utility.yul\":10242:10243   */\n      0x00\n        /* \"#utility.yul\":10267:10320   */\n      tag_434\n        /* \"#utility.yul\":10312:10319   */\n      dup6\n        /* \"#utility.yul\":10303:10309   */\n      dup3\n        /* \"#utility.yul\":10292:10301   */\n      dup7\n        /* \"#utility.yul\":10288:10310   */\n      add\n        /* \"#utility.yul\":10267:10320   */\n      tag_278\n      jump\t// in\n    tag_434:\n        /* \"#utility.yul\":10257:10320   */\n      swap3\n      pop\n        /* \"#utility.yul\":10213:10330   */\n      pop\n        /* \"#utility.yul\":10369:10371   */\n      0x20\n        /* \"#utility.yul\":10395:10448   */\n      tag_435\n        /* \"#utility.yul\":10440:10447   */\n      dup6\n        /* \"#utility.yul\":10431:10437   */\n      dup3\n        /* \"#utility.yul\":10420:10429   */\n      dup7\n        /* \"#utility.yul\":10416:10438   */\n      add\n        /* \"#utility.yul\":10395:10448   */\n      tag_278\n      jump\t// in\n    tag_435:\n        /* \"#utility.yul\":10385:10448   */\n      swap2\n      pop\n        /* \"#utility.yul\":10340:10458   */\n      pop\n        /* \"#utility.yul\":9991:10465   */\n      swap3\n      pop\n      swap3\n      swap1\n      pop\n      jump\t// out\n        /* \"#utility.yul\":10471:10651   */\n    tag_290:\n        /* \"#utility.yul\":10519:10596   */\n      0x4e487b7100000000000000000000000000000000000000000000000000000000\n        /* \"#utility.yul\":10516:10517   */\n      0x00\n        /* \"#utility.yul\":10509:10597   */\n      mstore\n        /* \"#utility.yul\":10616:10620   */\n      0x22\n        /* \"#utility.yul\":10613:10614   */\n      0x04\n        /* \"#utility.yul\":10606:10621   */\n      mstore\n        /* \"#utility.yul\":10640:10644   */\n      0x24\n        /* \"#utility.yul\":10637:10638   */\n      0x00\n        /* \"#utility.yul\":10630:10645   */\n      revert\n        /* \"#utility.yul\":10657:10977   */\n    tag_87:\n        /* \"#utility.yul\":10701:10707   */\n      0x00\n        /* \"#utility.yul\":10738:10739   */\n      0x02\n        /* \"#utility.yul\":10732:10736   */\n      dup3\n        /* \"#utility.yul\":10728:10740   */\n      div\n        /* \"#utility.yul\":10718:10740   */\n      swap1\n      pop\n        /* \"#utility.yul\":10785:10786   */\n      0x01\n        /* \"#utility.yul\":10779:10783   */\n      dup3\n        /* \"#utility.yul\":10775:10787   */\n      and\n        /* \"#utility.yul\":10806:10824   */\n      dup1\n        /* \"#utility.yul\":10796:10877   */\n      tag_438\n      jumpi\n        /* \"#utility.yul\":10862:10866   */\n      0x7f\n        /* \"#utility.yul\":10854:10860   */\n      dup3\n        /* \"#utility.yul\":10850:10867   */\n      and\n        /* \"#utility.yul\":10840:10867   */\n      swap2\n      pop\n        /* \"#utility.yul\":10796:10877   */\n    tag_438:\n        /* \"#utility.yul\":10924:10926   */\n      0x20\n        /* \"#utility.yul\":10916:10922   */\n      dup3\n        /* \"#utility.yul\":10913:10927   */\n      lt\n        /* \"#utility.yul\":10893:10911   */\n      dup2\n        /* \"#utility.yul\":10890:10928   */\n      sub\n        /* \"#utility.yul\":10887:10971   */\n      tag_439\n      jumpi\n        /* \"#utility.yul\":10943:10961   */\n      tag_440\n      tag_290\n      jump\t// in\n    tag_440:\n        /* \"#utility.yul\":10887:10971   */\n    tag_439:\n        /* \"#utility.yul\":10708:10977   */\n      pop\n        /* \"#utility.yul\":10657:10977   */\n      swap2\n      swap1\n      pop\n      jump\t// out\n        /* \"#utility.yul\":10983:11203   */\n    tag_291:\n        /* \"#utility.yul\":11123:11157   */\n      0x4552433732313a20617070726f76616c20746f2063757272656e74206f776e65\n        /* \"#utility.yul\":11119:11120   */\n      0x00\n        /* \"#utility.yul\":11111:11117   */\n      dup3\n        /* \"#utility.yul\":11107:11121   */\n      add\n        /* \"#utility.yul\":11100:11158   */\n      mstore\n        /* \"#utility.yul\":11192:11195   */\n      0x7200000000000000000000000000000000000000000000000000000000000000\n        /* \"#utility.yul\":11187:11189   */\n      0x20\n        /* \"#utility.yul\":11179:11185   */\n      dup3\n        /* \"#utility.yul\":11175:11190   */\n      add\n        /* \"#utility.yul\":11168:11196   */\n      mstore\n        /* \"#utility.yul\":10983:11203   */\n      pop\n      jump\t// out\n        /* \"#utility.yul\":11209:11575   */\n    tag_292:\n        /* \"#utility.yul\":11351:11354   */\n      0x00\n        /* \"#utility.yul\":11372:11439   */\n      tag_443\n        /* \"#utility.yul\":11436:11438   */\n      0x21\n        /* \"#utility.yul\":11431:11434   */\n      dup4\n        /* \"#utility.yul\":11372:11439   */\n      tag_267\n      jump\t// in\n    tag_443:\n        /* \"#utility.yul\":11365:11439   */\n      swap2\n      pop\n        /* \"#utility.yul\":11448:11541   */\n      tag_444\n        /* \"#utility.yul\":11537:11540   */\n      dup3\n        /* \"#utility.yul\":11448:11541   */\n      tag_291\n      jump\t// in\n    tag_444:\n        /* \"#utility.yul\":11566:11568   */\n      0x40\n        /* \"#utility.yul\":11561:11564   */\n      dup3\n        /* \"#utility.yul\":11557:11569   */\n      add\n        /* \"#utility.yul\":11550:11569   */\n      swap1\n      pop\n        /* \"#utility.yul\":11209:11575   */\n      swap2\n      swap1\n      pop\n      jump\t// out\n        /* \"#utility.yul\":11581:12000   */\n    tag_99:\n        /* \"#utility.yul\":11747:11751   */\n      0x00\n        /* \"#utility.yul\":11785:11787   */\n      0x20\n        /* \"#utility.yul\":11774:11783   */\n      dup3\n        /* \"#utility.yul\":11770:11788   */\n      add\n        /* \"#utility.yul\":11762:11788   */\n      swap1\n      pop\n        /* \"#utility.yul\":11834:11843   */\n      dup2\n        /* \"#utility.yul\":11828:11832   */\n      dup2\n        /* \"#utility.yul\":11824:11844   */\n      sub\n        /* \"#utility.yul\":11820:11821   */\n      0x00\n        /* \"#utility.yul\":11809:11818   */\n      dup4\n        /* \"#utility.yul\":11805:11822   */\n      add\n        /* \"#utility.yul\":11798:11845   */\n      mstore\n        /* \"#utility.yul\":11862:11993   */\n      tag_446\n        /* \"#utility.yul\":11988:11992   */\n      dup2\n        /* \"#utility.yul\":11862:11993   */\n      tag_292\n      jump\t// in\n    tag_446:\n        /* \"#utility.yul\":11854:11993   */\n      swap1\n      pop\n        /* \"#utility.yul\":11581:12000   */\n      swap2\n      swap1\n      pop\n      jump\t// out\n        /* \"#utility.yul\":12006:12254   */\n    tag_293:\n        /* \"#utility.yul\":12146:12180   */\n      0x4552433732313a20617070726f76652063616c6c6572206973206e6f7420746f\n        /* \"#utility.yul\":12142:12143   */\n      0x00\n        /* \"#utility.yul\":12134:12140   */\n      dup3\n        /* \"#utility.yul\":12130:12144   */\n      add\n        /* \"#utility.yul\":12123:12181   */\n      mstore\n        /* \"#utility.yul\":12215:12246   */\n      0x6b656e206f776e6572206f7220617070726f76656420666f7220616c6c000000\n        /* \"#utility.yul\":12210:12212   */\n      0x20\n        /* \"#utility.yul\":12202:12208   */\n      dup3\n        /* \"#utility.yul\":12198:12213   */\n      add\n        /* \"#utility.yul\":12191:12247   */\n      mstore\n        /* \"#utility.yul\":12006:12254   */\n      pop\n      jump\t// out\n        /* \"#utility.yul\":12260:12626   */\n    tag_294:\n        /* \"#utility.yul\":12402:12405   */\n      0x00\n        /* \"#utility.yul\":12423:12490   */\n      tag_449\n        /* \"#utility.yul\":12487:12489   */\n      0x3d\n        /* \"#utility.yul\":12482:12485   */\n      dup4\n        /* \"#utility.yul\":12423:12490   */\n      tag_267\n      jump\t// in\n    tag_449:\n        /* \"#utility.yul\":12416:12490   */\n      swap2\n      pop\n        /* \"#utility.yul\":12499:12592   */\n      tag_450\n        /* \"#utility.yul\":12588:12591   */\n      dup3\n        /* \"#utility.yul\":12499:12592   */\n      tag_293\n      jump\t// in\n    tag_450:\n        /* \"#utility.yul\":12617:12619   */\n      0x40\n        /* \"#utility.yul\":12612:12615   */\n      dup3\n        /* \"#utility.yul\":12608:12620   */\n      add\n        /* \"#utility.yul\":12601:12620   */\n      swap1\n      pop\n        /* \"#utility.yul\":12260:12626   */\n      swap2\n      swap1\n      pop\n      jump\t// out\n        /* \"#utility.yul\":12632:13051   */\n    tag_107:\n        /* \"#utility.yul\":12798:12802   */\n      0x00\n        /* \"#utility.yul\":12836:12838   */\n      0x20\n        /* \"#utility.yul\":12825:12834   */\n      dup3\n        /* \"#utility.yul\":12821:12839   */\n      add\n        /* \"#utility.yul\":12813:12839   */\n      swap1\n      pop\n        /* \"#utility.yul\":12885:12894   */\n      dup2\n        /* \"#utility.yul\":12879:12883   */\n      dup2\n        /* \"#utility.yul\":12875:12895   */\n      sub\n        /* \"#utility.yul\":12871:12872   */\n      0x00\n        /* \"#utility.yul\":12860:12869   */\n      dup4\n        /* \"#utility.yul\":12856:12873   */\n      add\n        /* \"#utility.yul\":12849:12896   */\n      mstore\n        /* \"#utility.yul\":12913:13044   */\n      tag_452\n        /* \"#utility.yul\":13039:13043   */\n      dup2\n        /* \"#utility.yul\":12913:13044   */\n      tag_294\n      jump\t// in\n    tag_452:\n        /* \"#utility.yul\":12905:13044   */\n      swap1\n      pop\n        /* \"#utility.yul\":12632:13051   */\n      swap2\n      swap1\n      pop\n      jump\t// out\n        /* \"#utility.yul\":13057:13289   */\n    tag_295:\n        /* \"#utility.yul\":13197:13231   */\n      0x4552433732313a2063616c6c6572206973206e6f7420746f6b656e206f776e65\n        /* \"#utility.yul\":13193:13194   */\n      0x00\n        /* \"#utility.yul\":13185:13191   */\n      dup3\n        /* \"#utility.yul\":13181:13195   */\n      add\n        /* \"#utility.yul\":13174:13232   */\n      mstore\n        /* \"#utility.yul\":13266:13281   */\n      0x72206f7220617070726f76656400000000000000000000000000000000000000\n        /* \"#utility.yul\":13261:13263   */\n      0x20\n        /* \"#utility.yul\":13253:13259   */\n      dup3\n        /* \"#utility.yul\":13249:13264   */\n      add\n        /* \"#utility.yul\":13242:13282   */\n      mstore\n        /* \"#utility.yul\":13057:13289   */\n      pop\n      jump\t// out\n        /* \"#utility.yul\":13295:13661   */\n    tag_296:\n        /* \"#utility.yul\":13437:13440   */\n      0x00\n        /* \"#utility.yul\":13458:13525   */\n      tag_455\n        /* \"#utility.yul\":13522:13524   */\n      0x2d\n        /* \"#utility.yul\":13517:13520   */\n      dup4\n        /* \"#utility.yul\":13458:13525   */\n      tag_267\n      jump\t// in\n    tag_455:\n        /* \"#utility.yul\":13451:13525   */\n      swap2\n      pop\n        /* \"#utility.yul\":13534:13627   */\n      tag_456\n        /* \"#utility.yul\":13623:13626   */\n      dup3\n        /* \"#utility.yul\":13534:13627   */\n      tag_295\n      jump\t// in\n    tag_456:\n        /* \"#utility.yul\":13652:13654   */\n      0x40\n        /* \"#utility.yul\":13647:13650   */\n      dup3\n        /* \"#utility.yul\":13643:13655   */\n      add\n        /* \"#utility.yul\":13636:13655   */\n      swap1\n      pop\n        /* \"#utility.yul\":13295:13661   */\n      swap2\n      swap1\n      pop\n      jump\t// out\n        /* \"#utility.yul\":13667:14086   */\n    tag_116:\n        /* \"#utility.yul\":13833:13837   */\n      0x00\n        /* \"#utility.yul\":13871:13873   */\n      0x20\n        /* \"#utility.yul\":13860:13869   */\n      dup3\n        /* \"#utility.yul\":13856:13874   */\n      add\n        /* \"#utility.yul\":13848:13874   */\n      swap1\n      pop\n        /* \"#utility.yul\":13920:13929   */\n      dup2\n        /* \"#utility.yul\":13914:13918   */\n      dup2\n        /* \"#utility.yul\":13910:13930   */\n      sub\n        /* \"#utility.yul\":13906:13907   */\n      0x00\n        /* \"#utility.yul\":13895:13904   */\n      dup4\n        /* \"#utility.yul\":13891:13908   */\n      add\n        /* \"#utility.yul\":13884:13931   */\n      mstore\n        /* \"#utility.yul\":13948:14079   */\n      tag_458\n        /* \"#utility.yul\":14074:14078   */\n      dup2\n        /* \"#utility.yul\":13948:14079   */\n      tag_296\n      jump\t// in\n    tag_458:\n        /* \"#utility.yul\":13940:14079   */\n      swap1\n      pop\n        /* \"#utility.yul\":13667:14086   */\n      swap2\n      swap1\n      pop\n      jump\t// out\n        /* \"#utility.yul\":14092:14316   */\n    tag_297:\n        /* \"#utility.yul\":14232:14266   */\n      0x4552433732313a207472616e736665722066726f6d20696e636f727265637420\n        /* \"#utility.yul\":14228:14229   */\n      0x00\n        /* \"#utility.yul\":14220:14226   */\n      dup3\n        /* \"#utility.yul\":14216:14230   */\n      add\n        /* \"#utility.yul\":14209:14267   */\n      mstore\n        /* \"#utility.yul\":14301:14308   */\n      0x6f776e6572000000000000000000000000000000000000000000000000000000\n        /* \"#utility.yul\":14296:14298   */\n      0x20\n        /* \"#utility.yul\":14288:14294   */\n      dup3\n        /* \"#utility.yul\":14284:14299   */\n      add\n        /* \"#utility.yul\":14277:14309   */\n      mstore\n        /* \"#utility.yul\":14092:14316   */\n      pop\n      jump\t// out\n        /* \"#utility.yul\":14322:14688   */\n    tag_298:\n        /* \"#utility.yul\":14464:14467   */\n      0x00\n        /* \"#utility.yul\":14485:14552   */\n      tag_461\n        /* \"#utility.yul\":14549:14551   */\n      0x25\n        /* \"#utility.yul\":14544:14547   */\n      dup4\n        /* \"#utility.yul\":14485:14552   */\n      tag_267\n      jump\t// in\n    tag_461:\n        /* \"#utility.yul\":14478:14552   */\n      swap2\n      pop\n        /* \"#utility.yul\":14561:14654   */\n      tag_462\n        /* \"#utility.yul\":14650:14653   */\n      dup3\n        /* \"#utility.yul\":14561:14654   */\n      tag_297\n      jump\t// in\n    tag_462:\n        /* \"#utility.yul\":14679:14681   */\n      0x40\n        /* \"#utility.yul\":14674:14677   */\n      dup3\n        /* \"#utility.yul\":14670:14682   */\n      add\n        /* \"#utility.yul\":14663:14682   */\n      swap1\n      pop\n        /* \"#utility.yul\":14322:14688   */\n      swap2\n      swap1\n      pop\n      jump\t// out\n        /* \"#utility.yul\":14694:15113   */\n    tag_122:\n        /* \"#utility.yul\":14860:14864   */\n      0x00\n        /* \"#utility.yul\":14898:14900   */\n      0x20\n        /* \"#utility.yul\":14887:14896   */\n      dup3\n        /* \"#utility.yul\":14883:14901   */\n      add\n        /* \"#utility.yul\":14875:14901   */\n      swap1\n      pop\n        /* \"#utility.yul\":14947:14956   */\n      dup2\n        /* \"#utility.yul\":14941:14945   */\n      dup2\n        /* \"#utility.yul\":14937:14957   */\n      sub\n        /* \"#utility.yul\":14933:14934   */\n      0x00\n        /* \"#utility.yul\":14922:14931   */\n      dup4\n        /* \"#utility.yul\":14918:14935   */\n      add\n        /* \"#utility.yul\":14911:14958   */\n      mstore\n        /* \"#utility.yul\":14975:15106   */\n      tag_464\n        /* \"#utility.yul\":15101:15105   */\n      dup2\n        /* \"#utility.yul\":14975:15106   */\n      tag_298\n      jump\t// in\n    tag_464:\n        /* \"#utility.yul\":14967:15106   */\n      swap1\n      pop\n        /* \"#utility.yul\":14694:15113   */\n      swap2\n      swap1\n      pop\n      jump\t// out\n        /* \"#utility.yul\":15119:15293   */\n    tag_299:\n        /* \"#utility.yul\":15259:15285   */\n      0x4552433732313a20696e76616c696420746f6b656e2049440000000000000000\n        /* \"#utility.yul\":15255:15256   */\n      0x00\n        /* \"#utility.yul\":15247:15253   */\n      dup3\n        /* \"#utility.yul\":15243:15257   */\n      add\n        /* \"#utility.yul\":15236:15286   */\n      mstore\n        /* \"#utility.yul\":15119:15293   */\n      pop\n      jump\t// out\n        /* \"#utility.yul\":15299:15665   */\n    tag_300:\n        /* \"#utility.yul\":15441:15444   */\n      0x00\n        /* \"#utility.yul\":15462:15529   */\n      tag_467\n        /* \"#utility.yul\":15526:15528   */\n      0x18\n        /* \"#utility.yul\":15521:15524   */\n      dup4\n        /* \"#utility.yul\":15462:15529   */\n      tag_267\n      jump\t// in\n    tag_467:\n        /* \"#utility.yul\":15455:15529   */\n      swap2\n      pop\n        /* \"#utility.yul\":15538:15631   */\n      tag_468\n        /* \"#utility.yul\":15627:15630   */\n      dup3\n        /* \"#utility.yul\":15538:15631   */\n      tag_299\n      jump\t// in\n    tag_468:\n        /* \"#utility.yul\":15656:15658   */\n      0x20\n        /* \"#utility.yul\":15651:15654   */\n      dup3\n        /* \"#utility.yul\":15647:15659   */\n      add\n        /* \"#utility.yul\":15640:15659   */\n      swap1\n      pop\n        /* \"#utility.yul\":15299:15665   */\n      swap2\n      swap1\n      pop\n      jump\t// out\n        /* \"#utility.yul\":15671:16090   */\n    tag_137:\n        /* \"#utility.yul\":15837:15841   */\n      0x00\n        /* \"#utility.yul\":15875:15877   */\n      0x20\n        /* \"#utility.yul\":15864:15873   */\n      dup3\n        /* \"#utility.yul\":15860:15878   */\n      add\n        /* \"#utility.yul\":15852:15878   */\n      swap1\n      pop\n        /* \"#utility.yul\":15924:15933   */\n      dup2\n        /* \"#utility.yul\":15918:15922   */\n      dup2\n        /* \"#utility.yul\":15914:15934   */\n      sub\n        /* \"#utility.yul\":15910:15911   */\n      0x00\n        /* \"#utility.yul\":15899:15908   */\n      dup4\n        /* \"#utility.yul\":15895:15912   */\n      add\n        /* \"#utility.yul\":15888:15935   */\n      mstore\n        /* \"#utility.yul\":15952:16083   */\n      tag_470\n        /* \"#utility.yul\":16078:16082   */\n      dup2\n        /* \"#utility.yul\":15952:16083   */\n      tag_300\n      jump\t// in\n    tag_470:\n        /* \"#utility.yul\":15944:16083   */\n      swap1\n      pop\n        /* \"#utility.yul\":15671:16090   */\n      swap2\n      swap1\n      pop\n      jump\t// out\n        /* \"#utility.yul\":16096:16324   */\n    tag_301:\n        /* \"#utility.yul\":16236:16270   */\n      0x4552433732313a2061646472657373207a65726f206973206e6f742061207661\n        /* \"#utility.yul\":16232:16233   */\n      0x00\n        /* \"#utility.yul\":16224:16230   */\n      dup3\n        /* \"#utility.yul\":16220:16234   */\n      add\n        /* \"#utility.yul\":16213:16271   */\n      mstore\n        /* \"#utility.yul\":16305:16316   */\n      0x6c6964206f776e65720000000000000000000000000000000000000000000000\n        /* \"#utility.yul\":16300:16302   */\n      0x20\n        /* \"#utility.yul\":16292:16298   */\n      dup3\n        /* \"#utility.yul\":16288:16303   */\n      add\n        /* \"#utility.yul\":16281:16317   */\n      mstore\n        /* \"#utility.yul\":16096:16324   */\n      pop\n      jump\t// out\n        /* \"#utility.yul\":16330:16696   */\n    tag_302:\n        /* \"#utility.yul\":16472:16475   */\n      0x00\n        /* \"#utility.yul\":16493:16560   */\n      tag_473\n        /* \"#utility.yul\":16557:16559   */\n      0x29\n        /* \"#utility.yul\":16552:16555   */\n      dup4\n        /* \"#utility.yul\":16493:16560   */\n      tag_267\n      jump\t// in\n    tag_473:\n        /* \"#utility.yul\":16486:16560   */\n      swap2\n      pop\n        /* \"#utility.yul\":16569:16662   */\n      tag_474\n        /* \"#utility.yul\":16658:16661   */\n      dup3\n        /* \"#utility.yul\":16569:16662   */\n      tag_301\n      jump\t// in\n    tag_474:\n        /* \"#utility.yul\":16687:16689   */\n      0x40\n        /* \"#utility.yul\":16682:16685   */\n      dup3\n        /* \"#utility.yul\":16678:16690   */\n      add\n        /* \"#utility.yul\":16671:16690   */\n      swap1\n      pop\n        /* \"#utility.yul\":16330:16696   */\n      swap2\n      swap1\n      pop\n      jump\t// out\n        /* \"#utility.yul\":16702:17121   */\n    tag_141:\n        /* \"#utility.yul\":16868:16872   */\n      0x00\n        /* \"#utility.yul\":16906:16908   */\n      0x20\n        /* \"#utility.yul\":16895:16904   */\n      dup3\n        /* \"#utility.yul\":16891:16909   */\n      add\n        /* \"#utility.yul\":16883:16909   */\n      swap1\n      pop\n        /* \"#utility.yul\":16955:16964   */\n      dup2\n        /* \"#utility.yul\":16949:16953   */\n      dup2\n        /* \"#utility.yul\":16945:16965   */\n      sub\n        /* \"#utility.yul\":16941:16942   */\n      0x00\n        /* \"#utility.yul\":16930:16939   */\n      dup4\n        /* \"#utility.yul\":16926:16943   */\n      add\n        /* \"#utility.yul\":16919:16966   */\n      mstore\n        /* \"#utility.yul\":16983:17114   */\n      tag_476\n        /* \"#utility.yul\":17109:17113   */\n      dup2\n        /* \"#utility.yul\":16983:17114   */\n      tag_302\n      jump\t// in\n    tag_476:\n        /* \"#utility.yul\":16975:17114   */\n      swap1\n      pop\n        /* \"#utility.yul\":16702:17121   */\n      swap2\n      swap1\n      pop\n      jump\t// out\n        /* \"#utility.yul\":17127:17275   */\n    tag_303:\n        /* \"#utility.yul\":17229:17240   */\n      0x00\n        /* \"#utility.yul\":17266:17269   */\n      dup2\n        /* \"#utility.yul\":17251:17269   */\n      swap1\n      pop\n        /* \"#utility.yul\":17127:17275   */\n      swap3\n      swap2\n      pop\n      pop\n      jump\t// out\n        /* \"#utility.yul\":17281:17671   */\n    tag_304:\n        /* \"#utility.yul\":17387:17390   */\n      0x00\n        /* \"#utility.yul\":17415:17454   */\n      tag_479\n        /* \"#utility.yul\":17448:17453   */\n      dup3\n        /* \"#utility.yul\":17415:17454   */\n      tag_266\n      jump\t// in\n    tag_479:\n        /* \"#utility.yul\":17470:17559   */\n      tag_480\n        /* \"#utility.yul\":17552:17558   */\n      dup2\n        /* \"#utility.yul\":17547:17550   */\n      dup6\n        /* \"#utility.yul\":17470:17559   */\n      tag_303\n      jump\t// in\n    tag_480:\n        /* \"#utility.yul\":17463:17559   */\n      swap4\n      pop\n        /* \"#utility.yul\":17568:17633   */\n      tag_481\n        /* \"#utility.yul\":17626:17632   */\n      dup2\n        /* \"#utility.yul\":17621:17624   */\n      dup6\n        /* \"#utility.yul\":17614:17618   */\n      0x20\n        /* \"#utility.yul\":17607:17612   */\n      dup7\n        /* \"#utility.yul\":17603:17619   */\n      add\n        /* \"#utility.yul\":17568:17633   */\n      tag_268\n      jump\t// in\n    tag_481:\n        /* \"#utility.yul\":17658:17664   */\n      dup1\n        /* \"#utility.yul\":17653:17656   */\n      dup5\n        /* \"#utility.yul\":17649:17665   */\n      add\n        /* \"#utility.yul\":17642:17665   */\n      swap2\n      pop\n        /* \"#utility.yul\":17391:17671   */\n      pop\n        /* \"#utility.yul\":17281:17671   */\n      swap3\n      swap2\n      pop\n      pop\n      jump\t// out\n        /* \"#utility.yul\":17677:18112   */\n    tag_168:\n        /* \"#utility.yul\":17857:17860   */\n      0x00\n        /* \"#utility.yul\":17879:17974   */\n      tag_483\n        /* \"#utility.yul\":17970:17973   */\n      dup3\n        /* \"#utility.yul\":17961:17967   */\n      dup6\n        /* \"#utility.yul\":17879:17974   */\n      tag_304\n      jump\t// in\n    tag_483:\n        /* \"#utility.yul\":17872:17974   */\n      swap2\n      pop\n        /* \"#utility.yul\":17991:18086   */\n      tag_484\n        /* \"#utility.yul\":18082:18085   */\n      dup3\n        /* \"#utility.yul\":18073:18079   */\n      dup5\n        /* \"#utility.yul\":17991:18086   */\n      tag_304\n      jump\t// in\n    tag_484:\n        /* \"#utility.yul\":17984:18086   */\n      swap2\n      pop\n        /* \"#utility.yul\":18103:18106   */\n      dup2\n        /* \"#utility.yul\":18096:18106   */\n      swap1\n      pop\n        /* \"#utility.yul\":17677:18112   */\n      swap4\n      swap3\n      pop\n      pop\n      pop\n      jump\t// out\n        /* \"#utility.yul\":18118:18293   */\n    tag_305:\n        /* \"#utility.yul\":18258:18285   */\n      0x4552433732313a20617070726f766520746f2063616c6c657200000000000000\n        /* \"#utility.yul\":18254:18255   */\n      0x00\n        /* \"#utility.yul\":18246:18252   */\n      dup3\n        /* \"#utility.yul\":18242:18256   */\n      add\n        /* \"#utility.yul\":18235:18286   */\n      mstore\n        /* \"#utility.yul\":18118:18293   */\n      pop\n      jump\t// out\n        /* \"#utility.yul\":18299:18665   */\n    tag_306:\n        /* \"#utility.yul\":18441:18444   */\n      0x00\n        /* \"#utility.yul\":18462:18529   */\n      tag_487\n        /* \"#utility.yul\":18526:18528   */\n      0x19\n        /* \"#utility.yul\":18521:18524   */\n      dup4\n        /* \"#utility.yul\":18462:18529   */\n      tag_267\n      jump\t// in\n    tag_487:\n        /* \"#utility.yul\":18455:18529   */\n      swap2\n      pop\n        /* \"#utility.yul\":18538:18631   */\n      tag_488\n        /* \"#utility.yul\":18627:18630   */\n      dup3\n        /* \"#utility.yul\":18538:18631   */\n      tag_305\n      jump\t// in\n    tag_488:\n        /* \"#utility.yul\":18656:18658   */\n      0x20\n        /* \"#utility.yul\":18651:18654   */\n      dup3\n        /* \"#utility.yul\":18647:18659   */\n      add\n        /* \"#utility.yul\":18640:18659   */\n      swap1\n      pop\n        /* \"#utility.yul\":18299:18665   */\n      swap2\n      swap1\n      pop\n      jump\t// out\n        /* \"#utility.yul\":18671:19090   */\n    tag_191:\n        /* \"#utility.yul\":18837:18841   */\n      0x00\n        /* \"#utility.yul\":18875:18877   */\n      0x20\n        /* \"#utility.yul\":18864:18873   */\n      dup3\n        /* \"#utility.yul\":18860:18878   */\n      add\n        /* \"#utility.yul\":18852:18878   */\n      swap1\n      pop\n        /* \"#utility.yul\":18924:18933   */\n      dup2\n        /* \"#utility.yul\":18918:18922   */\n      dup2\n        /* \"#utility.yul\":18914:18934   */\n      sub\n        /* \"#utility.yul\":18910:18911   */\n      0x00\n        /* \"#utility.yul\":18899:18908   */\n      dup4\n        /* \"#utility.yul\":18895:18912   */\n      add\n        /* \"#utility.yul\":18888:18935   */\n      mstore\n        /* \"#utility.yul\":18952:19083   */\n      tag_490\n        /* \"#utility.yul\":19078:19082   */\n      dup2\n        /* \"#utility.yul\":18952:19083   */\n      tag_306\n      jump\t// in\n    tag_490:\n        /* \"#utility.yul\":18944:19083   */\n      swap1\n      pop\n        /* \"#utility.yul\":18671:19090   */\n      swap2\n      swap1\n      pop\n      jump\t// out\n        /* \"#utility.yul\":19096:19333   */\n    tag_307:\n        /* \"#utility.yul\":19236:19270   */\n      0x4552433732313a207472616e7366657220746f206e6f6e204552433732315265\n        /* \"#utility.yul\":19232:19233   */\n      0x00\n        /* \"#utility.yul\":19224:19230   */\n      dup3\n        /* \"#utility.yul\":19220:19234   */\n      add\n        /* \"#utility.yul\":19213:19271   */\n      mstore\n        /* \"#utility.yul\":19305:19325   */\n      0x63656976657220696d706c656d656e7465720000000000000000000000000000\n        /* \"#utility.yul\":19300:19302   */\n      0x20\n        /* \"#utility.yul\":19292:19298   */\n      dup3\n        /* \"#utility.yul\":19288:19303   */\n      add\n        /* \"#utility.yul\":19281:19326   */\n      mstore\n        /* \"#utility.yul\":19096:19333   */\n      pop\n      jump\t// out\n        /* \"#utility.yul\":19339:19705   */\n    tag_308:\n        /* \"#utility.yul\":19481:19484   */\n      0x00\n        /* \"#utility.yul\":19502:19569   */\n      tag_493\n        /* \"#utility.yul\":19566:19568   */\n      0x32\n        /* \"#utility.yul\":19561:19564   */\n      dup4\n        /* \"#utility.yul\":19502:19569   */\n      tag_267\n      jump\t// in\n    tag_493:\n        /* \"#utility.yul\":19495:19569   */\n      swap2\n      pop\n        /* \"#utility.yul\":19578:19671   */\n      tag_494\n        /* \"#utility.yul\":19667:19670   */\n      dup3\n        /* \"#utility.yul\":19578:19671   */\n      tag_307\n      jump\t// in\n    tag_494:\n        /* \"#utility.yul\":19696:19698   */\n      0x40\n        /* \"#utility.yul\":19691:19694   */\n      dup3\n        /* \"#utility.yul\":19687:19699   */\n      add\n        /* \"#utility.yul\":19680:19699   */\n      swap1\n      pop\n        /* \"#utility.yul\":19339:19705   */\n      swap2\n      swap1\n      pop\n      jump\t// out\n        /* \"#utility.yul\":19711:20130   */\n    tag_199:\n        /* \"#utility.yul\":19877:19881   */\n      0x00\n        /* \"#utility.yul\":19915:19917   */\n      0x20\n        /* \"#utility.yul\":19904:19913   */\n      dup3\n        /* \"#utility.yul\":19900:19918   */\n      add\n        /* \"#utility.yul\":19892:19918   */\n      swap1\n      pop\n        /* \"#utility.yul\":19964:19973   */\n      dup2\n        /* \"#utility.yul\":19958:19962   */\n      dup2\n        /* \"#utility.yul\":19954:19974   */\n      sub\n        /* \"#utility.yul\":19950:19951   */\n      0x00\n        /* \"#utility.yul\":19939:19948   */\n      dup4\n        /* \"#utility.yul\":19935:19952   */\n      add\n        /* \"#utility.yul\":19928:19975   */\n      mstore\n        /* \"#utility.yul\":19992:20123   */\n      tag_496\n        /* \"#utility.yul\":20118:20122   */\n      dup2\n        /* \"#utility.yul\":19992:20123   */\n      tag_308\n      jump\t// in\n    tag_496:\n        /* \"#utility.yul\":19984:20123   */\n      swap1\n      pop\n        /* \"#utility.yul\":19711:20130   */\n      swap2\n      swap1\n      pop\n      jump\t// out\n        /* \"#utility.yul\":20136:20316   */\n    tag_212:\n        /* \"#utility.yul\":20184:20261   */\n      0x4e487b7100000000000000000000000000000000000000000000000000000000\n        /* \"#utility.yul\":20181:20182   */\n      0x00\n        /* \"#utility.yul\":20174:20262   */\n      mstore\n        /* \"#utility.yul\":20281:20285   */\n      0x12\n        /* \"#utility.yul\":20278:20279   */\n      0x04\n        /* \"#utility.yul\":20271:20286   */\n      mstore\n        /* \"#utility.yul\":20305:20309   */\n      0x24\n        /* \"#utility.yul\":20302:20303   */\n      0x00\n        /* \"#utility.yul\":20295:20310   */\n      revert\n        /* \"#utility.yul\":20322:20420   */\n    tag_309:\n        /* \"#utility.yul\":20373:20379   */\n      0x00\n        /* \"#utility.yul\":20407:20412   */\n      dup2\n        /* \"#utility.yul\":20401:20413   */\n      mload\n        /* \"#utility.yul\":20391:20413   */\n      swap1\n      pop\n        /* \"#utility.yul\":20322:20420   */\n      swap2\n      swap1\n      pop\n      jump\t// out\n        /* \"#utility.yul\":20426:20594   */\n    tag_310:\n        /* \"#utility.yul\":20509:20520   */\n      0x00\n        /* \"#utility.yul\":20543:20549   */\n      dup3\n        /* \"#utility.yul\":20538:20541   */\n      dup3\n        /* \"#utility.yul\":20531:20550   */\n      mstore\n        /* \"#utility.yul\":20583:20587   */\n      0x20\n        /* \"#utility.yul\":20578:20581   */\n      dup3\n        /* \"#utility.yul\":20574:20588   */\n      add\n        /* \"#utility.yul\":20559:20588   */\n      swap1\n      pop\n        /* \"#utility.yul\":20426:20594   */\n      swap3\n      swap2\n      pop\n      pop\n      jump\t// out\n        /* \"#utility.yul\":20600:20973   */\n    tag_311:\n        /* \"#utility.yul\":20686:20689   */\n      0x00\n        /* \"#utility.yul\":20714:20752   */\n      tag_501\n        /* \"#utility.yul\":20746:20751   */\n      dup3\n        /* \"#utility.yul\":20714:20752   */\n      tag_309\n      jump\t// in\n    tag_501:\n        /* \"#utility.yul\":20768:20838   */\n      tag_502\n        /* \"#utility.yul\":20831:20837   */\n      dup2\n        /* \"#utility.yul\":20826:20829   */\n      dup6\n        /* \"#utility.yul\":20768:20838   */\n      tag_310\n      jump\t// in\n    tag_502:\n        /* \"#utility.yul\":20761:20838   */\n      swap4\n      pop\n        /* \"#utility.yul\":20847:20912   */\n      tag_503\n        /* \"#utility.yul\":20905:20911   */\n      dup2\n        /* \"#utility.yul\":20900:20903   */\n      dup6\n        /* \"#utility.yul\":20893:20897   */\n      0x20\n        /* \"#utility.yul\":20886:20891   */\n      dup7\n        /* \"#utility.yul\":20882:20898   */\n      add\n        /* \"#utility.yul\":20847:20912   */\n      tag_268\n      jump\t// in\n    tag_503:\n        /* \"#utility.yul\":20937:20966   */\n      tag_504\n        /* \"#utility.yul\":20959:20965   */\n      dup2\n        /* \"#utility.yul\":20937:20966   */\n      tag_269\n      jump\t// in\n    tag_504:\n        /* \"#utility.yul\":20932:20935   */\n      dup5\n        /* \"#utility.yul\":20928:20967   */\n      add\n        /* \"#utility.yul\":20921:20967   */\n      swap2\n      pop\n        /* \"#utility.yul\":20690:20973   */\n      pop\n        /* \"#utility.yul\":20600:20973   */\n      swap3\n      swap2\n      pop\n      pop\n      jump\t// out\n        /* \"#utility.yul\":20979:21619   */\n    tag_222:\n        /* \"#utility.yul\":21174:21178   */\n      0x00\n        /* \"#utility.yul\":21212:21215   */\n      0x80\n        /* \"#utility.yul\":21201:21210   */\n      dup3\n        /* \"#utility.yul\":21197:21216   */\n      add\n        /* \"#utility.yul\":21189:21216   */\n      swap1\n      pop\n        /* \"#utility.yul\":21226:21297   */\n      tag_506\n        /* \"#utility.yul\":21294:21295   */\n      0x00\n        /* \"#utility.yul\":21283:21292   */\n      dup4\n        /* \"#utility.yul\":21279:21296   */\n      add\n        /* \"#utility.yul\":21270:21276   */\n      dup8\n        /* \"#utility.yul\":21226:21297   */\n      tag_276\n      jump\t// in\n    tag_506:\n        /* \"#utility.yul\":21307:21379   */\n      tag_507\n        /* \"#utility.yul\":21375:21377   */\n      0x20\n        /* \"#utility.yul\":21364:21373   */\n      dup4\n        /* \"#utility.yul\":21360:21378   */\n      add\n        /* \"#utility.yul\":21351:21357   */\n      dup7\n        /* \"#utility.yul\":21307:21379   */\n      tag_276\n      jump\t// in\n    tag_507:\n        /* \"#utility.yul\":21389:21461   */\n      tag_508\n        /* \"#utility.yul\":21457:21459   */\n      0x40\n        /* \"#utility.yul\":21446:21455   */\n      dup4\n        /* \"#utility.yul\":21442:21460   */\n      add\n        /* \"#utility.yul\":21433:21439   */\n      dup6\n        /* \"#utility.yul\":21389:21461   */\n      tag_279\n      jump\t// in\n    tag_508:\n        /* \"#utility.yul\":21508:21517   */\n      dup2\n        /* \"#utility.yul\":21502:21506   */\n      dup2\n        /* \"#utility.yul\":21498:21518   */\n      sub\n        /* \"#utility.yul\":21493:21495   */\n      0x60\n        /* \"#utility.yul\":21482:21491   */\n      dup4\n        /* \"#utility.yul\":21478:21496   */\n      add\n        /* \"#utility.yul\":21471:21519   */\n      mstore\n        /* \"#utility.yul\":21536:21612   */\n      tag_509\n        /* \"#utility.yul\":21607:21611   */\n      dup2\n        /* \"#utility.yul\":21598:21604   */\n      dup5\n        /* \"#utility.yul\":21536:21612   */\n      tag_311\n      jump\t// in\n    tag_509:\n        /* \"#utility.yul\":21528:21612   */\n      swap1\n      pop\n        /* \"#utility.yul\":20979:21619   */\n      swap6\n      swap5\n      pop\n      pop\n      pop\n      pop\n      pop\n      jump\t// out\n        /* \"#utility.yul\":21625:21766   */\n    tag_312:\n        /* \"#utility.yul\":21681:21686   */\n      0x00\n        /* \"#utility.yul\":21712:21718   */\n      dup2\n        /* \"#utility.yul\":21706:21719   */\n      mload\n        /* \"#utility.yul\":21697:21719   */\n      swap1\n      pop\n        /* \"#utility.yul\":21728:21760   */\n      tag_511\n        /* \"#utility.yul\":21754:21759   */\n      dup2\n        /* \"#utility.yul\":21728:21760   */\n      tag_262\n      jump\t// in\n    tag_511:\n        /* \"#utility.yul\":21625:21766   */\n      swap3\n      swap2\n      pop\n      pop\n      jump\t// out\n        /* \"#utility.yul\":21772:22121   */\n    tag_225:\n        /* \"#utility.yul\":21841:21847   */\n      0x00\n        /* \"#utility.yul\":21890:21892   */\n      0x20\n        /* \"#utility.yul\":21878:21887   */\n      dup3\n        /* \"#utility.yul\":21869:21876   */\n      dup5\n        /* \"#utility.yul\":21865:21888   */\n      sub\n        /* \"#utility.yul\":21861:21893   */\n      slt\n        /* \"#utility.yul\":21858:21977   */\n      iszero\n      tag_513\n      jumpi\n        /* \"#utility.yul\":21896:21975   */\n      tag_514\n      tag_259\n      jump\t// in\n    tag_514:\n        /* \"#utility.yul\":21858:21977   */\n    tag_513:\n        /* \"#utility.yul\":22016:22017   */\n      0x00\n        /* \"#utility.yul\":22041:22104   */\n      tag_515\n        /* \"#utility.yul\":22096:22103   */\n      dup5\n        /* \"#utility.yul\":22087:22093   */\n      dup3\n        /* \"#utility.yul\":22076:22085   */\n      dup6\n        /* \"#utility.yul\":22072:22094   */\n      add\n        /* \"#utility.yul\":22041:22104   */\n      tag_312\n      jump\t// in\n    tag_515:\n        /* \"#utility.yul\":22031:22104   */\n      swap2\n      pop\n        /* \"#utility.yul\":21987:22114   */\n      pop\n        /* \"#utility.yul\":21772:22121   */\n      swap3\n      swap2\n      pop\n      pop\n      jump\t// out\n\n    auxdata: 0xa26469706673582212205bf48ebdd1d2affad1351266b5340e4e907e5def304292f956328c3c00f66e5764736f6c63430008150033\n}\n",
				"bytecode": {
					"linkReferences": {},
					"object": "60806040523480156200001157600080fd5b5060405162002613380380620026138339818101604052810190620000379190620001f6565b8160009081620000489190620004c6565b5080600190816200005a9190620004c6565b505050620005ad565b6000604051905090565b600080fd5b600080fd5b600080fd5b600080fd5b6000601f19601f8301169050919050565b7f4e487b7100000000000000000000000000000000000000000000000000000000600052604160045260246000fd5b620000cc8262000081565b810181811067ffffffffffffffff82111715620000ee57620000ed62000092565b5b80604052505050565b60006200010362000063565b9050620001118282620000c1565b919050565b600067ffffffffffffffff82111562000134576200013362000092565b5b6200013f8262000081565b9050602081019050919050565b60005b838110156200016c5780820151818401526020810190506200014f565b60008484015250505050565b60006200018f620001898462000116565b620000f7565b905082815260208101848484011115620001ae57620001ad6200007c565b5b620001bb8482856200014c565b509392505050565b600082601f830112620001db57620001da62000077565b5b8151620001ed84826020860162000178565b91505092915050565b6000806040838503121562000210576200020f6200006d565b5b600083015167ffffffffffffffff81111562000231576200023062000072565b5b6200023f85828601620001c3565b925050602083015167ffffffffffffffff81111562000263576200026262000072565b5b6200027185828601620001c3565b9150509250929050565b600081519050919050565b7f4e487b7100000000000000000000000000000000000000000000000000000000600052602260045260246000fd5b60006002820490506001821680620002ce57607f821691505b602082108103620002e457620002e362000286565b5b50919050565b60008190508160005260206000209050919050565b60006020601f8301049050919050565b600082821b905092915050565b6000600883026200034e7fffffffffffffffffffffffffffffffffffffffffffffffffffffffffffffffff826200030f565b6200035a86836200030f565b95508019841693508086168417925050509392505050565b6000819050919050565b6000819050919050565b6000620003a7620003a16200039b8462000372565b6200037c565b62000372565b9050919050565b6000819050919050565b620003c38362000386565b620003db620003d282620003ae565b8484546200031c565b825550505050565b600090565b620003f2620003e3565b620003ff818484620003b8565b505050565b5b8181101562000427576200041b600082620003e8565b60018101905062000405565b5050565b601f82111562000476576200044081620002ea565b6200044b84620002ff565b810160208510156200045b578190505b620004736200046a85620002ff565b83018262000404565b50505b505050565b600082821c905092915050565b60006200049b600019846008026200047b565b1980831691505092915050565b6000620004b6838362000488565b9150826002028217905092915050565b620004d1826200027b565b67ffffffffffffffff811115620004ed57620004ec62000092565b5b620004f98254620002b5565b620005068282856200042b565b600060209050601f8311600181146200053e576000841562000529578287015190505b620005358582620004a8565b865550620005a5565b601f1984166200054e86620002ea565b60005b82811015620005785784890151825560018201915060208501945060208101905062000551565b8683101562000598578489015162000594601f89168262000488565b8355505b6001600288020188555050505b505050505050565b61205680620005bd6000396000f3fe608060405234801561001057600080fd5b50600436106100ea5760003560e01c80636352211e1161008c578063a22cb46511610066578063a22cb4651461025b578063b88d4fde14610277578063c87b56dd14610293578063e985e9c5146102c3576100ea565b80636352211e146101dd57806370a082311461020d57806395d89b411461023d576100ea565b8063095ea7b3116100c8578063095ea7b31461016d57806323b872dd1461018957806330e0789e146101a557806342842e0e146101c1576100ea565b806301ffc9a7146100ef57806306fdde031461011f578063081812fc1461013d575b600080fd5b610109600480360381019061010491906114bc565b6102f3565b6040516101169190611504565b60405180910390f35b6101276103d5565b60405161013491906115af565b60405180910390f35b61015760048036038101906101529190611607565b610467565b6040516101649190611675565b60405180910390f35b610187600480360381019061018291906116bc565b6104ad565b005b6101a3600480360381019061019e91906116fc565b6105c4565b005b6101bf60048036038101906101ba91906116fc565b610624565b005b6101db60048036038101906101d691906116fc565b6108ae565b005b6101f760048036038101906101f29190611607565b6108ce565b6040516102049190611675565b60405180910390f35b6102276004803603810190610222919061174f565b610954565b604051610234919061178b565b60405180910390f35b610245610a0b565b60405161025291906115af565b60405180910390f35b610275600480360381019061027091906117d2565b610a9d565b005b610291600480360381019061028c9190611947565b610ab3565b005b6102ad60048036038101906102a89190611607565b610b15565b6040516102ba91906115af565b60405180910390f35b6102dd60048036038101906102d891906119ca565b610b7d565b6040516102ea9190611504565b60405180910390f35b60007f80ac58cd000000000000000000000000000000000000000000000000000000007bffffffffffffffffffffffffffffffffffffffffffffffffffffffff1916827bffffffffffffffffffffffffffffffffffffffffffffffffffffffff191614806103be57507f5b5e139f000000000000000000000000000000000000000000000000000000007bffffffffffffffffffffffffffffffffffffffffffffffffffffffff1916827bffffffffffffffffffffffffffffffffffffffffffffffffffffffff1916145b806103ce57506103cd82610c11565b5b9050919050565b6060600080546103e490611a39565b80601f016020809104026020016040519081016040528092919081815260200182805461041090611a39565b801561045d5780601f106104325761010080835404028352916020019161045d565b820191906000526020600020905b81548152906001019060200180831161044057829003601f168201915b5050505050905090565b600061047282610c7b565b6004600083815260200190815260200160002060009054906101000a900473ffffffffffffffffffffffffffffffffffffffff169050919050565b60006104b8826108ce565b90508073ffffffffffffffffffffffffffffffffffffffff168373ffffffffffffffffffffffffffffffffffffffff1603610528576040517f08c379a000000000000000000000000000000000000000000000000000000000815260040161051f90611adc565b60405180910390fd5b8073ffffffffffffffffffffffffffffffffffffffff16610547610cc6565b73ffffffffffffffffffffffffffffffffffffffff161480610576575061057581610570610cc6565b610b7d565b5b6105b5576040517f08c379a00000000000000000000000000000000000000000000000000000000081526004016105ac90611b6e565b60405180910390fd5b6105bf8383610cce565b505050565b6105d56105cf610cc6565b82610d87565b610614576040517f08c379a000000000000000000000000000000000000000000000000000000000815260040161060b90611c00565b60405180910390fd5b61061f838383610624565b505050565b8273ffffffffffffffffffffffffffffffffffffffff16610644826108ce565b73ffffffffffffffffffffffffffffffffffffffff161461069a576040517f08c379a000000000000000000000000000000000000000000000000000000000815260040161069190611c92565b60405180910390fd5b6106a78383836001610e1c565b8273ffffffffffffffffffffffffffffffffffffffff166106c7826108ce565b73ffffffffffffffffffffffffffffffffffffffff161461071d576040517f08c379a000000000000000000000000000000000000000000000000000000000815260040161071490611c92565b60405180910390fd5b6004600082815260200190815260200160002060006101000a81549073ffffffffffffffffffffffffffffffffffffffff02191690556001600360008573ffffffffffffffffffffffffffffffffffffffff1673ffffffffffffffffffffffffffffffffffffffff168152602001908152602001600020600082825403925050819055506001600360008473ffffffffffffffffffffffffffffffffffffffff1673ffffffffffffffffffffffffffffffffffffffff16815260200190815260200160002060008282540192505081905550816002600083815260200190815260200160002060006101000a81548173ffffffffffffffffffffffffffffffffffffffff021916908373ffffffffffffffffffffffffffffffffffffffff160217905550808273ffffffffffffffffffffffffffffffffffffffff168473ffffffffffffffffffffffffffffffffffffffff167fddf252ad1be2c89b69c2b068fc378daa952ba7f163c4a11628f55a4df523b3ef60405160405180910390a46108a98383836001610e22565b505050565b6108c983838360405180602001604052806000815250610ab3565b505050565b6000806108da83610e28565b9050600073ffffffffffffffffffffffffffffffffffffffff168173ffffffffffffffffffffffffffffffffffffffff160361094b576040517f08c379a000000000000000000000000000000000000000000000000000000000815260040161094290611cfe565b60405180910390fd5b80915050919050565b60008073ffffffffffffffffffffffffffffffffffffffff168273ffffffffffffffffffffffffffffffffffffffff16036109c4576040517f08c379a00000000000000000000000000000000000000000000000000000000081526004016109bb90611d90565b60405180910390fd5b600360008373ffffffffffffffffffffffffffffffffffffffff1673ffffffffffffffffffffffffffffffffffffffff168152602001908152602001600020549050919050565b606060018054610a1a90611a39565b80601f0160208091040260200160405190810160405280929190818152602001828054610a4690611a39565b8015610a935780601f10610a6857610100808354040283529160200191610a93565b820191906000526020600020905b815481529060010190602001808311610a7657829003601f168201915b5050505050905090565b610aaf610aa8610cc6565b8383610e65565b5050565b610ac4610abe610cc6565b83610d87565b610b03576040517f08c379a0000000000000000000000000000000000000000000000000000000008152600401610afa90611c00565b60405180910390fd5b610b0f84848484610fd1565b50505050565b6060610b2082610c7b565b6000610b2a61102d565b90506000815111610b4a5760405180602001604052806000815250610b75565b80610b5484611044565b604051602001610b65929190611dec565b6040516020818303038152906040525b915050919050565b6000600560008473ffffffffffffffffffffffffffffffffffffffff1673ffffffffffffffffffffffffffffffffffffffff16815260200190815260200160002060008373ffffffffffffffffffffffffffffffffffffffff1673ffffffffffffffffffffffffffffffffffffffff16815260200190815260200160002060009054906101000a900460ff16905092915050565b60007f01ffc9a7000000000000000000000000000000000000000000000000000000007bffffffffffffffffffffffffffffffffffffffffffffffffffffffff1916827bffffffffffffffffffffffffffffffffffffffffffffffffffffffff1916149050919050565b610c8481611112565b610cc3576040517f08c379a0000000000000000000000000000000000000000000000000000000008152600401610cba90611cfe565b60405180910390fd5b50565b600033905090565b816004600083815260200190815260200160002060006101000a81548173ffffffffffffffffffffffffffffffffffffffff021916908373ffffffffffffffffffffffffffffffffffffffff160217905550808273ffffffffffffffffffffffffffffffffffffffff16610d41836108ce565b73ffffffffffffffffffffffffffffffffffffffff167f8c5be1e5ebec7d5bd14f71427d1e84f3dd0314c0f7b2291e5b200ac8c7c3b92560405160405180910390a45050565b600080610d93836108ce565b90508073ffffffffffffffffffffffffffffffffffffffff168473ffffffffffffffffffffffffffffffffffffffff161480610dd55750610dd48185610b7d565b5b80610e1357508373ffffffffffffffffffffffffffffffffffffffff16610dfb84610467565b73ffffffffffffffffffffffffffffffffffffffff16145b91505092915050565b50505050565b50505050565b60006002600083815260200190815260200160002060009054906101000a900473ffffffffffffffffffffffffffffffffffffffff169050919050565b8173ffffffffffffffffffffffffffffffffffffffff168373ffffffffffffffffffffffffffffffffffffffff1603610ed3576040517f08c379a0000000000000000000000000000000000000000000000000000000008152600401610eca90611e5c565b60405180910390fd5b80600560008573ffffffffffffffffffffffffffffffffffffffff1673ffffffffffffffffffffffffffffffffffffffff16815260200190815260200160002060008473ffffffffffffffffffffffffffffffffffffffff1673ffffffffffffffffffffffffffffffffffffffff16815260200190815260200160002060006101000a81548160ff0219169083151502179055508173ffffffffffffffffffffffffffffffffffffffff168373ffffffffffffffffffffffffffffffffffffffff167f17307eab39ab6107e8899845ad3d59bd9653f200f220920489ca2b5937696c3183604051610fc49190611504565b60405180910390a3505050565b610fdc848484610624565b610fe884848484611153565b611027576040517f08c379a000000000000000000000000000000000000000000000000000000000815260040161101e90611eee565b60405180910390fd5b50505050565b606060405180602001604052806000815250905090565b606060006001611053846112da565b01905060008167ffffffffffffffff8111156110725761107161181c565b5b6040519080825280601f01601f1916602001820160405280156110a45781602001600182028036833780820191505090505b509050600082602001820190505b600115611107578080600190039150507f3031323334353637383961626364656600000000000000000000000000000000600a86061a8153600a85816110fb576110fa611f0e565b5b049450600085036110b2575b819350505050919050565b60008073ffffffffffffffffffffffffffffffffffffffff1661113483610e28565b73ffffffffffffffffffffffffffffffffffffffff1614159050919050565b60006111748473ffffffffffffffffffffffffffffffffffffffff1661142d565b156112cd578373ffffffffffffffffffffffffffffffffffffffff1663150b7a0261119d610cc6565b8786866040518563ffffffff1660e01b81526004016111bf9493929190611f92565b6020604051808303816000875af19250505080156111fb57506040513d601f19601f820116820180604052508101906111f89190611ff3565b60015b61127d573d806000811461122b576040519150601f19603f3d011682016040523d82523d6000602084013e611230565b606091505b506000815103611275576040517f08c379a000000000000000000000000000000000000000000000000000000000815260040161126c90611eee565b60405180910390fd5b805181602001fd5b63150b7a0260e01b7bffffffffffffffffffffffffffffffffffffffffffffffffffffffff1916817bffffffffffffffffffffffffffffffffffffffffffffffffffffffff1916149150506112d2565b600190505b949350505050565b600080600090507a184f03e93ff9f4daa797ed6e38ed64bf6a1f0100000000000000008310611338577a184f03e93ff9f4daa797ed6e38ed64bf6a1f010000000000000000838161132e5761132d611f0e565b5b0492506040810190505b6d04ee2d6d415b85acef81000000008310611375576d04ee2d6d415b85acef8100000000838161136b5761136a611f0e565b5b0492506020810190505b662386f26fc1000083106113a457662386f26fc10000838161139a57611399611f0e565b5b0492506010810190505b6305f5e10083106113cd576305f5e10083816113c3576113c2611f0e565b5b0492506008810190505b61271083106113f25761271083816113e8576113e7611f0e565b5b0492506004810190505b60648310611415576064838161140b5761140a611f0e565b5b0492506002810190505b600a8310611424576001810190505b80915050919050565b6000808273ffffffffffffffffffffffffffffffffffffffff163b119050919050565b6000604051905090565b600080fd5b600080fd5b60007fffffffff0000000000000000000000000000000000000000000000000000000082169050919050565b61149981611464565b81146114a457600080fd5b50565b6000813590506114b681611490565b92915050565b6000602082840312156114d2576114d161145a565b5b60006114e0848285016114a7565b91505092915050565b60008115159050919050565b6114fe816114e9565b82525050565b600060208201905061151960008301846114f5565b92915050565b600081519050919050565b600082825260208201905092915050565b60005b8381101561155957808201518184015260208101905061153e565b60008484015250505050565b6000601f19601f8301169050919050565b60006115818261151f565b61158b818561152a565b935061159b81856020860161153b565b6115a481611565565b840191505092915050565b600060208201905081810360008301526115c98184611576565b905092915050565b6000819050919050565b6115e4816115d1565b81146115ef57600080fd5b50565b600081359050611601816115db565b92915050565b60006020828403121561161d5761161c61145a565b5b600061162b848285016115f2565b91505092915050565b600073ffffffffffffffffffffffffffffffffffffffff82169050919050565b600061165f82611634565b9050919050565b61166f81611654565b82525050565b600060208201905061168a6000830184611666565b92915050565b61169981611654565b81146116a457600080fd5b50565b6000813590506116b681611690565b92915050565b600080604083850312156116d3576116d261145a565b5b60006116e1858286016116a7565b92505060206116f2858286016115f2565b9150509250929050565b6000806000606084860312156117155761171461145a565b5b6000611723868287016116a7565b9350506020611734868287016116a7565b9250506040611745868287016115f2565b9150509250925092565b6000602082840312156117655761176461145a565b5b6000611773848285016116a7565b91505092915050565b611785816115d1565b82525050565b60006020820190506117a0600083018461177c565b92915050565b6117af816114e9565b81146117ba57600080fd5b50565b6000813590506117cc816117a6565b92915050565b600080604083850312156117e9576117e861145a565b5b60006117f7858286016116a7565b9250506020611808858286016117bd565b9150509250929050565b600080fd5b600080fd5b7f4e487b7100000000000000000000000000000000000000000000000000000000600052604160045260246000fd5b61185482611565565b810181811067ffffffffffffffff821117156118735761187261181c565b5b80604052505050565b6000611886611450565b9050611892828261184b565b919050565b600067ffffffffffffffff8211156118b2576118b161181c565b5b6118bb82611565565b9050602081019050919050565b82818337600083830152505050565b60006118ea6118e584611897565b61187c565b90508281526020810184848401111561190657611905611817565b5b6119118482856118c8565b509392505050565b600082601f83011261192e5761192d611812565b5b813561193e8482602086016118d7565b91505092915050565b600080600080608085870312156119615761196061145a565b5b600061196f878288016116a7565b9450506020611980878288016116a7565b9350506040611991878288016115f2565b925050606085013567ffffffffffffffff8111156119b2576119b161145f565b5b6119be87828801611919565b91505092959194509250565b600080604083850312156119e1576119e061145a565b5b60006119ef858286016116a7565b9250506020611a00858286016116a7565b9150509250929050565b7f4e487b7100000000000000000000000000000000000000000000000000000000600052602260045260246000fd5b60006002820490506001821680611a5157607f821691505b602082108103611a6457611a63611a0a565b5b50919050565b7f4552433732313a20617070726f76616c20746f2063757272656e74206f776e6560008201527f7200000000000000000000000000000000000000000000000000000000000000602082015250565b6000611ac660218361152a565b9150611ad182611a6a565b604082019050919050565b60006020820190508181036000830152611af581611ab9565b9050919050565b7f4552433732313a20617070726f76652063616c6c6572206973206e6f7420746f60008201527f6b656e206f776e6572206f7220617070726f76656420666f7220616c6c000000602082015250565b6000611b58603d8361152a565b9150611b6382611afc565b604082019050919050565b60006020820190508181036000830152611b8781611b4b565b9050919050565b7f4552433732313a2063616c6c6572206973206e6f7420746f6b656e206f776e6560008201527f72206f7220617070726f76656400000000000000000000000000000000000000602082015250565b6000611bea602d8361152a565b9150611bf582611b8e565b604082019050919050565b60006020820190508181036000830152611c1981611bdd565b9050919050565b7f4552433732313a207472616e736665722066726f6d20696e636f72726563742060008201527f6f776e6572000000000000000000000000000000000000000000000000000000602082015250565b6000611c7c60258361152a565b9150611c8782611c20565b604082019050919050565b60006020820190508181036000830152611cab81611c6f565b9050919050565b7f4552433732313a20696e76616c696420746f6b656e2049440000000000000000600082015250565b6000611ce860188361152a565b9150611cf382611cb2565b602082019050919050565b60006020820190508181036000830152611d1781611cdb565b9050919050565b7f4552433732313a2061646472657373207a65726f206973206e6f74206120766160008201527f6c6964206f776e65720000000000000000000000000000000000000000000000602082015250565b6000611d7a60298361152a565b9150611d8582611d1e565b604082019050919050565b60006020820190508181036000830152611da981611d6d565b9050919050565b600081905092915050565b6000611dc68261151f565b611dd08185611db0565b9350611de081856020860161153b565b80840191505092915050565b6000611df88285611dbb565b9150611e048284611dbb565b91508190509392505050565b7f4552433732313a20617070726f766520746f2063616c6c657200000000000000600082015250565b6000611e4660198361152a565b9150611e5182611e10565b602082019050919050565b60006020820190508181036000830152611e7581611e39565b9050919050565b7f4552433732313a207472616e7366657220746f206e6f6e20455243373231526560008201527f63656976657220696d706c656d656e7465720000000000000000000000000000602082015250565b6000611ed860328361152a565b9150611ee382611e7c565b604082019050919050565b60006020820190508181036000830152611f0781611ecb565b9050919050565b7f4e487b7100000000000000000000000000000000000000000000000000000000600052601260045260246000fd5b600081519050919050565b600082825260208201905092915050565b6000611f6482611f3d565b611f6e8185611f48565b9350611f7e81856020860161153b565b611f8781611565565b840191505092915050565b6000608082019050611fa76000830187611666565b611fb46020830186611666565b611fc1604083018561177c565b8181036060830152611fd38184611f59565b905095945050505050565b600081519050611fed81611490565b92915050565b6000602082840312156120095761200861145a565b5b600061201784828501611fde565b9150509291505056fea26469706673582212205bf48ebdd1d2affad1351266b5340e4e907e5def304292f956328c3c00f66e5764736f6c63430008150033",
					"opcodes": "PUSH1 0x80 PUSH1 0x40 MSTORE CALLVALUE DUP1 ISZERO PUSH3 0x11 JUMPI PUSH1 0x0 DUP1 REVERT JUMPDEST POP PUSH1 0x40 MLOAD PUSH3 0x2613 CODESIZE SUB DUP1 PUSH3 0x2613 DUP4 CODECOPY DUP2 DUP2 ADD PUSH1 0x40 MSTORE DUP2 ADD SWAP1 PUSH3 0x37 SWAP2 SWAP1 PUSH3 0x1F6 JUMP JUMPDEST DUP2 PUSH1 0x0 SWAP1 DUP2 PUSH3 0x48 SWAP2 SWAP1 PUSH3 0x4C6 JUMP JUMPDEST POP DUP1 PUSH1 0x1 SWAP1 DUP2 PUSH3 0x5A SWAP2 SWAP1 PUSH3 0x4C6 JUMP JUMPDEST POP POP POP PUSH3 0x5AD JUMP JUMPDEST PUSH1 0x0 PUSH1 0x40 MLOAD SWAP1 POP SWAP1 JUMP JUMPDEST PUSH1 0x0 DUP1 REVERT JUMPDEST PUSH1 0x0 DUP1 REVERT JUMPDEST PUSH1 0x0 DUP1 REVERT JUMPDEST PUSH1 0x0 DUP1 REVERT JUMPDEST PUSH1 0x0 PUSH1 0x1F NOT PUSH1 0x1F DUP4 ADD AND SWAP1 POP SWAP2 SWAP1 POP JUMP JUMPDEST PUSH32 0x4E487B7100000000000000000000000000000000000000000000000000000000 PUSH1 0x0 MSTORE PUSH1 0x41 PUSH1 0x4 MSTORE PUSH1 0x24 PUSH1 0x0 REVERT JUMPDEST PUSH3 0xCC DUP3 PUSH3 0x81 JUMP JUMPDEST DUP2 ADD DUP2 DUP2 LT PUSH8 0xFFFFFFFFFFFFFFFF DUP3 GT OR ISZERO PUSH3 0xEE JUMPI PUSH3 0xED PUSH3 0x92 JUMP JUMPDEST JUMPDEST DUP1 PUSH1 0x40 MSTORE POP POP POP JUMP JUMPDEST PUSH1 0x0 PUSH3 0x103 PUSH3 0x63 JUMP JUMPDEST SWAP1 POP PUSH3 0x111 DUP3 DUP3 PUSH3 0xC1 JUMP JUMPDEST SWAP2 SWAP1 POP JUMP JUMPDEST PUSH1 0x0 PUSH8 0xFFFFFFFFFFFFFFFF DUP3 GT ISZERO PUSH3 0x134 JUMPI PUSH3 0x133 PUSH3 0x92 JUMP JUMPDEST JUMPDEST PUSH3 0x13F DUP3 PUSH3 0x81 JUMP JUMPDEST SWAP1 POP PUSH1 0x20 DUP2 ADD SWAP1 POP SWAP2 SWAP1 POP JUMP JUMPDEST PUSH1 0x0 JUMPDEST DUP4 DUP2 LT ISZERO PUSH3 0x16C JUMPI DUP1 DUP3 ADD MLOAD DUP2 DUP5 ADD MSTORE PUSH1 0x20 DUP2 ADD SWAP1 POP PUSH3 0x14F JUMP JUMPDEST PUSH1 0x0 DUP5 DUP5 ADD MSTORE POP POP POP POP JUMP JUMPDEST PUSH1 0x0 PUSH3 0x18F PUSH3 0x189 DUP5 PUSH3 0x116 JUMP JUMPDEST PUSH3 0xF7 JUMP JUMPDEST SWAP1 POP DUP3 DUP2 MSTORE PUSH1 0x20 DUP2 ADD DUP5 DUP5 DUP5 ADD GT ISZERO PUSH3 0x1AE JUMPI PUSH3 0x1AD PUSH3 0x7C JUMP JUMPDEST JUMPDEST PUSH3 0x1BB DUP5 DUP3 DUP6 PUSH3 0x14C JUMP JUMPDEST POP SWAP4 SWAP3 POP POP POP JUMP JUMPDEST PUSH1 0x0 DUP3 PUSH1 0x1F DUP4 ADD SLT PUSH3 0x1DB JUMPI PUSH3 0x1DA PUSH3 0x77 JUMP JUMPDEST JUMPDEST DUP2 MLOAD PUSH3 0x1ED DUP5 DUP3 PUSH1 0x20 DUP7 ADD PUSH3 0x178 JUMP JUMPDEST SWAP2 POP POP SWAP3 SWAP2 POP POP JUMP JUMPDEST PUSH1 0x0 DUP1 PUSH1 0x40 DUP4 DUP6 SUB SLT ISZERO PUSH3 0x210 JUMPI PUSH3 0x20F PUSH3 0x6D JUMP JUMPDEST JUMPDEST PUSH1 0x0 DUP4 ADD MLOAD PUSH8 0xFFFFFFFFFFFFFFFF DUP2 GT ISZERO PUSH3 0x231 JUMPI PUSH3 0x230 PUSH3 0x72 JUMP JUMPDEST JUMPDEST PUSH3 0x23F DUP6 DUP3 DUP7 ADD PUSH3 0x1C3 JUMP JUMPDEST SWAP3 POP POP PUSH1 0x20 DUP4 ADD MLOAD PUSH8 0xFFFFFFFFFFFFFFFF DUP2 GT ISZERO PUSH3 0x263 JUMPI PUSH3 0x262 PUSH3 0x72 JUMP JUMPDEST JUMPDEST PUSH3 0x271 DUP6 DUP3 DUP7 ADD PUSH3 0x1C3 JUMP JUMPDEST SWAP2 POP POP SWAP3 POP SWAP3 SWAP1 POP JUMP JUMPDEST PUSH1 0x0 DUP2 MLOAD SWAP1 POP SWAP2 SWAP1 POP JUMP JUMPDEST PUSH32 0x4E487B7100000000000000000000000000000000000000000000000000000000 PUSH1 0x0 MSTORE PUSH1 0x22 PUSH1 0x4 MSTORE PUSH1 0x24 PUSH1 0x0 REVERT JUMPDEST PUSH1 0x0 PUSH1 0x2 DUP3 DIV SWAP1 POP PUSH1 0x1 DUP3 AND DUP1 PUSH3 0x2CE JUMPI PUSH1 0x7F DUP3 AND SWAP2 POP JUMPDEST PUSH1 0x20 DUP3 LT DUP2 SUB PUSH3 0x2E4 JUMPI PUSH3 0x2E3 PUSH3 0x286 JUMP JUMPDEST JUMPDEST POP SWAP2 SWAP1 POP JUMP JUMPDEST PUSH1 0x0 DUP2 SWAP1 POP DUP2 PUSH1 0x0 MSTORE PUSH1 0x20 PUSH1 0x0 KECCAK256 SWAP1 POP SWAP2 SWAP1 POP JUMP JUMPDEST PUSH1 0x0 PUSH1 0x20 PUSH1 0x1F DUP4 ADD DIV SWAP1 POP SWAP2 SWAP1 POP JUMP JUMPDEST PUSH1 0x0 DUP3 DUP3 SHL SWAP1 POP SWAP3 SWAP2 POP POP JUMP JUMPDEST PUSH1 0x0 PUSH1 0x8 DUP4 MUL PUSH3 0x34E PUSH32 0xFFFFFFFFFFFFFFFFFFFFFFFFFFFFFFFFFFFFFFFFFFFFFFFFFFFFFFFFFFFFFFFF DUP3 PUSH3 0x30F JUMP JUMPDEST PUSH3 0x35A DUP7 DUP4 PUSH3 0x30F JUMP JUMPDEST SWAP6 POP DUP1 NOT DUP5 AND SWAP4 POP DUP1 DUP7 AND DUP5 OR SWAP3 POP POP POP SWAP4 SWAP3 POP POP POP JUMP JUMPDEST PUSH1 0x0 DUP2 SWAP1 POP SWAP2 SWAP1 POP JUMP JUMPDEST PUSH1 0x0 DUP2 SWAP1 POP SWAP2 SWAP1 POP JUMP JUMPDEST PUSH1 0x0 PUSH3 0x3A7 PUSH3 0x3A1 PUSH3 0x39B DUP5 PUSH3 0x372 JUMP JUMPDEST PUSH3 0x37C JUMP JUMPDEST PUSH3 0x372 JUMP JUMPDEST SWAP1 POP SWAP2 SWAP1 POP JUMP JUMPDEST PUSH1 0x0 DUP2 SWAP1 POP SWAP2 SWAP1 POP JUMP JUMPDEST PUSH3 0x3C3 DUP4 PUSH3 0x386 JUMP JUMPDEST PUSH3 0x3DB PUSH3 0x3D2 DUP3 PUSH3 0x3AE JUMP JUMPDEST DUP5 DUP5 SLOAD PUSH3 0x31C JUMP JUMPDEST DUP3 SSTORE POP POP POP POP JUMP JUMPDEST PUSH1 0x0 SWAP1 JUMP JUMPDEST PUSH3 0x3F2 PUSH3 0x3E3 JUMP JUMPDEST PUSH3 0x3FF DUP2 DUP5 DUP5 PUSH3 0x3B8 JUMP JUMPDEST POP POP POP JUMP JUMPDEST JUMPDEST DUP2 DUP2 LT ISZERO PUSH3 0x427 JUMPI PUSH3 0x41B PUSH1 0x0 DUP3 PUSH3 0x3E8 JUMP JUMPDEST PUSH1 0x1 DUP2 ADD SWAP1 POP PUSH3 0x405 JUMP JUMPDEST POP POP JUMP JUMPDEST PUSH1 0x1F DUP3 GT ISZERO PUSH3 0x476 JUMPI PUSH3 0x440 DUP2 PUSH3 0x2EA JUMP JUMPDEST PUSH3 0x44B DUP5 PUSH3 0x2FF JUMP JUMPDEST DUP2 ADD PUSH1 0x20 DUP6 LT ISZERO PUSH3 0x45B JUMPI DUP2 SWAP1 POP JUMPDEST PUSH3 0x473 PUSH3 0x46A DUP6 PUSH3 0x2FF JUMP JUMPDEST DUP4 ADD DUP3 PUSH3 0x404 JUMP JUMPDEST POP POP JUMPDEST POP POP POP JUMP JUMPDEST PUSH1 0x0 DUP3 DUP3 SHR SWAP1 POP SWAP3 SWAP2 POP POP JUMP JUMPDEST PUSH1 0x0 PUSH3 0x49B PUSH1 0x0 NOT DUP5 PUSH1 0x8 MUL PUSH3 0x47B JUMP JUMPDEST NOT DUP1 DUP4 AND SWAP2 POP POP SWAP3 SWAP2 POP POP JUMP JUMPDEST PUSH1 0x0 PUSH3 0x4B6 DUP4 DUP4 PUSH3 0x488 JUMP JUMPDEST SWAP2 POP DUP3 PUSH1 0x2 MUL DUP3 OR SWAP1 POP SWAP3 SWAP2 POP POP JUMP JUMPDEST PUSH3 0x4D1 DUP3 PUSH3 0x27B JUMP JUMPDEST PUSH8 0xFFFFFFFFFFFFFFFF DUP2 GT ISZERO PUSH3 0x4ED JUMPI PUSH3 0x4EC PUSH3 0x92 JUMP JUMPDEST JUMPDEST PUSH3 0x4F9 DUP3 SLOAD PUSH3 0x2B5 JUMP JUMPDEST PUSH3 0x506 DUP3 DUP3 DUP6 PUSH3 0x42B JUMP JUMPDEST PUSH1 0x0 PUSH1 0x20 SWAP1 POP PUSH1 0x1F DUP4 GT PUSH1 0x1 DUP2 EQ PUSH3 0x53E JUMPI PUSH1 0x0 DUP5 ISZERO PUSH3 0x529 JUMPI DUP3 DUP8 ADD MLOAD SWAP1 POP JUMPDEST PUSH3 0x535 DUP6 DUP3 PUSH3 0x4A8 JUMP JUMPDEST DUP7 SSTORE POP PUSH3 0x5A5 JUMP JUMPDEST PUSH1 0x1F NOT DUP5 AND PUSH3 0x54E DUP7 PUSH3 0x2EA JUMP JUMPDEST PUSH1 0x0 JUMPDEST DUP3 DUP2 LT ISZERO PUSH3 0x578 JUMPI DUP5 DUP10 ADD MLOAD DUP3 SSTORE PUSH1 0x1 DUP3 ADD SWAP2 POP PUSH1 0x20 DUP6 ADD SWAP5 POP PUSH1 0x20 DUP2 ADD SWAP1 POP PUSH3 0x551 JUMP JUMPDEST DUP7 DUP4 LT ISZERO PUSH3 0x598 JUMPI DUP5 DUP10 ADD MLOAD PUSH3 0x594 PUSH1 0x1F DUP10 AND DUP3 PUSH3 0x488 JUMP JUMPDEST DUP4 SSTORE POP JUMPDEST PUSH1 0x1 PUSH1 0x2 DUP9 MUL ADD DUP9 SSTORE POP POP POP JUMPDEST POP POP POP POP POP POP JUMP JUMPDEST PUSH2 0x2056 DUP1 PUSH3 0x5BD PUSH1 0x0 CODECOPY PUSH1 0x0 RETURN INVALID PUSH1 0x80 PUSH1 0x40 MSTORE CALLVALUE DUP1 ISZERO PUSH2 0x10 JUMPI PUSH1 0x0 DUP1 REVERT JUMPDEST POP PUSH1 0x4 CALLDATASIZE LT PUSH2 0xEA JUMPI PUSH1 0x0 CALLDATALOAD PUSH1 0xE0 SHR DUP1 PUSH4 0x6352211E GT PUSH2 0x8C JUMPI DUP1 PUSH4 0xA22CB465 GT PUSH2 0x66 JUMPI DUP1 PUSH4 0xA22CB465 EQ PUSH2 0x25B JUMPI DUP1 PUSH4 0xB88D4FDE EQ PUSH2 0x277 JUMPI DUP1 PUSH4 0xC87B56DD EQ PUSH2 0x293 JUMPI DUP1 PUSH4 0xE985E9C5 EQ PUSH2 0x2C3 JUMPI PUSH2 0xEA JUMP JUMPDEST DUP1 PUSH4 0x6352211E EQ PUSH2 0x1DD JUMPI DUP1 PUSH4 0x70A08231 EQ PUSH2 0x20D JUMPI DUP1 PUSH4 0x95D89B41 EQ PUSH2 0x23D JUMPI PUSH2 0xEA JUMP JUMPDEST DUP1 PUSH4 0x95EA7B3 GT PUSH2 0xC8 JUMPI DUP1 PUSH4 0x95EA7B3 EQ PUSH2 0x16D JUMPI DUP1 PUSH4 0x23B872DD EQ PUSH2 0x189 JUMPI DUP1 PUSH4 0x30E0789E EQ PUSH2 0x1A5 JUMPI DUP1 PUSH4 0x42842E0E EQ PUSH2 0x1C1 JUMPI PUSH2 0xEA JUMP JUMPDEST DUP1 PUSH4 0x1FFC9A7 EQ PUSH2 0xEF JUMPI DUP1 PUSH4 0x6FDDE03 EQ PUSH2 0x11F JUMPI DUP1 PUSH4 0x81812FC EQ PUSH2 0x13D JUMPI JUMPDEST PUSH1 0x0 DUP1 REVERT JUMPDEST PUSH2 0x109 PUSH1 0x4 DUP1 CALLDATASIZE SUB DUP2 ADD SWAP1 PUSH2 0x104 SWAP2 SWAP1 PUSH2 0x14BC JUMP JUMPDEST PUSH2 0x2F3 JUMP JUMPDEST PUSH1 0x40 MLOAD PUSH2 0x116 SWAP2 SWAP1 PUSH2 0x1504 JUMP JUMPDEST PUSH1 0x40 MLOAD DUP1 SWAP2 SUB SWAP1 RETURN JUMPDEST PUSH2 0x127 PUSH2 0x3D5 JUMP JUMPDEST PUSH1 0x40 MLOAD PUSH2 0x134 SWAP2 SWAP1 PUSH2 0x15AF JUMP JUMPDEST PUSH1 0x40 MLOAD DUP1 SWAP2 SUB SWAP1 RETURN JUMPDEST PUSH2 0x157 PUSH1 0x4 DUP1 CALLDATASIZE SUB DUP2 ADD SWAP1 PUSH2 0x152 SWAP2 SWAP1 PUSH2 0x1607 JUMP JUMPDEST PUSH2 0x467 JUMP JUMPDEST PUSH1 0x40 MLOAD PUSH2 0x164 SWAP2 SWAP1 PUSH2 0x1675 JUMP JUMPDEST PUSH1 0x40 MLOAD DUP1 SWAP2 SUB SWAP1 RETURN JUMPDEST PUSH2 0x187 PUSH1 0x4 DUP1 CALLDATASIZE SUB DUP2 ADD SWAP1 PUSH2 0x182 SWAP2 SWAP1 PUSH2 0x16BC JUMP JUMPDEST PUSH2 0x4AD JUMP JUMPDEST STOP JUMPDEST PUSH2 0x1A3 PUSH1 0x4 DUP1 CALLDATASIZE SUB DUP2 ADD SWAP1 PUSH2 0x19E SWAP2 SWAP1 PUSH2 0x16FC JUMP JUMPDEST PUSH2 0x5C4 JUMP JUMPDEST STOP JUMPDEST PUSH2 0x1BF PUSH1 0x4 DUP1 CALLDATASIZE SUB DUP2 ADD SWAP1 PUSH2 0x1BA SWAP2 SWAP1 PUSH2 0x16FC JUMP JUMPDEST PUSH2 0x624 JUMP JUMPDEST STOP JUMPDEST PUSH2 0x1DB PUSH1 0x4 DUP1 CALLDATASIZE SUB DUP2 ADD SWAP1 PUSH2 0x1D6 SWAP2 SWAP1 PUSH2 0x16FC JUMP JUMPDEST PUSH2 0x8AE JUMP JUMPDEST STOP JUMPDEST PUSH2 0x1F7 PUSH1 0x4 DUP1 CALLDATASIZE SUB DUP2 ADD SWAP1 PUSH2 0x1F2 SWAP2 SWAP1 PUSH2 0x1607 JUMP JUMPDEST PUSH2 0x8CE JUMP JUMPDEST PUSH1 0x40 MLOAD PUSH2 0x204 SWAP2 SWAP1 PUSH2 0x1675 JUMP JUMPDEST PUSH1 0x40 MLOAD DUP1 SWAP2 SUB SWAP1 RETURN JUMPDEST PUSH2 0x227 PUSH1 0x4 DUP1 CALLDATASIZE SUB DUP2 ADD SWAP1 PUSH2 0x222 SWAP2 SWAP1 PUSH2 0x174F JUMP JUMPDEST PUSH2 0x954 JUMP JUMPDEST PUSH1 0x40 MLOAD PUSH2 0x234 SWAP2 SWAP1 PUSH2 0x178B JUMP JUMPDEST PUSH1 0x40 MLOAD DUP1 SWAP2 SUB SWAP1 RETURN JUMPDEST PUSH2 0x245 PUSH2 0xA0B JUMP JUMPDEST PUSH1 0x40 MLOAD PUSH2 0x252 SWAP2 SWAP1 PUSH2 0x15AF JUMP JUMPDEST PUSH1 0x40 MLOAD DUP1 SWAP2 SUB SWAP1 RETURN JUMPDEST PUSH2 0x275 PUSH1 0x4 DUP1 CALLDATASIZE SUB DUP2 ADD SWAP1 PUSH2 0x270 SWAP2 SWAP1 PUSH2 0x17D2 JUMP JUMPDEST PUSH2 0xA9D JUMP JUMPDEST STOP JUMPDEST PUSH2 0x291 PUSH1 0x4 DUP1 CALLDATASIZE SUB DUP2 ADD SWAP1 PUSH2 0x28C SWAP2 SWAP1 PUSH2 0x1947 JUMP JUMPDEST PUSH2 0xAB3 JUMP JUMPDEST STOP JUMPDEST PUSH2 0x2AD PUSH1 0x4 DUP1 CALLDATASIZE SUB DUP2 ADD SWAP1 PUSH2 0x2A8 SWAP2 SWAP1 PUSH2 0x1607 JUMP JUMPDEST PUSH2 0xB15 JUMP JUMPDEST PUSH1 0x40 MLOAD PUSH2 0x2BA SWAP2 SWAP1 PUSH2 0x15AF JUMP JUMPDEST PUSH1 0x40 MLOAD DUP1 SWAP2 SUB SWAP1 RETURN JUMPDEST PUSH2 0x2DD PUSH1 0x4 DUP1 CALLDATASIZE SUB DUP2 ADD SWAP1 PUSH2 0x2D8 SWAP2 SWAP1 PUSH2 0x19CA JUMP JUMPDEST PUSH2 0xB7D JUMP JUMPDEST PUSH1 0x40 MLOAD PUSH2 0x2EA SWAP2 SWAP1 PUSH2 0x1504 JUMP JUMPDEST PUSH1 0x40 MLOAD DUP1 SWAP2 SUB SWAP1 RETURN JUMPDEST PUSH1 0x0 PUSH32 0x80AC58CD00000000000000000000000000000000000000000000000000000000 PUSH28 0xFFFFFFFFFFFFFFFFFFFFFFFFFFFFFFFFFFFFFFFFFFFFFFFFFFFFFFFF NOT AND DUP3 PUSH28 0xFFFFFFFFFFFFFFFFFFFFFFFFFFFFFFFFFFFFFFFFFFFFFFFFFFFFFFFF NOT AND EQ DUP1 PUSH2 0x3BE JUMPI POP PUSH32 0x5B5E139F00000000000000000000000000000000000000000000000000000000 PUSH28 0xFFFFFFFFFFFFFFFFFFFFFFFFFFFFFFFFFFFFFFFFFFFFFFFFFFFFFFFF NOT AND DUP3 PUSH28 0xFFFFFFFFFFFFFFFFFFFFFFFFFFFFFFFFFFFFFFFFFFFFFFFFFFFFFFFF NOT AND EQ JUMPDEST DUP1 PUSH2 0x3CE JUMPI POP PUSH2 0x3CD DUP3 PUSH2 0xC11 JUMP JUMPDEST JUMPDEST SWAP1 POP SWAP2 SWAP1 POP JUMP JUMPDEST PUSH1 0x60 PUSH1 0x0 DUP1 SLOAD PUSH2 0x3E4 SWAP1 PUSH2 0x1A39 JUMP JUMPDEST DUP1 PUSH1 0x1F ADD PUSH1 0x20 DUP1 SWAP2 DIV MUL PUSH1 0x20 ADD PUSH1 0x40 MLOAD SWAP1 DUP2 ADD PUSH1 0x40 MSTORE DUP1 SWAP3 SWAP2 SWAP1 DUP2 DUP2 MSTORE PUSH1 0x20 ADD DUP3 DUP1 SLOAD PUSH2 0x410 SWAP1 PUSH2 0x1A39 JUMP JUMPDEST DUP1 ISZERO PUSH2 0x45D JUMPI DUP1 PUSH1 0x1F LT PUSH2 0x432 JUMPI PUSH2 0x100 DUP1 DUP4 SLOAD DIV MUL DUP4 MSTORE SWAP2 PUSH1 0x20 ADD SWAP2 PUSH2 0x45D JUMP JUMPDEST DUP3 ADD SWAP2 SWAP1 PUSH1 0x0 MSTORE PUSH1 0x20 PUSH1 0x0 KECCAK256 SWAP1 JUMPDEST DUP2 SLOAD DUP2 MSTORE SWAP1 PUSH1 0x1 ADD SWAP1 PUSH1 0x20 ADD DUP1 DUP4 GT PUSH2 0x440 JUMPI DUP3 SWAP1 SUB PUSH1 0x1F AND DUP3 ADD SWAP2 JUMPDEST POP POP POP POP POP SWAP1 POP SWAP1 JUMP JUMPDEST PUSH1 0x0 PUSH2 0x472 DUP3 PUSH2 0xC7B JUMP JUMPDEST PUSH1 0x4 PUSH1 0x0 DUP4 DUP2 MSTORE PUSH1 0x20 ADD SWAP1 DUP2 MSTORE PUSH1 0x20 ADD PUSH1 0x0 KECCAK256 PUSH1 0x0 SWAP1 SLOAD SWAP1 PUSH2 0x100 EXP SWAP1 DIV PUSH20 0xFFFFFFFFFFFFFFFFFFFFFFFFFFFFFFFFFFFFFFFF AND SWAP1 POP SWAP2 SWAP1 POP JUMP JUMPDEST PUSH1 0x0 PUSH2 0x4B8 DUP3 PUSH2 0x8CE JUMP JUMPDEST SWAP1 POP DUP1 PUSH20 0xFFFFFFFFFFFFFFFFFFFFFFFFFFFFFFFFFFFFFFFF AND DUP4 PUSH20 0xFFFFFFFFFFFFFFFFFFFFFFFFFFFFFFFFFFFFFFFF AND SUB PUSH2 0x528 JUMPI PUSH1 0x40 MLOAD PUSH32 0x8C379A000000000000000000000000000000000000000000000000000000000 DUP2 MSTORE PUSH1 0x4 ADD PUSH2 0x51F SWAP1 PUSH2 0x1ADC JUMP JUMPDEST PUSH1 0x40 MLOAD DUP1 SWAP2 SUB SWAP1 REVERT JUMPDEST DUP1 PUSH20 0xFFFFFFFFFFFFFFFFFFFFFFFFFFFFFFFFFFFFFFFF AND PUSH2 0x547 PUSH2 0xCC6 JUMP JUMPDEST PUSH20 0xFFFFFFFFFFFFFFFFFFFFFFFFFFFFFFFFFFFFFFFF AND EQ DUP1 PUSH2 0x576 JUMPI POP PUSH2 0x575 DUP2 PUSH2 0x570 PUSH2 0xCC6 JUMP JUMPDEST PUSH2 0xB7D JUMP JUMPDEST JUMPDEST PUSH2 0x5B5 JUMPI PUSH1 0x40 MLOAD PUSH32 0x8C379A000000000000000000000000000000000000000000000000000000000 DUP2 MSTORE PUSH1 0x4 ADD PUSH2 0x5AC SWAP1 PUSH2 0x1B6E JUMP JUMPDEST PUSH1 0x40 MLOAD DUP1 SWAP2 SUB SWAP1 REVERT JUMPDEST PUSH2 0x5BF DUP4 DUP4 PUSH2 0xCCE JUMP JUMPDEST POP POP POP JUMP JUMPDEST PUSH2 0x5D5 PUSH2 0x5CF PUSH2 0xCC6 JUMP JUMPDEST DUP3 PUSH2 0xD87 JUMP JUMPDEST PUSH2 0x614 JUMPI PUSH1 0x40 MLOAD PUSH32 0x8C379A000000000000000000000000000000000000000000000000000000000 DUP2 MSTORE PUSH1 0x4 ADD PUSH2 0x60B SWAP1 PUSH2 0x1C00 JUMP JUMPDEST PUSH1 0x40 MLOAD DUP1 SWAP2 SUB SWAP1 REVERT JUMPDEST PUSH2 0x61F DUP4 DUP4 DUP4 PUSH2 0x624 JUMP JUMPDEST POP POP POP JUMP JUMPDEST DUP3 PUSH20 0xFFFFFFFFFFFFFFFFFFFFFFFFFFFFFFFFFFFFFFFF AND PUSH2 0x644 DUP3 PUSH2 0x8CE JUMP JUMPDEST PUSH20 0xFFFFFFFFFFFFFFFFFFFFFFFFFFFFFFFFFFFFFFFF AND EQ PUSH2 0x69A JUMPI PUSH1 0x40 MLOAD PUSH32 0x8C379A000000000000000000000000000000000000000000000000000000000 DUP2 MSTORE PUSH1 0x4 ADD PUSH2 0x691 SWAP1 PUSH2 0x1C92 JUMP JUMPDEST PUSH1 0x40 MLOAD DUP1 SWAP2 SUB SWAP1 REVERT JUMPDEST PUSH2 0x6A7 DUP4 DUP4 DUP4 PUSH1 0x1 PUSH2 0xE1C JUMP JUMPDEST DUP3 PUSH20 0xFFFFFFFFFFFFFFFFFFFFFFFFFFFFFFFFFFFFFFFF AND PUSH2 0x6C7 DUP3 PUSH2 0x8CE JUMP JUMPDEST PUSH20 0xFFFFFFFFFFFFFFFFFFFFFFFFFFFFFFFFFFFFFFFF AND EQ PUSH2 0x71D JUMPI PUSH1 0x40 MLOAD PUSH32 0x8C379A000000000000000000000000000000000000000000000000000000000 DUP2 MSTORE PUSH1 0x4 ADD PUSH2 0x714 SWAP1 PUSH2 0x1C92 JUMP JUMPDEST PUSH1 0x40 MLOAD DUP1 SWAP2 SUB SWAP1 REVERT JUMPDEST PUSH1 0x4 PUSH1 0x0 DUP3 DUP2 MSTORE PUSH1 0x20 ADD SWAP1 DUP2 MSTORE PUSH1 0x20 ADD PUSH1 0x0 KECCAK256 PUSH1 0x0 PUSH2 0x100 EXP DUP2 SLOAD SWAP1 PUSH20 0xFFFFFFFFFFFFFFFFFFFFFFFFFFFFFFFFFFFFFFFF MUL NOT AND SWAP1 SSTORE PUSH1 0x1 PUSH1 0x3 PUSH1 0x0 DUP6 PUSH20 0xFFFFFFFFFFFFFFFFFFFFFFFFFFFFFFFFFFFFFFFF AND PUSH20 0xFFFFFFFFFFFFFFFFFFFFFFFFFFFFFFFFFFFFFFFF AND DUP2 MSTORE PUSH1 0x20 ADD SWAP1 DUP2 MSTORE PUSH1 0x20 ADD PUSH1 0x0 KECCAK256 PUSH1 0x0 DUP3 DUP3 SLOAD SUB SWAP3 POP POP DUP2 SWAP1 SSTORE POP PUSH1 0x1 PUSH1 0x3 PUSH1 0x0 DUP5 PUSH20 0xFFFFFFFFFFFFFFFFFFFFFFFFFFFFFFFFFFFFFFFF AND PUSH20 0xFFFFFFFFFFFFFFFFFFFFFFFFFFFFFFFFFFFFFFFF AND DUP2 MSTORE PUSH1 0x20 ADD SWAP1 DUP2 MSTORE PUSH1 0x20 ADD PUSH1 0x0 KECCAK256 PUSH1 0x0 DUP3 DUP3 SLOAD ADD SWAP3 POP POP DUP2 SWAP1 SSTORE POP DUP2 PUSH1 0x2 PUSH1 0x0 DUP4 DUP2 MSTORE PUSH1 0x20 ADD SWAP1 DUP2 MSTORE PUSH1 0x20 ADD PUSH1 0x0 KECCAK256 PUSH1 0x0 PUSH2 0x100 EXP DUP2 SLOAD DUP2 PUSH20 0xFFFFFFFFFFFFFFFFFFFFFFFFFFFFFFFFFFFFFFFF MUL NOT AND SWAP1 DUP4 PUSH20 0xFFFFFFFFFFFFFFFFFFFFFFFFFFFFFFFFFFFFFFFF AND MUL OR SWAP1 SSTORE POP DUP1 DUP3 PUSH20 0xFFFFFFFFFFFFFFFFFFFFFFFFFFFFFFFFFFFFFFFF AND DUP5 PUSH20 0xFFFFFFFFFFFFFFFFFFFFFFFFFFFFFFFFFFFFFFFF AND PUSH32 0xDDF252AD1BE2C89B69C2B068FC378DAA952BA7F163C4A11628F55A4DF523B3EF PUSH1 0x40 MLOAD PUSH1 0x40 MLOAD DUP1 SWAP2 SUB SWAP1 LOG4 PUSH2 0x8A9 DUP4 DUP4 DUP4 PUSH1 0x1 PUSH2 0xE22 JUMP JUMPDEST POP POP POP JUMP JUMPDEST PUSH2 0x8C9 DUP4 DUP4 DUP4 PUSH1 0x40 MLOAD DUP1 PUSH1 0x20 ADD PUSH1 0x40 MSTORE DUP1 PUSH1 0x0 DUP2 MSTORE POP PUSH2 0xAB3 JUMP JUMPDEST POP POP POP JUMP JUMPDEST PUSH1 0x0 DUP1 PUSH2 0x8DA DUP4 PUSH2 0xE28 JUMP JUMPDEST SWAP1 POP PUSH1 0x0 PUSH20 0xFFFFFFFFFFFFFFFFFFFFFFFFFFFFFFFFFFFFFFFF AND DUP2 PUSH20 0xFFFFFFFFFFFFFFFFFFFFFFFFFFFFFFFFFFFFFFFF AND SUB PUSH2 0x94B JUMPI PUSH1 0x40 MLOAD PUSH32 0x8C379A000000000000000000000000000000000000000000000000000000000 DUP2 MSTORE PUSH1 0x4 ADD PUSH2 0x942 SWAP1 PUSH2 0x1CFE JUMP JUMPDEST PUSH1 0x40 MLOAD DUP1 SWAP2 SUB SWAP1 REVERT JUMPDEST DUP1 SWAP2 POP POP SWAP2 SWAP1 POP JUMP JUMPDEST PUSH1 0x0 DUP1 PUSH20 0xFFFFFFFFFFFFFFFFFFFFFFFFFFFFFFFFFFFFFFFF AND DUP3 PUSH20 0xFFFFFFFFFFFFFFFFFFFFFFFFFFFFFFFFFFFFFFFF AND SUB PUSH2 0x9C4 JUMPI PUSH1 0x40 MLOAD PUSH32 0x8C379A000000000000000000000000000000000000000000000000000000000 DUP2 MSTORE PUSH1 0x4 ADD PUSH2 0x9BB SWAP1 PUSH2 0x1D90 JUMP JUMPDEST PUSH1 0x40 MLOAD DUP1 SWAP2 SUB SWAP1 REVERT JUMPDEST PUSH1 0x3 PUSH1 0x0 DUP4 PUSH20 0xFFFFFFFFFFFFFFFFFFFFFFFFFFFFFFFFFFFFFFFF AND PUSH20 0xFFFFFFFFFFFFFFFFFFFFFFFFFFFFFFFFFFFFFFFF AND DUP2 MSTORE PUSH1 0x20 ADD SWAP1 DUP2 MSTORE PUSH1 0x20 ADD PUSH1 0x0 KECCAK256 SLOAD SWAP1 POP SWAP2 SWAP1 POP JUMP JUMPDEST PUSH1 0x60 PUSH1 0x1 DUP1 SLOAD PUSH2 0xA1A SWAP1 PUSH2 0x1A39 JUMP JUMPDEST DUP1 PUSH1 0x1F ADD PUSH1 0x20 DUP1 SWAP2 DIV MUL PUSH1 0x20 ADD PUSH1 0x40 MLOAD SWAP1 DUP2 ADD PUSH1 0x40 MSTORE DUP1 SWAP3 SWAP2 SWAP1 DUP2 DUP2 MSTORE PUSH1 0x20 ADD DUP3 DUP1 SLOAD PUSH2 0xA46 SWAP1 PUSH2 0x1A39 JUMP JUMPDEST DUP1 ISZERO PUSH2 0xA93 JUMPI DUP1 PUSH1 0x1F LT PUSH2 0xA68 JUMPI PUSH2 0x100 DUP1 DUP4 SLOAD DIV MUL DUP4 MSTORE SWAP2 PUSH1 0x20 ADD SWAP2 PUSH2 0xA93 JUMP JUMPDEST DUP3 ADD SWAP2 SWAP1 PUSH1 0x0 MSTORE PUSH1 0x20 PUSH1 0x0 KECCAK256 SWAP1 JUMPDEST DUP2 SLOAD DUP2 MSTORE SWAP1 PUSH1 0x1 ADD SWAP1 PUSH1 0x20 ADD DUP1 DUP4 GT PUSH2 0xA76 JUMPI DUP3 SWAP1 SUB PUSH1 0x1F AND DUP3 ADD SWAP2 JUMPDEST POP POP POP POP POP SWAP1 POP SWAP1 JUMP JUMPDEST PUSH2 0xAAF PUSH2 0xAA8 PUSH2 0xCC6 JUMP JUMPDEST DUP4 DUP4 PUSH2 0xE65 JUMP JUMPDEST POP POP JUMP JUMPDEST PUSH2 0xAC4 PUSH2 0xABE PUSH2 0xCC6 JUMP JUMPDEST DUP4 PUSH2 0xD87 JUMP JUMPDEST PUSH2 0xB03 JUMPI PUSH1 0x40 MLOAD PUSH32 0x8C379A000000000000000000000000000000000000000000000000000000000 DUP2 MSTORE PUSH1 0x4 ADD PUSH2 0xAFA SWAP1 PUSH2 0x1C00 JUMP JUMPDEST PUSH1 0x40 MLOAD DUP1 SWAP2 SUB SWAP1 REVERT JUMPDEST PUSH2 0xB0F DUP5 DUP5 DUP5 DUP5 PUSH2 0xFD1 JUMP JUMPDEST POP POP POP POP JUMP JUMPDEST PUSH1 0x60 PUSH2 0xB20 DUP3 PUSH2 0xC7B JUMP JUMPDEST PUSH1 0x0 PUSH2 0xB2A PUSH2 0x102D JUMP JUMPDEST SWAP1 POP PUSH1 0x0 DUP2 MLOAD GT PUSH2 0xB4A JUMPI PUSH1 0x40 MLOAD DUP1 PUSH1 0x20 ADD PUSH1 0x40 MSTORE DUP1 PUSH1 0x0 DUP2 MSTORE POP PUSH2 0xB75 JUMP JUMPDEST DUP1 PUSH2 0xB54 DUP5 PUSH2 0x1044 JUMP JUMPDEST PUSH1 0x40 MLOAD PUSH1 0x20 ADD PUSH2 0xB65 SWAP3 SWAP2 SWAP1 PUSH2 0x1DEC JUMP JUMPDEST PUSH1 0x40 MLOAD PUSH1 0x20 DUP2 DUP4 SUB SUB DUP2 MSTORE SWAP1 PUSH1 0x40 MSTORE JUMPDEST SWAP2 POP POP SWAP2 SWAP1 POP JUMP JUMPDEST PUSH1 0x0 PUSH1 0x5 PUSH1 0x0 DUP5 PUSH20 0xFFFFFFFFFFFFFFFFFFFFFFFFFFFFFFFFFFFFFFFF AND PUSH20 0xFFFFFFFFFFFFFFFFFFFFFFFFFFFFFFFFFFFFFFFF AND DUP2 MSTORE PUSH1 0x20 ADD SWAP1 DUP2 MSTORE PUSH1 0x20 ADD PUSH1 0x0 KECCAK256 PUSH1 0x0 DUP4 PUSH20 0xFFFFFFFFFFFFFFFFFFFFFFFFFFFFFFFFFFFFFFFF AND PUSH20 0xFFFFFFFFFFFFFFFFFFFFFFFFFFFFFFFFFFFFFFFF AND DUP2 MSTORE PUSH1 0x20 ADD SWAP1 DUP2 MSTORE PUSH1 0x20 ADD PUSH1 0x0 KECCAK256 PUSH1 0x0 SWAP1 SLOAD SWAP1 PUSH2 0x100 EXP SWAP1 DIV PUSH1 0xFF AND SWAP1 POP SWAP3 SWAP2 POP POP JUMP JUMPDEST PUSH1 0x0 PUSH32 0x1FFC9A700000000000000000000000000000000000000000000000000000000 PUSH28 0xFFFFFFFFFFFFFFFFFFFFFFFFFFFFFFFFFFFFFFFFFFFFFFFFFFFFFFFF NOT AND DUP3 PUSH28 0xFFFFFFFFFFFFFFFFFFFFFFFFFFFFFFFFFFFFFFFFFFFFFFFFFFFFFFFF NOT AND EQ SWAP1 POP SWAP2 SWAP1 POP JUMP JUMPDEST PUSH2 0xC84 DUP2 PUSH2 0x1112 JUMP JUMPDEST PUSH2 0xCC3 JUMPI PUSH1 0x40 MLOAD PUSH32 0x8C379A000000000000000000000000000000000000000000000000000000000 DUP2 MSTORE PUSH1 0x4 ADD PUSH2 0xCBA SWAP1 PUSH2 0x1CFE JUMP JUMPDEST PUSH1 0x40 MLOAD DUP1 SWAP2 SUB SWAP1 REVERT JUMPDEST POP JUMP JUMPDEST PUSH1 0x0 CALLER SWAP1 POP SWAP1 JUMP JUMPDEST DUP2 PUSH1 0x4 PUSH1 0x0 DUP4 DUP2 MSTORE PUSH1 0x20 ADD SWAP1 DUP2 MSTORE PUSH1 0x20 ADD PUSH1 0x0 KECCAK256 PUSH1 0x0 PUSH2 0x100 EXP DUP2 SLOAD DUP2 PUSH20 0xFFFFFFFFFFFFFFFFFFFFFFFFFFFFFFFFFFFFFFFF MUL NOT AND SWAP1 DUP4 PUSH20 0xFFFFFFFFFFFFFFFFFFFFFFFFFFFFFFFFFFFFFFFF AND MUL OR SWAP1 SSTORE POP DUP1 DUP3 PUSH20 0xFFFFFFFFFFFFFFFFFFFFFFFFFFFFFFFFFFFFFFFF AND PUSH2 0xD41 DUP4 PUSH2 0x8CE JUMP JUMPDEST PUSH20 0xFFFFFFFFFFFFFFFFFFFFFFFFFFFFFFFFFFFFFFFF AND PUSH32 0x8C5BE1E5EBEC7D5BD14F71427D1E84F3DD0314C0F7B2291E5B200AC8C7C3B925 PUSH1 0x40 MLOAD PUSH1 0x40 MLOAD DUP1 SWAP2 SUB SWAP1 LOG4 POP POP JUMP JUMPDEST PUSH1 0x0 DUP1 PUSH2 0xD93 DUP4 PUSH2 0x8CE JUMP JUMPDEST SWAP1 POP DUP1 PUSH20 0xFFFFFFFFFFFFFFFFFFFFFFFFFFFFFFFFFFFFFFFF AND DUP5 PUSH20 0xFFFFFFFFFFFFFFFFFFFFFFFFFFFFFFFFFFFFFFFF AND EQ DUP1 PUSH2 0xDD5 JUMPI POP PUSH2 0xDD4 DUP2 DUP6 PUSH2 0xB7D JUMP JUMPDEST JUMPDEST DUP1 PUSH2 0xE13 JUMPI POP DUP4 PUSH20 0xFFFFFFFFFFFFFFFFFFFFFFFFFFFFFFFFFFFFFFFF AND PUSH2 0xDFB DUP5 PUSH2 0x467 JUMP JUMPDEST PUSH20 0xFFFFFFFFFFFFFFFFFFFFFFFFFFFFFFFFFFFFFFFF AND EQ JUMPDEST SWAP2 POP POP SWAP3 SWAP2 POP POP JUMP JUMPDEST POP POP POP POP JUMP JUMPDEST POP POP POP POP JUMP JUMPDEST PUSH1 0x0 PUSH1 0x2 PUSH1 0x0 DUP4 DUP2 MSTORE PUSH1 0x20 ADD SWAP1 DUP2 MSTORE PUSH1 0x20 ADD PUSH1 0x0 KECCAK256 PUSH1 0x0 SWAP1 SLOAD SWAP1 PUSH2 0x100 EXP SWAP1 DIV PUSH20 0xFFFFFFFFFFFFFFFFFFFFFFFFFFFFFFFFFFFFFFFF AND SWAP1 POP SWAP2 SWAP1 POP JUMP JUMPDEST DUP2 PUSH20 0xFFFFFFFFFFFFFFFFFFFFFFFFFFFFFFFFFFFFFFFF AND DUP4 PUSH20 0xFFFFFFFFFFFFFFFFFFFFFFFFFFFFFFFFFFFFFFFF AND SUB PUSH2 0xED3 JUMPI PUSH1 0x40 MLOAD PUSH32 0x8C379A000000000000000000000000000000000000000000000000000000000 DUP2 MSTORE PUSH1 0x4 ADD PUSH2 0xECA SWAP1 PUSH2 0x1E5C JUMP JUMPDEST PUSH1 0x40 MLOAD DUP1 SWAP2 SUB SWAP1 REVERT JUMPDEST DUP1 PUSH1 0x5 PUSH1 0x0 DUP6 PUSH20 0xFFFFFFFFFFFFFFFFFFFFFFFFFFFFFFFFFFFFFFFF AND PUSH20 0xFFFFFFFFFFFFFFFFFFFFFFFFFFFFFFFFFFFFFFFF AND DUP2 MSTORE PUSH1 0x20 ADD SWAP1 DUP2 MSTORE PUSH1 0x20 ADD PUSH1 0x0 KECCAK256 PUSH1 0x0 DUP5 PUSH20 0xFFFFFFFFFFFFFFFFFFFFFFFFFFFFFFFFFFFFFFFF AND PUSH20 0xFFFFFFFFFFFFFFFFFFFFFFFFFFFFFFFFFFFFFFFF AND DUP2 MSTORE PUSH1 0x20 ADD SWAP1 DUP2 MSTORE PUSH1 0x20 ADD PUSH1 0x0 KECCAK256 PUSH1 0x0 PUSH2 0x100 EXP DUP2 SLOAD DUP2 PUSH1 0xFF MUL NOT AND SWAP1 DUP4 ISZERO ISZERO MUL OR SWAP1 SSTORE POP DUP2 PUSH20 0xFFFFFFFFFFFFFFFFFFFFFFFFFFFFFFFFFFFFFFFF AND DUP4 PUSH20 0xFFFFFFFFFFFFFFFFFFFFFFFFFFFFFFFFFFFFFFFF AND PUSH32 0x17307EAB39AB6107E8899845AD3D59BD9653F200F220920489CA2B5937696C31 DUP4 PUSH1 0x40 MLOAD PUSH2 0xFC4 SWAP2 SWAP1 PUSH2 0x1504 JUMP JUMPDEST PUSH1 0x40 MLOAD DUP1 SWAP2 SUB SWAP1 LOG3 POP POP POP JUMP JUMPDEST PUSH2 0xFDC DUP5 DUP5 DUP5 PUSH2 0x624 JUMP JUMPDEST PUSH2 0xFE8 DUP5 DUP5 DUP5 DUP5 PUSH2 0x1153 JUMP JUMPDEST PUSH2 0x1027 JUMPI PUSH1 0x40 MLOAD PUSH32 0x8C379A000000000000000000000000000000000000000000000000000000000 DUP2 MSTORE PUSH1 0x4 ADD PUSH2 0x101E SWAP1 PUSH2 0x1EEE JUMP JUMPDEST PUSH1 0x40 MLOAD DUP1 SWAP2 SUB SWAP1 REVERT JUMPDEST POP POP POP POP JUMP JUMPDEST PUSH1 0x60 PUSH1 0x40 MLOAD DUP1 PUSH1 0x20 ADD PUSH1 0x40 MSTORE DUP1 PUSH1 0x0 DUP2 MSTORE POP SWAP1 POP SWAP1 JUMP JUMPDEST PUSH1 0x60 PUSH1 0x0 PUSH1 0x1 PUSH2 0x1053 DUP5 PUSH2 0x12DA JUMP JUMPDEST ADD SWAP1 POP PUSH1 0x0 DUP2 PUSH8 0xFFFFFFFFFFFFFFFF DUP2 GT ISZERO PUSH2 0x1072 JUMPI PUSH2 0x1071 PUSH2 0x181C JUMP JUMPDEST JUMPDEST PUSH1 0x40 MLOAD SWAP1 DUP1 DUP3 MSTORE DUP1 PUSH1 0x1F ADD PUSH1 0x1F NOT AND PUSH1 0x20 ADD DUP3 ADD PUSH1 0x40 MSTORE DUP1 ISZERO PUSH2 0x10A4 JUMPI DUP2 PUSH1 0x20 ADD PUSH1 0x1 DUP3 MUL DUP1 CALLDATASIZE DUP4 CALLDATACOPY DUP1 DUP3 ADD SWAP2 POP POP SWAP1 POP JUMPDEST POP SWAP1 POP PUSH1 0x0 DUP3 PUSH1 0x20 ADD DUP3 ADD SWAP1 POP JUMPDEST PUSH1 0x1 ISZERO PUSH2 0x1107 JUMPI DUP1 DUP1 PUSH1 0x1 SWAP1 SUB SWAP2 POP POP PUSH32 0x3031323334353637383961626364656600000000000000000000000000000000 PUSH1 0xA DUP7 MOD BYTE DUP2 MSTORE8 PUSH1 0xA DUP6 DUP2 PUSH2 0x10FB JUMPI PUSH2 0x10FA PUSH2 0x1F0E JUMP JUMPDEST JUMPDEST DIV SWAP5 POP PUSH1 0x0 DUP6 SUB PUSH2 0x10B2 JUMPI JUMPDEST DUP2 SWAP4 POP POP POP POP SWAP2 SWAP1 POP JUMP JUMPDEST PUSH1 0x0 DUP1 PUSH20 0xFFFFFFFFFFFFFFFFFFFFFFFFFFFFFFFFFFFFFFFF AND PUSH2 0x1134 DUP4 PUSH2 0xE28 JUMP JUMPDEST PUSH20 0xFFFFFFFFFFFFFFFFFFFFFFFFFFFFFFFFFFFFFFFF AND EQ ISZERO SWAP1 POP SWAP2 SWAP1 POP JUMP JUMPDEST PUSH1 0x0 PUSH2 0x1174 DUP5 PUSH20 0xFFFFFFFFFFFFFFFFFFFFFFFFFFFFFFFFFFFFFFFF AND PUSH2 0x142D JUMP JUMPDEST ISZERO PUSH2 0x12CD JUMPI DUP4 PUSH20 0xFFFFFFFFFFFFFFFFFFFFFFFFFFFFFFFFFFFFFFFF AND PUSH4 0x150B7A02 PUSH2 0x119D PUSH2 0xCC6 JUMP JUMPDEST DUP8 DUP7 DUP7 PUSH1 0x40 MLOAD DUP6 PUSH4 0xFFFFFFFF AND PUSH1 0xE0 SHL DUP2 MSTORE PUSH1 0x4 ADD PUSH2 0x11BF SWAP5 SWAP4 SWAP3 SWAP2 SWAP1 PUSH2 0x1F92 JUMP JUMPDEST PUSH1 0x20 PUSH1 0x40 MLOAD DUP1 DUP4 SUB DUP2 PUSH1 0x0 DUP8 GAS CALL SWAP3 POP POP POP DUP1 ISZERO PUSH2 0x11FB JUMPI POP PUSH1 0x40 MLOAD RETURNDATASIZE PUSH1 0x1F NOT PUSH1 0x1F DUP3 ADD AND DUP3 ADD DUP1 PUSH1 0x40 MSTORE POP DUP2 ADD SWAP1 PUSH2 0x11F8 SWAP2 SWAP1 PUSH2 0x1FF3 JUMP JUMPDEST PUSH1 0x1 JUMPDEST PUSH2 0x127D JUMPI RETURNDATASIZE DUP1 PUSH1 0x0 DUP2 EQ PUSH2 0x122B JUMPI PUSH1 0x40 MLOAD SWAP2 POP PUSH1 0x1F NOT PUSH1 0x3F RETURNDATASIZE ADD AND DUP3 ADD PUSH1 0x40 MSTORE RETURNDATASIZE DUP3 MSTORE RETURNDATASIZE PUSH1 0x0 PUSH1 0x20 DUP5 ADD RETURNDATACOPY PUSH2 0x1230 JUMP JUMPDEST PUSH1 0x60 SWAP2 POP JUMPDEST POP PUSH1 0x0 DUP2 MLOAD SUB PUSH2 0x1275 JUMPI PUSH1 0x40 MLOAD PUSH32 0x8C379A000000000000000000000000000000000000000000000000000000000 DUP2 MSTORE PUSH1 0x4 ADD PUSH2 0x126C SWAP1 PUSH2 0x1EEE JUMP JUMPDEST PUSH1 0x40 MLOAD DUP1 SWAP2 SUB SWAP1 REVERT JUMPDEST DUP1 MLOAD DUP2 PUSH1 0x20 ADD REVERT JUMPDEST PUSH4 0x150B7A02 PUSH1 0xE0 SHL PUSH28 0xFFFFFFFFFFFFFFFFFFFFFFFFFFFFFFFFFFFFFFFFFFFFFFFFFFFFFFFF NOT AND DUP2 PUSH28 0xFFFFFFFFFFFFFFFFFFFFFFFFFFFFFFFFFFFFFFFFFFFFFFFFFFFFFFFF NOT AND EQ SWAP2 POP POP PUSH2 0x12D2 JUMP JUMPDEST PUSH1 0x1 SWAP1 POP JUMPDEST SWAP5 SWAP4 POP POP POP POP JUMP JUMPDEST PUSH1 0x0 DUP1 PUSH1 0x0 SWAP1 POP PUSH27 0x184F03E93FF9F4DAA797ED6E38ED64BF6A1F010000000000000000 DUP4 LT PUSH2 0x1338 JUMPI PUSH27 0x184F03E93FF9F4DAA797ED6E38ED64BF6A1F010000000000000000 DUP4 DUP2 PUSH2 0x132E JUMPI PUSH2 0x132D PUSH2 0x1F0E JUMP JUMPDEST JUMPDEST DIV SWAP3 POP PUSH1 0x40 DUP2 ADD SWAP1 POP JUMPDEST PUSH14 0x4EE2D6D415B85ACEF8100000000 DUP4 LT PUSH2 0x1375 JUMPI PUSH14 0x4EE2D6D415B85ACEF8100000000 DUP4 DUP2 PUSH2 0x136B JUMPI PUSH2 0x136A PUSH2 0x1F0E JUMP JUMPDEST JUMPDEST DIV SWAP3 POP PUSH1 0x20 DUP2 ADD SWAP1 POP JUMPDEST PUSH7 0x2386F26FC10000 DUP4 LT PUSH2 0x13A4 JUMPI PUSH7 0x2386F26FC10000 DUP4 DUP2 PUSH2 0x139A JUMPI PUSH2 0x1399 PUSH2 0x1F0E JUMP JUMPDEST JUMPDEST DIV SWAP3 POP PUSH1 0x10 DUP2 ADD SWAP1 POP JUMPDEST PUSH4 0x5F5E100 DUP4 LT PUSH2 0x13CD JUMPI PUSH4 0x5F5E100 DUP4 DUP2 PUSH2 0x13C3 JUMPI PUSH2 0x13C2 PUSH2 0x1F0E JUMP JUMPDEST JUMPDEST DIV SWAP3 POP PUSH1 0x8 DUP2 ADD SWAP1 POP JUMPDEST PUSH2 0x2710 DUP4 LT PUSH2 0x13F2 JUMPI PUSH2 0x2710 DUP4 DUP2 PUSH2 0x13E8 JUMPI PUSH2 0x13E7 PUSH2 0x1F0E JUMP JUMPDEST JUMPDEST DIV SWAP3 POP PUSH1 0x4 DUP2 ADD SWAP1 POP JUMPDEST PUSH1 0x64 DUP4 LT PUSH2 0x1415 JUMPI PUSH1 0x64 DUP4 DUP2 PUSH2 0x140B JUMPI PUSH2 0x140A PUSH2 0x1F0E JUMP JUMPDEST JUMPDEST DIV SWAP3 POP PUSH1 0x2 DUP2 ADD SWAP1 POP JUMPDEST PUSH1 0xA DUP4 LT PUSH2 0x1424 JUMPI PUSH1 0x1 DUP2 ADD SWAP1 POP JUMPDEST DUP1 SWAP2 POP POP SWAP2 SWAP1 POP JUMP JUMPDEST PUSH1 0x0 DUP1 DUP3 PUSH20 0xFFFFFFFFFFFFFFFFFFFFFFFFFFFFFFFFFFFFFFFF AND EXTCODESIZE GT SWAP1 POP SWAP2 SWAP1 POP JUMP JUMPDEST PUSH1 0x0 PUSH1 0x40 MLOAD SWAP1 POP SWAP1 JUMP JUMPDEST PUSH1 0x0 DUP1 REVERT JUMPDEST PUSH1 0x0 DUP1 REVERT JUMPDEST PUSH1 0x0 PUSH32 0xFFFFFFFF00000000000000000000000000000000000000000000000000000000 DUP3 AND SWAP1 POP SWAP2 SWAP1 POP JUMP JUMPDEST PUSH2 0x1499 DUP2 PUSH2 0x1464 JUMP JUMPDEST DUP2 EQ PUSH2 0x14A4 JUMPI PUSH1 0x0 DUP1 REVERT JUMPDEST POP JUMP JUMPDEST PUSH1 0x0 DUP2 CALLDATALOAD SWAP1 POP PUSH2 0x14B6 DUP2 PUSH2 0x1490 JUMP JUMPDEST SWAP3 SWAP2 POP POP JUMP JUMPDEST PUSH1 0x0 PUSH1 0x20 DUP3 DUP5 SUB SLT ISZERO PUSH2 0x14D2 JUMPI PUSH2 0x14D1 PUSH2 0x145A JUMP JUMPDEST JUMPDEST PUSH1 0x0 PUSH2 0x14E0 DUP5 DUP3 DUP6 ADD PUSH2 0x14A7 JUMP JUMPDEST SWAP2 POP POP SWAP3 SWAP2 POP POP JUMP JUMPDEST PUSH1 0x0 DUP2 ISZERO ISZERO SWAP1 POP SWAP2 SWAP1 POP JUMP JUMPDEST PUSH2 0x14FE DUP2 PUSH2 0x14E9 JUMP JUMPDEST DUP3 MSTORE POP POP JUMP JUMPDEST PUSH1 0x0 PUSH1 0x20 DUP3 ADD SWAP1 POP PUSH2 0x1519 PUSH1 0x0 DUP4 ADD DUP5 PUSH2 0x14F5 JUMP JUMPDEST SWAP3 SWAP2 POP POP JUMP JUMPDEST PUSH1 0x0 DUP2 MLOAD SWAP1 POP SWAP2 SWAP1 POP JUMP JUMPDEST PUSH1 0x0 DUP3 DUP3 MSTORE PUSH1 0x20 DUP3 ADD SWAP1 POP SWAP3 SWAP2 POP POP JUMP JUMPDEST PUSH1 0x0 JUMPDEST DUP4 DUP2 LT ISZERO PUSH2 0x1559 JUMPI DUP1 DUP3 ADD MLOAD DUP2 DUP5 ADD MSTORE PUSH1 0x20 DUP2 ADD SWAP1 POP PUSH2 0x153E JUMP JUMPDEST PUSH1 0x0 DUP5 DUP5 ADD MSTORE POP POP POP POP JUMP JUMPDEST PUSH1 0x0 PUSH1 0x1F NOT PUSH1 0x1F DUP4 ADD AND SWAP1 POP SWAP2 SWAP1 POP JUMP JUMPDEST PUSH1 0x0 PUSH2 0x1581 DUP3 PUSH2 0x151F JUMP JUMPDEST PUSH2 0x158B DUP2 DUP6 PUSH2 0x152A JUMP JUMPDEST SWAP4 POP PUSH2 0x159B DUP2 DUP6 PUSH1 0x20 DUP7 ADD PUSH2 0x153B JUMP JUMPDEST PUSH2 0x15A4 DUP2 PUSH2 0x1565 JUMP JUMPDEST DUP5 ADD SWAP2 POP POP SWAP3 SWAP2 POP POP JUMP JUMPDEST PUSH1 0x0 PUSH1 0x20 DUP3 ADD SWAP1 POP DUP2 DUP2 SUB PUSH1 0x0 DUP4 ADD MSTORE PUSH2 0x15C9 DUP2 DUP5 PUSH2 0x1576 JUMP JUMPDEST SWAP1 POP SWAP3 SWAP2 POP POP JUMP JUMPDEST PUSH1 0x0 DUP2 SWAP1 POP SWAP2 SWAP1 POP JUMP JUMPDEST PUSH2 0x15E4 DUP2 PUSH2 0x15D1 JUMP JUMPDEST DUP2 EQ PUSH2 0x15EF JUMPI PUSH1 0x0 DUP1 REVERT JUMPDEST POP JUMP JUMPDEST PUSH1 0x0 DUP2 CALLDATALOAD SWAP1 POP PUSH2 0x1601 DUP2 PUSH2 0x15DB JUMP JUMPDEST SWAP3 SWAP2 POP POP JUMP JUMPDEST PUSH1 0x0 PUSH1 0x20 DUP3 DUP5 SUB SLT ISZERO PUSH2 0x161D JUMPI PUSH2 0x161C PUSH2 0x145A JUMP JUMPDEST JUMPDEST PUSH1 0x0 PUSH2 0x162B DUP5 DUP3 DUP6 ADD PUSH2 0x15F2 JUMP JUMPDEST SWAP2 POP POP SWAP3 SWAP2 POP POP JUMP JUMPDEST PUSH1 0x0 PUSH20 0xFFFFFFFFFFFFFFFFFFFFFFFFFFFFFFFFFFFFFFFF DUP3 AND SWAP1 POP SWAP2 SWAP1 POP JUMP JUMPDEST PUSH1 0x0 PUSH2 0x165F DUP3 PUSH2 0x1634 JUMP JUMPDEST SWAP1 POP SWAP2 SWAP1 POP JUMP JUMPDEST PUSH2 0x166F DUP2 PUSH2 0x1654 JUMP JUMPDEST DUP3 MSTORE POP POP JUMP JUMPDEST PUSH1 0x0 PUSH1 0x20 DUP3 ADD SWAP1 POP PUSH2 0x168A PUSH1 0x0 DUP4 ADD DUP5 PUSH2 0x1666 JUMP JUMPDEST SWAP3 SWAP2 POP POP JUMP JUMPDEST PUSH2 0x1699 DUP2 PUSH2 0x1654 JUMP JUMPDEST DUP2 EQ PUSH2 0x16A4 JUMPI PUSH1 0x0 DUP1 REVERT JUMPDEST POP JUMP JUMPDEST PUSH1 0x0 DUP2 CALLDATALOAD SWAP1 POP PUSH2 0x16B6 DUP2 PUSH2 0x1690 JUMP JUMPDEST SWAP3 SWAP2 POP POP JUMP JUMPDEST PUSH1 0x0 DUP1 PUSH1 0x40 DUP4 DUP6 SUB SLT ISZERO PUSH2 0x16D3 JUMPI PUSH2 0x16D2 PUSH2 0x145A JUMP JUMPDEST JUMPDEST PUSH1 0x0 PUSH2 0x16E1 DUP6 DUP3 DUP7 ADD PUSH2 0x16A7 JUMP JUMPDEST SWAP3 POP POP PUSH1 0x20 PUSH2 0x16F2 DUP6 DUP3 DUP7 ADD PUSH2 0x15F2 JUMP JUMPDEST SWAP2 POP POP SWAP3 POP SWAP3 SWAP1 POP JUMP JUMPDEST PUSH1 0x0 DUP1 PUSH1 0x0 PUSH1 0x60 DUP5 DUP7 SUB SLT ISZERO PUSH2 0x1715 JUMPI PUSH2 0x1714 PUSH2 0x145A JUMP JUMPDEST JUMPDEST PUSH1 0x0 PUSH2 0x1723 DUP7 DUP3 DUP8 ADD PUSH2 0x16A7 JUMP JUMPDEST SWAP4 POP POP PUSH1 0x20 PUSH2 0x1734 DUP7 DUP3 DUP8 ADD PUSH2 0x16A7 JUMP JUMPDEST SWAP3 POP POP PUSH1 0x40 PUSH2 0x1745 DUP7 DUP3 DUP8 ADD PUSH2 0x15F2 JUMP JUMPDEST SWAP2 POP POP SWAP3 POP SWAP3 POP SWAP3 JUMP JUMPDEST PUSH1 0x0 PUSH1 0x20 DUP3 DUP5 SUB SLT ISZERO PUSH2 0x1765 JUMPI PUSH2 0x1764 PUSH2 0x145A JUMP JUMPDEST JUMPDEST PUSH1 0x0 PUSH2 0x1773 DUP5 DUP3 DUP6 ADD PUSH2 0x16A7 JUMP JUMPDEST SWAP2 POP POP SWAP3 SWAP2 POP POP JUMP JUMPDEST PUSH2 0x1785 DUP2 PUSH2 0x15D1 JUMP JUMPDEST DUP3 MSTORE POP POP JUMP JUMPDEST PUSH1 0x0 PUSH1 0x20 DUP3 ADD SWAP1 POP PUSH2 0x17A0 PUSH1 0x0 DUP4 ADD DUP5 PUSH2 0x177C JUMP JUMPDEST SWAP3 SWAP2 POP POP JUMP JUMPDEST PUSH2 0x17AF DUP2 PUSH2 0x14E9 JUMP JUMPDEST DUP2 EQ PUSH2 0x17BA JUMPI PUSH1 0x0 DUP1 REVERT JUMPDEST POP JUMP JUMPDEST PUSH1 0x0 DUP2 CALLDATALOAD SWAP1 POP PUSH2 0x17CC DUP2 PUSH2 0x17A6 JUMP JUMPDEST SWAP3 SWAP2 POP POP JUMP JUMPDEST PUSH1 0x0 DUP1 PUSH1 0x40 DUP4 DUP6 SUB SLT ISZERO PUSH2 0x17E9 JUMPI PUSH2 0x17E8 PUSH2 0x145A JUMP JUMPDEST JUMPDEST PUSH1 0x0 PUSH2 0x17F7 DUP6 DUP3 DUP7 ADD PUSH2 0x16A7 JUMP JUMPDEST SWAP3 POP POP PUSH1 0x20 PUSH2 0x1808 DUP6 DUP3 DUP7 ADD PUSH2 0x17BD JUMP JUMPDEST SWAP2 POP POP SWAP3 POP SWAP3 SWAP1 POP JUMP JUMPDEST PUSH1 0x0 DUP1 REVERT JUMPDEST PUSH1 0x0 DUP1 REVERT JUMPDEST PUSH32 0x4E487B7100000000000000000000000000000000000000000000000000000000 PUSH1 0x0 MSTORE PUSH1 0x41 PUSH1 0x4 MSTORE PUSH1 0x24 PUSH1 0x0 REVERT JUMPDEST PUSH2 0x1854 DUP3 PUSH2 0x1565 JUMP JUMPDEST DUP2 ADD DUP2 DUP2 LT PUSH8 0xFFFFFFFFFFFFFFFF DUP3 GT OR ISZERO PUSH2 0x1873 JUMPI PUSH2 0x1872 PUSH2 0x181C JUMP JUMPDEST JUMPDEST DUP1 PUSH1 0x40 MSTORE POP POP POP JUMP JUMPDEST PUSH1 0x0 PUSH2 0x1886 PUSH2 0x1450 JUMP JUMPDEST SWAP1 POP PUSH2 0x1892 DUP3 DUP3 PUSH2 0x184B JUMP JUMPDEST SWAP2 SWAP1 POP JUMP JUMPDEST PUSH1 0x0 PUSH8 0xFFFFFFFFFFFFFFFF DUP3 GT ISZERO PUSH2 0x18B2 JUMPI PUSH2 0x18B1 PUSH2 0x181C JUMP JUMPDEST JUMPDEST PUSH2 0x18BB DUP3 PUSH2 0x1565 JUMP JUMPDEST SWAP1 POP PUSH1 0x20 DUP2 ADD SWAP1 POP SWAP2 SWAP1 POP JUMP JUMPDEST DUP3 DUP2 DUP4 CALLDATACOPY PUSH1 0x0 DUP4 DUP4 ADD MSTORE POP POP POP JUMP JUMPDEST PUSH1 0x0 PUSH2 0x18EA PUSH2 0x18E5 DUP5 PUSH2 0x1897 JUMP JUMPDEST PUSH2 0x187C JUMP JUMPDEST SWAP1 POP DUP3 DUP2 MSTORE PUSH1 0x20 DUP2 ADD DUP5 DUP5 DUP5 ADD GT ISZERO PUSH2 0x1906 JUMPI PUSH2 0x1905 PUSH2 0x1817 JUMP JUMPDEST JUMPDEST PUSH2 0x1911 DUP5 DUP3 DUP6 PUSH2 0x18C8 JUMP JUMPDEST POP SWAP4 SWAP3 POP POP POP JUMP JUMPDEST PUSH1 0x0 DUP3 PUSH1 0x1F DUP4 ADD SLT PUSH2 0x192E JUMPI PUSH2 0x192D PUSH2 0x1812 JUMP JUMPDEST JUMPDEST DUP2 CALLDATALOAD PUSH2 0x193E DUP5 DUP3 PUSH1 0x20 DUP7 ADD PUSH2 0x18D7 JUMP JUMPDEST SWAP2 POP POP SWAP3 SWAP2 POP POP JUMP JUMPDEST PUSH1 0x0 DUP1 PUSH1 0x0 DUP1 PUSH1 0x80 DUP6 DUP8 SUB SLT ISZERO PUSH2 0x1961 JUMPI PUSH2 0x1960 PUSH2 0x145A JUMP JUMPDEST JUMPDEST PUSH1 0x0 PUSH2 0x196F DUP8 DUP3 DUP9 ADD PUSH2 0x16A7 JUMP JUMPDEST SWAP5 POP POP PUSH1 0x20 PUSH2 0x1980 DUP8 DUP3 DUP9 ADD PUSH2 0x16A7 JUMP JUMPDEST SWAP4 POP POP PUSH1 0x40 PUSH2 0x1991 DUP8 DUP3 DUP9 ADD PUSH2 0x15F2 JUMP JUMPDEST SWAP3 POP POP PUSH1 0x60 DUP6 ADD CALLDATALOAD PUSH8 0xFFFFFFFFFFFFFFFF DUP2 GT ISZERO PUSH2 0x19B2 JUMPI PUSH2 0x19B1 PUSH2 0x145F JUMP JUMPDEST JUMPDEST PUSH2 0x19BE DUP8 DUP3 DUP9 ADD PUSH2 0x1919 JUMP JUMPDEST SWAP2 POP POP SWAP3 SWAP6 SWAP2 SWAP5 POP SWAP3 POP JUMP JUMPDEST PUSH1 0x0 DUP1 PUSH1 0x40 DUP4 DUP6 SUB SLT ISZERO PUSH2 0x19E1 JUMPI PUSH2 0x19E0 PUSH2 0x145A JUMP JUMPDEST JUMPDEST PUSH1 0x0 PUSH2 0x19EF DUP6 DUP3 DUP7 ADD PUSH2 0x16A7 JUMP JUMPDEST SWAP3 POP POP PUSH1 0x20 PUSH2 0x1A00 DUP6 DUP3 DUP7 ADD PUSH2 0x16A7 JUMP JUMPDEST SWAP2 POP POP SWAP3 POP SWAP3 SWAP1 POP JUMP JUMPDEST PUSH32 0x4E487B7100000000000000000000000000000000000000000000000000000000 PUSH1 0x0 MSTORE PUSH1 0x22 PUSH1 0x4 MSTORE PUSH1 0x24 PUSH1 0x0 REVERT JUMPDEST PUSH1 0x0 PUSH1 0x2 DUP3 DIV SWAP1 POP PUSH1 0x1 DUP3 AND DUP1 PUSH2 0x1A51 JUMPI PUSH1 0x7F DUP3 AND SWAP2 POP JUMPDEST PUSH1 0x20 DUP3 LT DUP2 SUB PUSH2 0x1A64 JUMPI PUSH2 0x1A63 PUSH2 0x1A0A JUMP JUMPDEST JUMPDEST POP SWAP2 SWAP1 POP JUMP JUMPDEST PUSH32 0x4552433732313A20617070726F76616C20746F2063757272656E74206F776E65 PUSH1 0x0 DUP3 ADD MSTORE PUSH32 0x7200000000000000000000000000000000000000000000000000000000000000 PUSH1 0x20 DUP3 ADD MSTORE POP JUMP JUMPDEST PUSH1 0x0 PUSH2 0x1AC6 PUSH1 0x21 DUP4 PUSH2 0x152A JUMP JUMPDEST SWAP2 POP PUSH2 0x1AD1 DUP3 PUSH2 0x1A6A JUMP JUMPDEST PUSH1 0x40 DUP3 ADD SWAP1 POP SWAP2 SWAP1 POP JUMP JUMPDEST PUSH1 0x0 PUSH1 0x20 DUP3 ADD SWAP1 POP DUP2 DUP2 SUB PUSH1 0x0 DUP4 ADD MSTORE PUSH2 0x1AF5 DUP2 PUSH2 0x1AB9 JUMP JUMPDEST SWAP1 POP SWAP2 SWAP1 POP JUMP JUMPDEST PUSH32 0x4552433732313A20617070726F76652063616C6C6572206973206E6F7420746F PUSH1 0x0 DUP3 ADD MSTORE PUSH32 0x6B656E206F776E6572206F7220617070726F76656420666F7220616C6C000000 PUSH1 0x20 DUP3 ADD MSTORE POP JUMP JUMPDEST PUSH1 0x0 PUSH2 0x1B58 PUSH1 0x3D DUP4 PUSH2 0x152A JUMP JUMPDEST SWAP2 POP PUSH2 0x1B63 DUP3 PUSH2 0x1AFC JUMP JUMPDEST PUSH1 0x40 DUP3 ADD SWAP1 POP SWAP2 SWAP1 POP JUMP JUMPDEST PUSH1 0x0 PUSH1 0x20 DUP3 ADD SWAP1 POP DUP2 DUP2 SUB PUSH1 0x0 DUP4 ADD MSTORE PUSH2 0x1B87 DUP2 PUSH2 0x1B4B JUMP JUMPDEST SWAP1 POP SWAP2 SWAP1 POP JUMP JUMPDEST PUSH32 0x4552433732313A2063616C6C6572206973206E6F7420746F6B656E206F776E65 PUSH1 0x0 DUP3 ADD MSTORE PUSH32 0x72206F7220617070726F76656400000000000000000000000000000000000000 PUSH1 0x20 DUP3 ADD MSTORE POP JUMP JUMPDEST PUSH1 0x0 PUSH2 0x1BEA PUSH1 0x2D DUP4 PUSH2 0x152A JUMP JUMPDEST SWAP2 POP PUSH2 0x1BF5 DUP3 PUSH2 0x1B8E JUMP JUMPDEST PUSH1 0x40 DUP3 ADD SWAP1 POP SWAP2 SWAP1 POP JUMP JUMPDEST PUSH1 0x0 PUSH1 0x20 DUP3 ADD SWAP1 POP DUP2 DUP2 SUB PUSH1 0x0 DUP4 ADD MSTORE PUSH2 0x1C19 DUP2 PUSH2 0x1BDD JUMP JUMPDEST SWAP1 POP SWAP2 SWAP1 POP JUMP JUMPDEST PUSH32 0x4552433732313A207472616E736665722066726F6D20696E636F727265637420 PUSH1 0x0 DUP3 ADD MSTORE PUSH32 0x6F776E6572000000000000000000000000000000000000000000000000000000 PUSH1 0x20 DUP3 ADD MSTORE POP JUMP JUMPDEST PUSH1 0x0 PUSH2 0x1C7C PUSH1 0x25 DUP4 PUSH2 0x152A JUMP JUMPDEST SWAP2 POP PUSH2 0x1C87 DUP3 PUSH2 0x1C20 JUMP JUMPDEST PUSH1 0x40 DUP3 ADD SWAP1 POP SWAP2 SWAP1 POP JUMP JUMPDEST PUSH1 0x0 PUSH1 0x20 DUP3 ADD SWAP1 POP DUP2 DUP2 SUB PUSH1 0x0 DUP4 ADD MSTORE PUSH2 0x1CAB DUP2 PUSH2 0x1C6F JUMP JUMPDEST SWAP1 POP SWAP2 SWAP1 POP JUMP JUMPDEST PUSH32 0x4552433732313A20696E76616C696420746F6B656E2049440000000000000000 PUSH1 0x0 DUP3 ADD MSTORE POP JUMP JUMPDEST PUSH1 0x0 PUSH2 0x1CE8 PUSH1 0x18 DUP4 PUSH2 0x152A JUMP JUMPDEST SWAP2 POP PUSH2 0x1CF3 DUP3 PUSH2 0x1CB2 JUMP JUMPDEST PUSH1 0x20 DUP3 ADD SWAP1 POP SWAP2 SWAP1 POP JUMP JUMPDEST PUSH1 0x0 PUSH1 0x20 DUP3 ADD SWAP1 POP DUP2 DUP2 SUB PUSH1 0x0 DUP4 ADD MSTORE PUSH2 0x1D17 DUP2 PUSH2 0x1CDB JUMP JUMPDEST SWAP1 POP SWAP2 SWAP1 POP JUMP JUMPDEST PUSH32 0x4552433732313A2061646472657373207A65726F206973206E6F742061207661 PUSH1 0x0 DUP3 ADD MSTORE PUSH32 0x6C6964206F776E65720000000000000000000000000000000000000000000000 PUSH1 0x20 DUP3 ADD MSTORE POP JUMP JUMPDEST PUSH1 0x0 PUSH2 0x1D7A PUSH1 0x29 DUP4 PUSH2 0x152A JUMP JUMPDEST SWAP2 POP PUSH2 0x1D85 DUP3 PUSH2 0x1D1E JUMP JUMPDEST PUSH1 0x40 DUP3 ADD SWAP1 POP SWAP2 SWAP1 POP JUMP JUMPDEST PUSH1 0x0 PUSH1 0x20 DUP3 ADD SWAP1 POP DUP2 DUP2 SUB PUSH1 0x0 DUP4 ADD MSTORE PUSH2 0x1DA9 DUP2 PUSH2 0x1D6D JUMP JUMPDEST SWAP1 POP SWAP2 SWAP1 POP JUMP JUMPDEST PUSH1 0x0 DUP2 SWAP1 POP SWAP3 SWAP2 POP POP JUMP JUMPDEST PUSH1 0x0 PUSH2 0x1DC6 DUP3 PUSH2 0x151F JUMP JUMPDEST PUSH2 0x1DD0 DUP2 DUP6 PUSH2 0x1DB0 JUMP JUMPDEST SWAP4 POP PUSH2 0x1DE0 DUP2 DUP6 PUSH1 0x20 DUP7 ADD PUSH2 0x153B JUMP JUMPDEST DUP1 DUP5 ADD SWAP2 POP POP SWAP3 SWAP2 POP POP JUMP JUMPDEST PUSH1 0x0 PUSH2 0x1DF8 DUP3 DUP6 PUSH2 0x1DBB JUMP JUMPDEST SWAP2 POP PUSH2 0x1E04 DUP3 DUP5 PUSH2 0x1DBB JUMP JUMPDEST SWAP2 POP DUP2 SWAP1 POP SWAP4 SWAP3 POP POP POP JUMP JUMPDEST PUSH32 0x4552433732313A20617070726F766520746F2063616C6C657200000000000000 PUSH1 0x0 DUP3 ADD MSTORE POP JUMP JUMPDEST PUSH1 0x0 PUSH2 0x1E46 PUSH1 0x19 DUP4 PUSH2 0x152A JUMP JUMPDEST SWAP2 POP PUSH2 0x1E51 DUP3 PUSH2 0x1E10 JUMP JUMPDEST PUSH1 0x20 DUP3 ADD SWAP1 POP SWAP2 SWAP1 POP JUMP JUMPDEST PUSH1 0x0 PUSH1 0x20 DUP3 ADD SWAP1 POP DUP2 DUP2 SUB PUSH1 0x0 DUP4 ADD MSTORE PUSH2 0x1E75 DUP2 PUSH2 0x1E39 JUMP JUMPDEST SWAP1 POP SWAP2 SWAP1 POP JUMP JUMPDEST PUSH32 0x4552433732313A207472616E7366657220746F206E6F6E204552433732315265 PUSH1 0x0 DUP3 ADD MSTORE PUSH32 0x63656976657220696D706C656D656E7465720000000000000000000000000000 PUSH1 0x20 DUP3 ADD MSTORE POP JUMP JUMPDEST PUSH1 0x0 PUSH2 0x1ED8 PUSH1 0x32 DUP4 PUSH2 0x152A JUMP JUMPDEST SWAP2 POP PUSH2 0x1EE3 DUP3 PUSH2 0x1E7C JUMP JUMPDEST PUSH1 0x40 DUP3 ADD SWAP1 POP SWAP2 SWAP1 POP JUMP JUMPDEST PUSH1 0x0 PUSH1 0x20 DUP3 ADD SWAP1 POP DUP2 DUP2 SUB PUSH1 0x0 DUP4 ADD MSTORE PUSH2 0x1F07 DUP2 PUSH2 0x1ECB JUMP JUMPDEST SWAP1 POP SWAP2 SWAP1 POP JUMP JUMPDEST PUSH32 0x4E487B7100000000000000000000000000000000000000000000000000000000 PUSH1 0x0 MSTORE PUSH1 0x12 PUSH1 0x4 MSTORE PUSH1 0x24 PUSH1 0x0 REVERT JUMPDEST PUSH1 0x0 DUP2 MLOAD SWAP1 POP SWAP2 SWAP1 POP JUMP JUMPDEST PUSH1 0x0 DUP3 DUP3 MSTORE PUSH1 0x20 DUP3 ADD SWAP1 POP SWAP3 SWAP2 POP POP JUMP JUMPDEST PUSH1 0x0 PUSH2 0x1F64 DUP3 PUSH2 0x1F3D JUMP JUMPDEST PUSH2 0x1F6E DUP2 DUP6 PUSH2 0x1F48 JUMP JUMPDEST SWAP4 POP PUSH2 0x1F7E DUP2 DUP6 PUSH1 0x20 DUP7 ADD PUSH2 0x153B JUMP JUMPDEST PUSH2 0x1F87 DUP2 PUSH2 0x1565 JUMP JUMPDEST DUP5 ADD SWAP2 POP POP SWAP3 SWAP2 POP POP JUMP JUMPDEST PUSH1 0x0 PUSH1 0x80 DUP3 ADD SWAP1 POP PUSH2 0x1FA7 PUSH1 0x0 DUP4 ADD DUP8 PUSH2 0x1666 JUMP JUMPDEST PUSH2 0x1FB4 PUSH1 0x20 DUP4 ADD DUP7 PUSH2 0x1666 JUMP JUMPDEST PUSH2 0x1FC1 PUSH1 0x40 DUP4 ADD DUP6 PUSH2 0x177C JUMP JUMPDEST DUP2 DUP2 SUB PUSH1 0x60 DUP4 ADD MSTORE PUSH2 0x1FD3 DUP2 DUP5 PUSH2 0x1F59 JUMP JUMPDEST SWAP1 POP SWAP6 SWAP5 POP POP POP POP POP JUMP JUMPDEST PUSH1 0x0 DUP2 MLOAD SWAP1 POP PUSH2 0x1FED DUP2 PUSH2 0x1490 JUMP JUMPDEST SWAP3 SWAP2 POP POP JUMP JUMPDEST PUSH1 0x0 PUSH1 0x20 DUP3 DUP5 SUB SLT ISZERO PUSH2 0x2009 JUMPI PUSH2 0x2008 PUSH2 0x145A JUMP JUMPDEST JUMPDEST PUSH1 0x0 PUSH2 0x2017 DUP5 DUP3 DUP6 ADD PUSH2 0x1FDE JUMP JUMPDEST SWAP2 POP POP SWAP3 SWAP2 POP POP JUMP INVALID LOG2 PUSH5 0x6970667358 0x22 SLT KECCAK256 JUMPDEST DELEGATECALL DUP15 0xBD 0xD1 0xD2 0xAF STATICCALL 0xD1 CALLDATALOAD SLT PUSH7 0xB5340E4E907E5D 0xEF ADDRESS TIMESTAMP SWAP3 0xF9 JUMP ORIGIN DUP13 EXTCODECOPY STOP 0xF6 PUSH15 0x5764736F6C63430008150033000000 "
				},
				"gasEstimates": {
					"creation": {
						"codeDepositCost": "1655600",
						"executionCost": "infinite",
						"totalCost": "infinite"
					},
					"external": {
						"_transfer(address,address,uint256)": "infinite",
						"approve(address,uint256)": "infinite",
						"balanceOf(address)": "2921",
						"getApproved(uint256)": "5300",
						"isApprovedForAll(address,address)": "infinite",
						"name()": "infinite",
						"ownerOf(uint256)": "3022",
						"safeTransferFrom(address,address,uint256)": "infinite",
						"safeTransferFrom(address,address,uint256,bytes)": "infinite",
						"setApprovalForAll(address,bool)": "infinite",
						"supportsInterface(bytes4)": "797",
						"symbol()": "infinite",
						"tokenURI(uint256)": "3459",
						"transferFrom(address,address,uint256)": "infinite"
					},
					"internal": {
						"__unsafe_increaseBalance(address,uint256)": "infinite",
						"_afterTokenTransfer(address,address,uint256,uint256)": "17",
						"_approve(address,uint256)": "infinite",
						"_baseURI()": "infinite",
						"_beforeTokenTransfer(address,address,uint256,uint256)": "17",
						"_burn(uint256)": "infinite",
						"_checkOnERC721Received(address,address,uint256,bytes memory)": "infinite",
						"_exists(uint256)": "2312",
						"_isApprovedOrOwner(address,uint256)": "infinite",
						"_mint(address,uint256)": "infinite",
						"_ownerOf(uint256)": "2248",
						"_requireMinted(uint256)": "infinite",
						"_safeMint(address,uint256)": "infinite",
						"_safeMint(address,uint256,bytes memory)": "infinite",
						"_safeTransfer(address,address,uint256,bytes memory)": "infinite",
						"_setApprovalForAll(address,address,bool)": "infinite"
					}
				},
				"methodIdentifiers": {
					"_transfer(address,address,uint256)": "30e0789e",
					"approve(address,uint256)": "095ea7b3",
					"balanceOf(address)": "70a08231",
					"getApproved(uint256)": "081812fc",
					"isApprovedForAll(address,address)": "e985e9c5",
					"name()": "06fdde03",
					"ownerOf(uint256)": "6352211e",
					"safeTransferFrom(address,address,uint256)": "42842e0e",
					"safeTransferFrom(address,address,uint256,bytes)": "b88d4fde",
					"setApprovalForAll(address,bool)": "a22cb465",
					"supportsInterface(bytes4)": "01ffc9a7",
					"symbol()": "95d89b41",
					"tokenURI(uint256)": "c87b56dd",
					"transferFrom(address,address,uint256)": "23b872dd"
				}
			},
			"storageLayout": {
				"storage": [
					{
						"astId": 25,
						"contract": ".deps/npm/@openzeppelin/contracts/token/ERC721/ERC721.sol:ERC721",
						"label": "_name",
						"offset": 0,
						"slot": "0",
						"type": "t_string_storage"
					},
					{
						"astId": 27,
						"contract": ".deps/npm/@openzeppelin/contracts/token/ERC721/ERC721.sol:ERC721",
						"label": "_symbol",
						"offset": 0,
						"slot": "1",
						"type": "t_string_storage"
					},
					{
						"astId": 31,
						"contract": ".deps/npm/@openzeppelin/contracts/token/ERC721/ERC721.sol:ERC721",
						"label": "_owners",
						"offset": 0,
						"slot": "2",
						"type": "t_mapping(t_uint256,t_address)"
					},
					{
						"astId": 35,
						"contract": ".deps/npm/@openzeppelin/contracts/token/ERC721/ERC721.sol:ERC721",
						"label": "_balances",
						"offset": 0,
						"slot": "3",
						"type": "t_mapping(t_address,t_uint256)"
					},
					{
						"astId": 39,
						"contract": ".deps/npm/@openzeppelin/contracts/token/ERC721/ERC721.sol:ERC721",
						"label": "_tokenApprovals",
						"offset": 0,
						"slot": "4",
						"type": "t_mapping(t_uint256,t_address)"
					},
					{
						"astId": 45,
						"contract": ".deps/npm/@openzeppelin/contracts/token/ERC721/ERC721.sol:ERC721",
						"label": "_operatorApprovals",
						"offset": 0,
						"slot": "5",
						"type": "t_mapping(t_address,t_mapping(t_address,t_bool))"
					}
				],
				"types": {
					"t_address": {
						"encoding": "inplace",
						"label": "address",
						"numberOfBytes": "20"
					},
					"t_bool": {
						"encoding": "inplace",
						"label": "bool",
						"numberOfBytes": "1"
					},
					"t_mapping(t_address,t_bool)": {
						"encoding": "mapping",
						"key": "t_address",
						"label": "mapping(address => bool)",
						"numberOfBytes": "32",
						"value": "t_bool"
					},
					"t_mapping(t_address,t_mapping(t_address,t_bool))": {
						"encoding": "mapping",
						"key": "t_address",
						"label": "mapping(address => mapping(address => bool))",
						"numberOfBytes": "32",
						"value": "t_mapping(t_address,t_bool)"
					},
					"t_mapping(t_address,t_uint256)": {
						"encoding": "mapping",
						"key": "t_address",
						"label": "mapping(address => uint256)",
						"numberOfBytes": "32",
						"value": "t_uint256"
					},
					"t_mapping(t_uint256,t_address)": {
						"encoding": "mapping",
						"key": "t_uint256",
						"label": "mapping(uint256 => address)",
						"numberOfBytes": "32",
						"value": "t_address"
					},
					"t_string_storage": {
						"encoding": "bytes",
						"label": "string",
						"numberOfBytes": "32"
					},
					"t_uint256": {
						"encoding": "inplace",
						"label": "uint256",
						"numberOfBytes": "32"
					}
				}
			},
			"userdoc": {
				"kind": "user",
				"methods": {},
				"version": 1
			}
		}
	}
}